{
  "address": "0xa526888cc88EF9BD376c0253faB27A40b868e3D8",
  "abi": [
    {
      "inputs": [
        {
          "internalType": "address",
          "name": "_tornContract",
          "type": "address"
        },
        {
          "internalType": "address",
          "name": "_tornGovernanceStaking",
          "type": "address"
        },
        {
          "internalType": "address",
          "name": "_tornRelayerRegistry",
          "type": "address"
        },
        {
          "internalType": "address",
          "name": "_root_manager",
          "type": "address"
        }
      ],
      "stateMutability": "nonpayable",
      "type": "constructor"
    },
    {
      "anonymous": false,
      "inputs": [
        {
          "indexed": false,
          "internalType": "uint8",
          "name": "version",
          "type": "uint8"
        }
      ],
      "name": "Initialized",
      "type": "event"
    },
    {
      "anonymous": false,
      "inputs": [
        {
          "indexed": false,
          "internalType": "uint256",
          "name": "_amount",
          "type": "uint256"
        }
      ],
      "name": "lock_to_gov",
      "type": "event"
    },
    {
      "inputs": [],
      "name": "EXIT_QUEUE",
      "outputs": [
        {
          "internalType": "address",
          "name": "",
          "type": "address"
        }
      ],
      "stateMutability": "view",
      "type": "function"
    },
    {
      "inputs": [],
      "name": "IN_SUFFICIENT",
      "outputs": [
        {
          "internalType": "uint256",
          "name": "",
          "type": "uint256"
        }
      ],
      "stateMutability": "view",
      "type": "function"
    },
    {
      "inputs": [],
      "name": "ROOT_MANAGER",
      "outputs": [
        {
          "internalType": "address",
          "name": "",
          "type": "address"
        }
      ],
      "stateMutability": "view",
      "type": "function"
    },
    {
      "inputs": [],
      "name": "SUFFICIENT",
      "outputs": [
        {
          "internalType": "uint256",
          "name": "",
          "type": "uint256"
        }
      ],
      "stateMutability": "view",
      "type": "function"
    },
    {
      "inputs": [],
      "name": "TORN_CONTRACT",
      "outputs": [
        {
          "internalType": "address",
          "name": "",
          "type": "address"
        }
      ],
      "stateMutability": "view",
      "type": "function"
    },
    {
      "inputs": [],
      "name": "TORN_GOVERNANCE_STAKING",
      "outputs": [
        {
          "internalType": "address",
          "name": "",
          "type": "address"
        }
      ],
      "stateMutability": "view",
      "type": "function"
    },
    {
      "inputs": [],
      "name": "TORN_RELAYER_REGISTRY",
      "outputs": [
        {
          "internalType": "address",
          "name": "",
          "type": "address"
        }
      ],
      "stateMutability": "view",
      "type": "function"
    },
    {
      "inputs": [],
      "name": "__Deposit_init",
      "outputs": [],
      "stateMutability": "nonpayable",
      "type": "function"
    },
    {
      "inputs": [],
      "name": "balanceOfStakingOnGov",
      "outputs": [
        {
          "internalType": "uint256",
          "name": "t",
          "type": "uint256"
        }
      ],
      "stateMutability": "view",
      "type": "function"
    },
    {
      "inputs": [],
      "name": "checkRewardOnGov",
      "outputs": [
        {
          "internalType": "uint256",
          "name": "",
          "type": "uint256"
        }
      ],
      "stateMutability": "view",
      "type": "function"
    },
    {
      "inputs": [
        {
          "internalType": "uint256",
          "name": "_amount",
          "type": "uint256"
        },
        {
          "internalType": "uint256",
          "name": "deadline",
          "type": "uint256"
        },
        {
          "internalType": "uint8",
          "name": "v",
          "type": "uint8"
        },
        {
          "internalType": "bytes32",
          "name": "r",
          "type": "bytes32"
        },
        {
          "internalType": "bytes32",
          "name": "s",
          "type": "bytes32"
        }
      ],
      "name": "deposit",
      "outputs": [],
      "stateMutability": "nonpayable",
      "type": "function"
    },
    {
      "inputs": [
        {
          "internalType": "uint256",
          "name": "_amount",
          "type": "uint256"
        }
      ],
      "name": "depositWithApproval",
      "outputs": [],
      "stateMutability": "nonpayable",
      "type": "function"
    },
    {
      "inputs": [
        {
          "internalType": "uint256",
          "name": "_amount_token",
          "type": "uint256"
        }
      ],
      "name": "getValueShouldUnlock",
      "outputs": [
        {
          "internalType": "uint256",
          "name": "shortage",
          "type": "uint256"
        },
        {
          "internalType": "uint256",
          "name": "torn",
          "type": "uint256"
        }
      ],
      "stateMutability": "view",
      "type": "function"
    },
    {
      "inputs": [],
      "name": "getValueShouldUnlockFromGov",
      "outputs": [
        {
          "internalType": "uint256",
          "name": "",
          "type": "uint256"
        }
      ],
      "stateMutability": "view",
      "type": "function"
    },
    {
      "inputs": [],
      "name": "isNeedClaimFromGov",
      "outputs": [
        {
          "internalType": "bool",
          "name": "",
          "type": "bool"
        }
      ],
      "stateMutability": "view",
      "type": "function"
    },
    {
      "inputs": [],
      "name": "isNeedTransfer2Queue",
      "outputs": [
        {
          "internalType": "bool",
          "name": "",
          "type": "bool"
        }
      ],
      "stateMutability": "view",
      "type": "function"
    },
    {
      "inputs": [],
      "name": "maxReserveTorn",
      "outputs": [
        {
          "internalType": "uint256",
          "name": "",
          "type": "uint256"
        }
      ],
      "stateMutability": "view",
      "type": "function"
    },
    {
      "inputs": [],
      "name": "maxRewardInGov",
      "outputs": [
        {
          "internalType": "uint256",
          "name": "",
          "type": "uint256"
        }
      ],
      "stateMutability": "view",
      "type": "function"
    },
    {
      "inputs": [
        {
          "internalType": "uint256",
          "name": "_amount",
          "type": "uint256"
        },
        {
          "internalType": "uint256",
          "name": "_maxRewardInGov",
          "type": "uint256"
        }
      ],
      "name": "setMaxReservePara",
      "outputs": [],
      "stateMutability": "nonpayable",
      "type": "function"
    },
    {
      "inputs": [
        {
          "internalType": "uint256",
          "name": "_index",
          "type": "uint256"
        },
        {
          "internalType": "uint256",
          "name": "_amount",
          "type": "uint256"
        }
      ],
      "name": "stake2Node",
      "outputs": [],
      "stateMutability": "nonpayable",
      "type": "function"
    },
    {
      "inputs": [],
      "name": "totalBalanceOfTorn",
      "outputs": [
        {
          "internalType": "uint256",
          "name": "_t",
          "type": "uint256"
        }
      ],
      "stateMutability": "view",
      "type": "function"
    },
    {
      "inputs": [
        {
          "internalType": "uint256",
          "name": "_amount_token",
          "type": "uint256"
        }
      ],
      "name": "withDrawWithApproval",
      "outputs": [],
      "stateMutability": "nonpayable",
      "type": "function"
    },
    {
      "inputs": [
        {
          "internalType": "uint256",
          "name": "_amount_token",
          "type": "uint256"
        }
      ],
      "name": "withdraw_for_exit",
      "outputs": [
        {
          "internalType": "uint256",
          "name": "",
          "type": "uint256"
        }
      ],
      "stateMutability": "nonpayable",
      "type": "function"
    }
  ],
  "transactionHash": "0xaf83c3170a1b5cb8974f683db3b82fabf49c2730af5f4f7d32cc9a068d011cca",
  "args": [
    "0xb147FD8Ee78F146555F0df51494244221E386F48",
    "0x0481C9BE3df8607e1ec307ECC2bb819BCbeF3D30",
    "0x3Bc5aB6338279337289a8C8B9828C923a056b546",
    "0xca37fA8CaaB2D725068cB31A36232F0B682aE079"
  ],
  "numDeployments": 1,
  "solcInputHash": "29a3732671a7fc6ce56ad916d8ef0cef",
  "bytecode": "0x6101006040523480156200001257600080fd5b506040516200286c3803806200286c833981016040819052620000359162000075565b6001600160a01b0393841660805291831660a052821660c0521660e052620000d2565b80516001600160a01b03811681146200007057600080fd5b919050565b600080600080608085870312156200008c57600080fd5b620000978562000058565b9350620000a76020860162000058565b9250620000b76040860162000058565b9150620000c76060860162000058565b905092959194509250565b60805160a05160c05160e05161266462000208600039600081816101e60152818161049a0152818161060f015281816108c9015281816109cf01528181610b8801528181610d1901528181610e1a0152818161130f01528181611464015281816117e401526119a20152600081816102ac01528181610f130152610f5e0152600081816102d3015281816107b60152818161083d01528181610b07015281816111bf015281816113bd015281816115a70152818161192101528181611b4501528181611d3001528181611ef60152611f3101526000818161017e015281816103e3015281816106b401528181610c3501528181610ca301528181610ef10152818161106f0152818161111b0152818161127d01528181611a4f01528181611a9701528181611e370152611ed401526126646000f3fe608060405234801561001057600080fd5b506004361061014d5760003560e01c8063a9fda201116100c3578063c866880e1161007c578063c866880e146102ce578063ca80a43b146102f5578063d3e06b5e14610308578063e2e622cd1461031b578063f245e6a014610323578063fc4c0aec1461032c57600080fd5b8063a9fda20114610253578063adba6bb61461025b578063b2eacd4714610283578063b6f4e79a14610296578063b90a63fa1461029f578063b91476f2146102a757600080fd5b80635f61e3ec116101155780635f61e3ec146101e15780637a2308ea146102085780637e34dbe01461021b5780638576e0a61461022e5780639615d2ba14610237578063a0779c2f1461024057600080fd5b806322f97b5e146101525780632f5dcf031461016f57806331e81921146101795780633a542c28146101b857806351e48baf146101cb575b600080fd5b61015a610334565b60405190151581526020015b60405180910390f35b61017761046c565b005b6101a07f000000000000000000000000000000000000000000000000000000000000000081565b6040516001600160a01b039091168152602001610166565b6101776101c636600461239f565b610593565b6101d3610825565b604051908152602001610166565b6101a07f000000000000000000000000000000000000000000000000000000000000000081565b6101d361021636600461239f565b6108c5565b6101776102293660046123b8565b610c63565b6101d360001981565b6101d360345481565b61017761024e366004612407565b610d17565b6101d3610fbf565b61026e61026936600461239f565b611259565b60408051928352602083019190915201610166565b610177610291366004612407565b611462565b6101d360011981565b61015a6115a2565b6101a07f000000000000000000000000000000000000000000000000000000000000000081565b6101a07f000000000000000000000000000000000000000000000000000000000000000081565b61017761030336600461239f565b6116b9565b6033546101a0906001600160a01b031681565b6101d3611a7f565b6101d360355481565b6101d3611b41565b600080603360009054906101000a90046001600160a01b03166001600160a01b031663ccfb99356040518163ffffffff1660e01b815260040160206040518083038186803b15801561038557600080fd5b505afa158015610399573d6000803e3d6000fd5b505050506040513d601f19601f820116820180604052508101906103bd9190612429565b9050806103cc57600091505090565b6040516370a0823160e01b815230600482015281907f00000000000000000000000000000000000000000000000000000000000000006001600160a01b0316906370a082319060240160206040518083038186803b15801561042d57600080fd5b505afa158015610441573d6000803e3d6000fd5b505050506040513d601f19601f820116820180604052508101906104659190612429565b1191505090565b60006104786001611c02565b90508015610490576000805461ff0019166101001790555b610498611c8a565b7f00000000000000000000000000000000000000000000000000000000000000006001600160a01b031663ea9b717e6040518163ffffffff1660e01b815260040160206040518083038186803b1580156104f157600080fd5b505afa158015610505573d6000803e3d6000fd5b505050506040513d601f19601f820116820180604052508101906105299190612442565b603380546001600160a01b0319166001600160a01b03929092169190911790558015610590576000805461ff0019169055604051600181527f7f26b83ff96e1f2b6a682f133852f6798a09c465da95921460cefb3847402498906020015b60405180910390a15b50565b600260015414156105eb5760405162461bcd60e51b815260206004820152601f60248201527f5265656e7472616e637947756172643a207265656e7472616e742063616c6c0060448201526064015b60405180910390fd5b60026001556040516311f9fbc960e21b8152336004820181905260248201839052907f00000000000000000000000000000000000000000000000000000000000000006001600160a01b0316906347e7ef2490604401602060405180830381600087803b15801561065b57600080fd5b505af115801561066f573d6000803e3d6000fd5b505050506040513d601f19601f82011682018060405250810190610693919061246b565b6106af5760405162461bcd60e51b81526004016105e29061248d565b6106db7f0000000000000000000000000000000000000000000000000000000000000000823085611cbb565b6106e3610334565b1561075557603360009054906101000a90046001600160a01b03166001600160a01b031663a4ec69386040518163ffffffff1660e01b8152600401600060405180830381600087803b15801561073857600080fd5b505af115801561074c573d6000803e3d6000fd5b5050505061081c565b61075d6115a2565b1561076f5761076a611d2c565b61081c565b6000610779610fbf565b90508061078f57610788611e10565b505061081e565b6000198114156107a057505061081e565b604051636198e33960e01b8152600481018290527f00000000000000000000000000000000000000000000000000000000000000006001600160a01b031690636198e33990602401600060405180830381600087803b15801561080257600080fd5b505af1158015610816573d6000803e3d6000fd5b50505050505b505b5060018055565b604051639ae697bf60e01b81523060048201526000907f00000000000000000000000000000000000000000000000000000000000000006001600160a01b031690639ae697bf906024015b60206040518083038186803b15801561088857600080fd5b505afa15801561089c573d6000803e3d6000fd5b505050506040513d601f19601f820116820180604052508101906108c09190612429565b905090565b60007f00000000000000000000000000000000000000000000000000000000000000006001600160a01b031663ea9b717e6040518163ffffffff1660e01b815260040160206040518083038186803b15801561092057600080fd5b505afa158015610934573d6000803e3d6000fd5b505050506040513d601f19601f820116820180604052508101906109589190612442565b6001600160a01b0316336001600160a01b0316146109b85760405162461bcd60e51b815260206004820152601760248201527f43616c6c6572206973206e6f742065786974517565756500000000000000000060448201526064016105e2565b6040516370a0823160e01b815233600482015282907f00000000000000000000000000000000000000000000000000000000000000006001600160a01b0316906370a082319060240160206040518083038186803b158015610a1957600080fd5b505afa158015610a2d573d6000803e3d6000fd5b505050506040513d601f19601f82011682018060405250810190610a519190612429565b1015610a965760405162461bcd60e51b815260206004820152601460248201527318985b185b98d948125b9cdd59999a58da595b9d60621b60448201526064016105e2565b600080610aa284611259565b9092509050600019821415610ae85760405162461bcd60e51b815260206004820152600c60248201526b125b9cdd59999a58da595b9d60a21b60448201526064016105e2565b6001198214610b6c57604051636198e33960e01b8152600481018390527f00000000000000000000000000000000000000000000000000000000000000006001600160a01b031690636198e33990602401600060405180830381600087803b158015610b5357600080fd5b505af1158015610b67573d6000803e3d6000fd5b505050505b60405163f3fef3a360e01b8152336004820152602481018590527f00000000000000000000000000000000000000000000000000000000000000006001600160a01b03169063f3fef3a390604401602060405180830381600087803b158015610bd457600080fd5b505af1158015610be8573d6000803e3d6000fd5b505050506040513d601f19601f82011682018060405250810190610c0c919061246b565b610c285760405162461bcd60e51b81526004016105e29061248d565b610c5c6001600160a01b037f0000000000000000000000000000000000000000000000000000000000000000163383611fc6565b9392505050565b60405163d505accf60e01b8152336004820152306024820152604481018690526064810185905260ff8416608482015260a4810183905260c481018290527f00000000000000000000000000000000000000000000000000000000000000006001600160a01b03169063d505accf9060e401600060405180830381600087803b158015610cef57600080fd5b505af1158015610d03573d6000803e3d6000fd5b50505050610d1085610593565b5050505050565b7f00000000000000000000000000000000000000000000000000000000000000006001600160a01b031663570ca7356040518163ffffffff1660e01b815260040160206040518083038186803b158015610d7057600080fd5b505afa158015610d84573d6000803e3d6000fd5b505050506040513d601f19601f82011682018060405250810190610da89190612442565b6001600160a01b0316336001600160a01b031614610e015760405162461bcd60e51b815260206004820152601660248201527521b0b63632b91034b9903737ba1037b832b930ba37b960511b60448201526064016105e2565b6040516312db1acb60e21b8152600481018390526000907f00000000000000000000000000000000000000000000000000000000000000006001600160a01b031690634b6c6b2c9060240160206040518083038186803b158015610e6457600080fd5b505afa158015610e78573d6000803e3d6000fd5b505050506040513d601f19601f82011682018060405250810190610e9c9190612442565b90506001600160a01b038116610ee45760405162461bcd60e51b815260206004820152600d60248201526c092dcecc2d8d2c840d2dcc8caf609b1b60448201526064016105e2565b610f386001600160a01b037f0000000000000000000000000000000000000000000000000000000000000000167f000000000000000000000000000000000000000000000000000000000000000084611ffb565b60405163d990231d60e01b81526001600160a01b038281166004830152602482018490527f0000000000000000000000000000000000000000000000000000000000000000169063d990231d90604401600060405180830381600087803b158015610fa257600080fd5b505af1158015610fb6573d6000803e3d6000fd5b50505050505050565b600080603360009054906101000a90046001600160a01b03166001600160a01b031663ccfb99356040518163ffffffff1660e01b815260040160206040518083038186803b15801561101057600080fd5b505afa158015611024573d6000803e3d6000fd5b505050506040513d601f19601f820116820180604052508101906110489190612429565b90508061105757600091505090565b6040516370a0823160e01b81523060048201526000907f00000000000000000000000000000000000000000000000000000000000000006001600160a01b0316906370a082319060240160206040518083038186803b1580156110b957600080fd5b505afa1580156110cd573d6000803e3d6000fd5b505050506040513d601f19601f820116820180604052508101906110f19190612429565b90508082116111035760009250505090565b6040516370a0823160e01b81523060048201526000907f00000000000000000000000000000000000000000000000000000000000000006001600160a01b0316906370a082319060240160206040518083038186803b15801561116557600080fd5b505afa158015611179573d6000803e3d6000fd5b505050506040513d601f19601f8201168201806040525081019061119d9190612429565b6111a790846124eb565b604051639ae697bf60e01b81523060048201529091507f00000000000000000000000000000000000000000000000000000000000000006001600160a01b031690639ae697bf9060240160206040518083038186803b15801561120957600080fd5b505afa15801561121d573d6000803e3d6000fd5b505050506040513d601f19601f820116820180604052508101906112419190612429565b811161124e579392505050565b600019935050505090565b6040516370a0823160e01b8152306004820152600090819081906001600160a01b037f000000000000000000000000000000000000000000000000000000000000000016906370a082319060240160206040518083038186803b1580156112bf57600080fd5b505afa1580156112d3573d6000803e3d6000fd5b505050506040513d601f19601f820116820180604052508101906112f79190612429565b6040516272e6bd60e41b8152600481018690529091507f00000000000000000000000000000000000000000000000000000000000000006001600160a01b03169063072e6bd09060240160206040518083038186803b15801561135957600080fd5b505afa15801561136d573d6000803e3d6000fd5b505050506040513d601f19601f820116820180604052508101906113919190612429565b91508181106113a557600119925050915091565b604051639ae697bf60e01b81523060048201526000907f00000000000000000000000000000000000000000000000000000000000000006001600160a01b031690639ae697bf9060240160206040518083038186803b15801561140757600080fd5b505afa15801561141b573d6000803e3d6000fd5b505050506040513d601f19601f8201168201806040525081019061143f9190612429565b905061144b82846124eb565b93508381101561145b5760001993505b5050915091565b7f00000000000000000000000000000000000000000000000000000000000000006001600160a01b031663570ca7356040518163ffffffff1660e01b815260040160206040518083038186803b1580156114bb57600080fd5b505afa1580156114cf573d6000803e3d6000fd5b505050506040513d601f19601f820116820180604052508101906114f39190612442565b6001600160a01b0316336001600160a01b03161461154c5760405162461bcd60e51b815260206004820152601660248201527521b0b63632b91034b9903737ba1037b832b930ba37b960511b60448201526064016105e2565b60008211801561155c5750600081115b6115975760405162461bcd60e51b815260206004820152600c60248201526b496e76616c6964207061726160a01b60448201526064016105e2565b603491909155603555565b6000807f00000000000000000000000000000000000000000000000000000000000000006001600160a01b031663f57df22e6040518163ffffffff1660e01b815260040160206040518083038186803b1580156115fe57600080fd5b505afa158015611612573d6000803e3d6000fd5b505050506040513d601f19601f820116820180604052508101906116369190612442565b6040516330f2439960e21b81523060048201526001600160a01b03919091169063c3c90e649060240160206040518083038186803b15801561167757600080fd5b505afa15801561168b573d6000803e3d6000fd5b505050506040513d601f19601f820116820180604052508101906116af9190612429565b6035541092915050565b6002600154141561170c5760405162461bcd60e51b815260206004820152601f60248201527f5265656e7472616e637947756172643a207265656e7472616e742063616c6c0060448201526064016105e2565b60026001556033546040805163ccfb993560e01b815290516001600160a01b039092169163ccfb993591600480820192602092909190829003018186803b15801561175657600080fd5b505afa15801561176a573d6000803e3d6000fd5b505050506040513d601f19601f8201168201806040525081019061178e9190612429565b156117cd5760405162461bcd60e51b815260206004820152600f60248201526e5175657565206e6f7420656d70747960881b60448201526064016105e2565b6040516370a0823160e01b815233600482015281907f00000000000000000000000000000000000000000000000000000000000000006001600160a01b0316906370a082319060240160206040518083038186803b15801561182e57600080fd5b505afa158015611842573d6000803e3d6000fd5b505050506040513d601f19601f820116820180604052508101906118669190612429565b10156118ab5760405162461bcd60e51b815260206004820152601460248201527318985b185b98d948125b9cdd59999a58da595b9d60621b60448201526064016105e2565b6000806118b783611259565b90925090506000198214156119025760405162461bcd60e51b81526020600482015260116024820152701c1bdbdb08125b9cdd59999a58da595b9d607a1b60448201526064016105e2565b600119821461198657604051636198e33960e01b8152600481018390527f00000000000000000000000000000000000000000000000000000000000000006001600160a01b031690636198e33990602401600060405180830381600087803b15801561196d57600080fd5b505af1158015611981573d6000803e3d6000fd5b505050505b60405163f3fef3a360e01b8152336004820152602481018490527f00000000000000000000000000000000000000000000000000000000000000006001600160a01b03169063f3fef3a390604401602060405180830381600087803b1580156119ee57600080fd5b505af1158015611a02573d6000803e3d6000fd5b505050506040513d601f19601f82011682018060405250810190611a26919061246b565b611a425760405162461bcd60e51b81526004016105e29061248d565b611a766001600160a01b037f0000000000000000000000000000000000000000000000000000000000000000163383611fc6565b50506001805550565b6040516370a0823160e01b81523060048201526000907f00000000000000000000000000000000000000000000000000000000000000006001600160a01b0316906370a082319060240160206040518083038186803b158015611ae157600080fd5b505afa158015611af5573d6000803e3d6000fd5b505050506040513d601f19601f82011682018060405250810190611b199190612429565b9050611b23610825565b611b2d9082612502565b9050611b37611b41565b6108c09082612502565b60007f00000000000000000000000000000000000000000000000000000000000000006001600160a01b031663f57df22e6040518163ffffffff1660e01b815260040160206040518083038186803b158015611b9c57600080fd5b505afa158015611bb0573d6000803e3d6000fd5b505050506040513d601f19601f82011682018060405250810190611bd49190612442565b6040516330f2439960e21b81523060048201526001600160a01b03919091169063c3c90e6490602401610870565b60008054610100900460ff1615611c49578160ff166001148015611c255750303b155b611c415760405162461bcd60e51b81526004016105e29061251a565b506000919050565b60005460ff808416911610611c705760405162461bcd60e51b81526004016105e29061251a565b506000805460ff191660ff92909216919091179055600190565b600054610100900460ff16611cb15760405162461bcd60e51b81526004016105e290612568565b611cb961211f565b565b6040516001600160a01b0380851660248301528316604482015260648101829052611d269085906323b872dd60e01b906084015b60408051601f198184030181529190526020810180516001600160e01b03166001600160e01b03199093169290921790915261214c565b50505050565b60007f00000000000000000000000000000000000000000000000000000000000000006001600160a01b031663f57df22e6040518163ffffffff1660e01b815260040160206040518083038186803b158015611d8757600080fd5b505afa158015611d9b573d6000803e3d6000fd5b505050506040513d601f19601f82011682018060405250810190611dbf9190612442565b9050806001600160a01b0316633d18b9126040518163ffffffff1660e01b8152600401600060405180830381600087803b158015611dfc57600080fd5b505af1158015610d10573d6000803e3d6000fd5b611e18610334565b15611e1f57565b6040516370a0823160e01b81523060048201526000907f00000000000000000000000000000000000000000000000000000000000000006001600160a01b0316906370a082319060240160206040518083038186803b158015611e8157600080fd5b505afa158015611e95573d6000803e3d6000fd5b505050506040513d601f19601f82011682018060405250810190611eb99190612429565b90508060345410611ec75750565b611f1b6001600160a01b037f0000000000000000000000000000000000000000000000000000000000000000167f000000000000000000000000000000000000000000000000000000000000000083611ffb565b6040516316a884d960e31b8152600481018290527f00000000000000000000000000000000000000000000000000000000000000006001600160a01b03169063b54426c890602401600060405180830381600087803b158015611f7d57600080fd5b505af1158015611f91573d6000803e3d6000fd5b505050507f0f871d9141eb7956fd3128d64eedb6a59621c2221b36a7950075e1780a4cc4318160405161058791815260200190565b6040516001600160a01b038316602482015260448101829052611ff690849063a9059cbb60e01b90606401611cef565b505050565b8015806120845750604051636eb1769f60e11b81523060048201526001600160a01b03838116602483015284169063dd62ed3e9060440160206040518083038186803b15801561204a57600080fd5b505afa15801561205e573d6000803e3d6000fd5b505050506040513d601f19601f820116820180604052508101906120829190612429565b155b6120ef5760405162461bcd60e51b815260206004820152603660248201527f5361666545524332303a20617070726f76652066726f6d206e6f6e2d7a65726f60448201527520746f206e6f6e2d7a65726f20616c6c6f77616e636560501b60648201526084016105e2565b6040516001600160a01b038316602482015260448101829052611ff690849063095ea7b360e01b90606401611cef565b600054610100900460ff166121465760405162461bcd60e51b81526004016105e290612568565b60018055565b60006121a1826040518060400160405280602081526020017f5361666545524332303a206c6f772d6c6576656c2063616c6c206661696c6564815250856001600160a01b031661221e9092919063ffffffff16565b805190915015611ff657808060200190518101906121bf919061246b565b611ff65760405162461bcd60e51b815260206004820152602a60248201527f5361666545524332303a204552433230206f7065726174696f6e20646964206e6044820152691bdd081cdd58d8d9595960b21b60648201526084016105e2565b606061222d8484600085612235565b949350505050565b6060824710156122965760405162461bcd60e51b815260206004820152602660248201527f416464726573733a20696e73756666696369656e742062616c616e636520666f6044820152651c8818d85b1b60d21b60648201526084016105e2565b6001600160a01b0385163b6122ed5760405162461bcd60e51b815260206004820152601d60248201527f416464726573733a2063616c6c20746f206e6f6e2d636f6e747261637400000060448201526064016105e2565b600080866001600160a01b0316858760405161230991906125df565b60006040518083038185875af1925050503d8060008114612346576040519150601f19603f3d011682016040523d82523d6000602084013e61234b565b606091505b509150915061235b828286612366565b979650505050505050565b60608315612375575081610c5c565b8251156123855782518084602001fd5b8160405162461bcd60e51b81526004016105e291906125fb565b6000602082840312156123b157600080fd5b5035919050565b600080600080600060a086880312156123d057600080fd5b8535945060208601359350604086013560ff811681146123ef57600080fd5b94979396509394606081013594506080013592915050565b6000806040838503121561241a57600080fd5b50508035926020909101359150565b60006020828403121561243b57600080fd5b5051919050565b60006020828403121561245457600080fd5b81516001600160a01b0381168114610c5c57600080fd5b60006020828403121561247d57600080fd5b81518015158114610c5c57600080fd5b60208082526028908201527f536f6d657468696e672077656e742077726f6e67206f6e204d616e616765722060408201526710dbdb9d1c9858dd60c21b606082015260800190565b634e487b7160e01b600052601160045260246000fd5b6000828210156124fd576124fd6124d5565b500390565b60008219821115612515576125156124d5565b500190565b6020808252602e908201527f496e697469616c697a61626c653a20636f6e747261637420697320616c72656160408201526d191e481a5b9a5d1a585b1a5e995960921b606082015260800190565b6020808252602b908201527f496e697469616c697a61626c653a20636f6e7472616374206973206e6f74206960408201526a6e697469616c697a696e6760a81b606082015260800190565b60005b838110156125ce5781810151838201526020016125b6565b83811115611d265750506000910152565b600082516125f18184602087016125b3565b9190910192915050565b602081526000825180602084015261261a8160408501602087016125b3565b601f01601f1916919091016040019291505056fea26469706673582212200a3796730e24268cb7e025f5b0dbc6f39bbb468fe04ddc2acdefdf46ef10ac5664736f6c63430008090033",
  "devdoc": {
    "kind": "dev",
    "methods": {},
    "version": 1
  },
  "userdoc": {
    "kind": "user",
    "methods": {
      "__Deposit_init()": {
        "notice": "---------- init ---------- *"
      },
      "constructor": {
        "notice": "---------- constructor ---------- *"
      },
      "totalBalanceOfTorn()": {
        "notice": "---------- public getting ---------- *"
      }
    },
    "version": 1
  },
  "storageLayout": {
    "storage": [
      {
        "astId": 130,
        "contract": "contracts/Deposit.sol:Deposit",
        "label": "_initialized",
        "offset": 0,
        "slot": "0",
        "type": "t_uint8"
      },
      {
        "astId": 133,
        "contract": "contracts/Deposit.sol:Deposit",
        "label": "_initializing",
        "offset": 1,
        "slot": "0",
        "type": "t_bool"
      },
      {
        "astId": 279,
        "contract": "contracts/Deposit.sol:Deposit",
        "label": "_status",
        "offset": 0,
        "slot": "1",
        "type": "t_uint256"
      },
      {
        "astId": 323,
        "contract": "contracts/Deposit.sol:Deposit",
        "label": "__gap",
        "offset": 0,
        "slot": "2",
        "type": "t_array(t_uint256)49_storage"
      },
      {
        "astId": 6002,
        "contract": "contracts/Deposit.sol:Deposit",
        "label": "EXIT_QUEUE",
        "offset": 0,
        "slot": "51",
        "type": "t_address"
      },
      {
        "astId": 6004,
        "contract": "contracts/Deposit.sol:Deposit",
        "label": "maxReserveTorn",
        "offset": 0,
        "slot": "52",
        "type": "t_uint256"
      },
      {
        "astId": 6006,
        "contract": "contracts/Deposit.sol:Deposit",
        "label": "maxRewardInGov",
        "offset": 0,
        "slot": "53",
        "type": "t_uint256"
      }
    ],
    "types": {
      "t_address": {
        "encoding": "inplace",
        "label": "address",
        "numberOfBytes": "20"
      },
      "t_array(t_uint256)49_storage": {
        "base": "t_uint256",
        "encoding": "inplace",
        "label": "uint256[49]",
        "numberOfBytes": "1568"
      },
      "t_bool": {
        "encoding": "inplace",
        "label": "bool",
        "numberOfBytes": "1"
      },
      "t_uint256": {
        "encoding": "inplace",
        "label": "uint256",
        "numberOfBytes": "32"
      },
      "t_uint8": {
        "encoding": "inplace",
        "label": "uint8",
        "numberOfBytes": "1"
      }
    }
  }
}