{
  "address": "0xF00e2088221B4c5D952399324eFa31eeA436f32A",
  "abi": [
    {
      "inputs": [
        {
          "internalType": "address",
          "name": "_tornContract",
          "type": "address"
        },
        {
          "internalType": "address",
          "name": "_tornGovernanceStaking",
          "type": "address"
        },
        {
          "internalType": "address",
          "name": "_tornRelayerRegistry",
          "type": "address"
        },
        {
          "internalType": "address",
          "name": "_root_manager",
          "type": "address"
        }
      ],
      "stateMutability": "nonpayable",
      "type": "constructor"
    },
    {
      "anonymous": false,
      "inputs": [
        {
          "indexed": false,
          "internalType": "uint8",
          "name": "version",
          "type": "uint8"
        }
      ],
      "name": "Initialized",
      "type": "event"
    },
    {
      "anonymous": false,
      "inputs": [
        {
          "indexed": false,
          "internalType": "uint256",
          "name": "_amount",
          "type": "uint256"
        }
      ],
      "name": "lock_to_gov",
      "type": "event"
    },
    {
      "inputs": [],
      "name": "EXIT_QUEUE",
      "outputs": [
        {
          "internalType": "address",
          "name": "",
          "type": "address"
        }
      ],
      "stateMutability": "view",
      "type": "function"
    },
    {
      "inputs": [],
      "name": "IN_SUFFICIENT",
      "outputs": [
        {
          "internalType": "uint256",
          "name": "",
          "type": "uint256"
        }
      ],
      "stateMutability": "view",
      "type": "function"
    },
    {
      "inputs": [],
      "name": "ROOT_MANAGER",
      "outputs": [
        {
          "internalType": "address",
          "name": "",
          "type": "address"
        }
      ],
      "stateMutability": "view",
      "type": "function"
    },
    {
      "inputs": [],
      "name": "SUFFICIENT",
      "outputs": [
        {
          "internalType": "uint256",
          "name": "",
          "type": "uint256"
        }
      ],
      "stateMutability": "view",
      "type": "function"
    },
    {
      "inputs": [],
      "name": "TORN_CONTRACT",
      "outputs": [
        {
          "internalType": "address",
          "name": "",
          "type": "address"
        }
      ],
      "stateMutability": "view",
      "type": "function"
    },
    {
      "inputs": [],
      "name": "TORN_GOVERNANCE_STAKING",
      "outputs": [
        {
          "internalType": "address",
          "name": "",
          "type": "address"
        }
      ],
      "stateMutability": "view",
      "type": "function"
    },
    {
      "inputs": [],
      "name": "TORN_RELAYER_REGISTRY",
      "outputs": [
        {
          "internalType": "address",
          "name": "",
          "type": "address"
        }
      ],
      "stateMutability": "view",
      "type": "function"
    },
    {
      "inputs": [],
      "name": "__Deposit_init",
      "outputs": [],
      "stateMutability": "nonpayable",
      "type": "function"
    },
    {
      "inputs": [],
      "name": "balanceOfStakingOnGov",
      "outputs": [
        {
          "internalType": "uint256",
          "name": "t",
          "type": "uint256"
        }
      ],
      "stateMutability": "view",
      "type": "function"
    },
    {
      "inputs": [],
      "name": "checkRewardOnGov",
      "outputs": [
        {
          "internalType": "uint256",
          "name": "",
          "type": "uint256"
        }
      ],
      "stateMutability": "view",
      "type": "function"
    },
    {
      "inputs": [
        {
          "internalType": "uint256",
          "name": "_amount",
          "type": "uint256"
        },
        {
          "internalType": "uint256",
          "name": "deadline",
          "type": "uint256"
        },
        {
          "internalType": "uint8",
          "name": "v",
          "type": "uint8"
        },
        {
          "internalType": "bytes32",
          "name": "r",
          "type": "bytes32"
        },
        {
          "internalType": "bytes32",
          "name": "s",
          "type": "bytes32"
        }
      ],
      "name": "deposit",
      "outputs": [],
      "stateMutability": "nonpayable",
      "type": "function"
    },
    {
      "inputs": [
        {
          "internalType": "uint256",
          "name": "_qty",
          "type": "uint256"
        }
      ],
      "name": "depositWithApproval",
      "outputs": [],
      "stateMutability": "nonpayable",
      "type": "function"
    },
    {
      "inputs": [
        {
          "internalType": "uint256",
          "name": "_amount_token",
          "type": "uint256"
        }
      ],
      "name": "getValueShouldUnlock",
      "outputs": [
        {
          "internalType": "uint256",
          "name": "shortage",
          "type": "uint256"
        },
        {
          "internalType": "uint256",
          "name": "torn",
          "type": "uint256"
        }
      ],
      "stateMutability": "view",
      "type": "function"
    },
    {
      "inputs": [],
      "name": "getValueShouldUnlockFromGov",
      "outputs": [
        {
          "internalType": "uint256",
          "name": "",
          "type": "uint256"
        }
      ],
      "stateMutability": "view",
      "type": "function"
    },
    {
      "inputs": [
        {
          "internalType": "uint256",
          "name": "_amount_token",
          "type": "uint256"
        }
      ],
      "name": "isBalanceEnough",
      "outputs": [
        {
          "internalType": "bool",
          "name": "",
          "type": "bool"
        }
      ],
      "stateMutability": "view",
      "type": "function"
    },
    {
      "inputs": [],
      "name": "isNeedClaimFromGov",
      "outputs": [
        {
          "internalType": "bool",
          "name": "",
          "type": "bool"
        }
      ],
      "stateMutability": "view",
      "type": "function"
    },
    {
      "inputs": [],
      "name": "isNeedTransfer2Queue",
      "outputs": [
        {
          "internalType": "bool",
          "name": "",
          "type": "bool"
        }
      ],
      "stateMutability": "view",
      "type": "function"
    },
    {
      "inputs": [],
      "name": "maxReserveTorn",
      "outputs": [
        {
          "internalType": "uint256",
          "name": "",
          "type": "uint256"
        }
      ],
      "stateMutability": "view",
      "type": "function"
    },
    {
      "inputs": [],
      "name": "maxRewardInGov",
      "outputs": [
        {
          "internalType": "uint256",
          "name": "",
          "type": "uint256"
        }
      ],
      "stateMutability": "view",
      "type": "function"
    },
    {
      "inputs": [
        {
          "internalType": "uint256",
          "name": "_amount",
          "type": "uint256"
        },
        {
          "internalType": "uint256",
          "name": "_maxRewardInGov",
          "type": "uint256"
        }
      ],
      "name": "setMaxReservePara",
      "outputs": [],
      "stateMutability": "nonpayable",
      "type": "function"
    },
    {
      "inputs": [
        {
          "internalType": "uint256",
          "name": "_index",
          "type": "uint256"
        },
        {
          "internalType": "uint256",
          "name": "_amount",
          "type": "uint256"
        }
      ],
      "name": "stake2Node",
      "outputs": [],
      "stateMutability": "nonpayable",
      "type": "function"
    },
    {
      "inputs": [],
      "name": "totalBalanceOfTorn",
      "outputs": [
        {
          "internalType": "uint256",
          "name": "_t",
          "type": "uint256"
        }
      ],
      "stateMutability": "view",
      "type": "function"
    },
    {
      "inputs": [
        {
          "internalType": "uint256",
          "name": "_amount",
          "type": "uint256"
        },
        {
          "internalType": "uint256",
          "name": "deadline",
          "type": "uint256"
        },
        {
          "internalType": "uint8",
          "name": "v",
          "type": "uint8"
        },
        {
          "internalType": "bytes32",
          "name": "r",
          "type": "bytes32"
        },
        {
          "internalType": "bytes32",
          "name": "s",
          "type": "bytes32"
        }
      ],
      "name": "withDraw",
      "outputs": [],
      "stateMutability": "nonpayable",
      "type": "function"
    },
    {
      "inputs": [
        {
          "internalType": "uint256",
          "name": "_amount_token",
          "type": "uint256"
        }
      ],
      "name": "withDrawWithApproval",
      "outputs": [],
      "stateMutability": "nonpayable",
      "type": "function"
    },
    {
      "inputs": [
        {
          "internalType": "uint256",
          "name": "_amount_token",
          "type": "uint256"
        }
      ],
      "name": "withdraw_for_exit",
      "outputs": [
        {
          "internalType": "uint256",
          "name": "",
          "type": "uint256"
        }
      ],
      "stateMutability": "nonpayable",
      "type": "function"
    }
  ],
  "transactionHash": "0xee6c90fbfa201fd25dc3d54707984b16768699414983bfe3410acbdd967ed76b",
  "args": [
    "0x3FFe033d7fd8f1A2FE006E59F1F384740Fa54dB6",
    "0xF9c5b466ae4Cf0F65c16C55BFE7d107e695e25e4",
    "0x6b5aA2bA2e6d3D556a06c67D756aD881B73071f6",
    "0x137f2bf9584dE69371624b38bc04fA3c060Cdb29"
  ],
  "numDeployments": 5,
  "solcInputHash": "9fc4bdc8825a7f53f342b16e75f129ea",
  "bytecode": "0x6101006040523480156200001257600080fd5b506040516200276338038062002763833981016040819052620000359162000075565b6001600160a01b0393841660805291831660a052821660c0521660e052620000d2565b80516001600160a01b03811681146200007057600080fd5b919050565b600080600080608085870312156200008c57600080fd5b620000978562000058565b9350620000a76020860162000058565b9250620000b76040860162000058565b9150620000c76060860162000058565b905092959194509250565b60805160a05160c05160e051612570620001f36000396000818161021f015281816104e60152818161062f0152818161099d01528181610aca01528181610c6401528181610d650152818161125a015281816113af01528181611c4b0152611e010152600081816102f801528181610e5e0152610ea901526000818161031f015281816107920152818161081a0152818161110a01528181611308015281816114f2015281816117b7015281816119a201528181611b5901528181611b940152611d800152600081816101a40152818161042f0152818161069801528181610bdf01528181610e3c01528181610fba01528181611066015281816111c80152818161170901528181611a9a01528181611b370152611e7201526125706000f3fe608060405234801561001057600080fd5b50600436106101735760003560e01c8063a0779c2f116100de578063b91476f211610097578063d3e06b5e11610071578063d3e06b5e14610354578063e2e622cd14610367578063f245e6a01461036f578063fc4c0aec1461037857600080fd5b8063b91476f2146102f3578063c866880e1461031a578063ca80a43b1461034157600080fd5b8063a0779c2f1461028c578063a9fda2011461029f578063adba6bb6146102a7578063b2eacd47146102cf578063b6f4e79a146102e2578063b90a63fa146102eb57600080fd5b80635f61e3ec116101305780635f61e3ec1461021a578063727784fe146102415780637a2308ea146102545780637e34dbe0146102675780638576e0a61461027a5780639615d2ba1461028357600080fd5b806322f97b5e146101785780632f5dcf031461019557806331e819211461019f5780633a542c28146101de57806351e48baf146101f15780635c02769914610207575b600080fd5b610180610380565b60405190151581526020015b60405180910390f35b61019d6104b8565b005b6101c67f000000000000000000000000000000000000000000000000000000000000000081565b6040516001600160a01b03909116815260200161018c565b61019d6101ec36600461227b565b6105df565b6101f9610802565b60405190815260200161018c565b61019d610215366004612294565b6108a2565b6101c67f000000000000000000000000000000000000000000000000000000000000000081565b61018061024f36600461227b565b610a25565b6101f961026236600461227b565b610ac6565b61019d610275366004612294565b610bc8565b6101f960001981565b6101f960345481565b61019d61029a3660046122e3565b610c62565b6101f9610f0a565b6102ba6102b536600461227b565b6111a4565b6040805192835260208301919091520161018c565b61019d6102dd3660046122e3565b6113ad565b6101f960011981565b6101806114ed565b6101c67f000000000000000000000000000000000000000000000000000000000000000081565b6101c67f000000000000000000000000000000000000000000000000000000000000000081565b61019d61034f36600461227b565b611604565b6033546101c6906001600160a01b031681565b6101f96116f1565b6101f960355481565b6101f96117b3565b600080603360009054906101000a90046001600160a01b03166001600160a01b031663ccfb99356040518163ffffffff1660e01b815260040160206040518083038186803b1580156103d157600080fd5b505afa1580156103e5573d6000803e3d6000fd5b505050506040513d601f19601f820116820180604052508101906104099190612305565b90508061041857600091505090565b6040516370a0823160e01b815230600482015281907f00000000000000000000000000000000000000000000000000000000000000006001600160a01b0316906370a082319060240160206040518083038186803b15801561047957600080fd5b505afa15801561048d573d6000803e3d6000fd5b505050506040513d601f19601f820116820180604052508101906104b19190612305565b1191505090565b60006104c46001611874565b905080156104dc576000805461ff0019166101001790555b6104e46118fc565b7f00000000000000000000000000000000000000000000000000000000000000006001600160a01b031663ea9b717e6040518163ffffffff1660e01b815260040160206040518083038186803b15801561053d57600080fd5b505afa158015610551573d6000803e3d6000fd5b505050506040513d601f19601f82011682018060405250810190610575919061231e565b603380546001600160a01b0319166001600160a01b039290921691909117905580156105dc576000805461ff0019169055604051600181527f7f26b83ff96e1f2b6a682f133852f6798a09c465da95921460cefb3847402498906020015b60405180910390a15b50565b6002600154141561060b5760405162461bcd60e51b815260040161060290612347565b60405180910390fd5b6002600155604051630404bb3d60e01b8152336004820181905260248201839052907f00000000000000000000000000000000000000000000000000000000000000006001600160a01b031690630404bb3d90604401600060405180830381600087803b15801561067b57600080fd5b505af115801561068f573d6000803e3d6000fd5b505050506106bf7f000000000000000000000000000000000000000000000000000000000000000082308561192d565b6106c7610380565b1561073957603360009054906101000a90046001600160a01b03166001600160a01b031663a4ec69386040518163ffffffff1660e01b8152600401600060405180830381600087803b15801561071c57600080fd5b505af1158015610730573d6000803e3d6000fd5b505050506107f9565b6107416114ed565b156107535761074e61199e565b6107f9565b600061075d610f0a565b9050806107735761076c611a82565b50506107fb565b60001981146107f757604051636198e33960e01b8152600481018290527f00000000000000000000000000000000000000000000000000000000000000006001600160a01b031690636198e33990602401600060405180830381600087803b1580156107de57600080fd5b505af11580156107f2573d6000803e3d6000fd5b505050505b505b505b5060018055565b604051639ae697bf60e01b81523060048201526000907f00000000000000000000000000000000000000000000000000000000000000006001600160a01b031690639ae697bf906024015b60206040518083038186803b15801561086557600080fd5b505afa158015610879573d6000803e3d6000fd5b505050506040513d601f19601f8201168201806040525081019061089d9190612305565b905090565b600260015414156108c55760405162461bcd60e51b815260040161060290612347565b60026001556033546040805163ccfb993560e01b815290516001600160a01b039092169163ccfb993591600480820192602092909190829003018186803b15801561090f57600080fd5b505afa158015610923573d6000803e3d6000fd5b505050506040513d601f19601f820116820180604052508101906109479190612305565b156109865760405162461bcd60e51b815260206004820152600f60248201526e5175657565206e6f7420656d70747960881b6044820152606401610602565b60405163d505accf60e01b81526001600160a01b037f0000000000000000000000000000000000000000000000000000000000000000169063d505accf906109de90339030908a908a908a908a908a9060040161237e565b600060405180830381600087803b1580156109f857600080fd5b505af1158015610a0c573d6000803e3d6000fd5b50505050610a1985611c29565b50506001805550505050565b6033546040805163ccfb993560e01b815290516000926001600160a01b03169163ccfb9935916004808301926020929190829003018186803b158015610a6a57600080fd5b505afa158015610a7e573d6000803e3d6000fd5b505050506040513d601f19601f82011682018060405250810190610aa29190612305565b15610aaf57506000919050565b6000610aba836111a4565b50600019119392505050565b60007f00000000000000000000000000000000000000000000000000000000000000006001600160a01b031663ea9b717e6040518163ffffffff1660e01b815260040160206040518083038186803b158015610b2157600080fd5b505afa158015610b35573d6000803e3d6000fd5b505050506040513d601f19601f82011682018060405250810190610b59919061231e565b6001600160a01b0316336001600160a01b031614610bb95760405162461bcd60e51b815260206004820152601760248201527f43616c6c6572206973206e6f74206578697451756575650000000000000000006044820152606401610602565b610bc282611c29565b92915050565b60405163d505accf60e01b81526001600160a01b037f0000000000000000000000000000000000000000000000000000000000000000169063d505accf90610c2090339030908a908a908a908a908a9060040161237e565b600060405180830381600087803b158015610c3a57600080fd5b505af1158015610c4e573d6000803e3d6000fd5b50505050610c5b856105df565b5050505050565b7f00000000000000000000000000000000000000000000000000000000000000006001600160a01b031663570ca7356040518163ffffffff1660e01b815260040160206040518083038186803b158015610cbb57600080fd5b505afa158015610ccf573d6000803e3d6000fd5b505050506040513d601f19601f82011682018060405250810190610cf3919061231e565b6001600160a01b0316336001600160a01b031614610d4c5760405162461bcd60e51b815260206004820152601660248201527521b0b63632b91034b9903737ba1037b832b930ba37b960511b6044820152606401610602565b6040516312db1acb60e21b8152600481018390526000907f00000000000000000000000000000000000000000000000000000000000000006001600160a01b031690634b6c6b2c9060240160206040518083038186803b158015610daf57600080fd5b505afa158015610dc3573d6000803e3d6000fd5b505050506040513d601f19601f82011682018060405250810190610de7919061231e565b90506001600160a01b038116610e2f5760405162461bcd60e51b815260206004820152600d60248201526c092dcecc2d8d2c840d2dcc8caf609b1b6044820152606401610602565b610e836001600160a01b037f0000000000000000000000000000000000000000000000000000000000000000167f000000000000000000000000000000000000000000000000000000000000000084611ea2565b60405163d990231d60e01b81526001600160a01b038281166004830152602482018490527f0000000000000000000000000000000000000000000000000000000000000000169063d990231d90604401600060405180830381600087803b158015610eed57600080fd5b505af1158015610f01573d6000803e3d6000fd5b50505050505050565b600080603360009054906101000a90046001600160a01b03166001600160a01b031663ccfb99356040518163ffffffff1660e01b815260040160206040518083038186803b158015610f5b57600080fd5b505afa158015610f6f573d6000803e3d6000fd5b505050506040513d601f19601f82011682018060405250810190610f939190612305565b905080610fa257600091505090565b6040516370a0823160e01b81523060048201526000907f00000000000000000000000000000000000000000000000000000000000000006001600160a01b0316906370a082319060240160206040518083038186803b15801561100457600080fd5b505afa158015611018573d6000803e3d6000fd5b505050506040513d601f19601f8201168201806040525081019061103c9190612305565b905080821161104e5760009250505090565b6040516370a0823160e01b81523060048201526000907f00000000000000000000000000000000000000000000000000000000000000006001600160a01b0316906370a082319060240160206040518083038186803b1580156110b057600080fd5b505afa1580156110c4573d6000803e3d6000fd5b505050506040513d601f19601f820116820180604052508101906110e89190612305565b6110f290846123d5565b604051639ae697bf60e01b81523060048201529091507f00000000000000000000000000000000000000000000000000000000000000006001600160a01b031690639ae697bf9060240160206040518083038186803b15801561115457600080fd5b505afa158015611168573d6000803e3d6000fd5b505050506040513d601f19601f8201168201806040525081019061118c9190612305565b8111611199579392505050565b600019935050505090565b6040516370a0823160e01b8152306004820152600090819081906001600160a01b037f000000000000000000000000000000000000000000000000000000000000000016906370a082319060240160206040518083038186803b15801561120a57600080fd5b505afa15801561121e573d6000803e3d6000fd5b505050506040513d601f19601f820116820180604052508101906112429190612305565b6040516272e6bd60e41b8152600481018690529091507f00000000000000000000000000000000000000000000000000000000000000006001600160a01b03169063072e6bd09060240160206040518083038186803b1580156112a457600080fd5b505afa1580156112b8573d6000803e3d6000fd5b505050506040513d601f19601f820116820180604052508101906112dc9190612305565b91508181106112f057600119925050915091565b604051639ae697bf60e01b81523060048201526000907f00000000000000000000000000000000000000000000000000000000000000006001600160a01b031690639ae697bf9060240160206040518083038186803b15801561135257600080fd5b505afa158015611366573d6000803e3d6000fd5b505050506040513d601f19601f8201168201806040525081019061138a9190612305565b905061139682846123d5565b9350838110156113a65760001993505b5050915091565b7f00000000000000000000000000000000000000000000000000000000000000006001600160a01b031663570ca7356040518163ffffffff1660e01b815260040160206040518083038186803b15801561140657600080fd5b505afa15801561141a573d6000803e3d6000fd5b505050506040513d601f19601f8201168201806040525081019061143e919061231e565b6001600160a01b0316336001600160a01b0316146114975760405162461bcd60e51b815260206004820152601660248201527521b0b63632b91034b9903737ba1037b832b930ba37b960511b6044820152606401610602565b6000821180156114a75750600081115b6114e25760405162461bcd60e51b815260206004820152600c60248201526b496e76616c6964207061726160a01b6044820152606401610602565b603491909155603555565b6000807f00000000000000000000000000000000000000000000000000000000000000006001600160a01b031663f57df22e6040518163ffffffff1660e01b815260040160206040518083038186803b15801561154957600080fd5b505afa15801561155d573d6000803e3d6000fd5b505050506040513d601f19601f82011682018060405250810190611581919061231e565b6040516330f2439960e21b81523060048201526001600160a01b03919091169063c3c90e649060240160206040518083038186803b1580156115c257600080fd5b505afa1580156115d6573d6000803e3d6000fd5b505050506040513d601f19601f820116820180604052508101906115fa9190612305565b6035541092915050565b600260015414156116275760405162461bcd60e51b815260040161060290612347565b60026001556033546040805163ccfb993560e01b815290516001600160a01b039092169163ccfb993591600480820192602092909190829003018186803b15801561167157600080fd5b505afa158015611685573d6000803e3d6000fd5b505050506040513d601f19601f820116820180604052508101906116a99190612305565b156116e85760405162461bcd60e51b815260206004820152600f60248201526e5175657565206e6f7420656d70747960881b6044820152606401610602565b6107f981611c29565b6040516370a0823160e01b81523060048201526000907f00000000000000000000000000000000000000000000000000000000000000006001600160a01b0316906370a082319060240160206040518083038186803b15801561175357600080fd5b505afa158015611767573d6000803e3d6000fd5b505050506040513d601f19601f8201168201806040525081019061178b9190612305565b9050611795610802565b61179f90826123ec565b90506117a96117b3565b61089d90826123ec565b60007f00000000000000000000000000000000000000000000000000000000000000006001600160a01b031663f57df22e6040518163ffffffff1660e01b815260040160206040518083038186803b15801561180e57600080fd5b505afa158015611822573d6000803e3d6000fd5b505050506040513d601f19601f82011682018060405250810190611846919061231e565b6040516330f2439960e21b81523060048201526001600160a01b03919091169063c3c90e649060240161084d565b60008054610100900460ff16156118bb578160ff1660011480156118975750303b155b6118b35760405162461bcd60e51b815260040161060290612404565b506000919050565b60005460ff8084169116106118e25760405162461bcd60e51b815260040161060290612404565b506000805460ff191660ff92909216919091179055600190565b600054610100900460ff166119235760405162461bcd60e51b815260040161060290612452565b61192b611fcb565b565b6040516001600160a01b03808516602483015283166044820152606481018290526119989085906323b872dd60e01b906084015b60408051601f198184030181529190526020810180516001600160e01b03166001600160e01b031990931692909217909152611ff8565b50505050565b60007f00000000000000000000000000000000000000000000000000000000000000006001600160a01b031663f57df22e6040518163ffffffff1660e01b815260040160206040518083038186803b1580156119f957600080fd5b505afa158015611a0d573d6000803e3d6000fd5b505050506040513d601f19601f82011682018060405250810190611a31919061231e565b9050806001600160a01b0316633d18b9126040518163ffffffff1660e01b8152600401600060405180830381600087803b158015611a6e57600080fd5b505af1158015610c5b573d6000803e3d6000fd5b6040516370a0823160e01b81523060048201526000907f00000000000000000000000000000000000000000000000000000000000000006001600160a01b0316906370a082319060240160206040518083038186803b158015611ae457600080fd5b505afa158015611af8573d6000803e3d6000fd5b505050506040513d601f19601f82011682018060405250810190611b1c9190612305565b90508060345410611b2a5750565b611b7e6001600160a01b037f0000000000000000000000000000000000000000000000000000000000000000167f000000000000000000000000000000000000000000000000000000000000000083611ea2565b6040516316a884d960e31b8152600481018290527f00000000000000000000000000000000000000000000000000000000000000006001600160a01b03169063b54426c890602401600060405180830381600087803b158015611be057600080fd5b505af1158015611bf4573d6000803e3d6000fd5b505050507f0f871d9141eb7956fd3128d64eedb6a59621c2221b36a7950075e1780a4cc431816040516105d391815260200190565b6040516370a0823160e01b815233600482015260009082906001600160a01b037f000000000000000000000000000000000000000000000000000000000000000016906370a082319060240160206040518083038186803b158015611c8d57600080fd5b505afa158015611ca1573d6000803e3d6000fd5b505050506040513d601f19601f82011682018060405250810190611cc59190612305565b1015611d0a5760405162461bcd60e51b815260206004820152601460248201527318985b185b98d948125b9cdd59999a58da595b9d60621b6044820152606401610602565b600080611d16846111a4565b9092509050600019821415611d615760405162461bcd60e51b81526020600482015260116024820152701c1bdbdb08125b9cdd59999a58da595b9d607a1b6044820152606401610602565b6001198214611de557604051636198e33960e01b8152600481018390527f00000000000000000000000000000000000000000000000000000000000000006001600160a01b031690636198e33990602401600060405180830381600087803b158015611dcc57600080fd5b505af1158015611de0573d6000803e3d6000fd5b505050505b604051630282c62360e51b8152336004820152602481018590527f00000000000000000000000000000000000000000000000000000000000000006001600160a01b031690635058c46090604401600060405180830381600087803b158015611e4d57600080fd5b505af1158015611e61573d6000803e3d6000fd5b50611e9b9250506001600160a01b037f000000000000000000000000000000000000000000000000000000000000000016905033836120ca565b9392505050565b801580611f2b5750604051636eb1769f60e11b81523060048201526001600160a01b03838116602483015284169063dd62ed3e9060440160206040518083038186803b158015611ef157600080fd5b505afa158015611f05573d6000803e3d6000fd5b505050506040513d601f19601f82011682018060405250810190611f299190612305565b155b611f965760405162461bcd60e51b815260206004820152603660248201527f5361666545524332303a20617070726f76652066726f6d206e6f6e2d7a65726f60448201527520746f206e6f6e2d7a65726f20616c6c6f77616e636560501b6064820152608401610602565b6040516001600160a01b038316602482015260448101829052611fc690849063095ea7b360e01b90606401611961565b505050565b600054610100900460ff16611ff25760405162461bcd60e51b815260040161060290612452565b60018055565b600061204d826040518060400160405280602081526020017f5361666545524332303a206c6f772d6c6576656c2063616c6c206661696c6564815250856001600160a01b03166120fa9092919063ffffffff16565b805190915015611fc6578080602001905181019061206b919061249d565b611fc65760405162461bcd60e51b815260206004820152602a60248201527f5361666545524332303a204552433230206f7065726174696f6e20646964206e6044820152691bdd081cdd58d8d9595960b21b6064820152608401610602565b6040516001600160a01b038316602482015260448101829052611fc690849063a9059cbb60e01b90606401611961565b60606121098484600085612111565b949350505050565b6060824710156121725760405162461bcd60e51b815260206004820152602660248201527f416464726573733a20696e73756666696369656e742062616c616e636520666f6044820152651c8818d85b1b60d21b6064820152608401610602565b6001600160a01b0385163b6121c95760405162461bcd60e51b815260206004820152601d60248201527f416464726573733a2063616c6c20746f206e6f6e2d636f6e74726163740000006044820152606401610602565b600080866001600160a01b031685876040516121e591906124eb565b60006040518083038185875af1925050503d8060008114612222576040519150601f19603f3d011682016040523d82523d6000602084013e612227565b606091505b5091509150612237828286612242565b979650505050505050565b60608315612251575081611e9b565b8251156122615782518084602001fd5b8160405162461bcd60e51b81526004016106029190612507565b60006020828403121561228d57600080fd5b5035919050565b600080600080600060a086880312156122ac57600080fd5b8535945060208601359350604086013560ff811681146122cb57600080fd5b94979396509394606081013594506080013592915050565b600080604083850312156122f657600080fd5b50508035926020909101359150565b60006020828403121561231757600080fd5b5051919050565b60006020828403121561233057600080fd5b81516001600160a01b0381168114611e9b57600080fd5b6020808252601f908201527f5265656e7472616e637947756172643a207265656e7472616e742063616c6c00604082015260600190565b6001600160a01b0397881681529590961660208601526040850193909352606084019190915260ff16608083015260a082015260c081019190915260e00190565b634e487b7160e01b600052601160045260246000fd5b6000828210156123e7576123e76123bf565b500390565b600082198211156123ff576123ff6123bf565b500190565b6020808252602e908201527f496e697469616c697a61626c653a20636f6e747261637420697320616c72656160408201526d191e481a5b9a5d1a585b1a5e995960921b606082015260800190565b6020808252602b908201527f496e697469616c697a61626c653a20636f6e7472616374206973206e6f74206960408201526a6e697469616c697a696e6760a81b606082015260800190565b6000602082840312156124af57600080fd5b81518015158114611e9b57600080fd5b60005b838110156124da5781810151838201526020016124c2565b838111156119985750506000910152565b600082516124fd8184602087016124bf565b9190910192915050565b60208152600082518060208401526125268160408501602087016124bf565b601f01601f1916919091016040019291505056fea2646970667358221220490e70e13d6c2454b618a2948dfc474d479dfe1ee4d695f476513987b81455db64736f6c63430008090033",
  "devdoc": {
    "kind": "dev",
    "methods": {},
    "version": 1
  },
  "userdoc": {
    "kind": "user",
    "methods": {
      "__Deposit_init()": {
        "notice": "---------- init ---------- *"
      },
      "constructor": {
        "notice": "---------- constructor ---------- *"
      },
      "totalBalanceOfTorn()": {
        "notice": "---------- public getting ---------- *"
      }
    },
    "version": 1
  },
  "storageLayout": {
    "storage": [
      {
        "astId": 130,
        "contract": "contracts/Deposit.sol:Deposit",
        "label": "_initialized",
        "offset": 0,
        "slot": "0",
        "type": "t_uint8"
      },
      {
        "astId": 133,
        "contract": "contracts/Deposit.sol:Deposit",
        "label": "_initializing",
        "offset": 1,
        "slot": "0",
        "type": "t_bool"
      },
      {
        "astId": 279,
        "contract": "contracts/Deposit.sol:Deposit",
        "label": "_status",
        "offset": 0,
        "slot": "1",
        "type": "t_uint256"
      },
      {
        "astId": 323,
        "contract": "contracts/Deposit.sol:Deposit",
        "label": "__gap",
        "offset": 0,
        "slot": "2",
        "type": "t_array(t_uint256)49_storage"
      },
      {
        "astId": 4710,
        "contract": "contracts/Deposit.sol:Deposit",
        "label": "EXIT_QUEUE",
        "offset": 0,
        "slot": "51",
        "type": "t_address"
      },
      {
        "astId": 4712,
        "contract": "contracts/Deposit.sol:Deposit",
        "label": "maxReserveTorn",
        "offset": 0,
        "slot": "52",
        "type": "t_uint256"
      },
      {
        "astId": 4714,
        "contract": "contracts/Deposit.sol:Deposit",
        "label": "maxRewardInGov",
        "offset": 0,
        "slot": "53",
        "type": "t_uint256"
      }
    ],
    "types": {
      "t_address": {
        "encoding": "inplace",
        "label": "address",
        "numberOfBytes": "20"
      },
      "t_array(t_uint256)49_storage": {
        "base": "t_uint256",
        "encoding": "inplace",
        "label": "uint256[49]",
        "numberOfBytes": "1568"
      },
      "t_bool": {
        "encoding": "inplace",
        "label": "bool",
        "numberOfBytes": "1"
      },
      "t_uint256": {
        "encoding": "inplace",
        "label": "uint256",
        "numberOfBytes": "32"
      },
      "t_uint8": {
        "encoding": "inplace",
        "label": "uint8",
        "numberOfBytes": "1"
      }
    }
  }
}