{
  "address": "0x14BCe515eD13182ef801eC7427c337D29141B3e8",
  "abi": [
    {
      "inputs": [
        {
          "internalType": "address",
          "name": "_tornContract",
          "type": "address"
        },
        {
          "internalType": "address",
          "name": "_root_manager",
          "type": "address"
        }
      ],
      "stateMutability": "nonpayable",
      "type": "constructor"
    },
    {
      "anonymous": false,
      "inputs": [
        {
          "indexed": false,
          "internalType": "uint8",
          "name": "version",
          "type": "uint8"
        }
      ],
      "name": "Initialized",
      "type": "event"
    },
    {
      "anonymous": false,
      "inputs": [
        {
          "indexed": true,
          "internalType": "address",
          "name": "previousOwner",
          "type": "address"
        },
        {
          "indexed": true,
          "internalType": "address",
          "name": "newOwner",
          "type": "address"
        }
      ],
      "name": "OwnershipTransferred",
      "type": "event"
    },
    {
      "anonymous": false,
      "inputs": [
        {
          "indexed": false,
          "internalType": "uint256",
          "name": "_amount_token",
          "type": "uint256"
        }
      ],
      "name": "add_queue",
      "type": "event"
    },
    {
      "anonymous": false,
      "inputs": [
        {
          "indexed": false,
          "internalType": "address",
          "name": "account",
          "type": "address"
        },
        {
          "indexed": false,
          "internalType": "uint256",
          "name": "_amount_token",
          "type": "uint256"
        }
      ],
      "name": "cancel_queue",
      "type": "event"
    },
    {
      "inputs": [],
      "name": "INDEX_ERR",
      "outputs": [
        {
          "internalType": "uint256",
          "name": "",
          "type": "uint256"
        }
      ],
      "stateMutability": "view",
      "type": "function"
    },
    {
      "inputs": [],
      "name": "MAX_QUEUE_CANCEL",
      "outputs": [
        {
          "internalType": "uint256",
          "name": "",
          "type": "uint256"
        }
      ],
      "stateMutability": "view",
      "type": "function"
    },
    {
      "inputs": [],
      "name": "ROOT_MANAGER",
      "outputs": [
        {
          "internalType": "address",
          "name": "",
          "type": "address"
        }
      ],
      "stateMutability": "view",
      "type": "function"
    },
    {
      "inputs": [],
      "name": "TORN_CONTRACT",
      "outputs": [
        {
          "internalType": "address",
          "name": "",
          "type": "address"
        }
      ],
      "stateMutability": "view",
      "type": "function"
    },
    {
      "inputs": [],
      "name": "UpdateSkipIndex",
      "outputs": [],
      "stateMutability": "nonpayable",
      "type": "function"
    },
    {
      "inputs": [],
      "name": "__ExitQueue_init",
      "outputs": [],
      "stateMutability": "nonpayable",
      "type": "function"
    },
    {
      "inputs": [
        {
          "internalType": "uint256",
          "name": "_amount_token",
          "type": "uint256"
        },
        {
          "internalType": "uint256",
          "name": "deadline",
          "type": "uint256"
        },
        {
          "internalType": "uint8",
          "name": "v",
          "type": "uint8"
        },
        {
          "internalType": "bytes32",
          "name": "r",
          "type": "bytes32"
        },
        {
          "internalType": "bytes32",
          "name": "s",
          "type": "bytes32"
        }
      ],
      "name": "addQueue",
      "outputs": [],
      "stateMutability": "nonpayable",
      "type": "function"
    },
    {
      "inputs": [
        {
          "internalType": "uint256",
          "name": "_amount_token",
          "type": "uint256"
        }
      ],
      "name": "addQueueWithApproval",
      "outputs": [],
      "stateMutability": "nonpayable",
      "type": "function"
    },
    {
      "inputs": [
        {
          "internalType": "address",
          "name": "",
          "type": "address"
        }
      ],
      "name": "addr2index",
      "outputs": [
        {
          "internalType": "uint256",
          "name": "",
          "type": "uint256"
        }
      ],
      "stateMutability": "view",
      "type": "function"
    },
    {
      "inputs": [],
      "name": "cancelQueue",
      "outputs": [],
      "stateMutability": "nonpayable",
      "type": "function"
    },
    {
      "inputs": [],
      "name": "executeQueue",
      "outputs": [],
      "stateMutability": "nonpayable",
      "type": "function"
    },
    {
      "inputs": [
        {
          "internalType": "uint256",
          "name": "",
          "type": "uint256"
        }
      ],
      "name": "index2value",
      "outputs": [
        {
          "internalType": "uint256",
          "name": "",
          "type": "uint256"
        }
      ],
      "stateMutability": "view",
      "type": "function"
    },
    {
      "inputs": [],
      "name": "maxIndex",
      "outputs": [
        {
          "internalType": "uint256",
          "name": "",
          "type": "uint256"
        }
      ],
      "stateMutability": "view",
      "type": "function"
    },
    {
      "inputs": [],
      "name": "nextSkipIndex",
      "outputs": [
        {
          "internalType": "uint256",
          "name": "",
          "type": "uint256"
        }
      ],
      "stateMutability": "view",
      "type": "function"
    },
    {
      "inputs": [],
      "name": "nextValue",
      "outputs": [
        {
          "internalType": "uint256",
          "name": "value",
          "type": "uint256"
        }
      ],
      "stateMutability": "view",
      "type": "function"
    },
    {
      "inputs": [],
      "name": "owner",
      "outputs": [
        {
          "internalType": "address",
          "name": "",
          "type": "address"
        }
      ],
      "stateMutability": "view",
      "type": "function"
    },
    {
      "inputs": [],
      "name": "preparedIndex",
      "outputs": [
        {
          "internalType": "uint256",
          "name": "",
          "type": "uint256"
        }
      ],
      "stateMutability": "view",
      "type": "function"
    },
    {
      "inputs": [],
      "name": "renounceOwnership",
      "outputs": [],
      "stateMutability": "nonpayable",
      "type": "function"
    },
    {
      "inputs": [
        {
          "internalType": "address",
          "name": "newOwner",
          "type": "address"
        }
      ],
      "name": "transferOwnership",
      "outputs": [],
      "stateMutability": "nonpayable",
      "type": "function"
    },
    {
      "inputs": [],
      "name": "withDraw",
      "outputs": [],
      "stateMutability": "nonpayable",
      "type": "function"
    }
  ],
  "transactionHash": "0x225dca50d50c52e0858e525be8636ad799503b82759f1b779d5a099b8badee31",
  "args": [
    "0xb147FD8Ee78F146555F0df51494244221E386F48",
    "0xca37fA8CaaB2D725068cB31A36232F0B682aE079"
  ],
  "numDeployments": 1,
  "solcInputHash": "29a3732671a7fc6ce56ad916d8ef0cef",
  "bytecode": "0x60c06040526000609755600060985534801561001a57600080fd5b506040516114ee3803806114ee8339810160408190526100399161006c565b6001600160a01b0391821660a0521660805261009f565b80516001600160a01b038116811461006757600080fd5b919050565b6000806040838503121561007f57600080fd5b61008883610050565b915061009660208401610050565b90509250929050565b60805160a0516114006100ee60003960008181610164015261038f0152600081816101c30152818161049d015281816105a30152818161079d0152818161092d0152610a3801526114006000f3fe608060405234801561001057600080fd5b506004361061012c5760003560e01c80639b35742a116100ad578063cd0b038911610071578063cd0b03891461024e578063db87a16b14610256578063dbe293dd14610276578063f204fdd01461027e578063f2fde38b1461028657600080fd5b80639b35742a1461020f578063a4ec693814610218578063a5ba008b14610220578063be18491d14610233578063ccfb99351461024657600080fd5b80635f61e3ec116100f45780635f61e3ec146101be57806366c5b2cb146101e5578063715018a6146101ed5780637600b232146101f55780638da5cb5b146101fe57600080fd5b80630fdb1c10146101315780632640cd381461013b5780632ca869bf1461015657806331e819211461015f5780635e292a381461019e575b600080fd5b610139610299565b005b610143606481565b6040519081526020015b60405180910390f35b61014360985481565b6101867f000000000000000000000000000000000000000000000000000000000000000081565b6040516001600160a01b03909116815260200161014d565b6101436101ac366004611159565b60996020526000908152604090205481565b6101867f000000000000000000000000000000000000000000000000000000000000000081565b6101396103bf565b61013961050e565b61014360975481565b6033546001600160a01b0316610186565b61014360001981565b610139610574565b61013961022e366004611176565b610793565b6101396102413660046111c5565b610857565b61014361098f565b610139610ac1565b6101436102643660046111c5565b609a6020526000908152604090205481565b610143610b53565b610139610bd5565b610139610294366004611159565b610c4a565b600260655414156102c55760405162461bcd60e51b81526004016102bc906111de565b60405180910390fd5b60026065553360009081526099602052604090205460975481111561031b5760405162461bcd60e51b815260206004820152600c60248201526b1b9bdd081c1c995c185c995960a21b60448201526064016102bc565b6000818152609a6020526040902054806103695760405162461bcd60e51b815260206004820152600f60248201526e68617665206e6f2070656e64696e6760881b60448201526064016102bc565b336000818152609960209081526040808320839055858352609a9091528120556103b6907f0000000000000000000000000000000000000000000000000000000000000000905b83610d12565b50506001606555565b600260655414156103e25760405162461bcd60e51b81526004016102bc906111de565b600260655533600090815260996020908152604080832054808452609a909252909120548061043b5760405162461bcd60e51b8152602060048201526005602482015264656d70747960d81b60448201526064016102bc565b60975482116104775760405162461bcd60e51b81526020600482015260086024820152671c1c995c185c995960c21b60448201526064016102bc565b336000818152609960209081526040808320839055858352609a9091528120556104c2907f0000000000000000000000000000000000000000000000000000000000000000906103b0565b7f928514c1eab4e0264fc2a61e4dfac1747511111f0df535fee55cab3890ad6eb633604080516001600160a01b039092168252602082018490520160405180910390a150506001606555565b6033546001600160a01b031633146105685760405162461bcd60e51b815260206004820181905260248201527f4f776e61626c653a2063616c6c6572206973206e6f7420746865206f776e657260448201526064016102bc565b6105726000610d7a565b565b600260655414156105975760405162461bcd60e51b81526004016102bc906111de565b600260658190555060007f00000000000000000000000000000000000000000000000000000000000000006001600160a01b031663e94ad65b6040518163ffffffff1660e01b815260040160206040518083038186803b1580156105fa57600080fd5b505afa15801561060e573d6000803e3d6000fd5b505050506040513d601f19601f820116820180604052508101906106329190611215565b9050600060975460016106459190611248565b60985410156106835760405162461bcd60e51b815260206004820152600a6024820152696e6f2070656e64696e6760b01b60448201526064016102bc565b600061068d610b53565b90508060001914156106d25760405162461bcd60e51b815260206004820152600e60248201526d746f6f206d616e7920736b69707360901b60448201526064016102bc565b80609760008282546106e49190611248565b90915550506097546000908152609a602052604090819020549051633d11847560e11b815260048101919091526001600160a01b03841690637a2308ea90602401602060405180830381600087803b15801561073f57600080fd5b505af1158015610753573d6000803e3d6000fd5b505050506040513d601f19601f820116820180604052508101906107779190611260565b6097546000908152609a60205260409020555050600160655550565b6001600160a01b037f00000000000000000000000000000000000000000000000000000000000000001663d505accf336040516001600160e01b031960e084901b1681526001600160a01b039091166004820152306024820152604481018890526064810187905260ff8616608482015260a4810185905260c4810184905260e401600060405180830381600087803b15801561082f57600080fd5b505af1158015610843573d6000803e3d6000fd5b5050505061085085610857565b5050505050565b6002606554141561087a5760405162461bcd60e51b81526004016102bc906111de565b60026065819055506001609860008282546108959190611248565b9091555050336000908152609960205260409020541580156108c657506098546000908152609a6020526040902054155b6109015760405162461bcd60e51b815260206004820152600c60248201526b686176652070656e64696e6760a01b60448201526064016102bc565b609854336000818152609960209081526040808320859055938252609a905291909120829055610954907f0000000000000000000000000000000000000000000000000000000000000000903084610dcc565b6040518181527f5aef67c95f47b293f4de8ebc8ab77e701094fc924fd5b56b5e3375c51e5c97379060200160405180910390a1506001606555565b60008061099a610b53565b9050806109a957600091505090565b6000609a6000836097546109bd9190611248565b815260200190815260200160002054905080600014156109e05760009250505090565b816000191415610a235760405162461bcd60e51b815260206004820152600e60248201526d746f6f206d616e7920736b69707360901b60448201526064016102bc565b6040516272e6bd60e41b8152600481018290527f00000000000000000000000000000000000000000000000000000000000000006001600160a01b03169063072e6bd09060240160206040518083038186803b158015610a8257600080fd5b505afa158015610a96573d6000803e3d6000fd5b505050506040513d601f19601f82011682018060405250810190610aba9190611260565b9250505090565b60026065541415610ae45760405162461bcd60e51b81526004016102bc906111de565b60026065556000610af3610b53565b90506000198114610b3a5760405162461bcd60e51b81526020600482015260116024820152701cdada5c081a5cc81d1bdbc81cda1bdc9d607a1b60448201526064016102bc565b609754610b48906063611248565b609755506001606555565b609854609754600091908280828411610b7157600094505050505090565b5060015b6064811015610bc957610b888184611248565b6000818152609a602052604090205490925084831480610ba85750600081115b15610bb65750949350505050565b5080610bc181611279565b915050610b75565b60001994505050505090565b6000610be16001610e0a565b90508015610bf9576000805461ff0019166101001790555b610c01610e92565b8015610c47576000805461ff0019169055604051600181527f7f26b83ff96e1f2b6a682f133852f6798a09c465da95921460cefb38474024989060200160405180910390a15b50565b6033546001600160a01b03163314610ca45760405162461bcd60e51b815260206004820181905260248201527f4f776e61626c653a2063616c6c6572206973206e6f7420746865206f776e657260448201526064016102bc565b6001600160a01b038116610d095760405162461bcd60e51b815260206004820152602660248201527f4f776e61626c653a206e6577206f776e657220697320746865207a65726f206160448201526564647265737360d01b60648201526084016102bc565b610c4781610d7a565b6040516001600160a01b038316602482015260448101829052610d7590849063a9059cbb60e01b906064015b60408051601f198184030181529190526020810180516001600160e01b03166001600160e01b031990931692909217909152610ec1565b505050565b603380546001600160a01b038381166001600160a01b0319831681179093556040519116919082907f8be0079c531659141344cd1fd0a4f28419497f9722a3daafe3b4186f6b6457e090600090a35050565b6040516001600160a01b0380851660248301528316604482015260648101829052610e049085906323b872dd60e01b90608401610d3e565b50505050565b60008054610100900460ff1615610e51578160ff166001148015610e2d5750303b155b610e495760405162461bcd60e51b81526004016102bc90611294565b506000919050565b60005460ff808416911610610e785760405162461bcd60e51b81526004016102bc90611294565b506000805460ff191660ff92909216919091179055600190565b600054610100900460ff16610eb95760405162461bcd60e51b81526004016102bc906112e2565b610572610f93565b6000610f16826040518060400160405280602081526020017f5361666545524332303a206c6f772d6c6576656c2063616c6c206661696c6564815250856001600160a01b0316610fc19092919063ffffffff16565b805190915015610d755780806020019051810190610f34919061132d565b610d755760405162461bcd60e51b815260206004820152602a60248201527f5361666545524332303a204552433230206f7065726174696f6e20646964206e6044820152691bdd081cdd58d8d9595960b21b60648201526084016102bc565b600054610100900460ff16610fba5760405162461bcd60e51b81526004016102bc906112e2565b6001606555565b6060610fd08484600085610fda565b90505b9392505050565b60608247101561103b5760405162461bcd60e51b815260206004820152602660248201527f416464726573733a20696e73756666696369656e742062616c616e636520666f6044820152651c8818d85b1b60d21b60648201526084016102bc565b6001600160a01b0385163b6110925760405162461bcd60e51b815260206004820152601d60248201527f416464726573733a2063616c6c20746f206e6f6e2d636f6e747261637400000060448201526064016102bc565b600080866001600160a01b031685876040516110ae919061137b565b60006040518083038185875af1925050503d80600081146110eb576040519150601f19603f3d011682016040523d82523d6000602084013e6110f0565b606091505b509150915061110082828661110b565b979650505050505050565b6060831561111a575081610fd3565b82511561112a5782518084602001fd5b8160405162461bcd60e51b81526004016102bc9190611397565b6001600160a01b0381168114610c4757600080fd5b60006020828403121561116b57600080fd5b8135610fd381611144565b600080600080600060a0868803121561118e57600080fd5b8535945060208601359350604086013560ff811681146111ad57600080fd5b94979396509394606081013594506080013592915050565b6000602082840312156111d757600080fd5b5035919050565b6020808252601f908201527f5265656e7472616e637947756172643a207265656e7472616e742063616c6c00604082015260600190565b60006020828403121561122757600080fd5b8151610fd381611144565b634e487b7160e01b600052601160045260246000fd5b6000821982111561125b5761125b611232565b500190565b60006020828403121561127257600080fd5b5051919050565b600060001982141561128d5761128d611232565b5060010190565b6020808252602e908201527f496e697469616c697a61626c653a20636f6e747261637420697320616c72656160408201526d191e481a5b9a5d1a585b1a5e995960921b606082015260800190565b6020808252602b908201527f496e697469616c697a61626c653a20636f6e7472616374206973206e6f74206960408201526a6e697469616c697a696e6760a81b606082015260800190565b60006020828403121561133f57600080fd5b81518015158114610fd357600080fd5b60005b8381101561136a578181015183820152602001611352565b83811115610e045750506000910152565b6000825161138d81846020870161134f565b9190910192915050565b60208152600082518060208401526113b681604085016020870161134f565b601f01601f1916919091016040019291505056fea2646970667358221220ba5085bcc0d4f3a27d6877566707c5f6e4f5fa0a3730483e8b1913d2484a6f3c64736f6c63430008090033",
  "devdoc": {
    "kind": "dev",
    "methods": {
      "owner()": {
        "details": "Returns the address of the current owner."
      },
      "renounceOwnership()": {
        "details": "Leaves the contract without owner. It will not be possible to call `onlyOwner` functions anymore. Can only be called by the current owner. NOTE: Renouncing ownership will leave the contract without an owner, thereby removing any functionality that is only available to the owner."
      },
      "transferOwnership(address)": {
        "details": "Transfers ownership of the contract to a new account (`newOwner`). Can only be called by the current owner."
      }
    },
    "version": 1
  },
  "userdoc": {
    "kind": "user",
    "methods": {
      "constructor": {
        "notice": "---------- constructor ---------- *"
      }
    },
    "version": 1
  },
  "storageLayout": {
    "storage": [
      {
        "astId": 130,
        "contract": "contracts/ExitQueue.sol:ExitQueue",
        "label": "_initialized",
        "offset": 0,
        "slot": "0",
        "type": "t_uint8"
      },
      {
        "astId": 133,
        "contract": "contracts/ExitQueue.sol:ExitQueue",
        "label": "_initializing",
        "offset": 1,
        "slot": "0",
        "type": "t_bool"
      },
      {
        "astId": 1773,
        "contract": "contracts/ExitQueue.sol:ExitQueue",
        "label": "__gap",
        "offset": 0,
        "slot": "1",
        "type": "t_array(t_uint256)50_storage"
      },
      {
        "astId": 10,
        "contract": "contracts/ExitQueue.sol:ExitQueue",
        "label": "_owner",
        "offset": 0,
        "slot": "51",
        "type": "t_address"
      },
      {
        "astId": 122,
        "contract": "contracts/ExitQueue.sol:ExitQueue",
        "label": "__gap",
        "offset": 0,
        "slot": "52",
        "type": "t_array(t_uint256)49_storage"
      },
      {
        "astId": 279,
        "contract": "contracts/ExitQueue.sol:ExitQueue",
        "label": "_status",
        "offset": 0,
        "slot": "101",
        "type": "t_uint256"
      },
      {
        "astId": 323,
        "contract": "contracts/ExitQueue.sol:ExitQueue",
        "label": "__gap",
        "offset": 0,
        "slot": "102",
        "type": "t_array(t_uint256)49_storage"
      },
      {
        "astId": 6831,
        "contract": "contracts/ExitQueue.sol:ExitQueue",
        "label": "preparedIndex",
        "offset": 0,
        "slot": "151",
        "type": "t_uint256"
      },
      {
        "astId": 6834,
        "contract": "contracts/ExitQueue.sol:ExitQueue",
        "label": "maxIndex",
        "offset": 0,
        "slot": "152",
        "type": "t_uint256"
      },
      {
        "astId": 6838,
        "contract": "contracts/ExitQueue.sol:ExitQueue",
        "label": "addr2index",
        "offset": 0,
        "slot": "153",
        "type": "t_mapping(t_address,t_uint256)"
      },
      {
        "astId": 6842,
        "contract": "contracts/ExitQueue.sol:ExitQueue",
        "label": "index2value",
        "offset": 0,
        "slot": "154",
        "type": "t_mapping(t_uint256,t_uint256)"
      }
    ],
    "types": {
      "t_address": {
        "encoding": "inplace",
        "label": "address",
        "numberOfBytes": "20"
      },
      "t_array(t_uint256)49_storage": {
        "base": "t_uint256",
        "encoding": "inplace",
        "label": "uint256[49]",
        "numberOfBytes": "1568"
      },
      "t_array(t_uint256)50_storage": {
        "base": "t_uint256",
        "encoding": "inplace",
        "label": "uint256[50]",
        "numberOfBytes": "1600"
      },
      "t_bool": {
        "encoding": "inplace",
        "label": "bool",
        "numberOfBytes": "1"
      },
      "t_mapping(t_address,t_uint256)": {
        "encoding": "mapping",
        "key": "t_address",
        "label": "mapping(address => uint256)",
        "numberOfBytes": "32",
        "value": "t_uint256"
      },
      "t_mapping(t_uint256,t_uint256)": {
        "encoding": "mapping",
        "key": "t_uint256",
        "label": "mapping(uint256 => uint256)",
        "numberOfBytes": "32",
        "value": "t_uint256"
      },
      "t_uint256": {
        "encoding": "inplace",
        "label": "uint256",
        "numberOfBytes": "32"
      },
      "t_uint8": {
        "encoding": "inplace",
        "label": "uint8",
        "numberOfBytes": "1"
      }
    }
  }
}