{
  "address": "0x9f3c02574FC8EBA30ACEEAd5D26F8B08383A0060",
  "abi": [
    {
      "inputs": [
        {
          "internalType": "address",
          "name": "_tornContract",
          "type": "address"
        },
        {
          "internalType": "address",
          "name": "_root_manager",
          "type": "address"
        }
      ],
      "stateMutability": "nonpayable",
      "type": "constructor"
    },
    {
      "anonymous": false,
      "inputs": [
        {
          "indexed": false,
          "internalType": "uint8",
          "name": "version",
          "type": "uint8"
        }
      ],
      "name": "Initialized",
      "type": "event"
    },
    {
      "anonymous": false,
      "inputs": [
        {
          "indexed": true,
          "internalType": "address",
          "name": "previousOwner",
          "type": "address"
        },
        {
          "indexed": true,
          "internalType": "address",
          "name": "newOwner",
          "type": "address"
        }
      ],
      "name": "OwnershipTransferred",
      "type": "event"
    },
    {
      "anonymous": false,
      "inputs": [
        {
          "indexed": false,
          "internalType": "uint256",
          "name": "_amount_token",
          "type": "uint256"
        }
      ],
      "name": "add_queue",
      "type": "event"
    },
    {
      "anonymous": false,
      "inputs": [
        {
          "indexed": false,
          "internalType": "address",
          "name": "account",
          "type": "address"
        },
        {
          "indexed": false,
          "internalType": "uint256",
          "name": "_amount_token",
          "type": "uint256"
        }
      ],
      "name": "cancel_queue",
      "type": "event"
    },
    {
      "inputs": [],
      "name": "INDEX_ERR",
      "outputs": [
        {
          "internalType": "uint256",
          "name": "",
          "type": "uint256"
        }
      ],
      "stateMutability": "view",
      "type": "function"
    },
    {
      "inputs": [],
      "name": "MAX_QUEUE_CANCEL",
      "outputs": [
        {
          "internalType": "uint256",
          "name": "",
          "type": "uint256"
        }
      ],
      "stateMutability": "view",
      "type": "function"
    },
    {
      "inputs": [],
      "name": "ROOT_MANAGER",
      "outputs": [
        {
          "internalType": "address",
          "name": "",
          "type": "address"
        }
      ],
      "stateMutability": "view",
      "type": "function"
    },
    {
      "inputs": [],
      "name": "TORN_CONTRACT",
      "outputs": [
        {
          "internalType": "address",
          "name": "",
          "type": "address"
        }
      ],
      "stateMutability": "view",
      "type": "function"
    },
    {
      "inputs": [],
      "name": "UpdateSkipIndex",
      "outputs": [],
      "stateMutability": "nonpayable",
      "type": "function"
    },
    {
      "inputs": [],
      "name": "__ExitQueue_init",
      "outputs": [],
      "stateMutability": "nonpayable",
      "type": "function"
    },
    {
      "inputs": [
        {
          "internalType": "uint256",
          "name": "_amount_token",
          "type": "uint256"
        },
        {
          "internalType": "uint256",
          "name": "deadline",
          "type": "uint256"
        },
        {
          "internalType": "uint8",
          "name": "v",
          "type": "uint8"
        },
        {
          "internalType": "bytes32",
          "name": "r",
          "type": "bytes32"
        },
        {
          "internalType": "bytes32",
          "name": "s",
          "type": "bytes32"
        }
      ],
      "name": "addQueue",
      "outputs": [],
      "stateMutability": "nonpayable",
      "type": "function"
    },
    {
      "inputs": [
        {
          "internalType": "uint256",
          "name": "_amount_token",
          "type": "uint256"
        }
      ],
      "name": "addQueueWithApproval",
      "outputs": [],
      "stateMutability": "nonpayable",
      "type": "function"
    },
    {
      "inputs": [
        {
          "internalType": "address",
          "name": "",
          "type": "address"
        }
      ],
      "name": "addr2index",
      "outputs": [
        {
          "internalType": "uint256",
          "name": "",
          "type": "uint256"
        }
      ],
      "stateMutability": "view",
      "type": "function"
    },
    {
      "inputs": [
        {
          "internalType": "address",
          "name": "addr",
          "type": "address"
        }
      ],
      "name": "address2Value",
      "outputs": [
        {
          "internalType": "uint256",
          "name": "v",
          "type": "uint256"
        },
        {
          "internalType": "bool",
          "name": "prepared",
          "type": "bool"
        }
      ],
      "stateMutability": "view",
      "type": "function"
    },
    {
      "inputs": [],
      "name": "cancelQueue",
      "outputs": [],
      "stateMutability": "nonpayable",
      "type": "function"
    },
    {
      "inputs": [],
      "name": "executeQueue",
      "outputs": [],
      "stateMutability": "nonpayable",
      "type": "function"
    },
    {
      "inputs": [
        {
          "internalType": "uint256",
          "name": "",
          "type": "uint256"
        }
      ],
      "name": "index2value",
      "outputs": [
        {
          "internalType": "uint256",
          "name": "",
          "type": "uint256"
        }
      ],
      "stateMutability": "view",
      "type": "function"
    },
    {
      "inputs": [],
      "name": "maxIndex",
      "outputs": [
        {
          "internalType": "uint256",
          "name": "",
          "type": "uint256"
        }
      ],
      "stateMutability": "view",
      "type": "function"
    },
    {
      "inputs": [],
      "name": "nextSkipIndex",
      "outputs": [
        {
          "internalType": "uint256",
          "name": "",
          "type": "uint256"
        }
      ],
      "stateMutability": "view",
      "type": "function"
    },
    {
      "inputs": [],
      "name": "nextValue",
      "outputs": [
        {
          "internalType": "uint256",
          "name": "value",
          "type": "uint256"
        }
      ],
      "stateMutability": "view",
      "type": "function"
    },
    {
      "inputs": [],
      "name": "owner",
      "outputs": [
        {
          "internalType": "address",
          "name": "",
          "type": "address"
        }
      ],
      "stateMutability": "view",
      "type": "function"
    },
    {
      "inputs": [],
      "name": "preparedIndex",
      "outputs": [
        {
          "internalType": "uint256",
          "name": "",
          "type": "uint256"
        }
      ],
      "stateMutability": "view",
      "type": "function"
    },
    {
      "inputs": [],
      "name": "renounceOwnership",
      "outputs": [],
      "stateMutability": "nonpayable",
      "type": "function"
    },
    {
      "inputs": [
        {
          "internalType": "address",
          "name": "newOwner",
          "type": "address"
        }
      ],
      "name": "transferOwnership",
      "outputs": [],
      "stateMutability": "nonpayable",
      "type": "function"
    },
    {
      "inputs": [],
      "name": "withDraw",
      "outputs": [],
      "stateMutability": "nonpayable",
      "type": "function"
    }
  ],
  "transactionHash": "0x1a50cecc0bac989ed5991aaf175cac1f4587e34620234396d3454b5a04a54b73",
  "args": [
    "0x3FFe033d7fd8f1A2FE006E59F1F384740Fa54dB6",
    "0x137f2bf9584dE69371624b38bc04fA3c060Cdb29"
  ],
  "numDeployments": 5,
  "solcInputHash": "89629f1e6c07e37c3855e6df0c712297",
  "bytecode": "0x60c06040526000609755600060985534801561001a57600080fd5b5060405161154e38038061154e8339810160408190526100399161006c565b6001600160a01b0391821660a0521660805261009f565b80516001600160a01b038116811461006757600080fd5b919050565b6000806040838503121561007f57600080fd5b61008883610050565b915061009660208401610050565b90509250929050565b60805160a0516114606100ee6000396000818161016f01526103ef015260008181610223015281816104fd01528181610603015281816107fd0152818161098d0152610a9801526114606000f3fe608060405234801561001057600080fd5b50600436106101375760003560e01c80638da5cb5b116100b8578063ccfb99351161007c578063ccfb9935146102a6578063cd0b0389146102ae578063db87a16b146102b6578063dbe293dd146102d6578063f204fdd0146102de578063f2fde38b146102e657600080fd5b80638da5cb5b1461025e5780639b35742a1461026f578063a4ec693814610278578063a5ba008b14610280578063be18491d1461029357600080fd5b80635e292a38116100ff5780635e292a38146101fe5780635f61e3ec1461021e57806366c5b2cb14610245578063715018a61461024d5780637600b2321461025557600080fd5b80630fdb1c101461013c5780632640cd38146101465780632ca869bf1461016157806331e819211461016a578063552699f1146101a9575b600080fd5b6101446102f9565b005b61014e606481565b6040519081526020015b60405180910390f35b61014e60985481565b6101917f000000000000000000000000000000000000000000000000000000000000000081565b6040516001600160a01b039091168152602001610158565b6101e96101b73660046111b9565b6001600160a01b0316600090815260996020908152604080832054808452609a90925290912054609754909291111590565b60408051928352901515602083015201610158565b61014e61020c3660046111b9565b60996020526000908152604090205481565b6101917f000000000000000000000000000000000000000000000000000000000000000081565b61014461041f565b61014461056e565b61014e60975481565b6033546001600160a01b0316610191565b61014e60001981565b6101446105d4565b61014461028e3660046111d6565b6107f3565b6101446102a1366004611225565b6108b7565b61014e6109ef565b610144610b21565b61014e6102c4366004611225565b609a6020526000908152604090205481565b61014e610bb3565b610144610c35565b6101446102f43660046111b9565b610caa565b600260655414156103255760405162461bcd60e51b815260040161031c9061123e565b60405180910390fd5b60026065553360009081526099602052604090205460975481111561037b5760405162461bcd60e51b815260206004820152600c60248201526b1b9bdd081c1c995c185c995960a21b604482015260640161031c565b6000818152609a6020526040902054806103c95760405162461bcd60e51b815260206004820152600f60248201526e68617665206e6f2070656e64696e6760881b604482015260640161031c565b336000818152609960209081526040808320839055858352609a909152812055610416907f0000000000000000000000000000000000000000000000000000000000000000905b83610d72565b50506001606555565b600260655414156104425760405162461bcd60e51b815260040161031c9061123e565b600260655533600090815260996020908152604080832054808452609a909252909120548061049b5760405162461bcd60e51b8152602060048201526005602482015264656d70747960d81b604482015260640161031c565b60975482116104d75760405162461bcd60e51b81526020600482015260086024820152671c1c995c185c995960c21b604482015260640161031c565b336000818152609960209081526040808320839055858352609a909152812055610522907f000000000000000000000000000000000000000000000000000000000000000090610410565b7f928514c1eab4e0264fc2a61e4dfac1747511111f0df535fee55cab3890ad6eb633604080516001600160a01b039092168252602082018490520160405180910390a150506001606555565b6033546001600160a01b031633146105c85760405162461bcd60e51b815260206004820181905260248201527f4f776e61626c653a2063616c6c6572206973206e6f7420746865206f776e6572604482015260640161031c565b6105d26000610dda565b565b600260655414156105f75760405162461bcd60e51b815260040161031c9061123e565b600260658190555060007f00000000000000000000000000000000000000000000000000000000000000006001600160a01b031663e94ad65b6040518163ffffffff1660e01b815260040160206040518083038186803b15801561065a57600080fd5b505afa15801561066e573d6000803e3d6000fd5b505050506040513d601f19601f820116820180604052508101906106929190611275565b9050600060975460016106a591906112a8565b60985410156106e35760405162461bcd60e51b815260206004820152600a6024820152696e6f2070656e64696e6760b01b604482015260640161031c565b60006106ed610bb3565b90508060001914156107325760405162461bcd60e51b815260206004820152600e60248201526d746f6f206d616e7920736b69707360901b604482015260640161031c565b806097600082825461074491906112a8565b90915550506097546000908152609a602052604090819020549051633d11847560e11b815260048101919091526001600160a01b03841690637a2308ea90602401602060405180830381600087803b15801561079f57600080fd5b505af11580156107b3573d6000803e3d6000fd5b505050506040513d601f19601f820116820180604052508101906107d791906112c0565b6097546000908152609a60205260409020555050600160655550565b6001600160a01b037f00000000000000000000000000000000000000000000000000000000000000001663d505accf336040516001600160e01b031960e084901b1681526001600160a01b039091166004820152306024820152604481018890526064810187905260ff8616608482015260a4810185905260c4810184905260e401600060405180830381600087803b15801561088f57600080fd5b505af11580156108a3573d6000803e3d6000fd5b505050506108b0856108b7565b5050505050565b600260655414156108da5760405162461bcd60e51b815260040161031c9061123e565b60026065819055506001609860008282546108f591906112a8565b90915550503360009081526099602052604090205415801561092657506098546000908152609a6020526040902054155b6109615760405162461bcd60e51b815260206004820152600c60248201526b686176652070656e64696e6760a01b604482015260640161031c565b609854336000818152609960209081526040808320859055938252609a9052919091208290556109b4907f0000000000000000000000000000000000000000000000000000000000000000903084610e2c565b6040518181527f5aef67c95f47b293f4de8ebc8ab77e701094fc924fd5b56b5e3375c51e5c97379060200160405180910390a1506001606555565b6000806109fa610bb3565b905080610a0957600091505090565b806000191415610a4c5760405162461bcd60e51b815260206004820152600e60248201526d746f6f206d616e7920736b69707360901b604482015260640161031c565b6000609a600083609754610a6091906112a8565b81526020019081526020016000205490508060001415610a835760009250505090565b6040516272e6bd60e41b8152600481018290527f00000000000000000000000000000000000000000000000000000000000000006001600160a01b03169063072e6bd09060240160206040518083038186803b158015610ae257600080fd5b505afa158015610af6573d6000803e3d6000fd5b505050506040513d601f19601f82011682018060405250810190610b1a91906112c0565b9250505090565b60026065541415610b445760405162461bcd60e51b815260040161031c9061123e565b60026065556000610b53610bb3565b90506000198114610b9a5760405162461bcd60e51b81526020600482015260116024820152701cdada5c081a5cc81d1bdbc81cda1bdc9d607a1b604482015260640161031c565b609754610ba89060636112a8565b609755506001606555565b609854609754600091908280828411610bd157600094505050505090565b5060015b6064811015610c2957610be881846112a8565b6000818152609a602052604090205490925084831480610c085750600081115b15610c165750949350505050565b5080610c21816112d9565b915050610bd5565b60001994505050505090565b6000610c416001610e6a565b90508015610c59576000805461ff0019166101001790555b610c61610ef2565b8015610ca7576000805461ff0019169055604051600181527f7f26b83ff96e1f2b6a682f133852f6798a09c465da95921460cefb38474024989060200160405180910390a15b50565b6033546001600160a01b03163314610d045760405162461bcd60e51b815260206004820181905260248201527f4f776e61626c653a2063616c6c6572206973206e6f7420746865206f776e6572604482015260640161031c565b6001600160a01b038116610d695760405162461bcd60e51b815260206004820152602660248201527f4f776e61626c653a206e6577206f776e657220697320746865207a65726f206160448201526564647265737360d01b606482015260840161031c565b610ca781610dda565b6040516001600160a01b038316602482015260448101829052610dd590849063a9059cbb60e01b906064015b60408051601f198184030181529190526020810180516001600160e01b03166001600160e01b031990931692909217909152610f21565b505050565b603380546001600160a01b038381166001600160a01b0319831681179093556040519116919082907f8be0079c531659141344cd1fd0a4f28419497f9722a3daafe3b4186f6b6457e090600090a35050565b6040516001600160a01b0380851660248301528316604482015260648101829052610e649085906323b872dd60e01b90608401610d9e565b50505050565b60008054610100900460ff1615610eb1578160ff166001148015610e8d5750303b155b610ea95760405162461bcd60e51b815260040161031c906112f4565b506000919050565b60005460ff808416911610610ed85760405162461bcd60e51b815260040161031c906112f4565b506000805460ff191660ff92909216919091179055600190565b600054610100900460ff16610f195760405162461bcd60e51b815260040161031c90611342565b6105d2610ff3565b6000610f76826040518060400160405280602081526020017f5361666545524332303a206c6f772d6c6576656c2063616c6c206661696c6564815250856001600160a01b03166110219092919063ffffffff16565b805190915015610dd55780806020019051810190610f94919061138d565b610dd55760405162461bcd60e51b815260206004820152602a60248201527f5361666545524332303a204552433230206f7065726174696f6e20646964206e6044820152691bdd081cdd58d8d9595960b21b606482015260840161031c565b600054610100900460ff1661101a5760405162461bcd60e51b815260040161031c90611342565b6001606555565b6060611030848460008561103a565b90505b9392505050565b60608247101561109b5760405162461bcd60e51b815260206004820152602660248201527f416464726573733a20696e73756666696369656e742062616c616e636520666f6044820152651c8818d85b1b60d21b606482015260840161031c565b6001600160a01b0385163b6110f25760405162461bcd60e51b815260206004820152601d60248201527f416464726573733a2063616c6c20746f206e6f6e2d636f6e7472616374000000604482015260640161031c565b600080866001600160a01b0316858760405161110e91906113db565b60006040518083038185875af1925050503d806000811461114b576040519150601f19603f3d011682016040523d82523d6000602084013e611150565b606091505b509150915061116082828661116b565b979650505050505050565b6060831561117a575081611033565b82511561118a5782518084602001fd5b8160405162461bcd60e51b815260040161031c91906113f7565b6001600160a01b0381168114610ca757600080fd5b6000602082840312156111cb57600080fd5b8135611033816111a4565b600080600080600060a086880312156111ee57600080fd5b8535945060208601359350604086013560ff8116811461120d57600080fd5b94979396509394606081013594506080013592915050565b60006020828403121561123757600080fd5b5035919050565b6020808252601f908201527f5265656e7472616e637947756172643a207265656e7472616e742063616c6c00604082015260600190565b60006020828403121561128757600080fd5b8151611033816111a4565b634e487b7160e01b600052601160045260246000fd5b600082198211156112bb576112bb611292565b500190565b6000602082840312156112d257600080fd5b5051919050565b60006000198214156112ed576112ed611292565b5060010190565b6020808252602e908201527f496e697469616c697a61626c653a20636f6e747261637420697320616c72656160408201526d191e481a5b9a5d1a585b1a5e995960921b606082015260800190565b6020808252602b908201527f496e697469616c697a61626c653a20636f6e7472616374206973206e6f74206960408201526a6e697469616c697a696e6760a81b606082015260800190565b60006020828403121561139f57600080fd5b8151801515811461103357600080fd5b60005b838110156113ca5781810151838201526020016113b2565b83811115610e645750506000910152565b600082516113ed8184602087016113af565b9190910192915050565b60208152600082518060208401526114168160408501602087016113af565b601f01601f1916919091016040019291505056fea26469706673582212200df412d6bcfefe51da5c124c0acd0962b64ee391be8c2e54ab9d0d31e9d38ed564736f6c63430008090033",
  "devdoc": {
    "kind": "dev",
    "methods": {
      "owner()": {
        "details": "Returns the address of the current owner."
      },
      "renounceOwnership()": {
        "details": "Leaves the contract without owner. It will not be possible to call `onlyOwner` functions anymore. Can only be called by the current owner. NOTE: Renouncing ownership will leave the contract without an owner, thereby removing any functionality that is only available to the owner."
      },
      "transferOwnership(address)": {
        "details": "Transfers ownership of the contract to a new account (`newOwner`). Can only be called by the current owner."
      }
    },
    "version": 1
  },
  "userdoc": {
    "kind": "user",
    "methods": {
      "constructor": {
        "notice": "---------- constructor ---------- *"
      }
    },
    "version": 1
  },
  "storageLayout": {
    "storage": [
      {
        "astId": 130,
        "contract": "contracts/ExitQueue.sol:ExitQueue",
        "label": "_initialized",
        "offset": 0,
        "slot": "0",
        "type": "t_uint8"
      },
      {
        "astId": 133,
        "contract": "contracts/ExitQueue.sol:ExitQueue",
        "label": "_initializing",
        "offset": 1,
        "slot": "0",
        "type": "t_bool"
      },
      {
        "astId": 1773,
        "contract": "contracts/ExitQueue.sol:ExitQueue",
        "label": "__gap",
        "offset": 0,
        "slot": "1",
        "type": "t_array(t_uint256)50_storage"
      },
      {
        "astId": 10,
        "contract": "contracts/ExitQueue.sol:ExitQueue",
        "label": "_owner",
        "offset": 0,
        "slot": "51",
        "type": "t_address"
      },
      {
        "astId": 122,
        "contract": "contracts/ExitQueue.sol:ExitQueue",
        "label": "__gap",
        "offset": 0,
        "slot": "52",
        "type": "t_array(t_uint256)49_storage"
      },
      {
        "astId": 279,
        "contract": "contracts/ExitQueue.sol:ExitQueue",
        "label": "_status",
        "offset": 0,
        "slot": "101",
        "type": "t_uint256"
      },
      {
        "astId": 323,
        "contract": "contracts/ExitQueue.sol:ExitQueue",
        "label": "__gap",
        "offset": 0,
        "slot": "102",
        "type": "t_array(t_uint256)49_storage"
      },
      {
        "astId": 5501,
        "contract": "contracts/ExitQueue.sol:ExitQueue",
        "label": "preparedIndex",
        "offset": 0,
        "slot": "151",
        "type": "t_uint256"
      },
      {
        "astId": 5504,
        "contract": "contracts/ExitQueue.sol:ExitQueue",
        "label": "maxIndex",
        "offset": 0,
        "slot": "152",
        "type": "t_uint256"
      },
      {
        "astId": 5508,
        "contract": "contracts/ExitQueue.sol:ExitQueue",
        "label": "addr2index",
        "offset": 0,
        "slot": "153",
        "type": "t_mapping(t_address,t_uint256)"
      },
      {
        "astId": 5512,
        "contract": "contracts/ExitQueue.sol:ExitQueue",
        "label": "index2value",
        "offset": 0,
        "slot": "154",
        "type": "t_mapping(t_uint256,t_uint256)"
      }
    ],
    "types": {
      "t_address": {
        "encoding": "inplace",
        "label": "address",
        "numberOfBytes": "20"
      },
      "t_array(t_uint256)49_storage": {
        "base": "t_uint256",
        "encoding": "inplace",
        "label": "uint256[49]",
        "numberOfBytes": "1568"
      },
      "t_array(t_uint256)50_storage": {
        "base": "t_uint256",
        "encoding": "inplace",
        "label": "uint256[50]",
        "numberOfBytes": "1600"
      },
      "t_bool": {
        "encoding": "inplace",
        "label": "bool",
        "numberOfBytes": "1"
      },
      "t_mapping(t_address,t_uint256)": {
        "encoding": "mapping",
        "key": "t_address",
        "label": "mapping(address => uint256)",
        "numberOfBytes": "32",
        "value": "t_uint256"
      },
      "t_mapping(t_uint256,t_uint256)": {
        "encoding": "mapping",
        "key": "t_uint256",
        "label": "mapping(uint256 => uint256)",
        "numberOfBytes": "32",
        "value": "t_uint256"
      },
      "t_uint256": {
        "encoding": "inplace",
        "label": "uint256",
        "numberOfBytes": "32"
      },
      "t_uint8": {
        "encoding": "inplace",
        "label": "uint8",
        "numberOfBytes": "1"
      }
    }
  }
}