{
  "address": "0x6B993008DC453De6E3Eec06E9Fe610efc22a4D59",
  "abi": [
    {
      "inputs": [
        {
          "internalType": "address",
          "name": "_swapRoute",
          "type": "address"
        },
        {
          "internalType": "address",
          "name": "_weth",
          "type": "address"
        },
        {
          "internalType": "address",
          "name": "_tornContract",
          "type": "address"
        },
        {
          "internalType": "address",
          "name": "_root_manager",
          "type": "address"
        }
      ],
      "stateMutability": "nonpayable",
      "type": "constructor"
    },
    {
      "anonymous": false,
      "inputs": [
        {
          "indexed": false,
          "internalType": "address",
          "name": "",
          "type": "address"
        },
        {
          "indexed": false,
          "internalType": "uint256",
          "name": "",
          "type": "uint256"
        }
      ],
      "name": "distribute_torn",
      "type": "event"
    },
    {
      "anonymous": false,
      "inputs": [
        {
          "indexed": false,
          "internalType": "address",
          "name": "",
          "type": "address"
        },
        {
          "indexed": false,
          "internalType": "address",
          "name": "",
          "type": "address"
        },
        {
          "indexed": false,
          "internalType": "uint256",
          "name": "",
          "type": "uint256"
        }
      ],
      "name": "with_draw",
      "type": "event"
    },
    {
      "inputs": [],
      "name": "ROOT_MANAGER",
      "outputs": [
        {
          "internalType": "address",
          "name": "",
          "type": "address"
        }
      ],
      "stateMutability": "view",
      "type": "function"
    },
    {
      "inputs": [],
      "name": "SWAP_ROUTE",
      "outputs": [
        {
          "internalType": "address",
          "name": "",
          "type": "address"
        }
      ],
      "stateMutability": "view",
      "type": "function"
    },
    {
      "inputs": [],
      "name": "TORN_CONTRACT",
      "outputs": [
        {
          "internalType": "address",
          "name": "",
          "type": "address"
        }
      ],
      "stateMutability": "view",
      "type": "function"
    },
    {
      "inputs": [],
      "name": "WETH",
      "outputs": [
        {
          "internalType": "address",
          "name": "",
          "type": "address"
        }
      ],
      "stateMutability": "view",
      "type": "function"
    },
    {
      "inputs": [
        {
          "internalType": "uint256",
          "name": "_amount",
          "type": "uint256"
        }
      ],
      "name": "distributeTorn",
      "outputs": [],
      "stateMutability": "nonpayable",
      "type": "function"
    },
    {
      "inputs": [
        {
          "internalType": "uint256",
          "name": "_amount",
          "type": "uint256"
        },
        {
          "internalType": "uint256",
          "name": "_minAmountOut",
          "type": "uint256"
        }
      ],
      "name": "swapETHForTorn",
      "outputs": [],
      "stateMutability": "payable",
      "type": "function"
    },
    {
      "inputs": [
        {
          "internalType": "address",
          "name": "_token",
          "type": "address"
        },
        {
          "internalType": "uint256",
          "name": "_amount",
          "type": "uint256"
        }
      ],
      "name": "withdraw",
      "outputs": [],
      "stateMutability": "payable",
      "type": "function"
    },
    {
      "stateMutability": "payable",
      "type": "receive"
    }
  ],
  "transactionHash": "0xb66bd203ca689a60d0644850a75bedc9780752f381df7261c1abd82f55799e27",
  "args": [
    "0x35AfA074319E0CD8192f3B8879aC3aCe9f51Ef01",
    "0xE7E486cAAC3AdEAD0df4eFF2285BfB6160D63376",
    "0x3FFe033d7fd8f1A2FE006E59F1F384740Fa54dB6",
    "0x137f2bf9584dE69371624b38bc04fA3c060Cdb29"
  ],
  "numDeployments": 4,
  "solcInputHash": "48a7b2763fee15da6fd78d5b9b9bb647",
  "bytecode": "0x61010060405234801561001157600080fd5b50604051610f07380380610f078339810160408190526100309161006e565b6001600160a01b0393841660a052918316608052821660c0521660e0526100c2565b80516001600160a01b038116811461006957600080fd5b919050565b6000806000806080858703121561008457600080fd5b61008d85610052565b935061009b60208601610052565b92506100a960408601610052565b91506100b760608601610052565b905092959194509250565b60805160a05160c05160e051610dcf6101386000396000818160f7015281816101b60152818161047001528181610533015281816105db01526106b201526000818160a70152818161032f015261064401526000818161017f01526102c401526000818161014b01526103000152610dcf6000f3fe6080604052600436106100745760003560e01c80638bf6b1e21161004e5780638bf6b1e214610119578063ad5c464814610139578063d468b1f01461016d578063f3fef3a3146101a157600080fd5b80632b129d3b1461008057806331e81921146100955780635f61e3ec146100e557600080fd5b3661007b57005b600080fd5b61009361008e366004610bed565b6101b4565b005b3480156100a157600080fd5b506100c97f000000000000000000000000000000000000000000000000000000000000000081565b6040516001600160a01b03909116815260200160405180910390f35b3480156100f157600080fd5b506100c97f000000000000000000000000000000000000000000000000000000000000000081565b34801561012557600080fd5b50610093610134366004610c0f565b61046e565b34801561014557600080fd5b506100c97f000000000000000000000000000000000000000000000000000000000000000081565b34801561017957600080fd5b506100c97f000000000000000000000000000000000000000000000000000000000000000081565b6100936101af366004610c40565b6106b0565b7f00000000000000000000000000000000000000000000000000000000000000006001600160a01b031663570ca7356040518163ffffffff1660e01b815260040160206040518083038186803b15801561020d57600080fd5b505afa158015610221573d6000803e3d6000fd5b505050506040513d601f19601f820116820180604052508101906102459190610c6c565b6001600160a01b0316336001600160a01b03161461027e5760405162461bcd60e51b815260040161027590610c89565b60405180910390fd5b8134146102c25760405162461bcd60e51b8152602060048201526012602482015271756e636f6e666f726d6974792076616c756560701b6044820152606401610275565b7f00000000000000000000000000000000000000000000000000000000000000006001600160a01b031663414bf389836040518061010001604052807f00000000000000000000000000000000000000000000000000000000000000006001600160a01b031681526020017f00000000000000000000000000000000000000000000000000000000000000006001600160a01b0316815260200161271062ffffff168152602001306001600160a01b0316815260200142603c6103859190610cb9565b8152602080820188905260408083018890526000606093840152805160e087811b6001600160e01b031916825285516001600160a01b03908116600484015293860151841660248301529185015162ffffff16604482015292840151821660648401526080840151608484015260a084015160a484015260c084015160c4840152929092015190911660e4820152610104016020604051808303818588803b15801561043057600080fd5b505af1158015610444573d6000803e3d6000fd5b50505050506040513d601f19601f820116820180604052508101906104699190610cdf565b505050565b7f00000000000000000000000000000000000000000000000000000000000000006001600160a01b031663570ca7356040518163ffffffff1660e01b815260040160206040518083038186803b1580156104c757600080fd5b505afa1580156104db573d6000803e3d6000fd5b505050506040513d601f19601f820116820180604052508101906104ff9190610c6c565b6001600160a01b0316336001600160a01b03161461052f5760405162461bcd60e51b815260040161027590610c89565b60007f00000000000000000000000000000000000000000000000000000000000000006001600160a01b031663e94ad65b6040518163ffffffff1660e01b815260040160206040518083038186803b15801561058a57600080fd5b505afa15801561059e573d6000803e3d6000fd5b505050506040513d601f19601f820116820180604052508101906105c29190610c6c565b604051639380f97360e01b8152600481018490529091507f00000000000000000000000000000000000000000000000000000000000000006001600160a01b031690639380f97390602401600060405180830381600087803b15801561062757600080fd5b505af115801561063b573d6000803e3d6000fd5b5050505061066a7f0000000000000000000000000000000000000000000000000000000000000000828461082d565b604080516001600160a01b0383168152602081018490527f25b2c293934710dac64b8a25596b8a8ba34c856abeee17f8ca10a513e5eb6871910160405180910390a15050565b7f00000000000000000000000000000000000000000000000000000000000000006001600160a01b031663570ca7356040518163ffffffff1660e01b815260040160206040518083038186803b15801561070957600080fd5b505afa15801561071d573d6000803e3d6000fd5b505050506040513d601f19601f820116820180604052508101906107419190610c6c565b6001600160a01b0316336001600160a01b0316146107715760405162461bcd60e51b815260040161027590610c89565b604080516001600160a01b03841681523360208201529081018290527f4004a0ae8f5cb85c80a86faa773db946ac30c9ed00ea9d86f1bf0b96c820c29d9060600160405180910390a16001600160a01b03821661081d578047101561080f5760405162461bcd60e51b8152602060048201526014602482015273496e73756666696369656e742062616c616e636560601b6044820152606401610275565b610819338261087f565b5050565b6108196001600160a01b03831633835b604080516001600160a01b038416602482015260448082018490528251808303909101815260649091019091526020810180516001600160e01b031663a9059cbb60e01b179052610469908490610998565b804710156108cf5760405162461bcd60e51b815260206004820152601d60248201527f416464726573733a20696e73756666696369656e742062616c616e63650000006044820152606401610275565b6000826001600160a01b03168260405160006040518083038185875af1925050503d806000811461091c576040519150601f19603f3d011682016040523d82523d6000602084013e610921565b606091505b50509050806104695760405162461bcd60e51b815260206004820152603a60248201527f416464726573733a20756e61626c6520746f2073656e642076616c75652c207260448201527f6563697069656e74206d617920686176652072657665727465640000000000006064820152608401610275565b60006109ed826040518060400160405280602081526020017f5361666545524332303a206c6f772d6c6576656c2063616c6c206661696c6564815250856001600160a01b0316610a6a9092919063ffffffff16565b8051909150156104695780806020019051810190610a0b9190610cf8565b6104695760405162461bcd60e51b815260206004820152602a60248201527f5361666545524332303a204552433230206f7065726174696f6e20646964206e6044820152691bdd081cdd58d8d9595960b21b6064820152608401610275565b6060610a798484600085610a83565b90505b9392505050565b606082471015610ae45760405162461bcd60e51b815260206004820152602660248201527f416464726573733a20696e73756666696369656e742062616c616e636520666f6044820152651c8818d85b1b60d21b6064820152608401610275565b6001600160a01b0385163b610b3b5760405162461bcd60e51b815260206004820152601d60248201527f416464726573733a2063616c6c20746f206e6f6e2d636f6e74726163740000006044820152606401610275565b600080866001600160a01b03168587604051610b579190610d4a565b60006040518083038185875af1925050503d8060008114610b94576040519150601f19603f3d011682016040523d82523d6000602084013e610b99565b606091505b5091509150610ba9828286610bb4565b979650505050505050565b60608315610bc3575081610a7c565b825115610bd35782518084602001fd5b8160405162461bcd60e51b81526004016102759190610d66565b60008060408385031215610c0057600080fd5b50508035926020909101359150565b600060208284031215610c2157600080fd5b5035919050565b6001600160a01b0381168114610c3d57600080fd5b50565b60008060408385031215610c5357600080fd5b8235610c5e81610c28565b946020939093013593505050565b600060208284031215610c7e57600080fd5b8151610a7c81610c28565b60208082526016908201527521b0b63632b91034b9903737ba1037b832b930ba37b960511b604082015260600190565b60008219821115610cda57634e487b7160e01b600052601160045260246000fd5b500190565b600060208284031215610cf157600080fd5b5051919050565b600060208284031215610d0a57600080fd5b81518015158114610a7c57600080fd5b60005b83811015610d35578181015183820152602001610d1d565b83811115610d44576000848401525b50505050565b60008251610d5c818460208701610d1a565b9190910192915050565b6020815260008251806020840152610d85816040850160208701610d1a565b601f01601f1916919091016040019291505056fea26469706673582212205e0b2782f7a854b25c3f2eee44241a56d72cd24e2f1819607a73f23fd6ce841e64736f6c63430008090033",
  "devdoc": {
    "kind": "dev",
    "methods": {},
    "version": 1
  },
  "userdoc": {
    "kind": "user",
    "methods": {
      "constructor": {
        "notice": "---------- constructor ---------- *"
      }
    },
    "version": 1
  },
  "storageLayout": {
    "storage": [],
    "types": null
  }
}