{
  "address": "0xCC25510ce0deDe88AE7431d0ef6A965b73485E46",
  "abi": [
    {
      "inputs": [
        {
          "internalType": "address",
          "name": "_swapRoute",
          "type": "address"
        },
        {
          "internalType": "address",
          "name": "_weth",
          "type": "address"
        },
        {
          "internalType": "address",
          "name": "_tornContract",
          "type": "address"
        },
        {
          "internalType": "address",
          "name": "_root_manager",
          "type": "address"
        }
      ],
      "stateMutability": "nonpayable",
      "type": "constructor"
    },
    {
      "anonymous": false,
      "inputs": [
        {
          "indexed": false,
          "internalType": "address",
          "name": "",
          "type": "address"
        },
        {
          "indexed": false,
          "internalType": "uint256",
          "name": "",
          "type": "uint256"
        }
      ],
      "name": "called_fallback",
      "type": "event"
    },
    {
      "anonymous": false,
      "inputs": [
        {
          "indexed": false,
          "internalType": "address",
          "name": "",
          "type": "address"
        },
        {
          "indexed": false,
          "internalType": "uint256",
          "name": "",
          "type": "uint256"
        }
      ],
      "name": "distribute_torn",
      "type": "event"
    },
    {
      "anonymous": false,
      "inputs": [
        {
          "indexed": false,
          "internalType": "address",
          "name": "",
          "type": "address"
        },
        {
          "indexed": false,
          "internalType": "uint256",
          "name": "",
          "type": "uint256"
        }
      ],
      "name": "received",
      "type": "event"
    },
    {
      "anonymous": false,
      "inputs": [
        {
          "indexed": false,
          "internalType": "address",
          "name": "",
          "type": "address"
        },
        {
          "indexed": false,
          "internalType": "address",
          "name": "",
          "type": "address"
        },
        {
          "indexed": false,
          "internalType": "uint256",
          "name": "",
          "type": "uint256"
        }
      ],
      "name": "with_draw",
      "type": "event"
    },
    {
      "stateMutability": "payable",
      "type": "fallback"
    },
    {
      "inputs": [],
      "name": "ROOT_MANAGER",
      "outputs": [
        {
          "internalType": "address",
          "name": "",
          "type": "address"
        }
      ],
      "stateMutability": "view",
      "type": "function"
    },
    {
      "inputs": [],
      "name": "SWAP_ROUTE",
      "outputs": [
        {
          "internalType": "address",
          "name": "",
          "type": "address"
        }
      ],
      "stateMutability": "view",
      "type": "function"
    },
    {
      "inputs": [],
      "name": "TORN_CONTRACT",
      "outputs": [
        {
          "internalType": "address",
          "name": "",
          "type": "address"
        }
      ],
      "stateMutability": "view",
      "type": "function"
    },
    {
      "inputs": [],
      "name": "WETH",
      "outputs": [
        {
          "internalType": "address",
          "name": "",
          "type": "address"
        }
      ],
      "stateMutability": "view",
      "type": "function"
    },
    {
      "inputs": [
        {
          "internalType": "uint256",
          "name": "_amount",
          "type": "uint256"
        }
      ],
      "name": "distributeTorn",
      "outputs": [],
      "stateMutability": "nonpayable",
      "type": "function"
    },
    {
      "inputs": [
        {
          "internalType": "uint256",
          "name": "_amount",
          "type": "uint256"
        },
        {
          "internalType": "uint256",
          "name": "_minAmountOut",
          "type": "uint256"
        }
      ],
      "name": "swapETHForTorn",
      "outputs": [],
      "stateMutability": "payable",
      "type": "function"
    },
    {
      "inputs": [
        {
          "internalType": "address",
          "name": "_token",
          "type": "address"
        },
        {
          "internalType": "uint256",
          "name": "_amount",
          "type": "uint256"
        }
      ],
      "name": "withdraw",
      "outputs": [],
      "stateMutability": "payable",
      "type": "function"
    },
    {
      "stateMutability": "payable",
      "type": "receive"
    }
  ],
  "transactionHash": "0xe3f8fe88d9f3a5e9e288caa7fb69d92eac3cb8841ef12945ea14d435b9ddf2e0",
  "args": [
    "0xc4Ac36056b6b10A19a67186454A9c69624d2Dc0d",
    "0x859874C58935AC6a595a16142dc9C64cF5Eeee5e",
    "0xb147FD8Ee78F146555F0df51494244221E386F48",
    "0xca37fA8CaaB2D725068cB31A36232F0B682aE079"
  ],
  "numDeployments": 1,
  "solcInputHash": "29a3732671a7fc6ce56ad916d8ef0cef",
  "bytecode": "0x61010060405234801561001157600080fd5b50604051610f72380380610f728339810160408190526100309161006e565b6001600160a01b0393841660a052918316608052821660c0521660e0526100c2565b80516001600160a01b038116811461006957600080fd5b919050565b6000806000806080858703121561008457600080fd5b61008d85610052565b935061009b60208601610052565b92506100a960408601610052565b91506100b760608601610052565b905092959194509250565b60805160a05160c05160e051610e3861013a600039600081816101600152818161021f015281816104d90152818161059c01528181610644015261071b0152600081816101100152818161039801526106ad0152600081816101e8015261032d0152600081816101b401526103690152610e386000f3fe6080604052600436106100745760003560e01c80638bf6b1e21161004e5780638bf6b1e214610182578063ad5c4648146101a2578063d468b1f0146101d6578063f3fef3a31461020a576100b4565b80632b129d3b146100e957806331e81921146100fe5780635f61e3ec1461014e576100b4565b366100b457604080513381523460208201527ff11e547d796cc64acdf758e7cee90439494fd886a19159454aa61e473fdbafef91015b60405180910390a1005b604080513381523460208201527fd10bc0ad23f098c1b25855b2f8295f5eb42ab8d65ceacdb07e0eb9d3a5ed1a2091016100aa565b6100fc6100f7366004610c56565b61021d565b005b34801561010a57600080fd5b506101327f000000000000000000000000000000000000000000000000000000000000000081565b6040516001600160a01b03909116815260200160405180910390f35b34801561015a57600080fd5b506101327f000000000000000000000000000000000000000000000000000000000000000081565b34801561018e57600080fd5b506100fc61019d366004610c78565b6104d7565b3480156101ae57600080fd5b506101327f000000000000000000000000000000000000000000000000000000000000000081565b3480156101e257600080fd5b506101327f000000000000000000000000000000000000000000000000000000000000000081565b6100fc610218366004610ca9565b610719565b7f00000000000000000000000000000000000000000000000000000000000000006001600160a01b031663570ca7356040518163ffffffff1660e01b815260040160206040518083038186803b15801561027657600080fd5b505afa15801561028a573d6000803e3d6000fd5b505050506040513d601f19601f820116820180604052508101906102ae9190610cd5565b6001600160a01b0316336001600160a01b0316146102e75760405162461bcd60e51b81526004016102de90610cf2565b60405180910390fd5b81341461032b5760405162461bcd60e51b8152602060048201526012602482015271756e636f6e666f726d6974792076616c756560701b60448201526064016102de565b7f00000000000000000000000000000000000000000000000000000000000000006001600160a01b031663414bf389836040518061010001604052807f00000000000000000000000000000000000000000000000000000000000000006001600160a01b031681526020017f00000000000000000000000000000000000000000000000000000000000000006001600160a01b0316815260200161271062ffffff168152602001306001600160a01b0316815260200142603c6103ee9190610d22565b8152602080820188905260408083018890526000606093840152805160e087811b6001600160e01b031916825285516001600160a01b03908116600484015293860151841660248301529185015162ffffff16604482015292840151821660648401526080840151608484015260a084015160a484015260c084015160c4840152929092015190911660e4820152610104016020604051808303818588803b15801561049957600080fd5b505af11580156104ad573d6000803e3d6000fd5b50505050506040513d601f19601f820116820180604052508101906104d29190610d48565b505050565b7f00000000000000000000000000000000000000000000000000000000000000006001600160a01b031663570ca7356040518163ffffffff1660e01b815260040160206040518083038186803b15801561053057600080fd5b505afa158015610544573d6000803e3d6000fd5b505050506040513d601f19601f820116820180604052508101906105689190610cd5565b6001600160a01b0316336001600160a01b0316146105985760405162461bcd60e51b81526004016102de90610cf2565b60007f00000000000000000000000000000000000000000000000000000000000000006001600160a01b031663e94ad65b6040518163ffffffff1660e01b815260040160206040518083038186803b1580156105f357600080fd5b505afa158015610607573d6000803e3d6000fd5b505050506040513d601f19601f8201168201806040525081019061062b9190610cd5565b604051639380f97360e01b8152600481018490529091507f00000000000000000000000000000000000000000000000000000000000000006001600160a01b031690639380f97390602401600060405180830381600087803b15801561069057600080fd5b505af11580156106a4573d6000803e3d6000fd5b505050506106d37f00000000000000000000000000000000000000000000000000000000000000008284610896565b604080516001600160a01b0383168152602081018490527f25b2c293934710dac64b8a25596b8a8ba34c856abeee17f8ca10a513e5eb6871910160405180910390a15050565b7f00000000000000000000000000000000000000000000000000000000000000006001600160a01b031663570ca7356040518163ffffffff1660e01b815260040160206040518083038186803b15801561077257600080fd5b505afa158015610786573d6000803e3d6000fd5b505050506040513d601f19601f820116820180604052508101906107aa9190610cd5565b6001600160a01b0316336001600160a01b0316146107da5760405162461bcd60e51b81526004016102de90610cf2565b604080516001600160a01b03841681523360208201529081018290527f4004a0ae8f5cb85c80a86faa773db946ac30c9ed00ea9d86f1bf0b96c820c29d9060600160405180910390a16001600160a01b03821661088657804710156108785760405162461bcd60e51b8152602060048201526014602482015273496e73756666696369656e742062616c616e636560601b60448201526064016102de565b61088233826108e8565b5050565b6108826001600160a01b03831633835b604080516001600160a01b038416602482015260448082018490528251808303909101815260649091019091526020810180516001600160e01b031663a9059cbb60e01b1790526104d2908490610a01565b804710156109385760405162461bcd60e51b815260206004820152601d60248201527f416464726573733a20696e73756666696369656e742062616c616e636500000060448201526064016102de565b6000826001600160a01b03168260405160006040518083038185875af1925050503d8060008114610985576040519150601f19603f3d011682016040523d82523d6000602084013e61098a565b606091505b50509050806104d25760405162461bcd60e51b815260206004820152603a60248201527f416464726573733a20756e61626c6520746f2073656e642076616c75652c207260448201527f6563697069656e74206d6179206861766520726576657274656400000000000060648201526084016102de565b6000610a56826040518060400160405280602081526020017f5361666545524332303a206c6f772d6c6576656c2063616c6c206661696c6564815250856001600160a01b0316610ad39092919063ffffffff16565b8051909150156104d25780806020019051810190610a749190610d61565b6104d25760405162461bcd60e51b815260206004820152602a60248201527f5361666545524332303a204552433230206f7065726174696f6e20646964206e6044820152691bdd081cdd58d8d9595960b21b60648201526084016102de565b6060610ae28484600085610aec565b90505b9392505050565b606082471015610b4d5760405162461bcd60e51b815260206004820152602660248201527f416464726573733a20696e73756666696369656e742062616c616e636520666f6044820152651c8818d85b1b60d21b60648201526084016102de565b6001600160a01b0385163b610ba45760405162461bcd60e51b815260206004820152601d60248201527f416464726573733a2063616c6c20746f206e6f6e2d636f6e747261637400000060448201526064016102de565b600080866001600160a01b03168587604051610bc09190610db3565b60006040518083038185875af1925050503d8060008114610bfd576040519150601f19603f3d011682016040523d82523d6000602084013e610c02565b606091505b5091509150610c12828286610c1d565b979650505050505050565b60608315610c2c575081610ae5565b825115610c3c5782518084602001fd5b8160405162461bcd60e51b81526004016102de9190610dcf565b60008060408385031215610c6957600080fd5b50508035926020909101359150565b600060208284031215610c8a57600080fd5b5035919050565b6001600160a01b0381168114610ca657600080fd5b50565b60008060408385031215610cbc57600080fd5b8235610cc781610c91565b946020939093013593505050565b600060208284031215610ce757600080fd5b8151610ae581610c91565b60208082526016908201527521b0b63632b91034b9903737ba1037b832b930ba37b960511b604082015260600190565b60008219821115610d4357634e487b7160e01b600052601160045260246000fd5b500190565b600060208284031215610d5a57600080fd5b5051919050565b600060208284031215610d7357600080fd5b81518015158114610ae557600080fd5b60005b83811015610d9e578181015183820152602001610d86565b83811115610dad576000848401525b50505050565b60008251610dc5818460208701610d83565b9190910192915050565b6020815260008251806020840152610dee816040850160208701610d83565b601f01601f1916919091016040019291505056fea26469706673582212200c3095604969167a401d634f5c4e5a91fba4ed388dc6843666117ac9b3e53c6964736f6c63430008090033",
  "devdoc": {
    "kind": "dev",
    "methods": {},
    "version": 1
  },
  "userdoc": {
    "kind": "user",
    "methods": {
      "constructor": {
        "notice": "---------- constructor ---------- *"
      }
    },
    "version": 1
  },
  "storageLayout": {
    "storage": [],
    "types": null
  }
}