{
  "address": "0x3Bc5aB6338279337289a8C8B9828C923a056b546",
  "abi": [
    {
      "inputs": [
        {
          "internalType": "address",
          "name": "gov_staking_rewards",
          "type": "address"
        },
        {
          "internalType": "address",
          "name": "torn_address",
          "type": "address"
        }
      ],
      "stateMutability": "nonpayable",
      "type": "constructor"
    },
    {
      "inputs": [],
      "name": "TORN_CONTRACT",
      "outputs": [
        {
          "internalType": "address",
          "name": "",
          "type": "address"
        }
      ],
      "stateMutability": "view",
      "type": "function"
    },
    {
      "inputs": [],
      "name": "TORN_STAKING_REWARDS",
      "outputs": [
        {
          "internalType": "address",
          "name": "",
          "type": "address"
        }
      ],
      "stateMutability": "view",
      "type": "function"
    },
    {
      "inputs": [],
      "name": "counter",
      "outputs": [
        {
          "internalType": "uint256",
          "name": "",
          "type": "uint256"
        }
      ],
      "stateMutability": "view",
      "type": "function"
    },
    {
      "inputs": [
        {
          "internalType": "address",
          "name": "relayer",
          "type": "address"
        }
      ],
      "name": "getRelayerBalance",
      "outputs": [
        {
          "internalType": "uint256",
          "name": "",
          "type": "uint256"
        }
      ],
      "stateMutability": "view",
      "type": "function"
    },
    {
      "inputs": [
        {
          "internalType": "uint256",
          "name": "value",
          "type": "uint256"
        }
      ],
      "name": "notice_tron_router_withdraw",
      "outputs": [],
      "stateMutability": "nonpayable",
      "type": "function"
    },
    {
      "inputs": [
        {
          "internalType": "address",
          "name": "relayer",
          "type": "address"
        },
        {
          "internalType": "uint256",
          "name": "stake",
          "type": "uint256"
        }
      ],
      "name": "register",
      "outputs": [],
      "stateMutability": "nonpayable",
      "type": "function"
    },
    {
      "inputs": [
        {
          "internalType": "address",
          "name": "relayer",
          "type": "address"
        },
        {
          "internalType": "uint256",
          "name": "stake",
          "type": "uint256"
        }
      ],
      "name": "stakeToRelayer",
      "outputs": [],
      "stateMutability": "nonpayable",
      "type": "function"
    },
    {
      "inputs": [
        {
          "internalType": "address",
          "name": "",
          "type": "address"
        }
      ],
      "name": "stakeValue",
      "outputs": [
        {
          "internalType": "uint256",
          "name": "",
          "type": "uint256"
        }
      ],
      "stateMutability": "view",
      "type": "function"
    }
  ],
  "transactionHash": "0xc00fe969304df30c35fa617b71d59ea32c3268efdd0c60c06bbc82aabcea0565",
  "args": [
    "0x0481C9BE3df8607e1ec307ECC2bb819BCbeF3D30",
    "0xb147FD8Ee78F146555F0df51494244221E386F48"
  ],
  "numDeployments": 1,
  "solcInputHash": "29a3732671a7fc6ce56ad916d8ef0cef",
  "bytecode": "0x60c060405234801561001057600080fd5b50604051610a6e380380610a6e83398101604081905261002f91610062565b6001600160a01b0391821660a05216608052610095565b80516001600160a01b038116811461005d57600080fd5b919050565b6000806040838503121561007557600080fd5b61007e83610046565b915061008c60208401610046565b90509250929050565b60805160a0516109996100d56000396000818161017101528181610289015261034d0152600081816092015281816102b801526104c301526109996000f3fe608060405234801561001057600080fd5b50600436106100885760003560e01c8063b971a6bf1161005b578063b971a6bf14610110578063d7a88e3c14610139578063d990231d14610159578063f911368b1461016c57600080fd5b806331e819211461008d57806342e2c900146100d157806361bc221a146100e65780636d705ebb146100fd575b600080fd5b6100b47f000000000000000000000000000000000000000000000000000000000000000081565b6040516001600160a01b0390911681526020015b60405180910390f35b6100e46100df3660046107b4565b610193565b005b6100ef60005481565b6040519081526020016100c8565b6100e461010b3660046107e9565b6103b6565b6100ef61011e366004610813565b6001600160a01b031660009081526001602052604090205490565b6100ef610147366004610813565b60016020526000908152604090205481565b6100e46101673660046107e9565b610481565b6100b47f000000000000000000000000000000000000000000000000000000000000000081565b600080544291906002906101a7908461082e565b815481106101b7576101b7610850565b6000918252602090912001546001600160a01b031690505b6001600160a01b038116600090815260016020526040902054831115610238576101fa60018361087c565b915060026000548361020c919061082e565b8154811061021c5761021c610850565b6000918252602090912001546001600160a01b031690506101cf565b6001600160a01b03811660009081526001602052604090205461025c908490610894565b6001600160a01b038281166000908152600160205260409081902092909255905163095ea7b360e01b81527f000000000000000000000000000000000000000000000000000000000000000082166004820152602481018590527f00000000000000000000000000000000000000000000000000000000000000009091169063095ea7b390604401602060405180830381600087803b1580156102fe57600080fd5b505af1158015610312573d6000803e3d6000fd5b505050506040513d601f19601f8201168201806040525081019061033691906108ab565b506040516326df33d360e21b8152600481018490527f00000000000000000000000000000000000000000000000000000000000000006001600160a01b031690639b7ccf4c90602401600060405180830381600087803b15801561039957600080fd5b505af11580156103ad573d6000803e3d6000fd5b50505050505050565b60005b60025481101561041057826001600160a01b0316600282815481106103e0576103e0610850565b6000918252602090912001546001600160a01b0316141561040057600080fd5b610409816108cd565b90506103b9565b506001600080828254610423919061087c565b9091555050600280546001810182556000919091527f405787fa12a823e0f2b7631cc41b3ba8828b3321ca811111fa75cd3aa3bb5ace0180546001600160a01b0319166001600160a01b03841617905561047d8282610481565b5050565b6001600160a01b0382166000908152600160205260409020546104a590829061087c565b6001600160a01b03831660009081526001602052604090205561047d7f00000000000000000000000000000000000000000000000000000000000000003330846040516001600160a01b038085166024830152831660448201526064810182905261054f9085906323b872dd60e01b9060840160408051601f198184030181529190526020810180516001600160e01b03166001600160e01b031990931692909217909152610555565b50505050565b60006105aa826040518060400160405280602081526020017f5361666545524332303a206c6f772d6c6576656c2063616c6c206661696c6564815250856001600160a01b03166106319092919063ffffffff16565b80519091501561062c57808060200190518101906105c891906108ab565b61062c5760405162461bcd60e51b815260206004820152602a60248201527f5361666545524332303a204552433230206f7065726174696f6e20646964206e6044820152691bdd081cdd58d8d9595960b21b60648201526084015b60405180910390fd5b505050565b6060610640848460008561064a565b90505b9392505050565b6060824710156106ab5760405162461bcd60e51b815260206004820152602660248201527f416464726573733a20696e73756666696369656e742062616c616e636520666f6044820152651c8818d85b1b60d21b6064820152608401610623565b6001600160a01b0385163b6107025760405162461bcd60e51b815260206004820152601d60248201527f416464726573733a2063616c6c20746f206e6f6e2d636f6e74726163740000006044820152606401610623565b600080866001600160a01b0316858760405161071e9190610914565b60006040518083038185875af1925050503d806000811461075b576040519150601f19603f3d011682016040523d82523d6000602084013e610760565b606091505b509150915061077082828661077b565b979650505050505050565b6060831561078a575081610643565b82511561079a5782518084602001fd5b8160405162461bcd60e51b81526004016106239190610930565b6000602082840312156107c657600080fd5b5035919050565b80356001600160a01b03811681146107e457600080fd5b919050565b600080604083850312156107fc57600080fd5b610805836107cd565b946020939093013593505050565b60006020828403121561082557600080fd5b610643826107cd565b60008261084b57634e487b7160e01b600052601260045260246000fd5b500690565b634e487b7160e01b600052603260045260246000fd5b634e487b7160e01b600052601160045260246000fd5b6000821982111561088f5761088f610866565b500190565b6000828210156108a6576108a6610866565b500390565b6000602082840312156108bd57600080fd5b8151801515811461064357600080fd5b60006000198214156108e1576108e1610866565b5060010190565b60005b838110156109035781810151838201526020016108eb565b8381111561054f5750506000910152565b600082516109268184602087016108e8565b9190910192915050565b602081526000825180602084015261094f8160408501602087016108e8565b601f01601f1916919091016040019291505056fea264697066735822122007cb6f334f70e28b350415af9d69eedee39b0067f5b73604b9eca11e7e565cea64736f6c63430008090033",
  "devdoc": {
    "kind": "dev",
    "methods": {},
    "version": 1
  },
  "userdoc": {
    "kind": "user",
    "methods": {},
    "version": 1
  },
  "storageLayout": {
    "storage": [
      {
        "astId": 8678,
        "contract": "contracts/mock/mockRelayerRegistry.sol:MRelayerRegistry",
        "label": "counter",
        "offset": 0,
        "slot": "0",
        "type": "t_uint256"
      },
      {
        "astId": 8682,
        "contract": "contracts/mock/mockRelayerRegistry.sol:MRelayerRegistry",
        "label": "stakeValue",
        "offset": 0,
        "slot": "1",
        "type": "t_mapping(t_address,t_uint256)"
      },
      {
        "astId": 8685,
        "contract": "contracts/mock/mockRelayerRegistry.sol:MRelayerRegistry",
        "label": "array",
        "offset": 0,
        "slot": "2",
        "type": "t_array(t_address)dyn_storage"
      }
    ],
    "types": {
      "t_address": {
        "encoding": "inplace",
        "label": "address",
        "numberOfBytes": "20"
      },
      "t_array(t_address)dyn_storage": {
        "base": "t_address",
        "encoding": "dynamic_array",
        "label": "address[]",
        "numberOfBytes": "32"
      },
      "t_mapping(t_address,t_uint256)": {
        "encoding": "mapping",
        "key": "t_address",
        "label": "mapping(address => uint256)",
        "numberOfBytes": "32",
        "value": "t_uint256"
      },
      "t_uint256": {
        "encoding": "inplace",
        "label": "uint256",
        "numberOfBytes": "32"
      }
    }
  }
}