{
  "address": "0x5e98fB2BB738Ec9fd3286D64DB9cbDc3c2C3484A",
  "abi": [
    {
      "inputs": [
        {
          "internalType": "address",
          "name": "usdc",
          "type": "address"
        },
        {
          "internalType": "address",
          "name": "dai",
          "type": "address"
        },
        {
          "internalType": "address",
          "name": "inComeContract_",
          "type": "address"
        },
        {
          "internalType": "address",
          "name": "relay_registry",
          "type": "address"
        }
      ],
      "stateMutability": "nonpayable",
      "type": "constructor"
    },
    {
      "anonymous": false,
      "inputs": [
        {
          "indexed": false,
          "internalType": "address",
          "name": "",
          "type": "address"
        },
        {
          "indexed": false,
          "internalType": "uint256",
          "name": "",
          "type": "uint256"
        }
      ],
      "name": "CalledFallback",
      "type": "event"
    },
    {
      "anonymous": false,
      "inputs": [
        {
          "indexed": false,
          "internalType": "address",
          "name": "",
          "type": "address"
        },
        {
          "indexed": false,
          "internalType": "uint256",
          "name": "",
          "type": "uint256"
        }
      ],
      "name": "Received",
      "type": "event"
    },
    {
      "stateMutability": "payable",
      "type": "fallback"
    },
    {
      "inputs": [
        {
          "internalType": "string",
          "name": "coinType",
          "type": "string"
        },
        {
          "internalType": "uint256",
          "name": "value",
          "type": "uint256"
        }
      ],
      "name": "Coin2Tron",
      "outputs": [
        {
          "internalType": "uint256",
          "name": "",
          "type": "uint256"
        }
      ],
      "stateMutability": "view",
      "type": "function"
    },
    {
      "inputs": [],
      "name": "DAI_CONTRACT",
      "outputs": [
        {
          "internalType": "address",
          "name": "",
          "type": "address"
        }
      ],
      "stateMutability": "view",
      "type": "function"
    },
    {
      "inputs": [],
      "name": "INCOME_CONTRACT",
      "outputs": [
        {
          "internalType": "address",
          "name": "",
          "type": "address"
        }
      ],
      "stateMutability": "view",
      "type": "function"
    },
    {
      "inputs": [],
      "name": "RELAYER_REGISTRY",
      "outputs": [
        {
          "internalType": "address",
          "name": "",
          "type": "address"
        }
      ],
      "stateMutability": "view",
      "type": "function"
    },
    {
      "inputs": [],
      "name": "USDC_CONTRACT",
      "outputs": [
        {
          "internalType": "address",
          "name": "",
          "type": "address"
        }
      ],
      "stateMutability": "view",
      "type": "function"
    },
    {
      "inputs": [],
      "name": "allFeeRate",
      "outputs": [
        {
          "internalType": "uint256",
          "name": "",
          "type": "uint256"
        }
      ],
      "stateMutability": "view",
      "type": "function"
    },
    {
      "inputs": [
        {
          "internalType": "string",
          "name": "coinType",
          "type": "string"
        },
        {
          "internalType": "uint256",
          "name": "value",
          "type": "uint256"
        }
      ],
      "name": "deposit",
      "outputs": [],
      "stateMutability": "payable",
      "type": "function"
    },
    {
      "inputs": [],
      "name": "stakeFeeRate",
      "outputs": [
        {
          "internalType": "uint256",
          "name": "",
          "type": "uint256"
        }
      ],
      "stateMutability": "view",
      "type": "function"
    },
    {
      "inputs": [
        {
          "internalType": "string",
          "name": "coinType",
          "type": "string"
        },
        {
          "internalType": "uint256",
          "name": "value",
          "type": "uint256"
        },
        {
          "internalType": "address",
          "name": "to",
          "type": "address"
        }
      ],
      "name": "withdraw",
      "outputs": [],
      "stateMutability": "nonpayable",
      "type": "function"
    },
    {
      "stateMutability": "payable",
      "type": "receive"
    }
  ],
  "transactionHash": "0xa616949e96d66352737097652b53caebcac001a029a0b96768ab603bbdd07867",
  "args": [
    "0x6AB218C70d08B9174858937DdB8324602f7ee041",
    "0x45d913a8BfCfF1e23118d253B4bD997A0Ea693A4",
    "0xe6a3250A63e91dC50022CB1C531134ead5BBEE65",
    "0x3Bc5aB6338279337289a8C8B9828C923a056b546"
  ],
  "numDeployments": 2,
  "solcInputHash": "29a3732671a7fc6ce56ad916d8ef0cef",
  "bytecode": "0x60806040526021600455601460055534801561001a57600080fd5b50604051620011f5380380620011f583398101604081905261003b916100aa565b600080546001600160a01b039586166001600160a01b03199182161790915560018054948616948216949094179093556002805492851692841692909217909155600380549190931691161790556100fe565b80516001600160a01b03811681146100a557600080fd5b919050565b600080600080608085870312156100c057600080fd5b6100c98561008e565b93506100d76020860161008e565b92506100e56040860161008e565b91506100f36060860161008e565b905092959194509250565b6110e7806200010e6000396000f3fe60806040526004361061008a5760003560e01c8063a0560a2f11610059578063a0560a2f1461019f578063a807db75146101bf578063bd0a7f5b146101df578063e9d88c70146101f5578063f09744031461020b576100ca565b80634196ff01146100ff578063647598e91461013c5780637804e7071461016a5780638e27d7191461018c576100ca565b366100ca57604080513381523460208201527f88a5966d370b9919b20f3e2c13ff65706f196a4e32cc2c12bf57088f8852587491015b60405180910390a1005b604080513381523460208201527fe278b0fa22a3a7f750416b6434935cd5e35b37e34a8859b84d5ddb2118753d1391016100c0565b34801561010b57600080fd5b5060005461011f906001600160a01b031681565b6040516001600160a01b0390911681526020015b60405180910390f35b34801561014857600080fd5b5061015c610157366004610df2565b61022b565b604051908152602001610133565b34801561017657600080fd5b5061018a610185366004610e37565b610337565b005b61018a61019a366004610df2565b610655565b3480156101ab57600080fd5b5060015461011f906001600160a01b031681565b3480156101cb57600080fd5b5060035461011f906001600160a01b031681565b3480156101eb57600080fd5b5061015c60055481565b34801561020157600080fd5b5061015c60045481565b34801561021757600080fd5b5060025461011f906001600160a01b031681565b600061025283604051806040016040528060038152602001620cae8d60eb1b815250610866565b15610276576023610265836107d0610eb4565b61026f9190610ed3565b9050610331565b61029b836040518060400160405280600381526020016264616960e81b815250610866565b156102ab5761026f602383610ed3565b6102d183604051806040016040528060048152602001637573646360e01b815250610866565b156102db57610313565b60405162461bcd60e51b8152602060048201526008602482015267657272207479706560c01b60448201526064015b60405180910390fd5b60236103248364e8d4a51000610eb4565b61032e9190610ed3565b90505b92915050565b6103418383610872565b6103755760405162461bcd60e51b815260206004820152600560248201526476616c756560d81b604482015260640161030a565b6000612710600454846103889190610eb4565b6103929190610ed3565b905060006103bb85604051806040016040528060038152602001620cae8d60eb1b815250610866565b156105205760006103cb8661091b565b3360009081526006602090815260408083208484529091529020549091506103f4908690610ef5565b3360009081526006602090815260408083208584529091529020556104198386610ef5565b6040519095506001600160a01b0385169086156108fc029087906000818181858888f19350505050158015610452573d6000803e3d6000fd5b506002546040516001600160a01b039091169084156108fc029085906000818181858888f1935050505015801561048d573d6000803e3d6000fd5b506003546004546005546001600160a01b03909216916342e2c90091906104b48a8861022b565b6104be9190610eb4565b6104c89190610ed3565b6040518263ffffffff1660e01b81526004016104e691815260200190565b600060405180830381600087803b15801561050057600080fd5b505af1158015610514573d6000803e3d6000fd5b50505050505050505050565b61054685604051806040016040528060048152602001637573646360e01b815250610866565b1561055d57506000546001600160a01b0316610595565b610582856040518060400160405280600381526020016264616960e81b815250610866565b156102db57506001546001600160a01b03165b61059f8285610ef5565b93506105ac8184866109d6565b6002546105c49082906001600160a01b0316846109d6565b6003546004546005546001600160a01b03909216916342e2c90091906105ea898761022b565b6105f49190610eb4565b6105fe9190610ed3565b6040518263ffffffff1660e01b815260040161061c91815260200190565b600060405180830381600087803b15801561063657600080fd5b505af115801561064a573d6000803e3d6000fd5b505050505050505050565b61065f8282610872565b6106935760405162461bcd60e51b815260206004820152600560248201526476616c756560d81b604482015260640161030a565b600061069e8361091b565b905060006106c784604051806040016040528060038152602001620cae8d60eb1b815250610866565b1561075b573483146107105760405162461bcd60e51b815260206004820152601260248201527176616c7565203d3d206d73672e76616c756560701b604482015260640161030a565b336000908152600660209081526040808320858452909152902054610736903490610f0c565b3360009081526006602090815260408083209583529490529290922091909155505050565b61078184604051806040016040528060048152602001637573646360e01b815250610866565b1561079857506000546001600160a01b03166107d0565b6107bd846040518060400160405280600381526020016264616960e81b815250610866565b156107d057506001546001600160a01b03165b341561080f5760405162461bcd60e51b815260206004820152600e60248201526d06d73672e76616c756520213d20360941b604482015260640161030a565b336000908152600660209081526040808320858452909152902054610835908490610f0c565b3360008181526006602090815260408083208784529091529020919091556108609082903086610a3e565b50505050565b600061032e8383610a76565b6000806108866108818561091b565b610a9b565b905061089381600a611008565b8314806108b457506108a681600a611008565b6108b190600a610eb4565b83145b806108d357506108c581600a611008565b6108d0906064610eb4565b83145b806108f357506108e481600a611008565b6108f0906103e8610eb4565b83145b80610913575061090481600a611008565b61091090612710610eb4565b83145b949350505050565b600061094282604051806040016040528060038152602001620cae8d60eb1b815250610866565b1561094f57506000919050565b61097582604051806040016040528060048152602001637573646360e01b815250610866565b1561098257506001919050565b6109a7826040518060400160405280600381526020016264616960e81b815250610866565b156109b457506002919050565b60405162461bcd60e51b8152602060048201526000602482015260440161030a565b6040516001600160a01b038316602482015260448101829052610a3990849063a9059cbb60e01b906064015b60408051601f198184030181529190526020810180516001600160e01b03166001600160e01b031990931692909217909152610afa565b505050565b6040516001600160a01b03808516602483015283166044820152606481018290526108609085906323b872dd60e01b90608401610a02565b60008151835114801561032e5750508051602091820120825192909101919091201490565b600081610aaa57506012919050565b8160011415610abb57506006919050565b8160021415610acc57506012919050565b60405162461bcd60e51b815260206004820152600360248201526232b93960e91b604482015260640161030a565b6000610b4f826040518060400160405280602081526020017f5361666545524332303a206c6f772d6c6576656c2063616c6c206661696c6564815250856001600160a01b0316610bcc9092919063ffffffff16565b805190915015610a395780806020019051810190610b6d9190611014565b610a395760405162461bcd60e51b815260206004820152602a60248201527f5361666545524332303a204552433230206f7065726174696f6e20646964206e6044820152691bdd081cdd58d8d9595960b21b606482015260840161030a565b6060610bdb8484600085610be5565b90505b9392505050565b606082471015610c465760405162461bcd60e51b815260206004820152602660248201527f416464726573733a20696e73756666696369656e742062616c616e636520666f6044820152651c8818d85b1b60d21b606482015260840161030a565b6001600160a01b0385163b610c9d5760405162461bcd60e51b815260206004820152601d60248201527f416464726573733a2063616c6c20746f206e6f6e2d636f6e7472616374000000604482015260640161030a565b600080866001600160a01b03168587604051610cb99190611062565b60006040518083038185875af1925050503d8060008114610cf6576040519150601f19603f3d011682016040523d82523d6000602084013e610cfb565b606091505b5091509150610d0b828286610d16565b979650505050505050565b60608315610d25575081610bde565b825115610d355782518084602001fd5b8160405162461bcd60e51b815260040161030a919061107e565b634e487b7160e01b600052604160045260246000fd5b600082601f830112610d7657600080fd5b813567ffffffffffffffff80821115610d9157610d91610d4f565b604051601f8301601f19908116603f01168101908282118183101715610db957610db9610d4f565b81604052838152866020858801011115610dd257600080fd5b836020870160208301376000602085830101528094505050505092915050565b60008060408385031215610e0557600080fd5b823567ffffffffffffffff811115610e1c57600080fd5b610e2885828601610d65565b95602094909401359450505050565b600080600060608486031215610e4c57600080fd5b833567ffffffffffffffff811115610e6357600080fd5b610e6f86828701610d65565b9350506020840135915060408401356001600160a01b0381168114610e9357600080fd5b809150509250925092565b634e487b7160e01b600052601160045260246000fd5b6000816000190483118215151615610ece57610ece610e9e565b500290565b600082610ef057634e487b7160e01b600052601260045260246000fd5b500490565b600082821015610f0757610f07610e9e565b500390565b60008219821115610f1f57610f1f610e9e565b500190565b600181815b80851115610f5f578160001904821115610f4557610f45610e9e565b80851615610f5257918102915b93841c9390800290610f29565b509250929050565b600082610f7657506001610331565b81610f8357506000610331565b8160018114610f995760028114610fa357610fbf565b6001915050610331565b60ff841115610fb457610fb4610e9e565b50506001821b610331565b5060208310610133831016604e8410600b8410161715610fe2575081810a610331565b610fec8383610f24565b806000190482111561100057611000610e9e565b029392505050565b600061032e8383610f67565b60006020828403121561102657600080fd5b81518015158114610bde57600080fd5b60005b83811015611051578181015183820152602001611039565b838111156108605750506000910152565b60008251611074818460208701611036565b9190910192915050565b602081526000825180602084015261109d816040850160208701611036565b601f01601f1916919091016040019291505056fea264697066735822122083a20adc392b2a20383fbbb086e3f17e68e08a9dda423b001c803c04ccfa157864736f6c63430008090033",
  "devdoc": {
    "kind": "dev",
    "methods": {},
    "version": 1
  },
  "userdoc": {
    "kind": "user",
    "methods": {},
    "version": 1
  },
  "storageLayout": {
    "storage": [
      {
        "astId": 8996,
        "contract": "contracts/mock/mockTornRouter.sol:MTornRouter",
        "label": "USDC_CONTRACT",
        "offset": 0,
        "slot": "0",
        "type": "t_address"
      },
      {
        "astId": 8998,
        "contract": "contracts/mock/mockTornRouter.sol:MTornRouter",
        "label": "DAI_CONTRACT",
        "offset": 0,
        "slot": "1",
        "type": "t_address"
      },
      {
        "astId": 9000,
        "contract": "contracts/mock/mockTornRouter.sol:MTornRouter",
        "label": "INCOME_CONTRACT",
        "offset": 0,
        "slot": "2",
        "type": "t_address"
      },
      {
        "astId": 9002,
        "contract": "contracts/mock/mockTornRouter.sol:MTornRouter",
        "label": "RELAYER_REGISTRY",
        "offset": 0,
        "slot": "3",
        "type": "t_address"
      },
      {
        "astId": 9005,
        "contract": "contracts/mock/mockTornRouter.sol:MTornRouter",
        "label": "allFeeRate",
        "offset": 0,
        "slot": "4",
        "type": "t_uint256"
      },
      {
        "astId": 9008,
        "contract": "contracts/mock/mockTornRouter.sol:MTornRouter",
        "label": "stakeFeeRate",
        "offset": 0,
        "slot": "5",
        "type": "t_uint256"
      },
      {
        "astId": 9014,
        "contract": "contracts/mock/mockTornRouter.sol:MTornRouter",
        "label": "stakeMap",
        "offset": 0,
        "slot": "6",
        "type": "t_mapping(t_address,t_mapping(t_uint256,t_uint256))"
      }
    ],
    "types": {
      "t_address": {
        "encoding": "inplace",
        "label": "address",
        "numberOfBytes": "20"
      },
      "t_mapping(t_address,t_mapping(t_uint256,t_uint256))": {
        "encoding": "mapping",
        "key": "t_address",
        "label": "mapping(address => mapping(uint256 => uint256))",
        "numberOfBytes": "32",
        "value": "t_mapping(t_uint256,t_uint256)"
      },
      "t_mapping(t_uint256,t_uint256)": {
        "encoding": "mapping",
        "key": "t_uint256",
        "label": "mapping(uint256 => uint256)",
        "numberOfBytes": "32",
        "value": "t_uint256"
      },
      "t_uint256": {
        "encoding": "inplace",
        "label": "uint256",
        "numberOfBytes": "32"
      }
    }
  }
}