{
  "address": "0xEb68522Db0abEFa730D5304dB1f5863A0fcdfD4E",
  "abi": [
    {
      "inputs": [
        {
          "internalType": "address",
          "name": "_torn_relayer_registry",
          "type": "address"
        },
        {
          "internalType": "address",
          "name": "_tornContract",
          "type": "address"
        }
      ],
      "stateMutability": "nonpayable",
      "type": "constructor"
    },
    {
      "anonymous": false,
      "inputs": [
        {
          "indexed": true,
          "internalType": "address",
          "name": "owner",
          "type": "address"
        },
        {
          "indexed": true,
          "internalType": "address",
          "name": "spender",
          "type": "address"
        },
        {
          "indexed": false,
          "internalType": "uint256",
          "name": "value",
          "type": "uint256"
        }
      ],
      "name": "Approval",
      "type": "event"
    },
    {
      "anonymous": false,
      "inputs": [
        {
          "indexed": false,
          "internalType": "address",
          "name": "from",
          "type": "address"
        },
        {
          "indexed": false,
          "internalType": "uint256",
          "name": "vaule",
          "type": "uint256"
        }
      ],
      "name": "Income",
      "type": "event"
    },
    {
      "anonymous": false,
      "inputs": [
        {
          "indexed": false,
          "internalType": "uint8",
          "name": "version",
          "type": "uint8"
        }
      ],
      "name": "Initialized",
      "type": "event"
    },
    {
      "anonymous": false,
      "inputs": [
        {
          "indexed": true,
          "internalType": "address",
          "name": "previousOwner",
          "type": "address"
        },
        {
          "indexed": true,
          "internalType": "address",
          "name": "newOwner",
          "type": "address"
        }
      ],
      "name": "OwnershipTransferred",
      "type": "event"
    },
    {
      "anonymous": false,
      "inputs": [
        {
          "indexed": true,
          "internalType": "address",
          "name": "from",
          "type": "address"
        },
        {
          "indexed": true,
          "internalType": "address",
          "name": "to",
          "type": "address"
        },
        {
          "indexed": false,
          "internalType": "uint256",
          "name": "value",
          "type": "uint256"
        }
      ],
      "name": "Transfer",
      "type": "event"
    },
    {
      "inputs": [],
      "name": "DOMAIN_SEPARATOR",
      "outputs": [
        {
          "internalType": "bytes32",
          "name": "",
          "type": "bytes32"
        }
      ],
      "stateMutability": "view",
      "type": "function"
    },
    {
      "inputs": [],
      "name": "MAX_RELAYER_COUNTER",
      "outputs": [
        {
          "internalType": "uint256",
          "name": "",
          "type": "uint256"
        }
      ],
      "stateMutability": "view",
      "type": "function"
    },
    {
      "inputs": [],
      "name": "TORN_CONTRACT",
      "outputs": [
        {
          "internalType": "address",
          "name": "",
          "type": "address"
        }
      ],
      "stateMutability": "view",
      "type": "function"
    },
    {
      "inputs": [],
      "name": "TORN_RELAYER_REGISTRY",
      "outputs": [
        {
          "internalType": "address",
          "name": "",
          "type": "address"
        }
      ],
      "stateMutability": "view",
      "type": "function"
    },
    {
      "inputs": [
        {
          "internalType": "address",
          "name": "_inComeContract",
          "type": "address"
        },
        {
          "internalType": "address",
          "name": "_depositContract",
          "type": "address"
        },
        {
          "internalType": "address",
          "name": "_exitQueueContract",
          "type": "address"
        }
      ],
      "name": "__RootManger_init",
      "outputs": [],
      "stateMutability": "nonpayable",
      "type": "function"
    },
    {
      "inputs": [
        {
          "internalType": "address",
          "name": "_inComeContract",
          "type": "address"
        },
        {
          "internalType": "address",
          "name": "_depositContract",
          "type": "address"
        },
        {
          "internalType": "address",
          "name": "_exitQueueContract",
          "type": "address"
        }
      ],
      "name": "__RootManger_init_unchained",
      "outputs": [],
      "stateMutability": "nonpayable",
      "type": "function"
    },
    {
      "inputs": [
        {
          "internalType": "uint256",
          "name": "",
          "type": "uint256"
        }
      ],
      "name": "_relayers",
      "outputs": [
        {
          "internalType": "address",
          "name": "",
          "type": "address"
        }
      ],
      "stateMutability": "view",
      "type": "function"
    },
    {
      "inputs": [
        {
          "internalType": "uint256",
          "name": "amount",
          "type": "uint256"
        }
      ],
      "name": "addIncome",
      "outputs": [],
      "stateMutability": "nonpayable",
      "type": "function"
    },
    {
      "inputs": [
        {
          "internalType": "address",
          "name": "__relayer",
          "type": "address"
        },
        {
          "internalType": "uint256",
          "name": "index",
          "type": "uint256"
        }
      ],
      "name": "addRelayer",
      "outputs": [],
      "stateMutability": "nonpayable",
      "type": "function"
    },
    {
      "inputs": [
        {
          "internalType": "address",
          "name": "owner",
          "type": "address"
        },
        {
          "internalType": "address",
          "name": "spender",
          "type": "address"
        }
      ],
      "name": "allowance",
      "outputs": [
        {
          "internalType": "uint256",
          "name": "",
          "type": "uint256"
        }
      ],
      "stateMutability": "view",
      "type": "function"
    },
    {
      "inputs": [
        {
          "internalType": "address",
          "name": "spender",
          "type": "address"
        },
        {
          "internalType": "uint256",
          "name": "amount",
          "type": "uint256"
        }
      ],
      "name": "approve",
      "outputs": [
        {
          "internalType": "bool",
          "name": "",
          "type": "bool"
        }
      ],
      "stateMutability": "nonpayable",
      "type": "function"
    },
    {
      "inputs": [
        {
          "internalType": "address",
          "name": "account",
          "type": "address"
        }
      ],
      "name": "balanceOf",
      "outputs": [
        {
          "internalType": "uint256",
          "name": "",
          "type": "uint256"
        }
      ],
      "stateMutability": "view",
      "type": "function"
    },
    {
      "inputs": [
        {
          "internalType": "address",
          "name": "account",
          "type": "address"
        }
      ],
      "name": "balanceOfTorn",
      "outputs": [
        {
          "internalType": "uint256",
          "name": "",
          "type": "uint256"
        }
      ],
      "stateMutability": "view",
      "type": "function"
    },
    {
      "inputs": [],
      "name": "decimals",
      "outputs": [
        {
          "internalType": "uint8",
          "name": "",
          "type": "uint8"
        }
      ],
      "stateMutability": "view",
      "type": "function"
    },
    {
      "inputs": [
        {
          "internalType": "address",
          "name": "spender",
          "type": "address"
        },
        {
          "internalType": "uint256",
          "name": "subtractedValue",
          "type": "uint256"
        }
      ],
      "name": "decreaseAllowance",
      "outputs": [
        {
          "internalType": "bool",
          "name": "",
          "type": "bool"
        }
      ],
      "stateMutability": "nonpayable",
      "type": "function"
    },
    {
      "inputs": [],
      "name": "depositContract",
      "outputs": [
        {
          "internalType": "address",
          "name": "",
          "type": "address"
        }
      ],
      "stateMutability": "view",
      "type": "function"
    },
    {
      "inputs": [],
      "name": "exitQueueContract",
      "outputs": [
        {
          "internalType": "address",
          "name": "",
          "type": "address"
        }
      ],
      "stateMutability": "view",
      "type": "function"
    },
    {
      "inputs": [],
      "name": "inComeContract",
      "outputs": [
        {
          "internalType": "address",
          "name": "",
          "type": "address"
        }
      ],
      "stateMutability": "view",
      "type": "function"
    },
    {
      "inputs": [
        {
          "internalType": "address",
          "name": "spender",
          "type": "address"
        },
        {
          "internalType": "uint256",
          "name": "addedValue",
          "type": "uint256"
        }
      ],
      "name": "increaseAllowance",
      "outputs": [
        {
          "internalType": "bool",
          "name": "",
          "type": "bool"
        }
      ],
      "stateMutability": "nonpayable",
      "type": "function"
    },
    {
      "inputs": [],
      "name": "name",
      "outputs": [
        {
          "internalType": "string",
          "name": "",
          "type": "string"
        }
      ],
      "stateMutability": "view",
      "type": "function"
    },
    {
      "inputs": [
        {
          "internalType": "address",
          "name": "owner",
          "type": "address"
        }
      ],
      "name": "nonces",
      "outputs": [
        {
          "internalType": "uint256",
          "name": "",
          "type": "uint256"
        }
      ],
      "stateMutability": "view",
      "type": "function"
    },
    {
      "inputs": [],
      "name": "operator",
      "outputs": [
        {
          "internalType": "address",
          "name": "",
          "type": "address"
        }
      ],
      "stateMutability": "view",
      "type": "function"
    },
    {
      "inputs": [],
      "name": "owner",
      "outputs": [
        {
          "internalType": "address",
          "name": "",
          "type": "address"
        }
      ],
      "stateMutability": "view",
      "type": "function"
    },
    {
      "inputs": [
        {
          "internalType": "address",
          "name": "owner",
          "type": "address"
        },
        {
          "internalType": "address",
          "name": "spender",
          "type": "address"
        },
        {
          "internalType": "uint256",
          "name": "value",
          "type": "uint256"
        },
        {
          "internalType": "uint256",
          "name": "deadline",
          "type": "uint256"
        },
        {
          "internalType": "uint8",
          "name": "v",
          "type": "uint8"
        },
        {
          "internalType": "bytes32",
          "name": "r",
          "type": "bytes32"
        },
        {
          "internalType": "bytes32",
          "name": "s",
          "type": "bytes32"
        }
      ],
      "name": "permit",
      "outputs": [],
      "stateMutability": "nonpayable",
      "type": "function"
    },
    {
      "inputs": [
        {
          "internalType": "uint256",
          "name": "index",
          "type": "uint256"
        }
      ],
      "name": "removeRelayer",
      "outputs": [],
      "stateMutability": "nonpayable",
      "type": "function"
    },
    {
      "inputs": [],
      "name": "renounceOwnership",
      "outputs": [],
      "stateMutability": "nonpayable",
      "type": "function"
    },
    {
      "inputs": [
        {
          "internalType": "address",
          "name": "account",
          "type": "address"
        },
        {
          "internalType": "uint256",
          "name": "value",
          "type": "uint256"
        }
      ],
      "name": "safeDeposit",
      "outputs": [],
      "stateMutability": "nonpayable",
      "type": "function"
    },
    {
      "inputs": [
        {
          "internalType": "address",
          "name": "account",
          "type": "address"
        },
        {
          "internalType": "uint256",
          "name": "to_burn",
          "type": "uint256"
        }
      ],
      "name": "safeWithdraw",
      "outputs": [],
      "stateMutability": "nonpayable",
      "type": "function"
    },
    {
      "inputs": [
        {
          "internalType": "address",
          "name": "__operator",
          "type": "address"
        }
      ],
      "name": "setOperator",
      "outputs": [],
      "stateMutability": "nonpayable",
      "type": "function"
    },
    {
      "inputs": [],
      "name": "symbol",
      "outputs": [
        {
          "internalType": "string",
          "name": "",
          "type": "string"
        }
      ],
      "stateMutability": "view",
      "type": "function"
    },
    {
      "inputs": [],
      "name": "totalRelayerTorn",
      "outputs": [
        {
          "internalType": "uint256",
          "name": "ret",
          "type": "uint256"
        }
      ],
      "stateMutability": "view",
      "type": "function"
    },
    {
      "inputs": [],
      "name": "totalSupply",
      "outputs": [
        {
          "internalType": "uint256",
          "name": "",
          "type": "uint256"
        }
      ],
      "stateMutability": "view",
      "type": "function"
    },
    {
      "inputs": [],
      "name": "totalTorn",
      "outputs": [
        {
          "internalType": "uint256",
          "name": "ret",
          "type": "uint256"
        }
      ],
      "stateMutability": "view",
      "type": "function"
    },
    {
      "inputs": [
        {
          "internalType": "address",
          "name": "to",
          "type": "address"
        },
        {
          "internalType": "uint256",
          "name": "amount",
          "type": "uint256"
        }
      ],
      "name": "transfer",
      "outputs": [
        {
          "internalType": "bool",
          "name": "",
          "type": "bool"
        }
      ],
      "stateMutability": "nonpayable",
      "type": "function"
    },
    {
      "inputs": [
        {
          "internalType": "address",
          "name": "from",
          "type": "address"
        },
        {
          "internalType": "address",
          "name": "to",
          "type": "address"
        },
        {
          "internalType": "uint256",
          "name": "amount",
          "type": "uint256"
        }
      ],
      "name": "transferFrom",
      "outputs": [
        {
          "internalType": "bool",
          "name": "",
          "type": "bool"
        }
      ],
      "stateMutability": "nonpayable",
      "type": "function"
    },
    {
      "inputs": [
        {
          "internalType": "address",
          "name": "newOwner",
          "type": "address"
        }
      ],
      "name": "transferOwnership",
      "outputs": [],
      "stateMutability": "nonpayable",
      "type": "function"
    },
    {
      "inputs": [
        {
          "internalType": "uint256",
          "name": "value_token",
          "type": "uint256"
        }
      ],
      "name": "valueForTorn",
      "outputs": [
        {
          "internalType": "uint256",
          "name": "",
          "type": "uint256"
        }
      ],
      "stateMutability": "view",
      "type": "function"
    }
  ],
  "transactionHash": "0x7a4f649f83b29292343c125cf05c31316d3d0e02dffce1abb9e804ab6dcfd22b",
  "args": [
    "0x1428D20Db4C50aab0CAB9857cdd601ff21cAa495",
    "0xb147FD8Ee78F146555F0df51494244221E386F48"
  ],
  "numDeployments": 3,
  "solcInputHash": "94240a04aa38035a2b7cf4d439421803",
  "bytecode": "0x60c06040523480156200001157600080fd5b506040516200248e3803806200248e833981016040819052620000349162000069565b6001600160a01b039081166080521660a052620000a1565b80516001600160a01b03811681146200006457600080fd5b919050565b600080604083850312156200007d57600080fd5b62000088836200004c565b915062000098602084016200004c565b90509250929050565b60805160a0516123b9620000d5600039600081816104a9015261098f01526000818161032c0152610ded01526123b96000f3fe608060405234801561001057600080fd5b50600436106102275760003560e01c8063715018a611610130578063a457c2d7116100b8578063d505accf1161007c578063d505accf146104d3578063dd62ed3e146104e6578063e94ad65b146104f9578063ea9b717e1461050c578063f2fde38b1461051f57600080fd5b8063a457c2d71461046b578063a9059cbb1461047e578063b3ab15fb14610491578063b91476f2146104a4578063c96f3dd3146104cb57600080fd5b80638da5cb5b116100ff5780638da5cb5b14610424578063923074ca146104355780639357c808146104485780639380f9731461045057806395d89b411461046357600080fd5b8063715018a6146103e35780637797d018146103eb5780637ecebe00146103fe5780638be0099c1461041157600080fd5b806329ab2c74116101b3578063395093511161018257806339509351146103565780634b6c6b2c146103695780635058c46014610393578063570ca735146103a657806370a08231146103ba57600080fd5b806329ab2c7414610310578063313ce5671461031857806331e81921146103275780633644e5151461034e57600080fd5b806318160ddd116101fa57806318160ddd146102a35780631b53988f146102ab57806322a137e0146102be57806323897f4f146102d157806323b872dd146102fd57600080fd5b80630404bb3d1461022c57806306fdde0314610241578063072e6bd01461025f578063095ea7b314610280575b600080fd5b61023f61023a366004611ede565b610532565b005b61024961065b565b6040516102569190611f08565b60405180910390f35b61027261026d366004611f5d565b6106ed565b604051908152602001610256565b61029361028e366004611ede565b610783565b6040519015158152602001610256565b606754610272565b61023f6102b9366004611f76565b61079b565b6102726102cc366004611fb9565b61089f565b610100546102e5906001600160a01b031681565b6040516001600160a01b039091168152602001610256565b61029361030b366004611fdb565b61091d565b610272610941565b60405160128152602001610256565b6102e57f000000000000000000000000000000000000000000000000000000000000000081565b610272610a2d565b610293610364366004611ede565b610a3c565b6102e5610377366004611f5d565b610102602052600090815260409020546001600160a01b031681565b61023f6103a1366004611ede565b610a5e565b610101546102e5906001600160a01b031681565b6102726103c8366004611fb9565b6001600160a01b031660009081526065602052604090205490565b61023f610ac6565b61023f6103f9366004611f76565b610afc565b61027261040c366004611fb9565b610b63565b61023f61041f366004611f5d565b610b81565b6033546001600160a01b03166102e5565b61023f610443366004611ede565b610c5d565b610272610d4a565b61023f61045e366004611f5d565b610eee565b610249610f85565b610293610479366004611ede565b610f94565b61029361048c366004611ede565b61100f565b61023f61049f366004611fb9565b61101d565b6102e57f000000000000000000000000000000000000000000000000000000000000000081565b610272600a81565b61023f6104e1366004612017565b61106a565b6102726104f436600461208a565b6111ce565b60ff546102e5906001600160a01b031681565b60fe546102e5906001600160a01b031681565b61023f61052d366004611fb9565b6111f9565b60ff546001600160a01b031633146105915760405162461bcd60e51b815260206004820152601d60248201527f43616c6c6572206973206e6f74206465706f736974436f6e747261637400000060448201526064015b60405180910390fd5b600061059c60675490565b90506000816105c3576105b16012600a6121b7565b6105bc90600a6121c6565b905061064b565b306001600160a01b0316639357c8086040518163ffffffff1660e01b815260040160206040518083038186803b1580156105fc57600080fd5b505afa158015610610573d6000803e3d6000fd5b505050506040513d601f19601f8201168201806040525081019061063491906121e5565b61063e84846121c6565b61064891906121fe565b90505b6106558482611294565b50505050565b60606068805461066a90612220565b80601f016020809104026020016040519081016040528092919081815260200182805461069690612220565b80156106e35780601f106106b8576101008083540402835291602001916106e3565b820191906000526020600020905b8154815290600101906020018083116106c657829003601f168201915b5050505050905090565b60006106f860675490565b306001600160a01b0316639357c8086040518163ffffffff1660e01b815260040160206040518083038186803b15801561073157600080fd5b505afa158015610745573d6000803e3d6000fd5b505050506040513d601f19601f8201168201806040525081019061076991906121e5565b61077390846121c6565b61077d91906121fe565b92915050565b600033610791818585611373565b5060019392505050565b60006107a76001611498565b905080156107bf576000805461ff0019166101001790555b6107ca848484610afc565b6108206040518060400160405280600b81526020016a72656c617965725f64616f60a81b815250604051806040016040528060118152602001703932b630bcb2b92fb230b7afba37b5b2b760791b815250611525565b61084c6040518060400160405280600b81526020016a72656c617965725f64616f60a81b815250611556565b6108546115a0565b8015610655576000805461ff0019169055604051600181527f7f26b83ff96e1f2b6a682f133852f6798a09c465da95921460cefb38474024989060200160405180910390a150505050565b6040516370a0823160e01b81526001600160a01b038216600482015260009061077d9030906370a082319060240160206040518083038186803b1580156108e557600080fd5b505afa1580156108f9573d6000803e3d6000fd5b505050506040513d601f19601f8201168201806040525081019061026d91906121e5565b60003361092b8582856115cf565b610936858585611643565b506001949350505050565b600080805b600a811015610a2857600081815261010260205260409020546001600160a01b031691508115610a165760405163b971a6bf60e01b81526001600160a01b0383811660048301527f0000000000000000000000000000000000000000000000000000000000000000169063b971a6bf9060240160206040518083038186803b1580156109d157600080fd5b505afa1580156109e5573d6000803e3d6000fd5b505050506040513d601f19601f82011682018060405250810190610a0991906121e5565b610a139084612255565b92505b80610a208161226d565b915050610946565b505090565b6000610a37611811565b905090565b600033610791818585610a4f83836111ce565b610a599190612255565b611373565b60ff546001600160a01b03163314610ab85760405162461bcd60e51b815260206004820152601d60248201527f43616c6c6572206973206e6f74206465706f736974436f6e74726163740000006044820152606401610588565b610ac2828261188c565b5050565b6033546001600160a01b03163314610af05760405162461bcd60e51b815260040161058890612288565b610afa60006119d7565b565b600054610100900460ff16610b235760405162461bcd60e51b8152600401610588906122bd565b61010080546001600160a01b039485166001600160a01b03199182161790915560ff80549385169382169390931790925560fe8054919093169116179055565b6001600160a01b038116600090815260cb602052604081205461077d565b6033546001600160a01b03163314610bab5760405162461bcd60e51b815260040161058890612288565b600a8110610bed5760405162461bcd60e51b815260206004820152600f60248201526e0e8dede40d8c2e4ceca40d2dcc8caf608b1b6044820152606401610588565b600081815261010260205260409020546001600160a01b0316610c3e5760405162461bcd60e51b815260206004820152600960248201526834b73232bc1032b93960b91b6044820152606401610588565b60009081526101026020526040902080546001600160a01b0319169055565b6033546001600160a01b03163314610c875760405162461bcd60e51b815260040161058890612288565b600a8110610cc95760405162461bcd60e51b815260206004820152600f60248201526e0e8dede40d8c2e4ceca40d2dcc8caf608b1b6044820152606401610588565b600081815261010260205260409020546001600160a01b031615610d1b5760405162461bcd60e51b815260206004820152600960248201526834b73232bc1032b93960b91b6044820152606401610588565b60009081526101026020526040902080546001600160a01b0319166001600160a01b0392909216919091179055565b60ff546040805163e2e622cd60e01b815290516000926001600160a01b03169163e2e622cd916004808301926020929190829003018186803b158015610d8f57600080fd5b505afa158015610da3573d6000803e3d6000fd5b505050506040513d601f19601f82011682018060405250810190610dc791906121e5565b610100546040516370a0823160e01b81526001600160a01b0391821660048201529192507f000000000000000000000000000000000000000000000000000000000000000016906370a082319060240160206040518083038186803b158015610e2f57600080fd5b505afa158015610e43573d6000803e3d6000fd5b505050506040513d601f19601f82011682018060405250810190610e6791906121e5565b610e719082612255565b9050306001600160a01b03166329ab2c746040518163ffffffff1660e01b815260040160206040518083038186803b158015610eac57600080fd5b505afa158015610ec0573d6000803e3d6000fd5b505050506040513d601f19601f82011682018060405250810190610ee491906121e5565b610a379082612255565b610100546001600160a01b03163314610f495760405162461bcd60e51b815260206004820152601c60248201527f43616c6c6572206973206e6f7420696e436f6d65436f6e7472616374000000006044820152606401610588565b60408051338152602081018390527f0d2e009b696be50eaeafa43283c2e91362ec7d038b2af93783ec767d536ad278910160405180910390a150565b60606069805461066a90612220565b60003381610fa282866111ce565b9050838110156110025760405162461bcd60e51b815260206004820152602560248201527f45524332303a2064656372656173656420616c6c6f77616e63652062656c6f77604482015264207a65726f60d81b6064820152608401610588565b6109368286868403611373565b600033610791818585611643565b6033546001600160a01b031633146110475760405162461bcd60e51b815260040161058890612288565b61010180546001600160a01b0319166001600160a01b0392909216919091179055565b834211156110ba5760405162461bcd60e51b815260206004820152601d60248201527f45524332305065726d69743a206578706972656420646561646c696e650000006044820152606401610588565b60007f6e71edae12b1b97f4d1f60370fef10105fa2faae0126114a169c64845d6126c98888886110e98c611a29565b6040805160208101969096526001600160a01b0394851690860152929091166060840152608083015260a082015260c0810186905260e001604051602081830303815290604052805190602001209050600061114482611a51565b9050600061115482878787611a9f565b9050896001600160a01b0316816001600160a01b0316146111b75760405162461bcd60e51b815260206004820152601e60248201527f45524332305065726d69743a20696e76616c6964207369676e617475726500006044820152606401610588565b6111c28a8a8a611373565b50505050505050505050565b6001600160a01b03918216600090815260666020908152604080832093909416825291909152205490565b6033546001600160a01b031633146112235760405162461bcd60e51b815260040161058890612288565b6001600160a01b0381166112885760405162461bcd60e51b815260206004820152602660248201527f4f776e61626c653a206e6577206f776e657220697320746865207a65726f206160448201526564647265737360d01b6064820152608401610588565b611291816119d7565b50565b6001600160a01b0382166112ea5760405162461bcd60e51b815260206004820152601f60248201527f45524332303a206d696e7420746f20746865207a65726f2061646472657373006044820152606401610588565b80606760008282546112fc9190612255565b90915550506001600160a01b03821660009081526065602052604081208054839290611329908490612255565b90915550506040518181526001600160a01b038316906000907fddf252ad1be2c89b69c2b068fc378daa952ba7f163c4a11628f55a4df523b3ef9060200160405180910390a35050565b6001600160a01b0383166113d55760405162461bcd60e51b8152602060048201526024808201527f45524332303a20617070726f76652066726f6d20746865207a65726f206164646044820152637265737360e01b6064820152608401610588565b6001600160a01b0382166114365760405162461bcd60e51b815260206004820152602260248201527f45524332303a20617070726f766520746f20746865207a65726f206164647265604482015261737360f01b6064820152608401610588565b6001600160a01b0383811660008181526066602090815260408083209487168084529482529182902085905590518481527f8c5be1e5ebec7d5bd14f71427d1e84f3dd0314c0f7b2291e5b200ac8c7c3b92591015b60405180910390a3505050565b60008054610100900460ff16156114df578160ff1660011480156114bb5750303b155b6114d75760405162461bcd60e51b815260040161058890612308565b506000919050565b60005460ff8084169116106115065760405162461bcd60e51b815260040161058890612308565b506000805460ff191660ff92909216919091179055600190565b919050565b600054610100900460ff1661154c5760405162461bcd60e51b8152600401610588906122bd565b610ac28282611ac7565b600054610100900460ff1661157d5760405162461bcd60e51b8152600401610588906122bd565b61129181604051806040016040528060018152602001603160f81b815250611b15565b600054610100900460ff166115c75760405162461bcd60e51b8152600401610588906122bd565b610afa611b56565b60006115db84846111ce565b9050600019811461065557818110156116365760405162461bcd60e51b815260206004820152601d60248201527f45524332303a20696e73756666696369656e7420616c6c6f77616e63650000006044820152606401610588565b6106558484848403611373565b6001600160a01b0383166116a75760405162461bcd60e51b815260206004820152602560248201527f45524332303a207472616e736665722066726f6d20746865207a65726f206164604482015264647265737360d81b6064820152608401610588565b6001600160a01b0382166117095760405162461bcd60e51b815260206004820152602360248201527f45524332303a207472616e7366657220746f20746865207a65726f206164647260448201526265737360e81b6064820152608401610588565b6001600160a01b038316600090815260656020526040902054818110156117815760405162461bcd60e51b815260206004820152602660248201527f45524332303a207472616e7366657220616d6f756e7420657863656564732062604482015265616c616e636560d01b6064820152608401610588565b6001600160a01b038085166000908152606560205260408082208585039055918516815290812080548492906117b8908490612255565b92505081905550826001600160a01b0316846001600160a01b03167fddf252ad1be2c89b69c2b068fc378daa952ba7f163c4a11628f55a4df523b3ef8460405161180491815260200190565b60405180910390a3610655565b6000610a377f8b73c3c69bb8fe3d512ecc4cf759cc79239f7b179b0ffacaa9a75d522b39400f61184060975490565b6098546040805160208101859052908101839052606081018290524660808201523060a082015260009060c0016040516020818303038152906040528051906020012090509392505050565b6001600160a01b0382166118ec5760405162461bcd60e51b815260206004820152602160248201527f45524332303a206275726e2066726f6d20746865207a65726f206164647265736044820152607360f81b6064820152608401610588565b6001600160a01b038216600090815260656020526040902054818110156119605760405162461bcd60e51b815260206004820152602260248201527f45524332303a206275726e20616d6f756e7420657863656564732062616c616e604482015261636560f01b6064820152608401610588565b6001600160a01b038316600090815260656020526040812083830390556067805484929061198f908490612356565b90915550506040518281526000906001600160a01b038516907fddf252ad1be2c89b69c2b068fc378daa952ba7f163c4a11628f55a4df523b3ef9060200161148b565b505050565b603380546001600160a01b038381166001600160a01b0319831681179093556040519116919082907f8be0079c531659141344cd1fd0a4f28419497f9722a3daafe3b4186f6b6457e090600090a35050565b6001600160a01b038116600090815260cb602052604090208054600181018255905b50919050565b600061077d611a5e611811565b8360405161190160f01b6020820152602281018390526042810182905260009060620160405160208183030381529060405280519060200120905092915050565b6000806000611ab087878787611b86565b91509150611abd81611c73565b5095945050505050565b600054610100900460ff16611aee5760405162461bcd60e51b8152600401610588906122bd565b8151611b01906068906020850190611e2e565b5080516119d2906069906020840190611e2e565b600054610100900460ff16611b3c5760405162461bcd60e51b8152600401610588906122bd565b815160209283012081519190920120609791909155609855565b600054610100900460ff16611b7d5760405162461bcd60e51b8152600401610588906122bd565b610afa336119d7565b6000807f7fffffffffffffffffffffffffffffff5d576e7357a4501ddfe92f46681b20a0831115611bbd5750600090506003611c6a565b8460ff16601b14158015611bd557508460ff16601c14155b15611be65750600090506004611c6a565b6040805160008082526020820180845289905260ff881692820192909252606081018690526080810185905260019060a0016020604051602081039080840390855afa158015611c3a573d6000803e3d6000fd5b5050604051601f1901519150506001600160a01b038116611c6357600060019250925050611c6a565b9150600090505b94509492505050565b6000816004811115611c8757611c8761236d565b1415611c905750565b6001816004811115611ca457611ca461236d565b1415611cf25760405162461bcd60e51b815260206004820152601860248201527f45434453413a20696e76616c6964207369676e617475726500000000000000006044820152606401610588565b6002816004811115611d0657611d0661236d565b1415611d545760405162461bcd60e51b815260206004820152601f60248201527f45434453413a20696e76616c6964207369676e6174757265206c656e677468006044820152606401610588565b6003816004811115611d6857611d6861236d565b1415611dc15760405162461bcd60e51b815260206004820152602260248201527f45434453413a20696e76616c6964207369676e6174757265202773272076616c604482015261756560f01b6064820152608401610588565b6004816004811115611dd557611dd561236d565b14156112915760405162461bcd60e51b815260206004820152602260248201527f45434453413a20696e76616c6964207369676e6174757265202776272076616c604482015261756560f01b6064820152608401610588565b828054611e3a90612220565b90600052602060002090601f016020900481019282611e5c5760008555611ea2565b82601f10611e7557805160ff1916838001178555611ea2565b82800160010185558215611ea2579182015b82811115611ea2578251825591602001919060010190611e87565b50611eae929150611eb2565b5090565b5b80821115611eae5760008155600101611eb3565b80356001600160a01b038116811461152057600080fd5b60008060408385031215611ef157600080fd5b611efa83611ec7565b946020939093013593505050565b600060208083528351808285015260005b81811015611f3557858101830151858201604001528201611f19565b81811115611f47576000604083870101525b50601f01601f1916929092016040019392505050565b600060208284031215611f6f57600080fd5b5035919050565b600080600060608486031215611f8b57600080fd5b611f9484611ec7565b9250611fa260208501611ec7565b9150611fb060408501611ec7565b90509250925092565b600060208284031215611fcb57600080fd5b611fd482611ec7565b9392505050565b600080600060608486031215611ff057600080fd5b611ff984611ec7565b925061200760208501611ec7565b9150604084013590509250925092565b600080600080600080600060e0888a03121561203257600080fd5b61203b88611ec7565b965061204960208901611ec7565b95506040880135945060608801359350608088013560ff8116811461206d57600080fd5b9699959850939692959460a0840135945060c09093013592915050565b6000806040838503121561209d57600080fd5b6120a683611ec7565b91506120b460208401611ec7565b90509250929050565b634e487b7160e01b600052601160045260246000fd5b600181815b8085111561210e5781600019048211156120f4576120f46120bd565b8085161561210157918102915b93841c93908002906120d8565b509250929050565b6000826121255750600161077d565b816121325750600061077d565b816001811461214857600281146121525761216e565b600191505061077d565b60ff841115612163576121636120bd565b50506001821b61077d565b5060208310610133831016604e8410600b8410161715612191575081810a61077d565b61219b83836120d3565b80600019048211156121af576121af6120bd565b029392505050565b6000611fd460ff841683612116565b60008160001904831182151516156121e0576121e06120bd565b500290565b6000602082840312156121f757600080fd5b5051919050565b60008261221b57634e487b7160e01b600052601260045260246000fd5b500490565b600181811c9082168061223457607f821691505b60208210811415611a4b57634e487b7160e01b600052602260045260246000fd5b60008219821115612268576122686120bd565b500190565b6000600019821415612281576122816120bd565b5060010190565b6020808252818101527f4f776e61626c653a2063616c6c6572206973206e6f7420746865206f776e6572604082015260600190565b6020808252602b908201527f496e697469616c697a61626c653a20636f6e7472616374206973206e6f74206960408201526a6e697469616c697a696e6760a81b606082015260800190565b6020808252602e908201527f496e697469616c697a61626c653a20636f6e747261637420697320616c72656160408201526d191e481a5b9a5d1a585b1a5e995960921b606082015260800190565b600082821015612368576123686120bd565b500390565b634e487b7160e01b600052602160045260246000fdfea2646970667358221220876cdb907fab4bee4f159093de2a1a2e777f5ea133bb8d76a325fb8fa92c720c64736f6c63430008090033",
  "devdoc": {
    "kind": "dev",
    "methods": {
      "DOMAIN_SEPARATOR()": {
        "details": "See {IERC20Permit-DOMAIN_SEPARATOR}."
      },
      "allowance(address,address)": {
        "details": "See {IERC20-allowance}."
      },
      "approve(address,uint256)": {
        "details": "See {IERC20-approve}. NOTE: If `amount` is the maximum `uint256`, the allowance is not updated on `transferFrom`. This is semantically equivalent to an infinite approval. Requirements: - `spender` cannot be the zero address."
      },
      "balanceOf(address)": {
        "details": "See {IERC20-balanceOf}."
      },
      "decimals()": {
        "details": "Returns the number of decimals used to get its user representation. For example, if `decimals` equals `2`, a balance of `505` tokens should be displayed to a user as `5.05` (`505 / 10 ** 2`). Tokens usually opt for a value of 18, imitating the relationship between Ether and Wei. This is the value {ERC20} uses, unless this function is overridden; NOTE: This information is only used for _display_ purposes: it in no way affects any of the arithmetic of the contract, including {IERC20-balanceOf} and {IERC20-transfer}."
      },
      "decreaseAllowance(address,uint256)": {
        "details": "Atomically decreases the allowance granted to `spender` by the caller. This is an alternative to {approve} that can be used as a mitigation for problems described in {IERC20-approve}. Emits an {Approval} event indicating the updated allowance. Requirements: - `spender` cannot be the zero address. - `spender` must have allowance for the caller of at least `subtractedValue`."
      },
      "increaseAllowance(address,uint256)": {
        "details": "Atomically increases the allowance granted to `spender` by the caller. This is an alternative to {approve} that can be used as a mitigation for problems described in {IERC20-approve}. Emits an {Approval} event indicating the updated allowance. Requirements: - `spender` cannot be the zero address."
      },
      "name()": {
        "details": "Returns the name of the token."
      },
      "nonces(address)": {
        "details": "See {IERC20Permit-nonces}."
      },
      "owner()": {
        "details": "Returns the address of the current owner."
      },
      "permit(address,address,uint256,uint256,uint8,bytes32,bytes32)": {
        "details": "See {IERC20Permit-permit}."
      },
      "renounceOwnership()": {
        "details": "Leaves the contract without owner. It will not be possible to call `onlyOwner` functions anymore. Can only be called by the current owner. NOTE: Renouncing ownership will leave the contract without an owner, thereby removing any functionality that is only available to the owner."
      },
      "symbol()": {
        "details": "Returns the symbol of the token, usually a shorter version of the name."
      },
      "totalSupply()": {
        "details": "See {IERC20-totalSupply}."
      },
      "transfer(address,uint256)": {
        "details": "See {IERC20-transfer}. Requirements: - `to` cannot be the zero address. - the caller must have a balance of at least `amount`."
      },
      "transferFrom(address,address,uint256)": {
        "details": "See {IERC20-transferFrom}. Emits an {Approval} event indicating the updated allowance. This is not required by the EIP. See the note at the beginning of {ERC20}. NOTE: Does not update the allowance if the current allowance is the maximum `uint256`. Requirements: - `from` and `to` cannot be the zero address. - `from` must have a balance of at least `amount`. - the caller must have allowance for ``from``'s tokens of at least `amount`."
      },
      "transferOwnership(address)": {
        "details": "Transfers ownership of the contract to a new account (`newOwner`). Can only be called by the current owner."
      }
    },
    "version": 1
  },
  "userdoc": {
    "kind": "user",
    "methods": {
      "__RootManger_init(address,address,address)": {
        "notice": "---------- init ---------- *"
      },
      "constructor": {
        "notice": "---------address immutable- constructor ---------- *"
      }
    },
    "version": 1
  },
  "storageLayout": {
    "storage": [
      {
        "astId": 130,
        "contract": "contracts/RootManger.sol:RootManger",
        "label": "_initialized",
        "offset": 0,
        "slot": "0",
        "type": "t_uint8"
      },
      {
        "astId": 133,
        "contract": "contracts/RootManger.sol:RootManger",
        "label": "_initializing",
        "offset": 1,
        "slot": "0",
        "type": "t_bool"
      },
      {
        "astId": 1773,
        "contract": "contracts/RootManger.sol:RootManger",
        "label": "__gap",
        "offset": 0,
        "slot": "1",
        "type": "t_array(t_uint256)50_storage"
      },
      {
        "astId": 10,
        "contract": "contracts/RootManger.sol:RootManger",
        "label": "_owner",
        "offset": 0,
        "slot": "51",
        "type": "t_address"
      },
      {
        "astId": 122,
        "contract": "contracts/RootManger.sol:RootManger",
        "label": "__gap",
        "offset": 0,
        "slot": "52",
        "type": "t_array(t_uint256)49_storage"
      },
      {
        "astId": 343,
        "contract": "contracts/RootManger.sol:RootManger",
        "label": "_balances",
        "offset": 0,
        "slot": "101",
        "type": "t_mapping(t_address,t_uint256)"
      },
      {
        "astId": 349,
        "contract": "contracts/RootManger.sol:RootManger",
        "label": "_allowances",
        "offset": 0,
        "slot": "102",
        "type": "t_mapping(t_address,t_mapping(t_address,t_uint256))"
      },
      {
        "astId": 351,
        "contract": "contracts/RootManger.sol:RootManger",
        "label": "_totalSupply",
        "offset": 0,
        "slot": "103",
        "type": "t_uint256"
      },
      {
        "astId": 353,
        "contract": "contracts/RootManger.sol:RootManger",
        "label": "_name",
        "offset": 0,
        "slot": "104",
        "type": "t_string_storage"
      },
      {
        "astId": 355,
        "contract": "contracts/RootManger.sol:RootManger",
        "label": "_symbol",
        "offset": 0,
        "slot": "105",
        "type": "t_string_storage"
      },
      {
        "astId": 934,
        "contract": "contracts/RootManger.sol:RootManger",
        "label": "__gap",
        "offset": 0,
        "slot": "106",
        "type": "t_array(t_uint256)45_storage"
      },
      {
        "astId": 2467,
        "contract": "contracts/RootManger.sol:RootManger",
        "label": "_HASHED_NAME",
        "offset": 0,
        "slot": "151",
        "type": "t_bytes32"
      },
      {
        "astId": 2469,
        "contract": "contracts/RootManger.sol:RootManger",
        "label": "_HASHED_VERSION",
        "offset": 0,
        "slot": "152",
        "type": "t_bytes32"
      },
      {
        "astId": 2607,
        "contract": "contracts/RootManger.sol:RootManger",
        "label": "__gap",
        "offset": 0,
        "slot": "153",
        "type": "t_array(t_uint256)50_storage"
      },
      {
        "astId": 1064,
        "contract": "contracts/RootManger.sol:RootManger",
        "label": "_nonces",
        "offset": 0,
        "slot": "203",
        "type": "t_mapping(t_address,t_struct(Counter)1780_storage)"
      },
      {
        "astId": 1072,
        "contract": "contracts/RootManger.sol:RootManger",
        "label": "_PERMIT_TYPEHASH_DEPRECATED_SLOT",
        "offset": 0,
        "slot": "204",
        "type": "t_bytes32"
      },
      {
        "astId": 1228,
        "contract": "contracts/RootManger.sol:RootManger",
        "label": "__gap",
        "offset": 0,
        "slot": "205",
        "type": "t_array(t_uint256)49_storage"
      },
      {
        "astId": 6556,
        "contract": "contracts/RootManger.sol:RootManger",
        "label": "exitQueueContract",
        "offset": 0,
        "slot": "254",
        "type": "t_address"
      },
      {
        "astId": 6559,
        "contract": "contracts/RootManger.sol:RootManger",
        "label": "depositContract",
        "offset": 0,
        "slot": "255",
        "type": "t_address"
      },
      {
        "astId": 6562,
        "contract": "contracts/RootManger.sol:RootManger",
        "label": "inComeContract",
        "offset": 0,
        "slot": "256",
        "type": "t_address"
      },
      {
        "astId": 6565,
        "contract": "contracts/RootManger.sol:RootManger",
        "label": "operator",
        "offset": 0,
        "slot": "257",
        "type": "t_address"
      },
      {
        "astId": 6573,
        "contract": "contracts/RootManger.sol:RootManger",
        "label": "_relayers",
        "offset": 0,
        "slot": "258",
        "type": "t_mapping(t_uint256,t_address)"
      }
    ],
    "types": {
      "t_address": {
        "encoding": "inplace",
        "label": "address",
        "numberOfBytes": "20"
      },
      "t_array(t_uint256)45_storage": {
        "base": "t_uint256",
        "encoding": "inplace",
        "label": "uint256[45]",
        "numberOfBytes": "1440"
      },
      "t_array(t_uint256)49_storage": {
        "base": "t_uint256",
        "encoding": "inplace",
        "label": "uint256[49]",
        "numberOfBytes": "1568"
      },
      "t_array(t_uint256)50_storage": {
        "base": "t_uint256",
        "encoding": "inplace",
        "label": "uint256[50]",
        "numberOfBytes": "1600"
      },
      "t_bool": {
        "encoding": "inplace",
        "label": "bool",
        "numberOfBytes": "1"
      },
      "t_bytes32": {
        "encoding": "inplace",
        "label": "bytes32",
        "numberOfBytes": "32"
      },
      "t_mapping(t_address,t_mapping(t_address,t_uint256))": {
        "encoding": "mapping",
        "key": "t_address",
        "label": "mapping(address => mapping(address => uint256))",
        "numberOfBytes": "32",
        "value": "t_mapping(t_address,t_uint256)"
      },
      "t_mapping(t_address,t_struct(Counter)1780_storage)": {
        "encoding": "mapping",
        "key": "t_address",
        "label": "mapping(address => struct CountersUpgradeable.Counter)",
        "numberOfBytes": "32",
        "value": "t_struct(Counter)1780_storage"
      },
      "t_mapping(t_address,t_uint256)": {
        "encoding": "mapping",
        "key": "t_address",
        "label": "mapping(address => uint256)",
        "numberOfBytes": "32",
        "value": "t_uint256"
      },
      "t_mapping(t_uint256,t_address)": {
        "encoding": "mapping",
        "key": "t_uint256",
        "label": "mapping(uint256 => address)",
        "numberOfBytes": "32",
        "value": "t_address"
      },
      "t_string_storage": {
        "encoding": "bytes",
        "label": "string",
        "numberOfBytes": "32"
      },
      "t_struct(Counter)1780_storage": {
        "encoding": "inplace",
        "label": "struct CountersUpgradeable.Counter",
        "members": [
          {
            "astId": 1779,
            "contract": "contracts/RootManger.sol:RootManger",
            "label": "_value",
            "offset": 0,
            "slot": "0",
            "type": "t_uint256"
          }
        ],
        "numberOfBytes": "32"
      },
      "t_uint256": {
        "encoding": "inplace",
        "label": "uint256",
        "numberOfBytes": "32"
      },
      "t_uint8": {
        "encoding": "inplace",
        "label": "uint8",
        "numberOfBytes": "1"
      }
    }
  }
}