{
  "address": "0x1aB69553E9118d20699b8C4711704fd1C1AEE863",
  "abi": [
    {
      "inputs": [
        {
          "internalType": "address",
          "name": "_torn_relayer_registry",
          "type": "address"
        },
        {
          "internalType": "address",
          "name": "_tornContract",
          "type": "address"
        }
      ],
      "stateMutability": "nonpayable",
      "type": "constructor"
    },
    {
      "anonymous": false,
      "inputs": [
        {
          "indexed": true,
          "internalType": "address",
          "name": "owner",
          "type": "address"
        },
        {
          "indexed": true,
          "internalType": "address",
          "name": "spender",
          "type": "address"
        },
        {
          "indexed": false,
          "internalType": "uint256",
          "name": "value",
          "type": "uint256"
        }
      ],
      "name": "Approval",
      "type": "event"
    },
    {
      "anonymous": false,
      "inputs": [
        {
          "indexed": false,
          "internalType": "address",
          "name": "from",
          "type": "address"
        },
        {
          "indexed": false,
          "internalType": "uint256",
          "name": "vaule",
          "type": "uint256"
        }
      ],
      "name": "Income",
      "type": "event"
    },
    {
      "anonymous": false,
      "inputs": [
        {
          "indexed": false,
          "internalType": "uint8",
          "name": "version",
          "type": "uint8"
        }
      ],
      "name": "Initialized",
      "type": "event"
    },
    {
      "anonymous": false,
      "inputs": [
        {
          "indexed": true,
          "internalType": "address",
          "name": "previousOwner",
          "type": "address"
        },
        {
          "indexed": true,
          "internalType": "address",
          "name": "newOwner",
          "type": "address"
        }
      ],
      "name": "OwnershipTransferred",
      "type": "event"
    },
    {
      "anonymous": false,
      "inputs": [
        {
          "indexed": true,
          "internalType": "address",
          "name": "from",
          "type": "address"
        },
        {
          "indexed": true,
          "internalType": "address",
          "name": "to",
          "type": "address"
        },
        {
          "indexed": false,
          "internalType": "uint256",
          "name": "value",
          "type": "uint256"
        }
      ],
      "name": "Transfer",
      "type": "event"
    },
    {
      "inputs": [],
      "name": "DOMAIN_SEPARATOR",
      "outputs": [
        {
          "internalType": "bytes32",
          "name": "",
          "type": "bytes32"
        }
      ],
      "stateMutability": "view",
      "type": "function"
    },
    {
      "inputs": [],
      "name": "MAX_RELAYER_COUNTER",
      "outputs": [
        {
          "internalType": "uint256",
          "name": "",
          "type": "uint256"
        }
      ],
      "stateMutability": "view",
      "type": "function"
    },
    {
      "inputs": [],
      "name": "TORN_CONTRACT",
      "outputs": [
        {
          "internalType": "address",
          "name": "",
          "type": "address"
        }
      ],
      "stateMutability": "view",
      "type": "function"
    },
    {
      "inputs": [],
      "name": "TORN_RELAYER_REGISTRY",
      "outputs": [
        {
          "internalType": "address",
          "name": "",
          "type": "address"
        }
      ],
      "stateMutability": "view",
      "type": "function"
    },
    {
      "inputs": [
        {
          "internalType": "address",
          "name": "_inComeContract",
          "type": "address"
        },
        {
          "internalType": "address",
          "name": "_depositContract",
          "type": "address"
        },
        {
          "internalType": "address",
          "name": "_exitQueueContract",
          "type": "address"
        }
      ],
      "name": "__RootManger_init",
      "outputs": [],
      "stateMutability": "nonpayable",
      "type": "function"
    },
    {
      "inputs": [
        {
          "internalType": "address",
          "name": "_inComeContract",
          "type": "address"
        },
        {
          "internalType": "address",
          "name": "_depositContract",
          "type": "address"
        },
        {
          "internalType": "address",
          "name": "_exitQueueContract",
          "type": "address"
        }
      ],
      "name": "__RootManger_init_unchained",
      "outputs": [],
      "stateMutability": "nonpayable",
      "type": "function"
    },
    {
      "inputs": [
        {
          "internalType": "uint256",
          "name": "",
          "type": "uint256"
        }
      ],
      "name": "_relayers",
      "outputs": [
        {
          "internalType": "address",
          "name": "",
          "type": "address"
        }
      ],
      "stateMutability": "view",
      "type": "function"
    },
    {
      "inputs": [
        {
          "internalType": "uint256",
          "name": "amount",
          "type": "uint256"
        }
      ],
      "name": "addIncome",
      "outputs": [],
      "stateMutability": "nonpayable",
      "type": "function"
    },
    {
      "inputs": [
        {
          "internalType": "address",
          "name": "__relayer",
          "type": "address"
        },
        {
          "internalType": "uint256",
          "name": "index",
          "type": "uint256"
        }
      ],
      "name": "addRelayer",
      "outputs": [],
      "stateMutability": "nonpayable",
      "type": "function"
    },
    {
      "inputs": [
        {
          "internalType": "address",
          "name": "owner",
          "type": "address"
        },
        {
          "internalType": "address",
          "name": "spender",
          "type": "address"
        }
      ],
      "name": "allowance",
      "outputs": [
        {
          "internalType": "uint256",
          "name": "",
          "type": "uint256"
        }
      ],
      "stateMutability": "view",
      "type": "function"
    },
    {
      "inputs": [
        {
          "internalType": "address",
          "name": "spender",
          "type": "address"
        },
        {
          "internalType": "uint256",
          "name": "amount",
          "type": "uint256"
        }
      ],
      "name": "approve",
      "outputs": [
        {
          "internalType": "bool",
          "name": "",
          "type": "bool"
        }
      ],
      "stateMutability": "nonpayable",
      "type": "function"
    },
    {
      "inputs": [
        {
          "internalType": "address",
          "name": "account",
          "type": "address"
        }
      ],
      "name": "balanceOf",
      "outputs": [
        {
          "internalType": "uint256",
          "name": "",
          "type": "uint256"
        }
      ],
      "stateMutability": "view",
      "type": "function"
    },
    {
      "inputs": [
        {
          "internalType": "address",
          "name": "account",
          "type": "address"
        }
      ],
      "name": "balanceOfTorn",
      "outputs": [
        {
          "internalType": "uint256",
          "name": "",
          "type": "uint256"
        }
      ],
      "stateMutability": "view",
      "type": "function"
    },
    {
      "inputs": [],
      "name": "decimals",
      "outputs": [
        {
          "internalType": "uint8",
          "name": "",
          "type": "uint8"
        }
      ],
      "stateMutability": "view",
      "type": "function"
    },
    {
      "inputs": [
        {
          "internalType": "address",
          "name": "spender",
          "type": "address"
        },
        {
          "internalType": "uint256",
          "name": "subtractedValue",
          "type": "uint256"
        }
      ],
      "name": "decreaseAllowance",
      "outputs": [
        {
          "internalType": "bool",
          "name": "",
          "type": "bool"
        }
      ],
      "stateMutability": "nonpayable",
      "type": "function"
    },
    {
      "inputs": [
        {
          "internalType": "address",
          "name": "account",
          "type": "address"
        },
        {
          "internalType": "uint256",
          "name": "value",
          "type": "uint256"
        }
      ],
      "name": "deposit",
      "outputs": [
        {
          "internalType": "bool",
          "name": "",
          "type": "bool"
        }
      ],
      "stateMutability": "nonpayable",
      "type": "function"
    },
    {
      "inputs": [],
      "name": "depositContract",
      "outputs": [
        {
          "internalType": "address",
          "name": "",
          "type": "address"
        }
      ],
      "stateMutability": "view",
      "type": "function"
    },
    {
      "inputs": [],
      "name": "exitQueueContract",
      "outputs": [
        {
          "internalType": "address",
          "name": "",
          "type": "address"
        }
      ],
      "stateMutability": "view",
      "type": "function"
    },
    {
      "inputs": [],
      "name": "inComeContract",
      "outputs": [
        {
          "internalType": "address",
          "name": "",
          "type": "address"
        }
      ],
      "stateMutability": "view",
      "type": "function"
    },
    {
      "inputs": [
        {
          "internalType": "address",
          "name": "spender",
          "type": "address"
        },
        {
          "internalType": "uint256",
          "name": "addedValue",
          "type": "uint256"
        }
      ],
      "name": "increaseAllowance",
      "outputs": [
        {
          "internalType": "bool",
          "name": "",
          "type": "bool"
        }
      ],
      "stateMutability": "nonpayable",
      "type": "function"
    },
    {
      "inputs": [],
      "name": "name",
      "outputs": [
        {
          "internalType": "string",
          "name": "",
          "type": "string"
        }
      ],
      "stateMutability": "view",
      "type": "function"
    },
    {
      "inputs": [
        {
          "internalType": "address",
          "name": "owner",
          "type": "address"
        }
      ],
      "name": "nonces",
      "outputs": [
        {
          "internalType": "uint256",
          "name": "",
          "type": "uint256"
        }
      ],
      "stateMutability": "view",
      "type": "function"
    },
    {
      "inputs": [],
      "name": "operator",
      "outputs": [
        {
          "internalType": "address",
          "name": "",
          "type": "address"
        }
      ],
      "stateMutability": "view",
      "type": "function"
    },
    {
      "inputs": [],
      "name": "owner",
      "outputs": [
        {
          "internalType": "address",
          "name": "",
          "type": "address"
        }
      ],
      "stateMutability": "view",
      "type": "function"
    },
    {
      "inputs": [
        {
          "internalType": "address",
          "name": "owner",
          "type": "address"
        },
        {
          "internalType": "address",
          "name": "spender",
          "type": "address"
        },
        {
          "internalType": "uint256",
          "name": "value",
          "type": "uint256"
        },
        {
          "internalType": "uint256",
          "name": "deadline",
          "type": "uint256"
        },
        {
          "internalType": "uint8",
          "name": "v",
          "type": "uint8"
        },
        {
          "internalType": "bytes32",
          "name": "r",
          "type": "bytes32"
        },
        {
          "internalType": "bytes32",
          "name": "s",
          "type": "bytes32"
        }
      ],
      "name": "permit",
      "outputs": [],
      "stateMutability": "nonpayable",
      "type": "function"
    },
    {
      "inputs": [
        {
          "internalType": "uint256",
          "name": "index",
          "type": "uint256"
        }
      ],
      "name": "removeRelayer",
      "outputs": [],
      "stateMutability": "nonpayable",
      "type": "function"
    },
    {
      "inputs": [],
      "name": "renounceOwnership",
      "outputs": [],
      "stateMutability": "nonpayable",
      "type": "function"
    },
    {
      "inputs": [
        {
          "internalType": "address",
          "name": "__operator",
          "type": "address"
        }
      ],
      "name": "setOperator",
      "outputs": [],
      "stateMutability": "nonpayable",
      "type": "function"
    },
    {
      "inputs": [],
      "name": "symbol",
      "outputs": [
        {
          "internalType": "string",
          "name": "",
          "type": "string"
        }
      ],
      "stateMutability": "view",
      "type": "function"
    },
    {
      "inputs": [],
      "name": "totalRelayerTorn",
      "outputs": [
        {
          "internalType": "uint256",
          "name": "ret",
          "type": "uint256"
        }
      ],
      "stateMutability": "view",
      "type": "function"
    },
    {
      "inputs": [],
      "name": "totalSupply",
      "outputs": [
        {
          "internalType": "uint256",
          "name": "",
          "type": "uint256"
        }
      ],
      "stateMutability": "view",
      "type": "function"
    },
    {
      "inputs": [],
      "name": "totalTorn",
      "outputs": [
        {
          "internalType": "uint256",
          "name": "ret",
          "type": "uint256"
        }
      ],
      "stateMutability": "view",
      "type": "function"
    },
    {
      "inputs": [
        {
          "internalType": "address",
          "name": "to",
          "type": "address"
        },
        {
          "internalType": "uint256",
          "name": "amount",
          "type": "uint256"
        }
      ],
      "name": "transfer",
      "outputs": [
        {
          "internalType": "bool",
          "name": "",
          "type": "bool"
        }
      ],
      "stateMutability": "nonpayable",
      "type": "function"
    },
    {
      "inputs": [
        {
          "internalType": "address",
          "name": "from",
          "type": "address"
        },
        {
          "internalType": "address",
          "name": "to",
          "type": "address"
        },
        {
          "internalType": "uint256",
          "name": "amount",
          "type": "uint256"
        }
      ],
      "name": "transferFrom",
      "outputs": [
        {
          "internalType": "bool",
          "name": "",
          "type": "bool"
        }
      ],
      "stateMutability": "nonpayable",
      "type": "function"
    },
    {
      "inputs": [
        {
          "internalType": "address",
          "name": "newOwner",
          "type": "address"
        }
      ],
      "name": "transferOwnership",
      "outputs": [],
      "stateMutability": "nonpayable",
      "type": "function"
    },
    {
      "inputs": [
        {
          "internalType": "uint256",
          "name": "value_token",
          "type": "uint256"
        }
      ],
      "name": "valueForTorn",
      "outputs": [
        {
          "internalType": "uint256",
          "name": "",
          "type": "uint256"
        }
      ],
      "stateMutability": "view",
      "type": "function"
    },
    {
      "inputs": [
        {
          "internalType": "address",
          "name": "account",
          "type": "address"
        },
        {
          "internalType": "uint256",
          "name": "to_burn",
          "type": "uint256"
        }
      ],
      "name": "withdraw",
      "outputs": [
        {
          "internalType": "bool",
          "name": "",
          "type": "bool"
        }
      ],
      "stateMutability": "nonpayable",
      "type": "function"
    }
  ],
  "transactionHash": "0x6bf7a2bd3a79387083ecaadd96e54a5eb6d1c66b151e7b348fa63a80695a9913",
  "args": [
    "0x3Bc5aB6338279337289a8C8B9828C923a056b546",
    "0xb147FD8Ee78F146555F0df51494244221E386F48"
  ],
  "numDeployments": 1,
  "solcInputHash": "29a3732671a7fc6ce56ad916d8ef0cef",
  "bytecode": "0x60c06040523480156200001157600080fd5b50604051620024c3380380620024c3833981016040819052620000349162000069565b6001600160a01b039081166080521660a052620000a1565b80516001600160a01b03811681146200006457600080fd5b919050565b600080604083850312156200007d57600080fd5b62000088836200004c565b915062000098602084016200004c565b90509250929050565b60805160a0516123ee620000d56000396000818161049601526108660152600081816103190152610d8401526123ee6000f3fe608060405234801561001057600080fd5b50600436106102275760003560e01c80637797d01811610130578063a9059cbb116100b8578063dd62ed3e1161007c578063dd62ed3e146104d3578063e94ad65b146104e6578063ea9b717e146104f9578063f2fde38b1461050c578063f3fef3a31461051f57600080fd5b8063a9059cbb1461046b578063b3ab15fb1461047e578063b91476f214610491578063c96f3dd3146104b8578063d505accf146104c057600080fd5b8063923074ca116100ff578063923074ca146104225780639357c808146104355780639380f9731461043d57806395d89b4114610450578063a457c2d71461045857600080fd5b80637797d018146103d85780637ecebe00146103eb5780638be0099c146103fe5780638da5cb5b1461041157600080fd5b8063313ce567116101b357806347e7ef241161018257806347e7ef24146103565780634b6c6b2c14610369578063570ca7351461039357806370a08231146103a7578063715018a6146103d057600080fd5b8063313ce5671461030557806331e81921146103145780633644e5151461033b578063395093511461034357600080fd5b80631b53988f116101fa5780631b53988f1461029657806322a137e0146102ab57806323897f4f146102be57806323b872dd146102ea57806329ab2c74146102fd57600080fd5b806306fdde031461022c578063072e6bd01461024a578063095ea7b31461026b57806318160ddd1461028e575b600080fd5b610234610532565b6040516102419190611f03565b60405180910390f35b61025d610258366004611f58565b6105c4565b604051908152602001610241565b61027e610279366004611f88565b610659565b6040519015158152602001610241565b60675461025d565b6102a96102a4366004611fb2565b610671565b005b61025d6102b9366004611ff5565b610776565b610100546102d2906001600160a01b031681565b6040516001600160a01b039091168152602001610241565b61027e6102f8366004612010565b6107f4565b61025d610818565b60405160128152602001610241565b6102d27f000000000000000000000000000000000000000000000000000000000000000081565b61025d610904565b61027e610351366004611f88565b610913565b61027e610364366004611f88565b610935565b6102d2610377366004611f58565b610102602052600090815260409020546001600160a01b031681565b610101546102d2906001600160a01b031681565b61025d6103b5366004611ff5565b6001600160a01b031660009081526065602052604090205490565b6102a9610a5d565b6102a96103e6366004611fb2565b610a93565b61025d6103f9366004611ff5565b610afa565b6102a961040c366004611f58565b610b18565b6033546001600160a01b03166102d2565b6102a9610430366004611f88565b610bf4565b61025d610ce1565b6102a961044b366004611f58565b610e85565b610234610f25565b61027e610466366004611f88565b610f34565b61027e610479366004611f88565b610faf565b6102a961048c366004611ff5565b610fbd565b6102d27f000000000000000000000000000000000000000000000000000000000000000081565b61025d600a81565b6102a96104ce36600461204c565b61100a565b61025d6104e13660046120bf565b61116e565b60ff546102d2906001600160a01b031681565b60fe546102d2906001600160a01b031681565b6102a961051a366004611ff5565b611199565b61027e61052d366004611f88565b611234565b606060688054610541906120f2565b80601f016020809104026020016040519081016040528092919081815260200182805461056d906120f2565b80156105ba5780601f1061058f576101008083540402835291602001916105ba565b820191906000526020600020905b81548152906001019060200180831161059d57829003601f168201915b5050505050905090565b60006106536105d260675490565b61064d306001600160a01b0316639357c8086040518163ffffffff1660e01b815260040160206040518083038186803b15801561060e57600080fd5b505afa158015610622573d6000803e3d6000fd5b505050506040513d601f19601f820116820180604052508101906106469190612127565b85906112ad565b906112c0565b92915050565b6000336106678185856112cc565b5060019392505050565b600061067d60016113f1565b90508015610695576000805461ff0019166101001790555b6106a0848484610a93565b6106f66040518060400160405280600b81526020016a72656c617965725f64616f60a81b815250604051806040016040528060118152602001703932b630bcb2b92fb230b7afba37b5b2b760791b81525061147e565b6107226040518060400160405280600b81526020016a72656c617965725f64616f60a81b8152506114b3565b61072a6114fd565b8015610770576000805461ff0019169055604051600181527f7f26b83ff96e1f2b6a682f133852f6798a09c465da95921460cefb38474024989060200160405180910390a15b50505050565b6040516370a0823160e01b81526001600160a01b03821660048201526000906106539030906370a082319060240160206040518083038186803b1580156107bc57600080fd5b505afa1580156107d0573d6000803e3d6000fd5b505050506040513d601f19601f820116820180604052508101906102589190612127565b60003361080285828561152c565b61080d8585856115a0565b506001949350505050565b600080805b600a8110156108ff57600081815261010260205260409020546001600160a01b0316915081156108ed5760405163b971a6bf60e01b81526001600160a01b0383811660048301527f0000000000000000000000000000000000000000000000000000000000000000169063b971a6bf9060240160206040518083038186803b1580156108a857600080fd5b505afa1580156108bc573d6000803e3d6000fd5b505050506040513d601f19601f820116820180604052508101906108e09190612127565b6108ea9084612156565b92505b806108f78161216e565b91505061081d565b505090565b600061090e61176e565b905090565b600033610667818585610926838361116e565b6109309190612156565b6112cc565b60ff546000906001600160a01b0316336001600160a01b0316146109a05760405162461bcd60e51b815260206004820152601e60248201527f43616c6c6572206973206e6f7420206465706f736974436f6e7472616374000060448201526064015b60405180910390fd5b60006109ab60675490565b90506000816109d2576109c06012600a61226d565b6109cb90600a61227c565b9050610a53565b610a50306001600160a01b0316639357c8086040518163ffffffff1660e01b815260040160206040518083038186803b158015610a0e57600080fd5b505afa158015610a22573d6000803e3d6000fd5b505050506040513d601f19601f82011682018060405250810190610a469190612127565b61064d84876112ad565b90505b61080d85826117e9565b6033546001600160a01b03163314610a875760405162461bcd60e51b81526004016109979061229b565b610a9160006118c8565b565b600054610100900460ff16610aba5760405162461bcd60e51b8152600401610997906122d0565b61010080546001600160a01b039485166001600160a01b03199182161790915560ff80549385169382169390931790925560fe8054919093169116179055565b6001600160a01b038116600090815260cb6020526040812054610653565b6033546001600160a01b03163314610b425760405162461bcd60e51b81526004016109979061229b565b600a8110610b845760405162461bcd60e51b815260206004820152600f60248201526e0e8dede40d8c2e4ceca40d2dcc8caf608b1b6044820152606401610997565b600081815261010260205260409020546001600160a01b0316610bd55760405162461bcd60e51b815260206004820152600960248201526834b73232bc1032b93960b91b6044820152606401610997565b60009081526101026020526040902080546001600160a01b0319169055565b6033546001600160a01b03163314610c1e5760405162461bcd60e51b81526004016109979061229b565b600a8110610c605760405162461bcd60e51b815260206004820152600f60248201526e0e8dede40d8c2e4ceca40d2dcc8caf608b1b6044820152606401610997565b600081815261010260205260409020546001600160a01b031615610cb25760405162461bcd60e51b815260206004820152600960248201526834b73232bc1032b93960b91b6044820152606401610997565b60009081526101026020526040902080546001600160a01b0319166001600160a01b0392909216919091179055565b60ff546040805163e2e622cd60e01b815290516000926001600160a01b03169163e2e622cd916004808301926020929190829003018186803b158015610d2657600080fd5b505afa158015610d3a573d6000803e3d6000fd5b505050506040513d601f19601f82011682018060405250810190610d5e9190612127565b610100546040516370a0823160e01b81526001600160a01b0391821660048201529192507f000000000000000000000000000000000000000000000000000000000000000016906370a082319060240160206040518083038186803b158015610dc657600080fd5b505afa158015610dda573d6000803e3d6000fd5b505050506040513d601f19601f82011682018060405250810190610dfe9190612127565b610e089082612156565b9050306001600160a01b03166329ab2c746040518163ffffffff1660e01b815260040160206040518083038186803b158015610e4357600080fd5b505afa158015610e57573d6000803e3d6000fd5b505050506040513d601f19601f82011682018060405250810190610e7b9190612127565b61090e9082612156565b610100546001600160a01b0316336001600160a01b031614610ee95760405162461bcd60e51b815260206004820152601d60248201527f43616c6c6572206973206e6f742020696e436f6d65436f6e74726163740000006044820152606401610997565b60408051338152602081018390527f0d2e009b696be50eaeafa43283c2e91362ec7d038b2af93783ec767d536ad278910160405180910390a150565b606060698054610541906120f2565b60003381610f42828661116e565b905083811015610fa25760405162461bcd60e51b815260206004820152602560248201527f45524332303a2064656372656173656420616c6c6f77616e63652062656c6f77604482015264207a65726f60d81b6064820152608401610997565b61080d82868684036112cc565b6000336106678185856115a0565b6033546001600160a01b03163314610fe75760405162461bcd60e51b81526004016109979061229b565b61010180546001600160a01b0319166001600160a01b0392909216919091179055565b8342111561105a5760405162461bcd60e51b815260206004820152601d60248201527f45524332305065726d69743a206578706972656420646561646c696e650000006044820152606401610997565b60007f6e71edae12b1b97f4d1f60370fef10105fa2faae0126114a169c64845d6126c98888886110898c61191a565b6040805160208101969096526001600160a01b0394851690860152929091166060840152608083015260a082015260c0810186905260e00160405160208183030381529060405280519060200120905060006110e482611942565b905060006110f482878787611990565b9050896001600160a01b0316816001600160a01b0316146111575760405162461bcd60e51b815260206004820152601e60248201527f45524332305065726d69743a20696e76616c6964207369676e617475726500006044820152606401610997565b6111628a8a8a6112cc565b50505050505050505050565b6001600160a01b03918216600090815260666020908152604080832093909416825291909152205490565b6033546001600160a01b031633146111c35760405162461bcd60e51b81526004016109979061229b565b6001600160a01b0381166112285760405162461bcd60e51b815260206004820152602660248201527f4f776e61626c653a206e6577206f776e657220697320746865207a65726f206160448201526564647265737360d01b6064820152608401610997565b611231816118c8565b50565b60ff546000906001600160a01b0316336001600160a01b03161461129a5760405162461bcd60e51b815260206004820152601e60248201527f43616c6c6572206973206e6f7420206465706f736974436f6e747261637400006044820152606401610997565b6112a483836119b8565b50600192915050565b60006112b9828461227c565b9392505050565b60006112b9828461231b565b6001600160a01b03831661132e5760405162461bcd60e51b8152602060048201526024808201527f45524332303a20617070726f76652066726f6d20746865207a65726f206164646044820152637265737360e01b6064820152608401610997565b6001600160a01b03821661138f5760405162461bcd60e51b815260206004820152602260248201527f45524332303a20617070726f766520746f20746865207a65726f206164647265604482015261737360f01b6064820152608401610997565b6001600160a01b0383811660008181526066602090815260408083209487168084529482529182902085905590518481527f8c5be1e5ebec7d5bd14f71427d1e84f3dd0314c0f7b2291e5b200ac8c7c3b92591015b60405180910390a3505050565b60008054610100900460ff1615611438578160ff1660011480156114145750303b155b6114305760405162461bcd60e51b81526004016109979061233d565b506000919050565b60005460ff80841691161061145f5760405162461bcd60e51b81526004016109979061233d565b506000805460ff191660ff92909216919091179055600190565b919050565b600054610100900460ff166114a55760405162461bcd60e51b8152600401610997906122d0565b6114af8282611b03565b5050565b600054610100900460ff166114da5760405162461bcd60e51b8152600401610997906122d0565b61123181604051806040016040528060018152602001603160f81b815250611b51565b600054610100900460ff166115245760405162461bcd60e51b8152600401610997906122d0565b610a91611b92565b6000611538848461116e565b9050600019811461077057818110156115935760405162461bcd60e51b815260206004820152601d60248201527f45524332303a20696e73756666696369656e7420616c6c6f77616e63650000006044820152606401610997565b61077084848484036112cc565b6001600160a01b0383166116045760405162461bcd60e51b815260206004820152602560248201527f45524332303a207472616e736665722066726f6d20746865207a65726f206164604482015264647265737360d81b6064820152608401610997565b6001600160a01b0382166116665760405162461bcd60e51b815260206004820152602360248201527f45524332303a207472616e7366657220746f20746865207a65726f206164647260448201526265737360e81b6064820152608401610997565b6001600160a01b038316600090815260656020526040902054818110156116de5760405162461bcd60e51b815260206004820152602660248201527f45524332303a207472616e7366657220616d6f756e7420657863656564732062604482015265616c616e636560d01b6064820152608401610997565b6001600160a01b03808516600090815260656020526040808220858503905591851681529081208054849290611715908490612156565b92505081905550826001600160a01b0316846001600160a01b03167fddf252ad1be2c89b69c2b068fc378daa952ba7f163c4a11628f55a4df523b3ef8460405161176191815260200190565b60405180910390a3610770565b600061090e7f8b73c3c69bb8fe3d512ecc4cf759cc79239f7b179b0ffacaa9a75d522b39400f61179d60975490565b6098546040805160208101859052908101839052606081018290524660808201523060a082015260009060c0016040516020818303038152906040528051906020012090509392505050565b6001600160a01b03821661183f5760405162461bcd60e51b815260206004820152601f60248201527f45524332303a206d696e7420746f20746865207a65726f2061646472657373006044820152606401610997565b80606760008282546118519190612156565b90915550506001600160a01b0382166000908152606560205260408120805483929061187e908490612156565b90915550506040518181526001600160a01b038316906000907fddf252ad1be2c89b69c2b068fc378daa952ba7f163c4a11628f55a4df523b3ef9060200160405180910390a35050565b603380546001600160a01b038381166001600160a01b0319831681179093556040519116919082907f8be0079c531659141344cd1fd0a4f28419497f9722a3daafe3b4186f6b6457e090600090a35050565b6001600160a01b038116600090815260cb602052604090208054600181018255905b50919050565b600061065361194f61176e565b8360405161190160f01b6020820152602281018390526042810182905260009060620160405160208183030381529060405280519060200120905092915050565b60008060006119a187878787611bc2565b915091506119ae81611caf565b5095945050505050565b6001600160a01b038216611a185760405162461bcd60e51b815260206004820152602160248201527f45524332303a206275726e2066726f6d20746865207a65726f206164647265736044820152607360f81b6064820152608401610997565b6001600160a01b03821660009081526065602052604090205481811015611a8c5760405162461bcd60e51b815260206004820152602260248201527f45524332303a206275726e20616d6f756e7420657863656564732062616c616e604482015261636560f01b6064820152608401610997565b6001600160a01b0383166000908152606560205260408120838303905560678054849290611abb90849061238b565b90915550506040518281526000906001600160a01b038516907fddf252ad1be2c89b69c2b068fc378daa952ba7f163c4a11628f55a4df523b3ef906020016113e4565b505050565b600054610100900460ff16611b2a5760405162461bcd60e51b8152600401610997906122d0565b8151611b3d906068906020850190611e6a565b508051611afe906069906020840190611e6a565b600054610100900460ff16611b785760405162461bcd60e51b8152600401610997906122d0565b815160209283012081519190920120609791909155609855565b600054610100900460ff16611bb95760405162461bcd60e51b8152600401610997906122d0565b610a91336118c8565b6000807f7fffffffffffffffffffffffffffffff5d576e7357a4501ddfe92f46681b20a0831115611bf95750600090506003611ca6565b8460ff16601b14158015611c1157508460ff16601c14155b15611c225750600090506004611ca6565b6040805160008082526020820180845289905260ff881692820192909252606081018690526080810185905260019060a0016020604051602081039080840390855afa158015611c76573d6000803e3d6000fd5b5050604051601f1901519150506001600160a01b038116611c9f57600060019250925050611ca6565b9150600090505b94509492505050565b6000816004811115611cc357611cc36123a2565b1415611ccc5750565b6001816004811115611ce057611ce06123a2565b1415611d2e5760405162461bcd60e51b815260206004820152601860248201527f45434453413a20696e76616c6964207369676e617475726500000000000000006044820152606401610997565b6002816004811115611d4257611d426123a2565b1415611d905760405162461bcd60e51b815260206004820152601f60248201527f45434453413a20696e76616c6964207369676e6174757265206c656e677468006044820152606401610997565b6003816004811115611da457611da46123a2565b1415611dfd5760405162461bcd60e51b815260206004820152602260248201527f45434453413a20696e76616c6964207369676e6174757265202773272076616c604482015261756560f01b6064820152608401610997565b6004816004811115611e1157611e116123a2565b14156112315760405162461bcd60e51b815260206004820152602260248201527f45434453413a20696e76616c6964207369676e6174757265202776272076616c604482015261756560f01b6064820152608401610997565b828054611e76906120f2565b90600052602060002090601f016020900481019282611e985760008555611ede565b82601f10611eb157805160ff1916838001178555611ede565b82800160010185558215611ede579182015b82811115611ede578251825591602001919060010190611ec3565b50611eea929150611eee565b5090565b5b80821115611eea5760008155600101611eef565b600060208083528351808285015260005b81811015611f3057858101830151858201604001528201611f14565b81811115611f42576000604083870101525b50601f01601f1916929092016040019392505050565b600060208284031215611f6a57600080fd5b5035919050565b80356001600160a01b038116811461147957600080fd5b60008060408385031215611f9b57600080fd5b611fa483611f71565b946020939093013593505050565b600080600060608486031215611fc757600080fd5b611fd084611f71565b9250611fde60208501611f71565b9150611fec60408501611f71565b90509250925092565b60006020828403121561200757600080fd5b6112b982611f71565b60008060006060848603121561202557600080fd5b61202e84611f71565b925061203c60208501611f71565b9150604084013590509250925092565b600080600080600080600060e0888a03121561206757600080fd5b61207088611f71565b965061207e60208901611f71565b95506040880135945060608801359350608088013560ff811681146120a257600080fd5b9699959850939692959460a0840135945060c09093013592915050565b600080604083850312156120d257600080fd5b6120db83611f71565b91506120e960208401611f71565b90509250929050565b600181811c9082168061210657607f821691505b6020821081141561193c57634e487b7160e01b600052602260045260246000fd5b60006020828403121561213957600080fd5b5051919050565b634e487b7160e01b600052601160045260246000fd5b6000821982111561216957612169612140565b500190565b600060001982141561218257612182612140565b5060010190565b600181815b808511156121c45781600019048211156121aa576121aa612140565b808516156121b757918102915b93841c939080029061218e565b509250929050565b6000826121db57506001610653565b816121e857506000610653565b81600181146121fe576002811461220857612224565b6001915050610653565b60ff84111561221957612219612140565b50506001821b610653565b5060208310610133831016604e8410600b8410161715612247575081810a610653565b6122518383612189565b806000190482111561226557612265612140565b029392505050565b60006112b960ff8416836121cc565b600081600019048311821515161561229657612296612140565b500290565b6020808252818101527f4f776e61626c653a2063616c6c6572206973206e6f7420746865206f776e6572604082015260600190565b6020808252602b908201527f496e697469616c697a61626c653a20636f6e7472616374206973206e6f74206960408201526a6e697469616c697a696e6760a81b606082015260800190565b60008261233857634e487b7160e01b600052601260045260246000fd5b500490565b6020808252602e908201527f496e697469616c697a61626c653a20636f6e747261637420697320616c72656160408201526d191e481a5b9a5d1a585b1a5e995960921b606082015260800190565b60008282101561239d5761239d612140565b500390565b634e487b7160e01b600052602160045260246000fdfea26469706673582212204381643fd79a141d9e88c0ff001fb718fbc965797252b3381a81a7553070bba764736f6c63430008090033",
  "devdoc": {
    "kind": "dev",
    "methods": {
      "DOMAIN_SEPARATOR()": {
        "details": "See {IERC20Permit-DOMAIN_SEPARATOR}."
      },
      "allowance(address,address)": {
        "details": "See {IERC20-allowance}."
      },
      "approve(address,uint256)": {
        "details": "See {IERC20-approve}. NOTE: If `amount` is the maximum `uint256`, the allowance is not updated on `transferFrom`. This is semantically equivalent to an infinite approval. Requirements: - `spender` cannot be the zero address."
      },
      "balanceOf(address)": {
        "details": "See {IERC20-balanceOf}."
      },
      "decimals()": {
        "details": "Returns the number of decimals used to get its user representation. For example, if `decimals` equals `2`, a balance of `505` tokens should be displayed to a user as `5.05` (`505 / 10 ** 2`). Tokens usually opt for a value of 18, imitating the relationship between Ether and Wei. This is the value {ERC20} uses, unless this function is overridden; NOTE: This information is only used for _display_ purposes: it in no way affects any of the arithmetic of the contract, including {IERC20-balanceOf} and {IERC20-transfer}."
      },
      "decreaseAllowance(address,uint256)": {
        "details": "Atomically decreases the allowance granted to `spender` by the caller. This is an alternative to {approve} that can be used as a mitigation for problems described in {IERC20-approve}. Emits an {Approval} event indicating the updated allowance. Requirements: - `spender` cannot be the zero address. - `spender` must have allowance for the caller of at least `subtractedValue`."
      },
      "increaseAllowance(address,uint256)": {
        "details": "Atomically increases the allowance granted to `spender` by the caller. This is an alternative to {approve} that can be used as a mitigation for problems described in {IERC20-approve}. Emits an {Approval} event indicating the updated allowance. Requirements: - `spender` cannot be the zero address."
      },
      "name()": {
        "details": "Returns the name of the token."
      },
      "nonces(address)": {
        "details": "See {IERC20Permit-nonces}."
      },
      "owner()": {
        "details": "Returns the address of the current owner."
      },
      "permit(address,address,uint256,uint256,uint8,bytes32,bytes32)": {
        "details": "See {IERC20Permit-permit}."
      },
      "renounceOwnership()": {
        "details": "Leaves the contract without owner. It will not be possible to call `onlyOwner` functions anymore. Can only be called by the current owner. NOTE: Renouncing ownership will leave the contract without an owner, thereby removing any functionality that is only available to the owner."
      },
      "symbol()": {
        "details": "Returns the symbol of the token, usually a shorter version of the name."
      },
      "totalSupply()": {
        "details": "See {IERC20-totalSupply}."
      },
      "transfer(address,uint256)": {
        "details": "See {IERC20-transfer}. Requirements: - `to` cannot be the zero address. - the caller must have a balance of at least `amount`."
      },
      "transferFrom(address,address,uint256)": {
        "details": "See {IERC20-transferFrom}. Emits an {Approval} event indicating the updated allowance. This is not required by the EIP. See the note at the beginning of {ERC20}. NOTE: Does not update the allowance if the current allowance is the maximum `uint256`. Requirements: - `from` and `to` cannot be the zero address. - `from` must have a balance of at least `amount`. - the caller must have allowance for ``from``'s tokens of at least `amount`."
      },
      "transferOwnership(address)": {
        "details": "Transfers ownership of the contract to a new account (`newOwner`). Can only be called by the current owner."
      }
    },
    "version": 1
  },
  "userdoc": {
    "kind": "user",
    "methods": {
      "__RootManger_init(address,address,address)": {
        "notice": "---------- init ---------- *"
      },
      "constructor": {
        "notice": "---------address immutable- constructor ---------- *"
      }
    },
    "version": 1
  },
  "storageLayout": {
    "storage": [
      {
        "astId": 130,
        "contract": "contracts/RootManger.sol:RootManger",
        "label": "_initialized",
        "offset": 0,
        "slot": "0",
        "type": "t_uint8"
      },
      {
        "astId": 133,
        "contract": "contracts/RootManger.sol:RootManger",
        "label": "_initializing",
        "offset": 1,
        "slot": "0",
        "type": "t_bool"
      },
      {
        "astId": 1773,
        "contract": "contracts/RootManger.sol:RootManger",
        "label": "__gap",
        "offset": 0,
        "slot": "1",
        "type": "t_array(t_uint256)50_storage"
      },
      {
        "astId": 10,
        "contract": "contracts/RootManger.sol:RootManger",
        "label": "_owner",
        "offset": 0,
        "slot": "51",
        "type": "t_address"
      },
      {
        "astId": 122,
        "contract": "contracts/RootManger.sol:RootManger",
        "label": "__gap",
        "offset": 0,
        "slot": "52",
        "type": "t_array(t_uint256)49_storage"
      },
      {
        "astId": 343,
        "contract": "contracts/RootManger.sol:RootManger",
        "label": "_balances",
        "offset": 0,
        "slot": "101",
        "type": "t_mapping(t_address,t_uint256)"
      },
      {
        "astId": 349,
        "contract": "contracts/RootManger.sol:RootManger",
        "label": "_allowances",
        "offset": 0,
        "slot": "102",
        "type": "t_mapping(t_address,t_mapping(t_address,t_uint256))"
      },
      {
        "astId": 351,
        "contract": "contracts/RootManger.sol:RootManger",
        "label": "_totalSupply",
        "offset": 0,
        "slot": "103",
        "type": "t_uint256"
      },
      {
        "astId": 353,
        "contract": "contracts/RootManger.sol:RootManger",
        "label": "_name",
        "offset": 0,
        "slot": "104",
        "type": "t_string_storage"
      },
      {
        "astId": 355,
        "contract": "contracts/RootManger.sol:RootManger",
        "label": "_symbol",
        "offset": 0,
        "slot": "105",
        "type": "t_string_storage"
      },
      {
        "astId": 934,
        "contract": "contracts/RootManger.sol:RootManger",
        "label": "__gap",
        "offset": 0,
        "slot": "106",
        "type": "t_array(t_uint256)45_storage"
      },
      {
        "astId": 2467,
        "contract": "contracts/RootManger.sol:RootManger",
        "label": "_HASHED_NAME",
        "offset": 0,
        "slot": "151",
        "type": "t_bytes32"
      },
      {
        "astId": 2469,
        "contract": "contracts/RootManger.sol:RootManger",
        "label": "_HASHED_VERSION",
        "offset": 0,
        "slot": "152",
        "type": "t_bytes32"
      },
      {
        "astId": 2607,
        "contract": "contracts/RootManger.sol:RootManger",
        "label": "__gap",
        "offset": 0,
        "slot": "153",
        "type": "t_array(t_uint256)50_storage"
      },
      {
        "astId": 1064,
        "contract": "contracts/RootManger.sol:RootManger",
        "label": "_nonces",
        "offset": 0,
        "slot": "203",
        "type": "t_mapping(t_address,t_struct(Counter)1780_storage)"
      },
      {
        "astId": 1072,
        "contract": "contracts/RootManger.sol:RootManger",
        "label": "_PERMIT_TYPEHASH_DEPRECATED_SLOT",
        "offset": 0,
        "slot": "204",
        "type": "t_bytes32"
      },
      {
        "astId": 1228,
        "contract": "contracts/RootManger.sol:RootManger",
        "label": "__gap",
        "offset": 0,
        "slot": "205",
        "type": "t_array(t_uint256)49_storage"
      },
      {
        "astId": 7950,
        "contract": "contracts/RootManger.sol:RootManger",
        "label": "exitQueueContract",
        "offset": 0,
        "slot": "254",
        "type": "t_address"
      },
      {
        "astId": 7953,
        "contract": "contracts/RootManger.sol:RootManger",
        "label": "depositContract",
        "offset": 0,
        "slot": "255",
        "type": "t_address"
      },
      {
        "astId": 7956,
        "contract": "contracts/RootManger.sol:RootManger",
        "label": "inComeContract",
        "offset": 0,
        "slot": "256",
        "type": "t_address"
      },
      {
        "astId": 7959,
        "contract": "contracts/RootManger.sol:RootManger",
        "label": "operator",
        "offset": 0,
        "slot": "257",
        "type": "t_address"
      },
      {
        "astId": 7967,
        "contract": "contracts/RootManger.sol:RootManger",
        "label": "_relayers",
        "offset": 0,
        "slot": "258",
        "type": "t_mapping(t_uint256,t_address)"
      }
    ],
    "types": {
      "t_address": {
        "encoding": "inplace",
        "label": "address",
        "numberOfBytes": "20"
      },
      "t_array(t_uint256)45_storage": {
        "base": "t_uint256",
        "encoding": "inplace",
        "label": "uint256[45]",
        "numberOfBytes": "1440"
      },
      "t_array(t_uint256)49_storage": {
        "base": "t_uint256",
        "encoding": "inplace",
        "label": "uint256[49]",
        "numberOfBytes": "1568"
      },
      "t_array(t_uint256)50_storage": {
        "base": "t_uint256",
        "encoding": "inplace",
        "label": "uint256[50]",
        "numberOfBytes": "1600"
      },
      "t_bool": {
        "encoding": "inplace",
        "label": "bool",
        "numberOfBytes": "1"
      },
      "t_bytes32": {
        "encoding": "inplace",
        "label": "bytes32",
        "numberOfBytes": "32"
      },
      "t_mapping(t_address,t_mapping(t_address,t_uint256))": {
        "encoding": "mapping",
        "key": "t_address",
        "label": "mapping(address => mapping(address => uint256))",
        "numberOfBytes": "32",
        "value": "t_mapping(t_address,t_uint256)"
      },
      "t_mapping(t_address,t_struct(Counter)1780_storage)": {
        "encoding": "mapping",
        "key": "t_address",
        "label": "mapping(address => struct CountersUpgradeable.Counter)",
        "numberOfBytes": "32",
        "value": "t_struct(Counter)1780_storage"
      },
      "t_mapping(t_address,t_uint256)": {
        "encoding": "mapping",
        "key": "t_address",
        "label": "mapping(address => uint256)",
        "numberOfBytes": "32",
        "value": "t_uint256"
      },
      "t_mapping(t_uint256,t_address)": {
        "encoding": "mapping",
        "key": "t_uint256",
        "label": "mapping(uint256 => address)",
        "numberOfBytes": "32",
        "value": "t_address"
      },
      "t_string_storage": {
        "encoding": "bytes",
        "label": "string",
        "numberOfBytes": "32"
      },
      "t_struct(Counter)1780_storage": {
        "encoding": "inplace",
        "label": "struct CountersUpgradeable.Counter",
        "members": [
          {
            "astId": 1779,
            "contract": "contracts/RootManger.sol:RootManger",
            "label": "_value",
            "offset": 0,
            "slot": "0",
            "type": "t_uint256"
          }
        ],
        "numberOfBytes": "32"
      },
      "t_uint256": {
        "encoding": "inplace",
        "label": "uint256",
        "numberOfBytes": "32"
      },
      "t_uint8": {
        "encoding": "inplace",
        "label": "uint8",
        "numberOfBytes": "1"
      }
    }
  }
}