{
  "address": "0x6747B6BA3E92C2A6924F33Efe19e4200F3bF9C26",
  "abi": [
    {
      "inputs": [
        {
          "internalType": "address",
          "name": "_tornContract",
          "type": "address"
        },
        {
          "internalType": "address",
          "name": "_tornGovernanceStaking",
          "type": "address"
        },
        {
          "internalType": "address",
          "name": "_tornRelayerRegistry",
          "type": "address"
        },
        {
          "internalType": "address",
          "name": "_root_manager",
          "type": "address"
        }
      ],
      "stateMutability": "nonpayable",
      "type": "constructor"
    },
    {
      "anonymous": false,
      "inputs": [
        {
          "indexed": false,
          "internalType": "uint8",
          "name": "version",
          "type": "uint8"
        }
      ],
      "name": "Initialized",
      "type": "event"
    },
    {
      "anonymous": false,
      "inputs": [
        {
          "indexed": false,
          "internalType": "uint256",
          "name": "_amount",
          "type": "uint256"
        }
      ],
      "name": "lock_to_gov",
      "type": "event"
    },
    {
      "anonymous": false,
      "inputs": [
        {
          "indexed": false,
          "internalType": "address",
          "name": "account",
          "type": "address"
        },
        {
          "indexed": false,
          "internalType": "uint256",
          "name": "_amount_token",
          "type": "uint256"
        },
        {
          "indexed": false,
          "internalType": "uint256",
          "name": "torn",
          "type": "uint256"
        },
        {
          "indexed": false,
          "internalType": "uint256",
          "name": "profi",
          "type": "uint256"
        }
      ],
      "name": "with_draw",
      "type": "event"
    },
    {
      "inputs": [],
      "name": "EXIT_QUEUE",
      "outputs": [
        {
          "internalType": "address",
          "name": "",
          "type": "address"
        }
      ],
      "stateMutability": "view",
      "type": "function"
    },
    {
      "inputs": [],
      "name": "IN_SUFFICIENT",
      "outputs": [
        {
          "internalType": "uint256",
          "name": "",
          "type": "uint256"
        }
      ],
      "stateMutability": "view",
      "type": "function"
    },
    {
      "inputs": [],
      "name": "ROOT_MANAGER",
      "outputs": [
        {
          "internalType": "address",
          "name": "",
          "type": "address"
        }
      ],
      "stateMutability": "view",
      "type": "function"
    },
    {
      "inputs": [],
      "name": "SUFFICIENT",
      "outputs": [
        {
          "internalType": "uint256",
          "name": "",
          "type": "uint256"
        }
      ],
      "stateMutability": "view",
      "type": "function"
    },
    {
      "inputs": [],
      "name": "TORN_CONTRACT",
      "outputs": [
        {
          "internalType": "address",
          "name": "",
          "type": "address"
        }
      ],
      "stateMutability": "view",
      "type": "function"
    },
    {
      "inputs": [],
      "name": "TORN_GOVERNANCE_STAKING",
      "outputs": [
        {
          "internalType": "address",
          "name": "",
          "type": "address"
        }
      ],
      "stateMutability": "view",
      "type": "function"
    },
    {
      "inputs": [],
      "name": "TORN_RELAYER_REGISTRY",
      "outputs": [
        {
          "internalType": "address",
          "name": "",
          "type": "address"
        }
      ],
      "stateMutability": "view",
      "type": "function"
    },
    {
      "inputs": [],
      "name": "__Deposit_init",
      "outputs": [],
      "stateMutability": "nonpayable",
      "type": "function"
    },
    {
      "inputs": [],
      "name": "balanceOfStakingOnGov",
      "outputs": [
        {
          "internalType": "uint256",
          "name": "t",
          "type": "uint256"
        }
      ],
      "stateMutability": "view",
      "type": "function"
    },
    {
      "inputs": [],
      "name": "checkRewardOnGov",
      "outputs": [
        {
          "internalType": "uint256",
          "name": "",
          "type": "uint256"
        }
      ],
      "stateMutability": "view",
      "type": "function"
    },
    {
      "inputs": [
        {
          "internalType": "uint256",
          "name": "_amount",
          "type": "uint256"
        },
        {
          "internalType": "uint256",
          "name": "deadline",
          "type": "uint256"
        },
        {
          "internalType": "uint8",
          "name": "v",
          "type": "uint8"
        },
        {
          "internalType": "bytes32",
          "name": "r",
          "type": "bytes32"
        },
        {
          "internalType": "bytes32",
          "name": "s",
          "type": "bytes32"
        }
      ],
      "name": "deposit",
      "outputs": [],
      "stateMutability": "nonpayable",
      "type": "function"
    },
    {
      "inputs": [
        {
          "internalType": "uint256",
          "name": "_qty",
          "type": "uint256"
        }
      ],
      "name": "depositWithApproval",
      "outputs": [],
      "stateMutability": "nonpayable",
      "type": "function"
    },
    {
      "inputs": [
        {
          "internalType": "uint256",
          "name": "_amount_token",
          "type": "uint256"
        }
      ],
      "name": "getValueShouldUnlock",
      "outputs": [
        {
          "internalType": "uint256",
          "name": "shortage",
          "type": "uint256"
        },
        {
          "internalType": "uint256",
          "name": "torn",
          "type": "uint256"
        }
      ],
      "stateMutability": "view",
      "type": "function"
    },
    {
      "inputs": [],
      "name": "getValueShouldUnlockFromGov",
      "outputs": [
        {
          "internalType": "uint256",
          "name": "",
          "type": "uint256"
        }
      ],
      "stateMutability": "view",
      "type": "function"
    },
    {
      "inputs": [
        {
          "internalType": "uint256",
          "name": "_amount_token",
          "type": "uint256"
        }
      ],
      "name": "isBalanceEnough",
      "outputs": [
        {
          "internalType": "bool",
          "name": "",
          "type": "bool"
        }
      ],
      "stateMutability": "view",
      "type": "function"
    },
    {
      "inputs": [],
      "name": "isNeedClaimFromGov",
      "outputs": [
        {
          "internalType": "bool",
          "name": "",
          "type": "bool"
        }
      ],
      "stateMutability": "view",
      "type": "function"
    },
    {
      "inputs": [],
      "name": "isNeedTransfer2Queue",
      "outputs": [
        {
          "internalType": "bool",
          "name": "",
          "type": "bool"
        }
      ],
      "stateMutability": "view",
      "type": "function"
    },
    {
      "inputs": [],
      "name": "maxReserveTorn",
      "outputs": [
        {
          "internalType": "uint256",
          "name": "",
          "type": "uint256"
        }
      ],
      "stateMutability": "view",
      "type": "function"
    },
    {
      "inputs": [],
      "name": "maxRewardInGov",
      "outputs": [
        {
          "internalType": "uint256",
          "name": "",
          "type": "uint256"
        }
      ],
      "stateMutability": "view",
      "type": "function"
    },
    {
      "inputs": [],
      "name": "profitRatio",
      "outputs": [
        {
          "internalType": "uint256",
          "name": "",
          "type": "uint256"
        }
      ],
      "stateMutability": "view",
      "type": "function"
    },
    {
      "inputs": [],
      "name": "rewardAddress",
      "outputs": [
        {
          "internalType": "address",
          "name": "",
          "type": "address"
        }
      ],
      "stateMutability": "view",
      "type": "function"
    },
    {
      "inputs": [
        {
          "internalType": "uint256",
          "name": "index",
          "type": "uint256"
        },
        {
          "internalType": "uint256",
          "name": "value",
          "type": "uint256"
        }
      ],
      "name": "setPara",
      "outputs": [],
      "stateMutability": "nonpayable",
      "type": "function"
    },
    {
      "inputs": [
        {
          "internalType": "uint256",
          "name": "_index",
          "type": "uint256"
        },
        {
          "internalType": "uint256",
          "name": "_amount",
          "type": "uint256"
        }
      ],
      "name": "stake2Node",
      "outputs": [],
      "stateMutability": "nonpayable",
      "type": "function"
    },
    {
      "inputs": [],
      "name": "totalBalanceOfTorn",
      "outputs": [
        {
          "internalType": "uint256",
          "name": "_t",
          "type": "uint256"
        }
      ],
      "stateMutability": "view",
      "type": "function"
    },
    {
      "inputs": [
        {
          "internalType": "uint256",
          "name": "_amount",
          "type": "uint256"
        },
        {
          "internalType": "uint256",
          "name": "deadline",
          "type": "uint256"
        },
        {
          "internalType": "uint8",
          "name": "v",
          "type": "uint8"
        },
        {
          "internalType": "bytes32",
          "name": "r",
          "type": "bytes32"
        },
        {
          "internalType": "bytes32",
          "name": "s",
          "type": "bytes32"
        }
      ],
      "name": "withDraw",
      "outputs": [],
      "stateMutability": "nonpayable",
      "type": "function"
    },
    {
      "inputs": [
        {
          "internalType": "uint256",
          "name": "_amount_token",
          "type": "uint256"
        }
      ],
      "name": "withDrawWithApproval",
      "outputs": [],
      "stateMutability": "nonpayable",
      "type": "function"
    },
    {
      "inputs": [
        {
          "internalType": "address",
          "name": "addr",
          "type": "address"
        },
        {
          "internalType": "uint256",
          "name": "_amount_token",
          "type": "uint256"
        }
      ],
      "name": "withdraw_for_exit",
      "outputs": [
        {
          "internalType": "uint256",
          "name": "",
          "type": "uint256"
        }
      ],
      "stateMutability": "nonpayable",
      "type": "function"
    }
  ],
  "transactionHash": "0x4fca505460028ff9e0b9a1b68426d9a89bed0318a33f32204c65c40dea7c7b90",
  "args": [
    "0xB26a3df3B9D52A00c08DAf41698C1408D12Cf59b",
    "0x652384e2E85aFD29718Ad3fF48E5fe235ACcA622",
    "0xc90780e5e9589efc98b4741D8f71B3d690782899",
    "0x45bDb14179c1629679F59a2a2a62EFF5B5F92e2a"
  ],
  "numDeployments": 1,
  "solcInputHash": "8d4c3baa55254e459abd61949a35ba8b",
  "bytecode": "0x6101006040523480156200001257600080fd5b5060405162002c8738038062002c87833981016040819052620000359162000075565b6001600160a01b0393841660805291831660a052821660c0521660e052620000d2565b80516001600160a01b03811681146200007057600080fd5b919050565b600080600080608085870312156200008c57600080fd5b620000978562000058565b9350620000a76020860162000058565b9250620000b76040860162000058565b9150620000c76060860162000058565b905092959194509250565b60805160a05160c05160e051612a7f620002086000396000818161027b015281816103d4015281816106f2015281816108a70152818161095501528181610c3601528181610d2901528181610f40015281816110f9015281816111fa015281816116ef01528181611a710152612260015260008181610341015281816112f3015261133e01526000818161036801528181610b2101528181610baa0152818161159f0152818161179d0152818161184701528181611cb901528181611ea40152818161205b0152818161209601526121df0152600081816101ed0152818161063b0152818161092c0152818161107b015281816112d10152818161144f015281816114fb0152818161165d01528181611c0b01528181611f9c015281816120390152818161230201526123440152612a7f6000f3fe608060405234801561001057600080fd5b50600436106101a95760003560e01c80639615d2ba116100f9578063c866880e11610097578063e2e622cd11610071578063e2e622cd146103b0578063f245e6a0146103b8578063fc4c0aec146103c1578063fff5ea94146103c957600080fd5b8063c866880e14610363578063ca80a43b1461038a578063d3e06b5e1461039d57600080fd5b8063adba6bb6116100d3578063adba6bb614610303578063b6f4e79a1461032b578063b90a63fa14610334578063b91476f21461033c57600080fd5b80639615d2ba146102df578063a0779c2f146102e8578063a9fda201146102fb57600080fd5b8063546cee9411610166578063727784fe11610140578063727784fe1461029d5780637e34dbe0146102b05780638576e0a6146102c35780638cf57cb9146102cc57600080fd5b8063546cee94146102505780635c027699146102635780635f61e3ec1461027657600080fd5b80632224db44146101ae57806322f97b5e146101c35780632f5dcf03146101e057806331e81921146101e85780633a542c281461022757806351e48baf1461023a575b600080fd5b6101c16101bc36600461274b565b6103d2565b005b6101cb61058c565b60405190151581526020015b60405180910390f35b6101c16106c4565b61020f7f000000000000000000000000000000000000000000000000000000000000000081565b6040516001600160a01b0390911681526020016101d7565b6101c161023536600461276d565b6107eb565b610242610b92565b6040519081526020016101d7565b61024261025e36600461279b565b610c32565b6101c16102713660046127c7565b610e64565b61020f7f000000000000000000000000000000000000000000000000000000000000000081565b6101cb6102ab36600461276d565b610fc3565b6101c16102be3660046127c7565b611064565b61024260001981565b60345461020f906001600160a01b031681565b61024260365481565b6101c16102f636600461274b565b6110f7565b61024261139f565b61031661031136600461276d565b611639565b604080519283526020830191909152016101d7565b61024260011981565b6101cb611842565b61020f7f000000000000000000000000000000000000000000000000000000000000000081565b61020f7f000000000000000000000000000000000000000000000000000000000000000081565b6101c161039836600461276d565b611959565b60335461020f906001600160a01b031681565b610242611bf3565b61024260375481565b610242611cb5565b61024260355481565b7f00000000000000000000000000000000000000000000000000000000000000006001600160a01b031663570ca7356040518163ffffffff1660e01b815260040160206040518083038186803b15801561042b57600080fd5b505afa15801561043f573d6000803e3d6000fd5b505050506040513d601f19601f820116820180604052508101906104639190612816565b6001600160a01b0316336001600160a01b0316146104c15760405162461bcd60e51b815260206004820152601660248201527521b0b63632b91034b9903737ba1037b832b930ba37b960511b60448201526064015b60405180910390fd5b600081116105005760405162461bcd60e51b815260206004820152600c60248201526b496e76616c6964207061726160a01b60448201526064016104b8565b816001141561050f5760365550565b816002141561051e5760375550565b816003141561054657603480546001600160a01b0319166001600160a01b0383161790555050565b81600414156105555760355550565b60405162461bcd60e51b815260206004820152600c60248201526b496e76616c6964207061726160a01b60448201526064016104b8565b600080603360009054906101000a90046001600160a01b03166001600160a01b031663ccfb99356040518163ffffffff1660e01b815260040160206040518083038186803b1580156105dd57600080fd5b505afa1580156105f1573d6000803e3d6000fd5b505050506040513d601f19601f820116820180604052508101906106159190612833565b90508061062457600091505090565b6040516370a0823160e01b815230600482015281907f00000000000000000000000000000000000000000000000000000000000000006001600160a01b0316906370a082319060240160206040518083038186803b15801561068557600080fd5b505afa158015610699573d6000803e3d6000fd5b505050506040513d601f19601f820116820180604052508101906106bd9190612833565b1191505090565b60006106d06001611d76565b905080156106e8576000805461ff0019166101001790555b6106f0611dfe565b7f00000000000000000000000000000000000000000000000000000000000000006001600160a01b031663ea9b717e6040518163ffffffff1660e01b815260040160206040518083038186803b15801561074957600080fd5b505afa15801561075d573d6000803e3d6000fd5b505050506040513d601f19601f820116820180604052508101906107819190612816565b603380546001600160a01b0319166001600160a01b039290921691909117905580156107e8576000805461ff0019169055604051600181527f7f26b83ff96e1f2b6a682f133852f6798a09c465da95921460cefb3847402498906020015b60405180910390a15b50565b6002600154141561083e5760405162461bcd60e51b815260206004820152601f60248201527f5265656e7472616e637947756172643a207265656e7472616e742063616c6c0060448201526064016104b8565b6002600155338161087e5760405162461bcd60e51b815260206004820152600a6024820152696572726f72207061726160b01b60448201526064016104b8565b604051630404bb3d60e01b81526001600160a01b038281166004830152602482018490526000917f000000000000000000000000000000000000000000000000000000000000000090911690630404bb3d90604401602060405180830381600087803b1580156108ed57600080fd5b505af1158015610901573d6000803e3d6000fd5b505050506040513d601f19601f820116820180604052508101906109259190612833565b90506109537f0000000000000000000000000000000000000000000000000000000000000000833086611e2f565b7f00000000000000000000000000000000000000000000000000000000000000006001600160a01b0316632f684b766040518163ffffffff1660e01b815260040160206040518083038186803b1580156109ac57600080fd5b505afa1580156109c0573d6000803e3d6000fd5b505050506040513d601f19601f820116820180604052508101906109e49190612816565b604051634575113760e01b815233600482015260248101859052604481018390526001600160a01b039190911690634575113790606401600060405180830381600087803b158015610a3557600080fd5b505af1158015610a49573d6000803e3d6000fd5b50505050610a5561058c565b15610ac757603360009054906101000a90046001600160a01b03166001600160a01b031663a4ec69386040518163ffffffff1660e01b8152600401600060405180830381600087803b158015610aaa57600080fd5b505af1158015610abe573d6000803e3d6000fd5b50505050610b88565b610acf611842565b15610ae157610adc611ea0565b610b88565b6000610aeb61139f565b905080610b0257610afa611f84565b505050610b8b565b6000198114610b8657604051636198e33960e01b8152600481018290527f00000000000000000000000000000000000000000000000000000000000000006001600160a01b031690636198e33990602401600060405180830381600087803b158015610b6d57600080fd5b505af1158015610b81573d6000803e3d6000fd5b505050505b505b50505b5060018055565b604051639ae697bf60e01b81523060048201526000907f00000000000000000000000000000000000000000000000000000000000000006001600160a01b031690639ae697bf906024015b60206040518083038186803b158015610bf557600080fd5b505afa158015610c09573d6000803e3d6000fd5b505050506040513d601f19601f82011682018060405250810190610c2d9190612833565b905090565b60007f00000000000000000000000000000000000000000000000000000000000000006001600160a01b031663ea9b717e6040518163ffffffff1660e01b815260040160206040518083038186803b158015610c8d57600080fd5b505afa158015610ca1573d6000803e3d6000fd5b505050506040513d601f19601f82011682018060405250810190610cc59190612816565b6001600160a01b0316336001600160a01b031614610d255760405162461bcd60e51b815260206004820152601760248201527f43616c6c6572206973206e6f742065786974517565756500000000000000000060448201526064016104b8565b60007f00000000000000000000000000000000000000000000000000000000000000006001600160a01b0316632f684b766040518163ffffffff1660e01b815260040160206040518083038186803b158015610d8057600080fd5b505afa158015610d94573d6000803e3d6000fd5b505050506040513d601f19601f82011682018060405250810190610db89190612816565b60405163191e2e8360e01b81526001600160a01b0386811660048301526024820186905291925060009183169063191e2e8390604401602060405180830381600087803b158015610e0857600080fd5b505af1158015610e1c573d6000803e3d6000fd5b505050506040513d601f19601f82011682018060405250810190610e409190612833565b90506000610e4d8561212b565b9050610e5a8582846122cc565b9695505050505050565b603360009054906101000a90046001600160a01b03166001600160a01b031663ccfb99356040518163ffffffff1660e01b815260040160206040518083038186803b158015610eb257600080fd5b505afa158015610ec6573d6000803e3d6000fd5b505050506040513d601f19601f82011682018060405250810190610eea9190612833565b15610f295760405162461bcd60e51b815260206004820152600f60248201526e5175657565206e6f7420656d70747960881b60448201526064016104b8565b60405163d505accf60e01b81526001600160a01b037f0000000000000000000000000000000000000000000000000000000000000000169063d505accf90610f8190339030908a908a908a908a908a9060040161284c565b600060405180830381600087803b158015610f9b57600080fd5b505af1158015610faf573d6000803e3d6000fd5b50505050610fbc85611959565b5050505050565b6033546040805163ccfb993560e01b815290516000926001600160a01b03169163ccfb9935916004808301926020929190829003018186803b15801561100857600080fd5b505afa15801561101c573d6000803e3d6000fd5b505050506040513d601f19601f820116820180604052508101906110409190612833565b1561104d57506000919050565b600061105883611639565b50600019119392505050565b60405163d505accf60e01b81526001600160a01b037f0000000000000000000000000000000000000000000000000000000000000000169063d505accf906110bc90339030908a908a908a908a908a9060040161284c565b600060405180830381600087803b1580156110d657600080fd5b505af11580156110ea573d6000803e3d6000fd5b50505050610fbc856107eb565b7f00000000000000000000000000000000000000000000000000000000000000006001600160a01b031663570ca7356040518163ffffffff1660e01b815260040160206040518083038186803b15801561115057600080fd5b505afa158015611164573d6000803e3d6000fd5b505050506040513d601f19601f820116820180604052508101906111889190612816565b6001600160a01b0316336001600160a01b0316146111e15760405162461bcd60e51b815260206004820152601660248201527521b0b63632b91034b9903737ba1037b832b930ba37b960511b60448201526064016104b8565b6040516312db1acb60e21b8152600481018390526000907f00000000000000000000000000000000000000000000000000000000000000006001600160a01b031690634b6c6b2c9060240160206040518083038186803b15801561124457600080fd5b505afa158015611258573d6000803e3d6000fd5b505050506040513d601f19601f8201168201806040525081019061127c9190612816565b90506001600160a01b0381166112c45760405162461bcd60e51b815260206004820152600d60248201526c092dcecc2d8d2c840d2dcc8caf609b1b60448201526064016104b8565b6113186001600160a01b037f0000000000000000000000000000000000000000000000000000000000000000167f000000000000000000000000000000000000000000000000000000000000000084612372565b60405163d990231d60e01b81526001600160a01b038281166004830152602482018490527f0000000000000000000000000000000000000000000000000000000000000000169063d990231d90604401600060405180830381600087803b15801561138257600080fd5b505af1158015611396573d6000803e3d6000fd5b50505050505050565b600080603360009054906101000a90046001600160a01b03166001600160a01b031663ccfb99356040518163ffffffff1660e01b815260040160206040518083038186803b1580156113f057600080fd5b505afa158015611404573d6000803e3d6000fd5b505050506040513d601f19601f820116820180604052508101906114289190612833565b90508061143757600091505090565b6040516370a0823160e01b81523060048201526000907f00000000000000000000000000000000000000000000000000000000000000006001600160a01b0316906370a082319060240160206040518083038186803b15801561149957600080fd5b505afa1580156114ad573d6000803e3d6000fd5b505050506040513d601f19601f820116820180604052508101906114d19190612833565b90508082116114e35760009250505090565b6040516370a0823160e01b81523060048201526000907f00000000000000000000000000000000000000000000000000000000000000006001600160a01b0316906370a082319060240160206040518083038186803b15801561154557600080fd5b505afa158015611559573d6000803e3d6000fd5b505050506040513d601f19601f8201168201806040525081019061157d9190612833565b61158790846128a3565b604051639ae697bf60e01b81523060048201529091507f00000000000000000000000000000000000000000000000000000000000000006001600160a01b031690639ae697bf9060240160206040518083038186803b1580156115e957600080fd5b505afa1580156115fd573d6000803e3d6000fd5b505050506040513d601f19601f820116820180604052508101906116219190612833565b811161162e579392505050565b600019935050505090565b6040516370a0823160e01b8152306004820152600090819081906001600160a01b037f000000000000000000000000000000000000000000000000000000000000000016906370a082319060240160206040518083038186803b15801561169f57600080fd5b505afa1580156116b3573d6000803e3d6000fd5b505050506040513d601f19601f820116820180604052508101906116d79190612833565b6040516272e6bd60e41b8152600481018690529091507f00000000000000000000000000000000000000000000000000000000000000006001600160a01b03169063072e6bd09060240160206040518083038186803b15801561173957600080fd5b505afa15801561174d573d6000803e3d6000fd5b505050506040513d601f19601f820116820180604052508101906117719190612833565b915081811061178557600119925050915091565b604051639ae697bf60e01b81523060048201526000907f00000000000000000000000000000000000000000000000000000000000000006001600160a01b031690639ae697bf9060240160206040518083038186803b1580156117e757600080fd5b505afa1580156117fb573d6000803e3d6000fd5b505050506040513d601f19601f8201168201806040525081019061181f9190612833565b905061182b82846128a3565b93508381101561183b5760001993505b5050915091565b6000807f00000000000000000000000000000000000000000000000000000000000000006001600160a01b031663f57df22e6040518163ffffffff1660e01b815260040160206040518083038186803b15801561189e57600080fd5b505afa1580156118b2573d6000803e3d6000fd5b505050506040513d601f19601f820116820180604052508101906118d69190612816565b6040516330f2439960e21b81523060048201526001600160a01b03919091169063c3c90e649060240160206040518083038186803b15801561191757600080fd5b505afa15801561192b573d6000803e3d6000fd5b505050506040513d601f19601f8201168201806040525081019061194f9190612833565b6037541092915050565b600260015414156119ac5760405162461bcd60e51b815260206004820152601f60248201527f5265656e7472616e637947756172643a207265656e7472616e742063616c6c0060448201526064016104b8565b60026001556033546040805163ccfb993560e01b815290516001600160a01b039092169163ccfb993591600480820192602092909190829003018186803b1580156119f657600080fd5b505afa158015611a0a573d6000803e3d6000fd5b505050506040513d601f19601f82011682018060405250810190611a2e9190612833565b15611a6d5760405162461bcd60e51b815260206004820152600f60248201526e5175657565206e6f7420656d70747960881b60448201526064016104b8565b60007f00000000000000000000000000000000000000000000000000000000000000006001600160a01b0316632f684b766040518163ffffffff1660e01b815260040160206040518083038186803b158015611ac857600080fd5b505afa158015611adc573d6000803e3d6000fd5b505050506040513d601f19601f82011682018060405250810190611b009190612816565b60405163191e2e8360e01b8152336004820152602481018490529091506000906001600160a01b0383169063191e2e8390604401602060405180830381600087803b158015611b4e57600080fd5b505af1158015611b62573d6000803e3d6000fd5b505050506040513d601f19601f82011682018060405250810190611b869190612833565b90506000611b938461212b565b9050611ba08482846122cc565b506040805133815260208101869052908101829052606081018390527f4f31e4b99390d24f1f90e67199124611e798b13d90d74422fb39bb3789c99f4c9060800160405180910390a15050600180555050565b6040516370a0823160e01b81523060048201526000907f00000000000000000000000000000000000000000000000000000000000000006001600160a01b0316906370a082319060240160206040518083038186803b158015611c5557600080fd5b505afa158015611c69573d6000803e3d6000fd5b505050506040513d601f19601f82011682018060405250810190611c8d9190612833565b9050611c97610b92565b611ca190826128ba565b9050611cab611cb5565b610c2d90826128ba565b60007f00000000000000000000000000000000000000000000000000000000000000006001600160a01b031663f57df22e6040518163ffffffff1660e01b815260040160206040518083038186803b158015611d1057600080fd5b505afa158015611d24573d6000803e3d6000fd5b505050506040513d601f19601f82011682018060405250810190611d489190612816565b6040516330f2439960e21b81523060048201526001600160a01b03919091169063c3c90e6490602401610bdd565b60008054610100900460ff1615611dbd578160ff166001148015611d995750303b155b611db55760405162461bcd60e51b81526004016104b8906128d2565b506000919050565b60005460ff808416911610611de45760405162461bcd60e51b81526004016104b8906128d2565b506000805460ff191660ff92909216919091179055600190565b600054610100900460ff16611e255760405162461bcd60e51b81526004016104b890612920565b611e2d61249b565b565b6040516001600160a01b0380851660248301528316604482015260648101829052611e9a9085906323b872dd60e01b906084015b60408051601f198184030181529190526020810180516001600160e01b03166001600160e01b0319909316929092179091526124c8565b50505050565b60007f00000000000000000000000000000000000000000000000000000000000000006001600160a01b031663f57df22e6040518163ffffffff1660e01b815260040160206040518083038186803b158015611efb57600080fd5b505afa158015611f0f573d6000803e3d6000fd5b505050506040513d601f19601f82011682018060405250810190611f339190612816565b9050806001600160a01b0316633d18b9126040518163ffffffff1660e01b8152600401600060405180830381600087803b158015611f7057600080fd5b505af1158015610fbc573d6000803e3d6000fd5b6040516370a0823160e01b81523060048201526000907f00000000000000000000000000000000000000000000000000000000000000006001600160a01b0316906370a082319060240160206040518083038186803b158015611fe657600080fd5b505afa158015611ffa573d6000803e3d6000fd5b505050506040513d601f19601f8201168201806040525081019061201e9190612833565b9050806036541061202c5750565b6120806001600160a01b037f0000000000000000000000000000000000000000000000000000000000000000167f000000000000000000000000000000000000000000000000000000000000000083612372565b6040516316a884d960e31b8152600481018290527f00000000000000000000000000000000000000000000000000000000000000006001600160a01b03169063b54426c890602401600060405180830381600087803b1580156120e257600080fd5b505af11580156120f6573d6000803e3d6000fd5b505050507f0f871d9141eb7956fd3128d64eedb6a59621c2221b36a7950075e1780a4cc431816040516107df91815260200190565b60008082116121695760405162461bcd60e51b815260206004820152600a6024820152696572726f72207061726160b01b60448201526064016104b8565b60008061217584611639565b90925090506000198214156121c05760405162461bcd60e51b81526020600482015260116024820152701c1bdbdb08125b9cdd59999a58da595b9d607a1b60448201526064016104b8565b600119821461224457604051636198e33960e01b8152600481018390527f00000000000000000000000000000000000000000000000000000000000000006001600160a01b031690636198e33990602401600060405180830381600087803b15801561222b57600080fd5b505af115801561223f573d6000803e3d6000fd5b505050505b604051630282c62360e51b8152336004820152602481018590527f00000000000000000000000000000000000000000000000000000000000000006001600160a01b031690635058c46090604401600060405180830381600087803b1580156122ac57600080fd5b505af11580156122c0573d6000803e3d6000fd5b50929695505050505050565b60006103e8603554836122df919061296b565b6122e9919061298a565b9150811561232b5760345461232b906001600160a01b037f0000000000000000000000000000000000000000000000000000000000000000811691168461259a565b61233582846128a3565b905061236b6001600160a01b037f000000000000000000000000000000000000000000000000000000000000000016338361259a565b9392505050565b8015806123fb5750604051636eb1769f60e11b81523060048201526001600160a01b03838116602483015284169063dd62ed3e9060440160206040518083038186803b1580156123c157600080fd5b505afa1580156123d5573d6000803e3d6000fd5b505050506040513d601f19601f820116820180604052508101906123f99190612833565b155b6124665760405162461bcd60e51b815260206004820152603660248201527f5361666545524332303a20617070726f76652066726f6d206e6f6e2d7a65726f60448201527520746f206e6f6e2d7a65726f20616c6c6f77616e636560501b60648201526084016104b8565b6040516001600160a01b03831660248201526044810182905261249690849063095ea7b360e01b90606401611e63565b505050565b600054610100900460ff166124c25760405162461bcd60e51b81526004016104b890612920565b60018055565b600061251d826040518060400160405280602081526020017f5361666545524332303a206c6f772d6c6576656c2063616c6c206661696c6564815250856001600160a01b03166125ca9092919063ffffffff16565b805190915015612496578080602001905181019061253b91906129ac565b6124965760405162461bcd60e51b815260206004820152602a60248201527f5361666545524332303a204552433230206f7065726174696f6e20646964206e6044820152691bdd081cdd58d8d9595960b21b60648201526084016104b8565b6040516001600160a01b03831660248201526044810182905261249690849063a9059cbb60e01b90606401611e63565b60606125d984846000856125e1565b949350505050565b6060824710156126425760405162461bcd60e51b815260206004820152602660248201527f416464726573733a20696e73756666696369656e742062616c616e636520666f6044820152651c8818d85b1b60d21b60648201526084016104b8565b6001600160a01b0385163b6126995760405162461bcd60e51b815260206004820152601d60248201527f416464726573733a2063616c6c20746f206e6f6e2d636f6e747261637400000060448201526064016104b8565b600080866001600160a01b031685876040516126b591906129fa565b60006040518083038185875af1925050503d80600081146126f2576040519150601f19603f3d011682016040523d82523d6000602084013e6126f7565b606091505b5091509150612707828286612712565b979650505050505050565b6060831561272157508161236b565b8251156127315782518084602001fd5b8160405162461bcd60e51b81526004016104b89190612a16565b6000806040838503121561275e57600080fd5b50508035926020909101359150565b60006020828403121561277f57600080fd5b5035919050565b6001600160a01b03811681146107e857600080fd5b600080604083850312156127ae57600080fd5b82356127b981612786565b946020939093013593505050565b600080600080600060a086880312156127df57600080fd5b8535945060208601359350604086013560ff811681146127fe57600080fd5b94979396509394606081013594506080013592915050565b60006020828403121561282857600080fd5b815161236b81612786565b60006020828403121561284557600080fd5b5051919050565b6001600160a01b0397881681529590961660208601526040850193909352606084019190915260ff16608083015260a082015260c081019190915260e00190565b634e487b7160e01b600052601160045260246000fd5b6000828210156128b5576128b561288d565b500390565b600082198211156128cd576128cd61288d565b500190565b6020808252602e908201527f496e697469616c697a61626c653a20636f6e747261637420697320616c72656160408201526d191e481a5b9a5d1a585b1a5e995960921b606082015260800190565b6020808252602b908201527f496e697469616c697a61626c653a20636f6e7472616374206973206e6f74206960408201526a6e697469616c697a696e6760a81b606082015260800190565b60008160001904831182151516156129855761298561288d565b500290565b6000826129a757634e487b7160e01b600052601260045260246000fd5b500490565b6000602082840312156129be57600080fd5b8151801515811461236b57600080fd5b60005b838110156129e95781810151838201526020016129d1565b83811115611e9a5750506000910152565b60008251612a0c8184602087016129ce565b9190910192915050565b6020815260008251806020840152612a358160408501602087016129ce565b601f01601f1916919091016040019291505056fea26469706673582212204c5a537f864bee9a2d688ade94dce97e9c302c11a1f427734499a04780c2df5c64736f6c63430008090033",
  "devdoc": {
    "kind": "dev",
    "methods": {},
    "version": 1
  },
  "userdoc": {
    "kind": "user",
    "methods": {
      "__Deposit_init()": {
        "notice": "---------- init ---------- *"
      },
      "constructor": {
        "notice": "---------- constructor ---------- *"
      },
      "totalBalanceOfTorn()": {
        "notice": "---------- public getting ---------- *"
      }
    },
    "version": 1
  },
  "storageLayout": {
    "storage": [
      {
        "astId": 130,
        "contract": "contracts/Deposit.sol:Deposit",
        "label": "_initialized",
        "offset": 0,
        "slot": "0",
        "type": "t_uint8"
      },
      {
        "astId": 133,
        "contract": "contracts/Deposit.sol:Deposit",
        "label": "_initializing",
        "offset": 1,
        "slot": "0",
        "type": "t_bool"
      },
      {
        "astId": 279,
        "contract": "contracts/Deposit.sol:Deposit",
        "label": "_status",
        "offset": 0,
        "slot": "1",
        "type": "t_uint256"
      },
      {
        "astId": 323,
        "contract": "contracts/Deposit.sol:Deposit",
        "label": "__gap",
        "offset": 0,
        "slot": "2",
        "type": "t_array(t_uint256)49_storage"
      },
      {
        "astId": 4709,
        "contract": "contracts/Deposit.sol:Deposit",
        "label": "EXIT_QUEUE",
        "offset": 0,
        "slot": "51",
        "type": "t_address"
      },
      {
        "astId": 4711,
        "contract": "contracts/Deposit.sol:Deposit",
        "label": "rewardAddress",
        "offset": 0,
        "slot": "52",
        "type": "t_address"
      },
      {
        "astId": 4713,
        "contract": "contracts/Deposit.sol:Deposit",
        "label": "profitRatio",
        "offset": 0,
        "slot": "53",
        "type": "t_uint256"
      },
      {
        "astId": 4715,
        "contract": "contracts/Deposit.sol:Deposit",
        "label": "maxReserveTorn",
        "offset": 0,
        "slot": "54",
        "type": "t_uint256"
      },
      {
        "astId": 4717,
        "contract": "contracts/Deposit.sol:Deposit",
        "label": "maxRewardInGov",
        "offset": 0,
        "slot": "55",
        "type": "t_uint256"
      }
    ],
    "types": {
      "t_address": {
        "encoding": "inplace",
        "label": "address",
        "numberOfBytes": "20"
      },
      "t_array(t_uint256)49_storage": {
        "base": "t_uint256",
        "encoding": "inplace",
        "label": "uint256[49]",
        "numberOfBytes": "1568"
      },
      "t_bool": {
        "encoding": "inplace",
        "label": "bool",
        "numberOfBytes": "1"
      },
      "t_uint256": {
        "encoding": "inplace",
        "label": "uint256",
        "numberOfBytes": "32"
      },
      "t_uint8": {
        "encoding": "inplace",
        "label": "uint8",
        "numberOfBytes": "1"
      }
    }
  }
}