{
  "address": "0xeFF8fE22291aA37Dc1989EC2D958Beb8eA39076a",
  "abi": [
    {
      "inputs": [
        {
          "internalType": "address",
          "name": "_weth",
          "type": "address"
        }
      ],
      "stateMutability": "nonpayable",
      "type": "constructor"
    },
    {
      "anonymous": false,
      "inputs": [
        {
          "indexed": false,
          "internalType": "address",
          "name": "",
          "type": "address"
        },
        {
          "indexed": false,
          "internalType": "uint256",
          "name": "",
          "type": "uint256"
        }
      ],
      "name": "CalledFallback",
      "type": "event"
    },
    {
      "anonymous": false,
      "inputs": [
        {
          "indexed": false,
          "internalType": "address",
          "name": "",
          "type": "address"
        },
        {
          "indexed": false,
          "internalType": "uint256",
          "name": "",
          "type": "uint256"
        }
      ],
      "name": "Received",
      "type": "event"
    },
    {
      "stateMutability": "payable",
      "type": "fallback"
    },
    {
      "inputs": [],
      "name": "WETH",
      "outputs": [
        {
          "internalType": "address",
          "name": "",
          "type": "address"
        }
      ],
      "stateMutability": "view",
      "type": "function"
    },
    {
      "inputs": [
        {
          "components": [
            {
              "internalType": "address",
              "name": "tokenIn",
              "type": "address"
            },
            {
              "internalType": "address",
              "name": "tokenOut",
              "type": "address"
            },
            {
              "internalType": "uint24",
              "name": "fee",
              "type": "uint24"
            },
            {
              "internalType": "address",
              "name": "recipient",
              "type": "address"
            },
            {
              "internalType": "uint256",
              "name": "deadline",
              "type": "uint256"
            },
            {
              "internalType": "uint256",
              "name": "amountIn",
              "type": "uint256"
            },
            {
              "internalType": "uint256",
              "name": "amountOutMinimum",
              "type": "uint256"
            },
            {
              "internalType": "uint160",
              "name": "sqrtPriceLimitX96",
              "type": "uint160"
            }
          ],
          "internalType": "struct ISwapRouter.ExactInputSingleParams",
          "name": "params",
          "type": "tuple"
        }
      ],
      "name": "exactInputSingle",
      "outputs": [
        {
          "internalType": "uint256",
          "name": "amountOut",
          "type": "uint256"
        }
      ],
      "stateMutability": "payable",
      "type": "function"
    },
    {
      "stateMutability": "payable",
      "type": "receive"
    }
  ],
  "transactionHash": "0xef6a61f88cd37bd24691a6c4d4770b800e017584ae53cfed33efd4bcb2db186b",
  "args": [
    "0x32099F378841C1a43402Aaf3Add1B31E3D00eB5e"
  ],
  "numDeployments": 1,
  "solcInputHash": "8d4c3baa55254e459abd61949a35ba8b",
  "bytecode": "0x60a060405234801561001057600080fd5b5060405161067d38038061067d83398101604081905261002f91610040565b6001600160a01b0316608052610070565b60006020828403121561005257600080fd5b81516001600160a01b038116811461006957600080fd5b9392505050565b6080516105ec6100916000396000818160da015261012201526105ec6000f3fe60806040526004361061002d5760003560e01c8063414bf389146100a2578063ad5c4648146100c85761006d565b3661006d57604080513381523460208201527f88a5966d370b9919b20f3e2c13ff65706f196a4e32cc2c12bf57088f8852587491015b60405180910390a1005b604080513381523460208201527fe278b0fa22a3a7f750416b6434935cd5e35b37e34a8859b84d5ddb2118753d139101610063565b6100b56100b03660046104dd565b610114565b6040519081526020015b60405180910390f35b3480156100d457600080fd5b506100fc7f000000000000000000000000000000000000000000000000000000000000000081565b6040516001600160a01b0390911681526020016100bf565b600060016001600160a01b037f00000000000000000000000000000000000000000000000000000000000000001661014f60208501856104f0565b6001600160a01b03161480156101655750600034115b1561017d575060003460a08401351461017d57600080fd5b80156101ab576101ab333060a086013561019a60208801886104f0565b6001600160a01b03169291906101dd565b60c083013591506101d733836101c760408701602088016104f0565b6001600160a01b0316919061024e565b50919050565b6040516001600160a01b03808516602483015283166044820152606481018290526102489085906323b872dd60e01b906084015b60408051601f198184030181529190526020810180516001600160e01b03166001600160e01b031990931692909217909152610283565b50505050565b6040516001600160a01b03831660248201526044810182905261027e90849063a9059cbb60e01b90606401610211565b505050565b60006102d8826040518060400160405280602081526020017f5361666545524332303a206c6f772d6c6576656c2063616c6c206661696c6564815250856001600160a01b031661035a9092919063ffffffff16565b80519091501561027e57808060200190518101906102f69190610519565b61027e5760405162461bcd60e51b815260206004820152602a60248201527f5361666545524332303a204552433230206f7065726174696f6e20646964206e6044820152691bdd081cdd58d8d9595960b21b60648201526084015b60405180910390fd5b60606103698484600085610373565b90505b9392505050565b6060824710156103d45760405162461bcd60e51b815260206004820152602660248201527f416464726573733a20696e73756666696369656e742062616c616e636520666f6044820152651c8818d85b1b60d21b6064820152608401610351565b6001600160a01b0385163b61042b5760405162461bcd60e51b815260206004820152601d60248201527f416464726573733a2063616c6c20746f206e6f6e2d636f6e74726163740000006044820152606401610351565b600080866001600160a01b031685876040516104479190610567565b60006040518083038185875af1925050503d8060008114610484576040519150601f19603f3d011682016040523d82523d6000602084013e610489565b606091505b50915091506104998282866104a4565b979650505050505050565b606083156104b357508161036c565b8251156104c35782518084602001fd5b8160405162461bcd60e51b81526004016103519190610583565b600061010082840312156101d757600080fd5b60006020828403121561050257600080fd5b81356001600160a01b038116811461036c57600080fd5b60006020828403121561052b57600080fd5b8151801515811461036c57600080fd5b60005b8381101561055657818101518382015260200161053e565b838111156102485750506000910152565b6000825161057981846020870161053b565b9190910192915050565b60208152600082518060208401526105a281604085016020870161053b565b601f01601f1916919091016040019291505056fea26469706673582212205abb40377b5340bf4831d2772dfc122c2338a847a7329ef45e330125e9aa66d764736f6c63430008090033",
  "devdoc": {
    "kind": "dev",
    "methods": {},
    "version": 1
  },
  "userdoc": {
    "kind": "user",
    "methods": {
      "constructor": {
        "notice": "---------- constructor ---------- *"
      }
    },
    "version": 1
  },
  "storageLayout": {
    "storage": [],
    "types": null
  }
}