{
  "address": "0x7BC60F27A28723217B78537A05735CF89a167adF",
  "abi": [
    {
      "inputs": [
        {
          "internalType": "address",
          "name": "gov_staking_rewards",
          "type": "address"
        },
        {
          "internalType": "address",
          "name": "torn_address",
          "type": "address"
        }
      ],
      "stateMutability": "nonpayable",
      "type": "constructor"
    },
    {
      "inputs": [],
      "name": "TORN_CONTRACT",
      "outputs": [
        {
          "internalType": "address",
          "name": "",
          "type": "address"
        }
      ],
      "stateMutability": "view",
      "type": "function"
    },
    {
      "inputs": [],
      "name": "TORN_STAKING_REWARDS",
      "outputs": [
        {
          "internalType": "address",
          "name": "",
          "type": "address"
        }
      ],
      "stateMutability": "view",
      "type": "function"
    },
    {
      "inputs": [
        {
          "internalType": "uint256",
          "name": "",
          "type": "uint256"
        }
      ],
      "name": "array",
      "outputs": [
        {
          "internalType": "address",
          "name": "",
          "type": "address"
        }
      ],
      "stateMutability": "view",
      "type": "function"
    },
    {
      "inputs": [],
      "name": "counter",
      "outputs": [
        {
          "internalType": "uint256",
          "name": "",
          "type": "uint256"
        }
      ],
      "stateMutability": "view",
      "type": "function"
    },
    {
      "inputs": [
        {
          "internalType": "address",
          "name": "relayer",
          "type": "address"
        }
      ],
      "name": "getRelayerBalance",
      "outputs": [
        {
          "internalType": "uint256",
          "name": "",
          "type": "uint256"
        }
      ],
      "stateMutability": "view",
      "type": "function"
    },
    {
      "inputs": [
        {
          "internalType": "uint256",
          "name": "value",
          "type": "uint256"
        }
      ],
      "name": "notice_tron_router_withdraw",
      "outputs": [
        {
          "internalType": "address",
          "name": "relayer",
          "type": "address"
        }
      ],
      "stateMutability": "nonpayable",
      "type": "function"
    },
    {
      "inputs": [
        {
          "internalType": "address",
          "name": "relayer",
          "type": "address"
        },
        {
          "internalType": "uint256",
          "name": "stake",
          "type": "uint256"
        }
      ],
      "name": "register",
      "outputs": [],
      "stateMutability": "nonpayable",
      "type": "function"
    },
    {
      "inputs": [
        {
          "internalType": "address",
          "name": "relayer",
          "type": "address"
        },
        {
          "internalType": "uint256",
          "name": "stake",
          "type": "uint256"
        }
      ],
      "name": "stakeToRelayer",
      "outputs": [],
      "stateMutability": "nonpayable",
      "type": "function"
    },
    {
      "inputs": [
        {
          "internalType": "address",
          "name": "",
          "type": "address"
        }
      ],
      "name": "stakeValue",
      "outputs": [
        {
          "internalType": "uint256",
          "name": "",
          "type": "uint256"
        }
      ],
      "stateMutability": "view",
      "type": "function"
    }
  ],
  "transactionHash": "0xa0ad3cb754ab4ce07b2e527348af9a330fe1ee69cc77f0cd27231a55e2662475",
  "args": [
    "0x3a09Aa2658D429774544B2087E0f5364FCfa0e0a",
    "0x5d5776B3491bf758D52326b09a8dBe6F3b8E1388"
  ],
  "numDeployments": 1,
  "solcInputHash": "8a19f8ba12bad7262563d26da84f1d3f",
  "bytecode": "0x60c060405234801561001057600080fd5b50604051610ae6380380610ae683398101604081905261002f91610062565b6001600160a01b0391821660a05216608052610095565b80516001600160a01b038116811461005d57600080fd5b919050565b6000806040838503121561007557600080fd5b61007e83610046565b915061008c60208401610046565b90509250929050565b60805160a051610a116100d56000396000818161018f015281816102d00152610394015260008181609d015281816102ff01526105400152610a116000f3fe608060405234801561001057600080fd5b50600436106100935760003560e01c80636d705ebb116100665780636d705ebb14610119578063b971a6bf1461012e578063d7a88e3c14610157578063d990231d14610177578063f911368b1461018a57600080fd5b806331e819211461009857806338d94193146100dc57806342e2c900146100ef57806361bc221a14610102575b600080fd5b6100bf7f000000000000000000000000000000000000000000000000000000000000000081565b6040516001600160a01b0390911681526020015b60405180910390f35b6100bf6100ea36600461082c565b6101b1565b6100bf6100fd36600461082c565b6101db565b61010b60005481565b6040519081526020016100d3565b61012c610127366004610861565b6103fe565b005b61010b61013c36600461088b565b6001600160a01b031660009081526001602052604090205490565b61010b61016536600461088b565b60016020526000908152604090205481565b61012c610185366004610861565b6104fe565b6100bf7f000000000000000000000000000000000000000000000000000000000000000081565b600281815481106101c157600080fd5b6000918252602090912001546001600160a01b0316905081565b6000805442906002906101ee90836108a6565b815481106101fe576101fe6108c8565b6000918252602090912001546001600160a01b031691505b6001600160a01b03821660009081526001602052604090205483111561027f576102416001826108f4565b905060026000548261025391906108a6565b81548110610263576102636108c8565b6000918252602090912001546001600160a01b03169150610216565b6001600160a01b0382166000908152600160205260409020546102a390849061090c565b6001600160a01b038381166000908152600160205260409081902092909255905163095ea7b360e01b81527f000000000000000000000000000000000000000000000000000000000000000082166004820152602481018590527f00000000000000000000000000000000000000000000000000000000000000009091169063095ea7b390604401602060405180830381600087803b15801561034557600080fd5b505af1158015610359573d6000803e3d6000fd5b505050506040513d601f19601f8201168201806040525081019061037d9190610923565b506040516326df33d360e21b8152600481018490527f00000000000000000000000000000000000000000000000000000000000000006001600160a01b031690639b7ccf4c90602401600060405180830381600087803b1580156103e057600080fd5b505af11580156103f4573d6000803e3d6000fd5b5050505050919050565b60005b60025481101561048d57826001600160a01b031660028281548110610428576104286108c8565b6000918252602090912001546001600160a01b0316141561047d5760405162461bcd60e51b815260206004820152600a6024820152691c9959da5cdd195c995960b21b60448201526064015b60405180910390fd5b61048681610945565b9050610401565b5060016000808282546104a091906108f4565b9091555050600280546001810182556000919091527f405787fa12a823e0f2b7631cc41b3ba8828b3321ca811111fa75cd3aa3bb5ace0180546001600160a01b0319166001600160a01b0384161790556104fa82826104fe565b5050565b6001600160a01b0382166000908152600160205260409020546105229082906108f4565b6001600160a01b0383166000908152600160205260409020556104fa7f00000000000000000000000000000000000000000000000000000000000000003330846040516001600160a01b03808516602483015283166044820152606481018290526105cc9085906323b872dd60e01b9060840160408051601f198184030181529190526020810180516001600160e01b03166001600160e01b0319909316929092179091526105d2565b50505050565b6000610627826040518060400160405280602081526020017f5361666545524332303a206c6f772d6c6576656c2063616c6c206661696c6564815250856001600160a01b03166106a99092919063ffffffff16565b8051909150156106a457808060200190518101906106459190610923565b6106a45760405162461bcd60e51b815260206004820152602a60248201527f5361666545524332303a204552433230206f7065726174696f6e20646964206e6044820152691bdd081cdd58d8d9595960b21b6064820152608401610474565b505050565b60606106b884846000856106c2565b90505b9392505050565b6060824710156107235760405162461bcd60e51b815260206004820152602660248201527f416464726573733a20696e73756666696369656e742062616c616e636520666f6044820152651c8818d85b1b60d21b6064820152608401610474565b6001600160a01b0385163b61077a5760405162461bcd60e51b815260206004820152601d60248201527f416464726573733a2063616c6c20746f206e6f6e2d636f6e74726163740000006044820152606401610474565b600080866001600160a01b03168587604051610796919061098c565b60006040518083038185875af1925050503d80600081146107d3576040519150601f19603f3d011682016040523d82523d6000602084013e6107d8565b606091505b50915091506107e88282866107f3565b979650505050505050565b606083156108025750816106bb565b8251156108125782518084602001fd5b8160405162461bcd60e51b815260040161047491906109a8565b60006020828403121561083e57600080fd5b5035919050565b80356001600160a01b038116811461085c57600080fd5b919050565b6000806040838503121561087457600080fd5b61087d83610845565b946020939093013593505050565b60006020828403121561089d57600080fd5b6106bb82610845565b6000826108c357634e487b7160e01b600052601260045260246000fd5b500690565b634e487b7160e01b600052603260045260246000fd5b634e487b7160e01b600052601160045260246000fd5b60008219821115610907576109076108de565b500190565b60008282101561091e5761091e6108de565b500390565b60006020828403121561093557600080fd5b815180151581146106bb57600080fd5b6000600019821415610959576109596108de565b5060010190565b60005b8381101561097b578181015183820152602001610963565b838111156105cc5750506000910152565b6000825161099e818460208701610960565b9190910192915050565b60208152600082518060208401526109c7816040850160208701610960565b601f01601f1916919091016040019291505056fea26469706673582212209bfcd904f0f15572e3111bd1e3628f5d7fa3f038d490cd54b0f495e395a7a97964736f6c63430008090033",
  "devdoc": {
    "kind": "dev",
    "methods": {},
    "version": 1
  },
  "userdoc": {
    "kind": "user",
    "methods": {},
    "version": 1
  },
  "storageLayout": {
    "storage": [
      {
        "astId": 6433,
        "contract": "contracts/mock/mockRelayerRegistry.sol:MRelayerRegistry",
        "label": "counter",
        "offset": 0,
        "slot": "0",
        "type": "t_uint256"
      },
      {
        "astId": 6437,
        "contract": "contracts/mock/mockRelayerRegistry.sol:MRelayerRegistry",
        "label": "stakeValue",
        "offset": 0,
        "slot": "1",
        "type": "t_mapping(t_address,t_uint256)"
      },
      {
        "astId": 6440,
        "contract": "contracts/mock/mockRelayerRegistry.sol:MRelayerRegistry",
        "label": "array",
        "offset": 0,
        "slot": "2",
        "type": "t_array(t_address)dyn_storage"
      }
    ],
    "types": {
      "t_address": {
        "encoding": "inplace",
        "label": "address",
        "numberOfBytes": "20"
      },
      "t_array(t_address)dyn_storage": {
        "base": "t_address",
        "encoding": "dynamic_array",
        "label": "address[]",
        "numberOfBytes": "32"
      },
      "t_mapping(t_address,t_uint256)": {
        "encoding": "mapping",
        "key": "t_address",
        "label": "mapping(address => uint256)",
        "numberOfBytes": "32",
        "value": "t_uint256"
      },
      "t_uint256": {
        "encoding": "inplace",
        "label": "uint256",
        "numberOfBytes": "32"
      }
    }
  }
}