{
  "address": "0x1cC7A9B96e69c58e1bedA219D1D3E64D8C6e2F41",
  "abi": [
    {
      "inputs": [
        {
          "internalType": "address",
          "name": "_tornContract",
          "type": "address"
        },
        {
          "internalType": "address",
          "name": "_root_manager",
          "type": "address"
        }
      ],
      "stateMutability": "nonpayable",
      "type": "constructor"
    },
    {
      "anonymous": false,
      "inputs": [
        {
          "indexed": false,
          "internalType": "uint8",
          "name": "version",
          "type": "uint8"
        }
      ],
      "name": "Initialized",
      "type": "event"
    },
    {
      "inputs": [],
      "name": "ROOT_MANAGER",
      "outputs": [
        {
          "internalType": "address",
          "name": "",
          "type": "address"
        }
      ],
      "stateMutability": "view",
      "type": "function"
    },
    {
      "inputs": [],
      "name": "TORN_CONTRACT",
      "outputs": [
        {
          "internalType": "address",
          "name": "",
          "type": "address"
        }
      ],
      "stateMutability": "view",
      "type": "function"
    },
    {
      "inputs": [],
      "name": "__ProfitRecord_init",
      "outputs": [],
      "stateMutability": "nonpayable",
      "type": "function"
    },
    {
      "inputs": [
        {
          "internalType": "address",
          "name": "addr",
          "type": "address"
        },
        {
          "internalType": "uint256",
          "name": "amount_root_token",
          "type": "uint256"
        }
      ],
      "name": "getProfit",
      "outputs": [
        {
          "internalType": "uint256",
          "name": "profit",
          "type": "uint256"
        }
      ],
      "stateMutability": "view",
      "type": "function"
    },
    {
      "inputs": [
        {
          "internalType": "address",
          "name": "addr",
          "type": "address"
        },
        {
          "internalType": "uint256",
          "name": "torn_amount",
          "type": "uint256"
        },
        {
          "internalType": "uint256",
          "name": "amount_root_token",
          "type": "uint256"
        }
      ],
      "name": "newDeposit",
      "outputs": [],
      "stateMutability": "nonpayable",
      "type": "function"
    },
    {
      "inputs": [
        {
          "internalType": "address",
          "name": "",
          "type": "address"
        }
      ],
      "name": "profitStore",
      "outputs": [
        {
          "internalType": "uint256",
          "name": "price",
          "type": "uint256"
        },
        {
          "internalType": "uint256",
          "name": "amount",
          "type": "uint256"
        }
      ],
      "stateMutability": "view",
      "type": "function"
    },
    {
      "inputs": [
        {
          "internalType": "address",
          "name": "addr",
          "type": "address"
        },
        {
          "internalType": "uint256",
          "name": "amount_root_token",
          "type": "uint256"
        }
      ],
      "name": "withDraw",
      "outputs": [
        {
          "internalType": "uint256",
          "name": "profit",
          "type": "uint256"
        }
      ],
      "stateMutability": "nonpayable",
      "type": "function"
    }
  ],
  "transactionHash": "0x3741cee7076a8e2b413d9d87a19da78daa0b7d40d08e6954823277ec4dffb141",
  "args": [
    "0xB26a3df3B9D52A00c08DAf41698C1408D12Cf59b",
    "0x45bDb14179c1629679F59a2a2a62EFF5B5F92e2a"
  ],
  "numDeployments": 1,
  "solcInputHash": "8d4c3baa55254e459abd61949a35ba8b",
  "bytecode": "0x60c060405234801561001057600080fd5b50604051610a56380380610a5683398101604081905261002f91610062565b6001600160a01b0391821660a05216608052610095565b80516001600160a01b038116811461005d57600080fd5b919050565b6000806040838503121561007557600080fd5b61007e83610046565b915061008c60208401610046565b90509250929050565b60805160a0516109886100ce600039600060e90152600081816101450152818161017e0152818161037501526105ff01526109886000f3fe608060405234801561001057600080fd5b506004361061007d5760003560e01c8063447890b01161005b578063447890b014610123578063457511371461012d5780635f61e3ec14610140578063b69bc3581461016757600080fd5b8063191e2e83146100825780631f7d7948146100a857806331e81921146100e4575b600080fd5b6100956100903660046107c3565b61017a565b6040519081526020015b60405180910390f35b6100cf6100b63660046107ef565b6033602052600090815260409020805460019091015482565b6040805192835260208301919091520161009f565b61010b7f000000000000000000000000000000000000000000000000000000000000000081565b6040516001600160a01b03909116815260200161009f565b61012b6102fe565b005b61012b61013b366004610813565b610373565b61010b7f000000000000000000000000000000000000000000000000000000000000000081565b6100956101753660046107c3565b610575565b60007f00000000000000000000000000000000000000000000000000000000000000006001600160a01b031663e94ad65b6040518163ffffffff1660e01b815260040160206040518083038186803b1580156101d557600080fd5b505afa1580156101e9573d6000803e3d6000fd5b505050506040513d601f19601f8201168201806040525081019061020d9190610848565b6001600160a01b0316336001600160a01b0316146102725760405162461bcd60e51b815260206004820152601d60248201527f43616c6c6572206973206e6f74206465706f736974436f6e747261637400000060448201526064015b60405180910390fd5b61027c8383610575565b6001600160a01b0384166000908152603360205260409020600101549091508210156102d8576001600160a01b038316600090815260336020526040812060010180548492906102cd90849061087b565b909155506102f89050565b6001600160a01b0383166000908152603360205260408120818155600101555b92915050565b600061030a60016106b9565b90508015610322576000805461ff0019166101001790555b61032a610741565b8015610370576000805461ff0019169055604051600181527f7f26b83ff96e1f2b6a682f133852f6798a09c465da95921460cefb38474024989060200160405180910390a15b50565b7f00000000000000000000000000000000000000000000000000000000000000006001600160a01b031663e94ad65b6040518163ffffffff1660e01b815260040160206040518083038186803b1580156103cc57600080fd5b505afa1580156103e0573d6000803e3d6000fd5b505050506040513d601f19601f820116820180604052508101906104049190610848565b6001600160a01b0316336001600160a01b0316146104645760405162461bcd60e51b815260206004820152601d60248201527f43616c6c6572206973206e6f74206465706f736974436f6e74726163740000006044820152606401610269565b6001600160a01b038316600090815260336020908152604091829020825180840190935280548352600101549082018190526104e0576000826104af85670de0b6b3a7640000610892565b6104b991906108b1565b6001600160a01b03861660009081526033602052604090209081556001018390555061056f565b60208101516104ef90836108d3565b61050184670de0b6b3a7640000610892565b825160208401516105129190610892565b61051c91906108d3565b61052691906108b1565b6001600160a01b03851660009081526033602090815260409091209190915581015161055290836108d3565b6001600160a01b0385166000908152603360205260409020600101555b50505050565b6001600160a01b038216600090815260336020908152604080832081518083019092528054825260010154918101829052908311156105e75760405162461bcd60e51b815260206004820152600e60248201526d32b939103937b7ba103a37b5b2b760911b6044820152606401610269565b6040516272e6bd60e41b8152600481018490526000907f00000000000000000000000000000000000000000000000000000000000000006001600160a01b03169063072e6bd09060240160206040518083038186803b15801561064957600080fd5b505afa15801561065d573d6000803e3d6000fd5b505050506040513d601f19601f8201168201806040525081019061068191906108eb565b9050670de0b6b3a764000084836000015161069c9190610892565b6106a691906108b1565b6106b0908261087b565b95945050505050565b60008054610100900460ff1615610700578160ff1660011480156106dc5750303b155b6106f85760405162461bcd60e51b815260040161026990610904565b506000919050565b60005460ff8084169116106107275760405162461bcd60e51b815260040161026990610904565b506000805460ff191660ff92909216919091179055600190565b600054610100900460ff166107ac5760405162461bcd60e51b815260206004820152602b60248201527f496e697469616c697a61626c653a20636f6e7472616374206973206e6f74206960448201526a6e697469616c697a696e6760a81b6064820152608401610269565b565b6001600160a01b038116811461037057600080fd5b600080604083850312156107d657600080fd5b82356107e1816107ae565b946020939093013593505050565b60006020828403121561080157600080fd5b813561080c816107ae565b9392505050565b60008060006060848603121561082857600080fd5b8335610833816107ae565b95602085013595506040909401359392505050565b60006020828403121561085a57600080fd5b815161080c816107ae565b634e487b7160e01b600052601160045260246000fd5b60008282101561088d5761088d610865565b500390565b60008160001904831182151516156108ac576108ac610865565b500290565b6000826108ce57634e487b7160e01b600052601260045260246000fd5b500490565b600082198211156108e6576108e6610865565b500190565b6000602082840312156108fd57600080fd5b5051919050565b6020808252602e908201527f496e697469616c697a61626c653a20636f6e747261637420697320616c72656160408201526d191e481a5b9a5d1a585b1a5e995960921b60608201526080019056fea26469706673582212203dbc491970f4b1aa069dee8d165da1bbf58aa753e9662bb0a32d8069262d34ef64736f6c63430008090033",
  "devdoc": {
    "kind": "dev",
    "methods": {},
    "version": 1
  },
  "userdoc": {
    "kind": "user",
    "methods": {
      "__ProfitRecord_init()": {
        "notice": "---------- init ---------- *"
      },
      "constructor": {
        "notice": "---------- constructor ---------- *"
      }
    },
    "version": 1
  },
  "storageLayout": {
    "storage": [
      {
        "astId": 130,
        "contract": "contracts/ProfitRecord.sol:ProfitRecord",
        "label": "_initialized",
        "offset": 0,
        "slot": "0",
        "type": "t_uint8"
      },
      {
        "astId": 133,
        "contract": "contracts/ProfitRecord.sol:ProfitRecord",
        "label": "_initializing",
        "offset": 1,
        "slot": "0",
        "type": "t_bool"
      },
      {
        "astId": 1773,
        "contract": "contracts/ProfitRecord.sol:ProfitRecord",
        "label": "__gap",
        "offset": 0,
        "slot": "1",
        "type": "t_array(t_uint256)50_storage"
      },
      {
        "astId": 6715,
        "contract": "contracts/ProfitRecord.sol:ProfitRecord",
        "label": "profitStore",
        "offset": 0,
        "slot": "51",
        "type": "t_mapping(t_address,t_struct(PRICE_STORE)6710_storage)"
      }
    ],
    "types": {
      "t_address": {
        "encoding": "inplace",
        "label": "address",
        "numberOfBytes": "20"
      },
      "t_array(t_uint256)50_storage": {
        "base": "t_uint256",
        "encoding": "inplace",
        "label": "uint256[50]",
        "numberOfBytes": "1600"
      },
      "t_bool": {
        "encoding": "inplace",
        "label": "bool",
        "numberOfBytes": "1"
      },
      "t_mapping(t_address,t_struct(PRICE_STORE)6710_storage)": {
        "encoding": "mapping",
        "key": "t_address",
        "label": "mapping(address => struct ProfitRecord.PRICE_STORE)",
        "numberOfBytes": "32",
        "value": "t_struct(PRICE_STORE)6710_storage"
      },
      "t_struct(PRICE_STORE)6710_storage": {
        "encoding": "inplace",
        "label": "struct ProfitRecord.PRICE_STORE",
        "members": [
          {
            "astId": 6707,
            "contract": "contracts/ProfitRecord.sol:ProfitRecord",
            "label": "price",
            "offset": 0,
            "slot": "0",
            "type": "t_uint256"
          },
          {
            "astId": 6709,
            "contract": "contracts/ProfitRecord.sol:ProfitRecord",
            "label": "amount",
            "offset": 0,
            "slot": "1",
            "type": "t_uint256"
          }
        ],
        "numberOfBytes": "64"
      },
      "t_uint256": {
        "encoding": "inplace",
        "label": "uint256",
        "numberOfBytes": "32"
      },
      "t_uint8": {
        "encoding": "inplace",
        "label": "uint8",
        "numberOfBytes": "1"
      }
    }
  }
}