{
  "address": "0x6481F6B223971c35632D8f90d32c0bDEA5B65e05",
  "abi": [
    {
      "inputs": [
        {
          "internalType": "address",
          "name": "_torn_relayer_registry",
          "type": "address"
        },
        {
          "internalType": "address",
          "name": "_tornContract",
          "type": "address"
        }
      ],
      "stateMutability": "nonpayable",
      "type": "constructor"
    },
    {
      "anonymous": false,
      "inputs": [
        {
          "indexed": true,
          "internalType": "address",
          "name": "owner",
          "type": "address"
        },
        {
          "indexed": true,
          "internalType": "address",
          "name": "spender",
          "type": "address"
        },
        {
          "indexed": false,
          "internalType": "uint256",
          "name": "value",
          "type": "uint256"
        }
      ],
      "name": "Approval",
      "type": "event"
    },
    {
      "anonymous": false,
      "inputs": [
        {
          "indexed": false,
          "internalType": "address",
          "name": "from",
          "type": "address"
        },
        {
          "indexed": false,
          "internalType": "uint256",
          "name": "vaule",
          "type": "uint256"
        }
      ],
      "name": "Income",
      "type": "event"
    },
    {
      "anonymous": false,
      "inputs": [
        {
          "indexed": false,
          "internalType": "uint8",
          "name": "version",
          "type": "uint8"
        }
      ],
      "name": "Initialized",
      "type": "event"
    },
    {
      "anonymous": false,
      "inputs": [
        {
          "indexed": true,
          "internalType": "address",
          "name": "previousOwner",
          "type": "address"
        },
        {
          "indexed": true,
          "internalType": "address",
          "name": "newOwner",
          "type": "address"
        }
      ],
      "name": "OwnershipTransferred",
      "type": "event"
    },
    {
      "anonymous": false,
      "inputs": [
        {
          "indexed": true,
          "internalType": "address",
          "name": "from",
          "type": "address"
        },
        {
          "indexed": true,
          "internalType": "address",
          "name": "to",
          "type": "address"
        },
        {
          "indexed": false,
          "internalType": "uint256",
          "name": "value",
          "type": "uint256"
        }
      ],
      "name": "Transfer",
      "type": "event"
    },
    {
      "inputs": [],
      "name": "DOMAIN_SEPARATOR",
      "outputs": [
        {
          "internalType": "bytes32",
          "name": "",
          "type": "bytes32"
        }
      ],
      "stateMutability": "view",
      "type": "function"
    },
    {
      "inputs": [],
      "name": "MAX_RELAYER_COUNTER",
      "outputs": [
        {
          "internalType": "uint256",
          "name": "",
          "type": "uint256"
        }
      ],
      "stateMutability": "view",
      "type": "function"
    },
    {
      "inputs": [],
      "name": "TORN_CONTRACT",
      "outputs": [
        {
          "internalType": "address",
          "name": "",
          "type": "address"
        }
      ],
      "stateMutability": "view",
      "type": "function"
    },
    {
      "inputs": [],
      "name": "TORN_RELAYER_REGISTRY",
      "outputs": [
        {
          "internalType": "address",
          "name": "",
          "type": "address"
        }
      ],
      "stateMutability": "view",
      "type": "function"
    },
    {
      "inputs": [
        {
          "internalType": "address",
          "name": "_inComeContract",
          "type": "address"
        },
        {
          "internalType": "address",
          "name": "_depositContract",
          "type": "address"
        },
        {
          "internalType": "address",
          "name": "_exitQueueContract",
          "type": "address"
        },
        {
          "internalType": "address",
          "name": "_profitRecord",
          "type": "address"
        }
      ],
      "name": "__RootManger_init",
      "outputs": [],
      "stateMutability": "nonpayable",
      "type": "function"
    },
    {
      "inputs": [
        {
          "internalType": "address",
          "name": "_inComeContract",
          "type": "address"
        },
        {
          "internalType": "address",
          "name": "_depositContract",
          "type": "address"
        },
        {
          "internalType": "address",
          "name": "_exitQueueContract",
          "type": "address"
        },
        {
          "internalType": "address",
          "name": "_profitRecord",
          "type": "address"
        }
      ],
      "name": "__RootManger_init_unchained",
      "outputs": [],
      "stateMutability": "nonpayable",
      "type": "function"
    },
    {
      "inputs": [
        {
          "internalType": "uint256",
          "name": "",
          "type": "uint256"
        }
      ],
      "name": "_relayers",
      "outputs": [
        {
          "internalType": "address",
          "name": "",
          "type": "address"
        }
      ],
      "stateMutability": "view",
      "type": "function"
    },
    {
      "inputs": [
        {
          "internalType": "uint256",
          "name": "amount",
          "type": "uint256"
        }
      ],
      "name": "addIncome",
      "outputs": [],
      "stateMutability": "nonpayable",
      "type": "function"
    },
    {
      "inputs": [
        {
          "internalType": "address",
          "name": "__relayer",
          "type": "address"
        },
        {
          "internalType": "uint256",
          "name": "index",
          "type": "uint256"
        }
      ],
      "name": "addRelayer",
      "outputs": [],
      "stateMutability": "nonpayable",
      "type": "function"
    },
    {
      "inputs": [
        {
          "internalType": "address",
          "name": "owner",
          "type": "address"
        },
        {
          "internalType": "address",
          "name": "spender",
          "type": "address"
        }
      ],
      "name": "allowance",
      "outputs": [
        {
          "internalType": "uint256",
          "name": "",
          "type": "uint256"
        }
      ],
      "stateMutability": "view",
      "type": "function"
    },
    {
      "inputs": [
        {
          "internalType": "address",
          "name": "spender",
          "type": "address"
        },
        {
          "internalType": "uint256",
          "name": "amount",
          "type": "uint256"
        }
      ],
      "name": "approve",
      "outputs": [
        {
          "internalType": "bool",
          "name": "",
          "type": "bool"
        }
      ],
      "stateMutability": "nonpayable",
      "type": "function"
    },
    {
      "inputs": [
        {
          "internalType": "address",
          "name": "account",
          "type": "address"
        }
      ],
      "name": "balanceOf",
      "outputs": [
        {
          "internalType": "uint256",
          "name": "",
          "type": "uint256"
        }
      ],
      "stateMutability": "view",
      "type": "function"
    },
    {
      "inputs": [
        {
          "internalType": "address",
          "name": "account",
          "type": "address"
        }
      ],
      "name": "balanceOfTorn",
      "outputs": [
        {
          "internalType": "uint256",
          "name": "",
          "type": "uint256"
        }
      ],
      "stateMutability": "view",
      "type": "function"
    },
    {
      "inputs": [],
      "name": "decimals",
      "outputs": [
        {
          "internalType": "uint8",
          "name": "",
          "type": "uint8"
        }
      ],
      "stateMutability": "view",
      "type": "function"
    },
    {
      "inputs": [
        {
          "internalType": "address",
          "name": "spender",
          "type": "address"
        },
        {
          "internalType": "uint256",
          "name": "subtractedValue",
          "type": "uint256"
        }
      ],
      "name": "decreaseAllowance",
      "outputs": [
        {
          "internalType": "bool",
          "name": "",
          "type": "bool"
        }
      ],
      "stateMutability": "nonpayable",
      "type": "function"
    },
    {
      "inputs": [],
      "name": "depositContract",
      "outputs": [
        {
          "internalType": "address",
          "name": "",
          "type": "address"
        }
      ],
      "stateMutability": "view",
      "type": "function"
    },
    {
      "inputs": [],
      "name": "exitQueueContract",
      "outputs": [
        {
          "internalType": "address",
          "name": "",
          "type": "address"
        }
      ],
      "stateMutability": "view",
      "type": "function"
    },
    {
      "inputs": [],
      "name": "inComeContract",
      "outputs": [
        {
          "internalType": "address",
          "name": "",
          "type": "address"
        }
      ],
      "stateMutability": "view",
      "type": "function"
    },
    {
      "inputs": [
        {
          "internalType": "address",
          "name": "spender",
          "type": "address"
        },
        {
          "internalType": "uint256",
          "name": "addedValue",
          "type": "uint256"
        }
      ],
      "name": "increaseAllowance",
      "outputs": [
        {
          "internalType": "bool",
          "name": "",
          "type": "bool"
        }
      ],
      "stateMutability": "nonpayable",
      "type": "function"
    },
    {
      "inputs": [],
      "name": "name",
      "outputs": [
        {
          "internalType": "string",
          "name": "",
          "type": "string"
        }
      ],
      "stateMutability": "view",
      "type": "function"
    },
    {
      "inputs": [
        {
          "internalType": "address",
          "name": "owner",
          "type": "address"
        }
      ],
      "name": "nonces",
      "outputs": [
        {
          "internalType": "uint256",
          "name": "",
          "type": "uint256"
        }
      ],
      "stateMutability": "view",
      "type": "function"
    },
    {
      "inputs": [],
      "name": "operator",
      "outputs": [
        {
          "internalType": "address",
          "name": "",
          "type": "address"
        }
      ],
      "stateMutability": "view",
      "type": "function"
    },
    {
      "inputs": [],
      "name": "owner",
      "outputs": [
        {
          "internalType": "address",
          "name": "",
          "type": "address"
        }
      ],
      "stateMutability": "view",
      "type": "function"
    },
    {
      "inputs": [
        {
          "internalType": "address",
          "name": "owner",
          "type": "address"
        },
        {
          "internalType": "address",
          "name": "spender",
          "type": "address"
        },
        {
          "internalType": "uint256",
          "name": "value",
          "type": "uint256"
        },
        {
          "internalType": "uint256",
          "name": "deadline",
          "type": "uint256"
        },
        {
          "internalType": "uint8",
          "name": "v",
          "type": "uint8"
        },
        {
          "internalType": "bytes32",
          "name": "r",
          "type": "bytes32"
        },
        {
          "internalType": "bytes32",
          "name": "s",
          "type": "bytes32"
        }
      ],
      "name": "permit",
      "outputs": [],
      "stateMutability": "nonpayable",
      "type": "function"
    },
    {
      "inputs": [],
      "name": "profitRecord",
      "outputs": [
        {
          "internalType": "address",
          "name": "",
          "type": "address"
        }
      ],
      "stateMutability": "view",
      "type": "function"
    },
    {
      "inputs": [
        {
          "internalType": "uint256",
          "name": "index",
          "type": "uint256"
        }
      ],
      "name": "removeRelayer",
      "outputs": [],
      "stateMutability": "nonpayable",
      "type": "function"
    },
    {
      "inputs": [],
      "name": "renounceOwnership",
      "outputs": [],
      "stateMutability": "nonpayable",
      "type": "function"
    },
    {
      "inputs": [
        {
          "internalType": "address",
          "name": "account",
          "type": "address"
        },
        {
          "internalType": "uint256",
          "name": "value",
          "type": "uint256"
        }
      ],
      "name": "safeDeposit",
      "outputs": [
        {
          "internalType": "uint256",
          "name": "",
          "type": "uint256"
        }
      ],
      "stateMutability": "nonpayable",
      "type": "function"
    },
    {
      "inputs": [
        {
          "internalType": "address",
          "name": "account",
          "type": "address"
        },
        {
          "internalType": "uint256",
          "name": "to_burn",
          "type": "uint256"
        }
      ],
      "name": "safeWithdraw",
      "outputs": [],
      "stateMutability": "nonpayable",
      "type": "function"
    },
    {
      "inputs": [
        {
          "internalType": "address",
          "name": "__operator",
          "type": "address"
        }
      ],
      "name": "setOperator",
      "outputs": [],
      "stateMutability": "nonpayable",
      "type": "function"
    },
    {
      "inputs": [],
      "name": "symbol",
      "outputs": [
        {
          "internalType": "string",
          "name": "",
          "type": "string"
        }
      ],
      "stateMutability": "view",
      "type": "function"
    },
    {
      "inputs": [],
      "name": "totalRelayerTorn",
      "outputs": [
        {
          "internalType": "uint256",
          "name": "ret",
          "type": "uint256"
        }
      ],
      "stateMutability": "view",
      "type": "function"
    },
    {
      "inputs": [],
      "name": "totalSupply",
      "outputs": [
        {
          "internalType": "uint256",
          "name": "",
          "type": "uint256"
        }
      ],
      "stateMutability": "view",
      "type": "function"
    },
    {
      "inputs": [],
      "name": "totalTorn",
      "outputs": [
        {
          "internalType": "uint256",
          "name": "ret",
          "type": "uint256"
        }
      ],
      "stateMutability": "view",
      "type": "function"
    },
    {
      "inputs": [
        {
          "internalType": "address",
          "name": "to",
          "type": "address"
        },
        {
          "internalType": "uint256",
          "name": "amount",
          "type": "uint256"
        }
      ],
      "name": "transfer",
      "outputs": [
        {
          "internalType": "bool",
          "name": "",
          "type": "bool"
        }
      ],
      "stateMutability": "nonpayable",
      "type": "function"
    },
    {
      "inputs": [
        {
          "internalType": "address",
          "name": "from",
          "type": "address"
        },
        {
          "internalType": "address",
          "name": "to",
          "type": "address"
        },
        {
          "internalType": "uint256",
          "name": "amount",
          "type": "uint256"
        }
      ],
      "name": "transferFrom",
      "outputs": [
        {
          "internalType": "bool",
          "name": "",
          "type": "bool"
        }
      ],
      "stateMutability": "nonpayable",
      "type": "function"
    },
    {
      "inputs": [
        {
          "internalType": "address",
          "name": "newOwner",
          "type": "address"
        }
      ],
      "name": "transferOwnership",
      "outputs": [],
      "stateMutability": "nonpayable",
      "type": "function"
    },
    {
      "inputs": [
        {
          "internalType": "uint256",
          "name": "value_token",
          "type": "uint256"
        }
      ],
      "name": "valueForTorn",
      "outputs": [
        {
          "internalType": "uint256",
          "name": "",
          "type": "uint256"
        }
      ],
      "stateMutability": "view",
      "type": "function"
    }
  ],
  "transactionHash": "0x0a1eda471fbbce2dff4db46621786daebef1429c0a2f3b5d03035b550a5f8ba8",
  "args": [
    "0xc90780e5e9589efc98b4741D8f71B3d690782899",
    "0xB26a3df3B9D52A00c08DAf41698C1408D12Cf59b"
  ],
  "numDeployments": 1,
  "solcInputHash": "8d4c3baa55254e459abd61949a35ba8b",
  "bytecode": "0x60c06040523480156200001157600080fd5b506040516200261338038062002613833981016040819052620000349162000069565b6001600160a01b039081166080521660a052620000a1565b80516001600160a01b03811681146200006457600080fd5b919050565b600080604083850312156200007d57600080fd5b62000088836200004c565b915062000098602084016200004c565b90509250929050565b60805160a05161253e620000d5600039600081816104c401526109b50152600081816103470152610ef8015261253e6000f3fe608060405234801561001057600080fd5b50600436106102325760003560e01c806370a0823111610130578063a457c2d7116100b8578063d505accf1161007c578063d505accf146104f0578063dd62ed3e14610503578063e94ad65b14610516578063ea9b717e14610529578063f2fde38b1461053c57600080fd5b8063a457c2d714610486578063a9059cbb14610499578063b3ab15fb146104ac578063b91476f2146104bf578063c96f3dd3146104e657600080fd5b80638da5cb5b116100ff5780638da5cb5b1461043f578063923074ca146104505780639357c808146104635780639380f9731461046b57806395d89b411461047e57600080fd5b806370a08231146103e8578063715018a6146104115780637ecebe00146104195780638be0099c1461042c57600080fd5b806329ab2c74116101be578063395093511161018257806339509351146103715780634b6c6b2c146103845780635058c460146103ae578063570ca735146103c15780636b72a3d0146103d557600080fd5b806329ab2c74146103175780632f684b761461031f578063313ce5671461033357806331e81921146103425780633644e5151461036957600080fd5b806318160ddd1161020557806318160ddd146102a857806322a137e0146102b057806323897f4f146102c357806323b872dd146102ef5780632603c1be1461030257600080fd5b80630404bb3d1461023757806306fdde031461025d578063072e6bd014610272578063095ea7b314610285575b600080fd5b61024a610245366004612052565b61054f565b6040519081526020015b60405180910390f35b61026561067f565b604051610254919061207c565b61024a6102803660046120d1565b610711565b610298610293366004612052565b6107a1565b6040519015158152602001610254565b60675461024a565b61024a6102be3660046120ea565b6107b9565b610100546102d7906001600160a01b031681565b6040516001600160a01b039091168152602001610254565b6102986102fd36600461210c565b610837565b610315610310366004612148565b61085b565b005b61024a610962565b610102546102d7906001600160a01b031681565b60405160128152602001610254565b6102d77f000000000000000000000000000000000000000000000000000000000000000081565b61024a610a54565b61029861037f366004612052565b610a63565b6102d76103923660046120d1565b610104602052600090815260409020546001600160a01b031681565b6103156103bc366004612052565b610a85565b610101546102d7906001600160a01b031681565b6103156103e3366004612148565b610aed565b61024a6103f63660046120ea565b6001600160a01b031660009081526065602052604090205490565b610315610b66565b61024a6104273660046120ea565b610b9c565b61031561043a3660046120d1565b610bba565b6033546001600160a01b03166102d7565b61031561045e366004612052565b610cc7565b61024a610e55565b6103156104793660046120d1565b610ff9565b610265611090565b610298610494366004612052565b61109f565b6102986104a7366004612052565b61111a565b6103156104ba3660046120ea565b61118b565b6102d77f000000000000000000000000000000000000000000000000000000000000000081565b61024a6101035481565b6103156104fe36600461219c565b6111d8565b61024a61051136600461220f565b61133c565b60ff546102d7906001600160a01b031681565b60fe546102d7906001600160a01b031681565b61031561054a3660046120ea565b611367565b60ff546000906001600160a01b031633146105b15760405162461bcd60e51b815260206004820152601d60248201527f43616c6c6572206973206e6f74206465706f736974436f6e747261637400000060448201526064015b60405180910390fd5b60006105bc60675490565b90506000816105e3576105d16012600a61233c565b6105dc90600a61234b565b905061066b565b306001600160a01b0316639357c8086040518163ffffffff1660e01b815260040160206040518083038186803b15801561061c57600080fd5b505afa158015610630573d6000803e3d6000fd5b505050506040513d601f19601f82011682018060405250810190610654919061236a565b61065e858461234b565b6106689190612383565b90505b6106758582611402565b9150505b92915050565b60606068805461068e906123a5565b80601f01602080910402602001604051908101604052809291908181526020018280546106ba906123a5565b80156107075780601f106106dc57610100808354040283529160200191610707565b820191906000526020600020905b8154815290600101906020018083116106ea57829003601f168201915b5050505050905090565b600061071c60675490565b306001600160a01b0316639357c8086040518163ffffffff1660e01b815260040160206040518083038186803b15801561075557600080fd5b505afa158015610769573d6000803e3d6000fd5b505050506040513d601f19601f8201168201806040525081019061078d919061236a565b610797908461234b565b6106799190612383565b6000336107af8185856114e1565b5060019392505050565b6040516370a0823160e01b81526001600160a01b03821660048201526000906106799030906370a082319060240160206040518083038186803b1580156107ff57600080fd5b505afa158015610813573d6000803e3d6000fd5b505050506040513d601f19601f82011682018060405250810190610280919061236a565b600033610845858285611606565b610850858585611680565b506001949350505050565b6000610867600161184e565b9050801561087f576000805461ff0019166101001790555b61088b85858585610aed565b6108e16040518060400160405280600b81526020016a72656c617965725f64616f60a81b815250604051806040016040528060118152602001703932b630bcb2b92fb230b7afba37b5b2b760791b8152506118db565b61090d6040518060400160405280600b81526020016a72656c617965725f64616f60a81b81525061190c565b610915611956565b801561095b576000805461ff0019169055604051600181527f7f26b83ff96e1f2b6a682f133852f6798a09c465da95921460cefb38474024989060200160405180910390a15b5050505050565b610103546000908190815b81811015610a4e57600081815261010460205260409020546001600160a01b031692508215610a3c5760405163b971a6bf60e01b81526001600160a01b0384811660048301527f0000000000000000000000000000000000000000000000000000000000000000169063b971a6bf9060240160206040518083038186803b1580156109f757600080fd5b505afa158015610a0b573d6000803e3d6000fd5b505050506040513d601f19601f82011682018060405250810190610a2f919061236a565b610a3990856123da565b93505b80610a46816123f2565b91505061096d565b50505090565b6000610a5e611985565b905090565b6000336107af818585610a76838361133c565b610a8091906123da565b6114e1565b60ff546001600160a01b03163314610adf5760405162461bcd60e51b815260206004820152601d60248201527f43616c6c6572206973206e6f74206465706f736974436f6e747261637400000060448201526064016105a8565b610ae98282611a00565b5050565b600054610100900460ff16610b145760405162461bcd60e51b81526004016105a89061240d565b61010080546001600160a01b039586166001600160a01b03199182161790915560ff80549486169482169490941790935560fe8054928516928416929092179091556101028054919093169116179055565b6033546001600160a01b03163314610b905760405162461bcd60e51b81526004016105a890612458565b610b9a6000611b4b565b565b6001600160a01b038116600090815260cb6020526040812054610679565b6033546001600160a01b03163314610be45760405162461bcd60e51b81526004016105a890612458565b610103548110610c285760405162461bcd60e51b815260206004820152600f60248201526e0e8dede40d8c2e4ceca40d2dcc8caf608b1b60448201526064016105a8565b61010354610c378260016123da565b1415610c575760016101036000828254610c51919061248d565b90915550505b600081815261010460205260409020546001600160a01b0316610ca85760405162461bcd60e51b815260206004820152600960248201526834b73232bc1032b93960b91b60448201526064016105a8565b60009081526101046020526040902080546001600160a01b0319169055565b6033546001600160a01b03163314610cf15760405162461bcd60e51b81526004016105a890612458565b61010354811115610d365760405162461bcd60e51b815260206004820152600f60248201526e0e8dede40d8c2e4ceca40d2dcc8caf608b1b60448201526064016105a8565b6101035460005b81811015610dad57600081815261010460205260409020546001600160a01b0385811691161415610d9b5760405162461bcd60e51b81526020600482015260086024820152671c995c19585d195960c21b60448201526064016105a8565b80610da5816123f2565b915050610d3d565b5061010354821415610dd35760016101036000828254610dcd91906123da565b90915550505b600082815261010460205260409020546001600160a01b031615610e255760405162461bcd60e51b815260206004820152600960248201526834b73232bc1032b93960b91b60448201526064016105a8565b5060009081526101046020526040902080546001600160a01b0319166001600160a01b0392909216919091179055565b60ff546040805163e2e622cd60e01b815290516000926001600160a01b03169163e2e622cd916004808301926020929190829003018186803b158015610e9a57600080fd5b505afa158015610eae573d6000803e3d6000fd5b505050506040513d601f19601f82011682018060405250810190610ed2919061236a565b610100546040516370a0823160e01b81526001600160a01b0391821660048201529192507f000000000000000000000000000000000000000000000000000000000000000016906370a082319060240160206040518083038186803b158015610f3a57600080fd5b505afa158015610f4e573d6000803e3d6000fd5b505050506040513d601f19601f82011682018060405250810190610f72919061236a565b610f7c90826123da565b9050306001600160a01b03166329ab2c746040518163ffffffff1660e01b815260040160206040518083038186803b158015610fb757600080fd5b505afa158015610fcb573d6000803e3d6000fd5b505050506040513d601f19601f82011682018060405250810190610fef919061236a565b610a5e90826123da565b610100546001600160a01b031633146110545760405162461bcd60e51b815260206004820152601c60248201527f43616c6c6572206973206e6f7420696e436f6d65436f6e74726163740000000060448201526064016105a8565b60408051338152602081018390527f0d2e009b696be50eaeafa43283c2e91362ec7d038b2af93783ec767d536ad278910160405180910390a150565b60606069805461068e906123a5565b600033816110ad828661133c565b90508381101561110d5760405162461bcd60e51b815260206004820152602560248201527f45524332303a2064656372656173656420616c6c6f77616e63652062656c6f77604482015264207a65726f60d81b60648201526084016105a8565b61085082868684036114e1565b60fe5460009033906001600160a01b0316811480611145575060fe546001600160a01b038581169116145b6111805760405162461bcd60e51b815260206004820152600c60248201526b32b939103a3930b739b332b960a11b60448201526064016105a8565b6107af818585611680565b6033546001600160a01b031633146111b55760405162461bcd60e51b81526004016105a890612458565b61010180546001600160a01b0319166001600160a01b0392909216919091179055565b834211156112285760405162461bcd60e51b815260206004820152601d60248201527f45524332305065726d69743a206578706972656420646561646c696e6500000060448201526064016105a8565b60007f6e71edae12b1b97f4d1f60370fef10105fa2faae0126114a169c64845d6126c98888886112578c611b9d565b6040805160208101969096526001600160a01b0394851690860152929091166060840152608083015260a082015260c0810186905260e00160405160208183030381529060405280519060200120905060006112b282611bc5565b905060006112c282878787611c13565b9050896001600160a01b0316816001600160a01b0316146113255760405162461bcd60e51b815260206004820152601e60248201527f45524332305065726d69743a20696e76616c6964207369676e6174757265000060448201526064016105a8565b6113308a8a8a6114e1565b50505050505050505050565b6001600160a01b03918216600090815260666020908152604080832093909416825291909152205490565b6033546001600160a01b031633146113915760405162461bcd60e51b81526004016105a890612458565b6001600160a01b0381166113f65760405162461bcd60e51b815260206004820152602660248201527f4f776e61626c653a206e6577206f776e657220697320746865207a65726f206160448201526564647265737360d01b60648201526084016105a8565b6113ff81611b4b565b50565b6001600160a01b0382166114585760405162461bcd60e51b815260206004820152601f60248201527f45524332303a206d696e7420746f20746865207a65726f20616464726573730060448201526064016105a8565b806067600082825461146a91906123da565b90915550506001600160a01b038216600090815260656020526040812080548392906114979084906123da565b90915550506040518181526001600160a01b038316906000907fddf252ad1be2c89b69c2b068fc378daa952ba7f163c4a11628f55a4df523b3ef9060200160405180910390a35050565b6001600160a01b0383166115435760405162461bcd60e51b8152602060048201526024808201527f45524332303a20617070726f76652066726f6d20746865207a65726f206164646044820152637265737360e01b60648201526084016105a8565b6001600160a01b0382166115a45760405162461bcd60e51b815260206004820152602260248201527f45524332303a20617070726f766520746f20746865207a65726f206164647265604482015261737360f01b60648201526084016105a8565b6001600160a01b0383811660008181526066602090815260408083209487168084529482529182902085905590518481527f8c5be1e5ebec7d5bd14f71427d1e84f3dd0314c0f7b2291e5b200ac8c7c3b92591015b60405180910390a3505050565b6000611612848461133c565b9050600019811461167a578181101561166d5760405162461bcd60e51b815260206004820152601d60248201527f45524332303a20696e73756666696369656e7420616c6c6f77616e636500000060448201526064016105a8565b61167a84848484036114e1565b50505050565b6001600160a01b0383166116e45760405162461bcd60e51b815260206004820152602560248201527f45524332303a207472616e736665722066726f6d20746865207a65726f206164604482015264647265737360d81b60648201526084016105a8565b6001600160a01b0382166117465760405162461bcd60e51b815260206004820152602360248201527f45524332303a207472616e7366657220746f20746865207a65726f206164647260448201526265737360e81b60648201526084016105a8565b6001600160a01b038316600090815260656020526040902054818110156117be5760405162461bcd60e51b815260206004820152602660248201527f45524332303a207472616e7366657220616d6f756e7420657863656564732062604482015265616c616e636560d01b60648201526084016105a8565b6001600160a01b038085166000908152606560205260408082208585039055918516815290812080548492906117f59084906123da565b92505081905550826001600160a01b0316846001600160a01b03167fddf252ad1be2c89b69c2b068fc378daa952ba7f163c4a11628f55a4df523b3ef8460405161184191815260200190565b60405180910390a361167a565b60008054610100900460ff1615611895578160ff1660011480156118715750303b155b61188d5760405162461bcd60e51b81526004016105a8906124a4565b506000919050565b60005460ff8084169116106118bc5760405162461bcd60e51b81526004016105a8906124a4565b506000805460ff191660ff92909216919091179055600190565b919050565b600054610100900460ff166119025760405162461bcd60e51b81526004016105a89061240d565b610ae98282611c3b565b600054610100900460ff166119335760405162461bcd60e51b81526004016105a89061240d565b6113ff81604051806040016040528060018152602001603160f81b815250611c89565b600054610100900460ff1661197d5760405162461bcd60e51b81526004016105a89061240d565b610b9a611cca565b6000610a5e7f8b73c3c69bb8fe3d512ecc4cf759cc79239f7b179b0ffacaa9a75d522b39400f6119b460975490565b6098546040805160208101859052908101839052606081018290524660808201523060a082015260009060c0016040516020818303038152906040528051906020012090509392505050565b6001600160a01b038216611a605760405162461bcd60e51b815260206004820152602160248201527f45524332303a206275726e2066726f6d20746865207a65726f206164647265736044820152607360f81b60648201526084016105a8565b6001600160a01b03821660009081526065602052604090205481811015611ad45760405162461bcd60e51b815260206004820152602260248201527f45524332303a206275726e20616d6f756e7420657863656564732062616c616e604482015261636560f01b60648201526084016105a8565b6001600160a01b0383166000908152606560205260408120838303905560678054849290611b0390849061248d565b90915550506040518281526000906001600160a01b038516907fddf252ad1be2c89b69c2b068fc378daa952ba7f163c4a11628f55a4df523b3ef906020016115f9565b505050565b603380546001600160a01b038381166001600160a01b0319831681179093556040519116919082907f8be0079c531659141344cd1fd0a4f28419497f9722a3daafe3b4186f6b6457e090600090a35050565b6001600160a01b038116600090815260cb602052604090208054600181018255905b50919050565b6000610679611bd2611985565b8360405161190160f01b6020820152602281018390526042810182905260009060620160405160208183030381529060405280519060200120905092915050565b6000806000611c2487878787611cfa565b91509150611c3181611de7565b5095945050505050565b600054610100900460ff16611c625760405162461bcd60e51b81526004016105a89061240d565b8151611c75906068906020850190611fa2565b508051611b46906069906020840190611fa2565b600054610100900460ff16611cb05760405162461bcd60e51b81526004016105a89061240d565b815160209283012081519190920120609791909155609855565b600054610100900460ff16611cf15760405162461bcd60e51b81526004016105a89061240d565b610b9a33611b4b565b6000807f7fffffffffffffffffffffffffffffff5d576e7357a4501ddfe92f46681b20a0831115611d315750600090506003611dde565b8460ff16601b14158015611d4957508460ff16601c14155b15611d5a5750600090506004611dde565b6040805160008082526020820180845289905260ff881692820192909252606081018690526080810185905260019060a0016020604051602081039080840390855afa158015611dae573d6000803e3d6000fd5b5050604051601f1901519150506001600160a01b038116611dd757600060019250925050611dde565b9150600090505b94509492505050565b6000816004811115611dfb57611dfb6124f2565b1415611e045750565b6001816004811115611e1857611e186124f2565b1415611e665760405162461bcd60e51b815260206004820152601860248201527f45434453413a20696e76616c6964207369676e6174757265000000000000000060448201526064016105a8565b6002816004811115611e7a57611e7a6124f2565b1415611ec85760405162461bcd60e51b815260206004820152601f60248201527f45434453413a20696e76616c6964207369676e6174757265206c656e6774680060448201526064016105a8565b6003816004811115611edc57611edc6124f2565b1415611f355760405162461bcd60e51b815260206004820152602260248201527f45434453413a20696e76616c6964207369676e6174757265202773272076616c604482015261756560f01b60648201526084016105a8565b6004816004811115611f4957611f496124f2565b14156113ff5760405162461bcd60e51b815260206004820152602260248201527f45434453413a20696e76616c6964207369676e6174757265202776272076616c604482015261756560f01b60648201526084016105a8565b828054611fae906123a5565b90600052602060002090601f016020900481019282611fd05760008555612016565b82601f10611fe957805160ff1916838001178555612016565b82800160010185558215612016579182015b82811115612016578251825591602001919060010190611ffb565b50612022929150612026565b5090565b5b808211156120225760008155600101612027565b80356001600160a01b03811681146118d657600080fd5b6000806040838503121561206557600080fd5b61206e8361203b565b946020939093013593505050565b600060208083528351808285015260005b818110156120a95785810183015185820160400152820161208d565b818111156120bb576000604083870101525b50601f01601f1916929092016040019392505050565b6000602082840312156120e357600080fd5b5035919050565b6000602082840312156120fc57600080fd5b6121058261203b565b9392505050565b60008060006060848603121561212157600080fd5b61212a8461203b565b92506121386020850161203b565b9150604084013590509250925092565b6000806000806080858703121561215e57600080fd5b6121678561203b565b93506121756020860161203b565b92506121836040860161203b565b91506121916060860161203b565b905092959194509250565b600080600080600080600060e0888a0312156121b757600080fd5b6121c08861203b565b96506121ce6020890161203b565b95506040880135945060608801359350608088013560ff811681146121f257600080fd5b9699959850939692959460a0840135945060c09093013592915050565b6000806040838503121561222257600080fd5b61222b8361203b565b91506122396020840161203b565b90509250929050565b634e487b7160e01b600052601160045260246000fd5b600181815b8085111561229357816000190482111561227957612279612242565b8085161561228657918102915b93841c939080029061225d565b509250929050565b6000826122aa57506001610679565b816122b757506000610679565b81600181146122cd57600281146122d7576122f3565b6001915050610679565b60ff8411156122e8576122e8612242565b50506001821b610679565b5060208310610133831016604e8410600b8410161715612316575081810a610679565b6123208383612258565b806000190482111561233457612334612242565b029392505050565b600061210560ff84168361229b565b600081600019048311821515161561236557612365612242565b500290565b60006020828403121561237c57600080fd5b5051919050565b6000826123a057634e487b7160e01b600052601260045260246000fd5b500490565b600181811c908216806123b957607f821691505b60208210811415611bbf57634e487b7160e01b600052602260045260246000fd5b600082198211156123ed576123ed612242565b500190565b600060001982141561240657612406612242565b5060010190565b6020808252602b908201527f496e697469616c697a61626c653a20636f6e7472616374206973206e6f74206960408201526a6e697469616c697a696e6760a81b606082015260800190565b6020808252818101527f4f776e61626c653a2063616c6c6572206973206e6f7420746865206f776e6572604082015260600190565b60008282101561249f5761249f612242565b500390565b6020808252602e908201527f496e697469616c697a61626c653a20636f6e747261637420697320616c72656160408201526d191e481a5b9a5d1a585b1a5e995960921b606082015260800190565b634e487b7160e01b600052602160045260246000fdfea2646970667358221220ee1542eac5c8fabb482e4b37ec2deec40b913bda09033ec6c9e4d5d17e13988764736f6c63430008090033",
  "devdoc": {
    "kind": "dev",
    "methods": {
      "DOMAIN_SEPARATOR()": {
        "details": "See {IERC20Permit-DOMAIN_SEPARATOR}."
      },
      "allowance(address,address)": {
        "details": "See {IERC20-allowance}."
      },
      "approve(address,uint256)": {
        "details": "See {IERC20-approve}. NOTE: If `amount` is the maximum `uint256`, the allowance is not updated on `transferFrom`. This is semantically equivalent to an infinite approval. Requirements: - `spender` cannot be the zero address."
      },
      "balanceOf(address)": {
        "details": "See {IERC20-balanceOf}."
      },
      "decimals()": {
        "details": "Returns the number of decimals used to get its user representation. For example, if `decimals` equals `2`, a balance of `505` tokens should be displayed to a user as `5.05` (`505 / 10 ** 2`). Tokens usually opt for a value of 18, imitating the relationship between Ether and Wei. This is the value {ERC20} uses, unless this function is overridden; NOTE: This information is only used for _display_ purposes: it in no way affects any of the arithmetic of the contract, including {IERC20-balanceOf} and {IERC20-transfer}."
      },
      "decreaseAllowance(address,uint256)": {
        "details": "Atomically decreases the allowance granted to `spender` by the caller. This is an alternative to {approve} that can be used as a mitigation for problems described in {IERC20-approve}. Emits an {Approval} event indicating the updated allowance. Requirements: - `spender` cannot be the zero address. - `spender` must have allowance for the caller of at least `subtractedValue`."
      },
      "increaseAllowance(address,uint256)": {
        "details": "Atomically increases the allowance granted to `spender` by the caller. This is an alternative to {approve} that can be used as a mitigation for problems described in {IERC20-approve}. Emits an {Approval} event indicating the updated allowance. Requirements: - `spender` cannot be the zero address."
      },
      "name()": {
        "details": "Returns the name of the token."
      },
      "nonces(address)": {
        "details": "See {IERC20Permit-nonces}."
      },
      "owner()": {
        "details": "Returns the address of the current owner."
      },
      "permit(address,address,uint256,uint256,uint8,bytes32,bytes32)": {
        "details": "See {IERC20Permit-permit}."
      },
      "renounceOwnership()": {
        "details": "Leaves the contract without owner. It will not be possible to call `onlyOwner` functions anymore. Can only be called by the current owner. NOTE: Renouncing ownership will leave the contract without an owner, thereby removing any functionality that is only available to the owner."
      },
      "symbol()": {
        "details": "Returns the symbol of the token, usually a shorter version of the name."
      },
      "totalSupply()": {
        "details": "See {IERC20-totalSupply}."
      },
      "transfer(address,uint256)": {
        "details": "See {IERC20-transfer}. Requirements: - `to` cannot be the zero address. - the caller must have a balance of at least `amount`."
      },
      "transferFrom(address,address,uint256)": {
        "details": "See {IERC20-transferFrom}. Emits an {Approval} event indicating the updated allowance. This is not required by the EIP. See the note at the beginning of {ERC20}. NOTE: Does not update the allowance if the current allowance is the maximum `uint256`. Requirements: - `from` and `to` cannot be the zero address. - `from` must have a balance of at least `amount`. - the caller must have allowance for ``from``'s tokens of at least `amount`."
      },
      "transferOwnership(address)": {
        "details": "Transfers ownership of the contract to a new account (`newOwner`). Can only be called by the current owner."
      }
    },
    "version": 1
  },
  "userdoc": {
    "kind": "user",
    "methods": {
      "__RootManger_init(address,address,address,address)": {
        "notice": "---------- init ---------- *"
      },
      "constructor": {
        "notice": "---------address immutable- constructor ---------- *"
      }
    },
    "version": 1
  },
  "storageLayout": {
    "storage": [
      {
        "astId": 130,
        "contract": "contracts/RootManger.sol:RootManger",
        "label": "_initialized",
        "offset": 0,
        "slot": "0",
        "type": "t_uint8"
      },
      {
        "astId": 133,
        "contract": "contracts/RootManger.sol:RootManger",
        "label": "_initializing",
        "offset": 1,
        "slot": "0",
        "type": "t_bool"
      },
      {
        "astId": 1773,
        "contract": "contracts/RootManger.sol:RootManger",
        "label": "__gap",
        "offset": 0,
        "slot": "1",
        "type": "t_array(t_uint256)50_storage"
      },
      {
        "astId": 10,
        "contract": "contracts/RootManger.sol:RootManger",
        "label": "_owner",
        "offset": 0,
        "slot": "51",
        "type": "t_address"
      },
      {
        "astId": 122,
        "contract": "contracts/RootManger.sol:RootManger",
        "label": "__gap",
        "offset": 0,
        "slot": "52",
        "type": "t_array(t_uint256)49_storage"
      },
      {
        "astId": 343,
        "contract": "contracts/RootManger.sol:RootManger",
        "label": "_balances",
        "offset": 0,
        "slot": "101",
        "type": "t_mapping(t_address,t_uint256)"
      },
      {
        "astId": 349,
        "contract": "contracts/RootManger.sol:RootManger",
        "label": "_allowances",
        "offset": 0,
        "slot": "102",
        "type": "t_mapping(t_address,t_mapping(t_address,t_uint256))"
      },
      {
        "astId": 351,
        "contract": "contracts/RootManger.sol:RootManger",
        "label": "_totalSupply",
        "offset": 0,
        "slot": "103",
        "type": "t_uint256"
      },
      {
        "astId": 353,
        "contract": "contracts/RootManger.sol:RootManger",
        "label": "_name",
        "offset": 0,
        "slot": "104",
        "type": "t_string_storage"
      },
      {
        "astId": 355,
        "contract": "contracts/RootManger.sol:RootManger",
        "label": "_symbol",
        "offset": 0,
        "slot": "105",
        "type": "t_string_storage"
      },
      {
        "astId": 934,
        "contract": "contracts/RootManger.sol:RootManger",
        "label": "__gap",
        "offset": 0,
        "slot": "106",
        "type": "t_array(t_uint256)45_storage"
      },
      {
        "astId": 2467,
        "contract": "contracts/RootManger.sol:RootManger",
        "label": "_HASHED_NAME",
        "offset": 0,
        "slot": "151",
        "type": "t_bytes32"
      },
      {
        "astId": 2469,
        "contract": "contracts/RootManger.sol:RootManger",
        "label": "_HASHED_VERSION",
        "offset": 0,
        "slot": "152",
        "type": "t_bytes32"
      },
      {
        "astId": 2607,
        "contract": "contracts/RootManger.sol:RootManger",
        "label": "__gap",
        "offset": 0,
        "slot": "153",
        "type": "t_array(t_uint256)50_storage"
      },
      {
        "astId": 1064,
        "contract": "contracts/RootManger.sol:RootManger",
        "label": "_nonces",
        "offset": 0,
        "slot": "203",
        "type": "t_mapping(t_address,t_struct(Counter)1780_storage)"
      },
      {
        "astId": 1072,
        "contract": "contracts/RootManger.sol:RootManger",
        "label": "_PERMIT_TYPEHASH_DEPRECATED_SLOT",
        "offset": 0,
        "slot": "204",
        "type": "t_bytes32"
      },
      {
        "astId": 1228,
        "contract": "contracts/RootManger.sol:RootManger",
        "label": "__gap",
        "offset": 0,
        "slot": "205",
        "type": "t_array(t_uint256)49_storage"
      },
      {
        "astId": 6953,
        "contract": "contracts/RootManger.sol:RootManger",
        "label": "exitQueueContract",
        "offset": 0,
        "slot": "254",
        "type": "t_address"
      },
      {
        "astId": 6956,
        "contract": "contracts/RootManger.sol:RootManger",
        "label": "depositContract",
        "offset": 0,
        "slot": "255",
        "type": "t_address"
      },
      {
        "astId": 6959,
        "contract": "contracts/RootManger.sol:RootManger",
        "label": "inComeContract",
        "offset": 0,
        "slot": "256",
        "type": "t_address"
      },
      {
        "astId": 6962,
        "contract": "contracts/RootManger.sol:RootManger",
        "label": "operator",
        "offset": 0,
        "slot": "257",
        "type": "t_address"
      },
      {
        "astId": 6964,
        "contract": "contracts/RootManger.sol:RootManger",
        "label": "profitRecord",
        "offset": 0,
        "slot": "258",
        "type": "t_address"
      },
      {
        "astId": 6966,
        "contract": "contracts/RootManger.sol:RootManger",
        "label": "MAX_RELAYER_COUNTER",
        "offset": 0,
        "slot": "259",
        "type": "t_uint256"
      },
      {
        "astId": 6971,
        "contract": "contracts/RootManger.sol:RootManger",
        "label": "_relayers",
        "offset": 0,
        "slot": "260",
        "type": "t_mapping(t_uint256,t_address)"
      }
    ],
    "types": {
      "t_address": {
        "encoding": "inplace",
        "label": "address",
        "numberOfBytes": "20"
      },
      "t_array(t_uint256)45_storage": {
        "base": "t_uint256",
        "encoding": "inplace",
        "label": "uint256[45]",
        "numberOfBytes": "1440"
      },
      "t_array(t_uint256)49_storage": {
        "base": "t_uint256",
        "encoding": "inplace",
        "label": "uint256[49]",
        "numberOfBytes": "1568"
      },
      "t_array(t_uint256)50_storage": {
        "base": "t_uint256",
        "encoding": "inplace",
        "label": "uint256[50]",
        "numberOfBytes": "1600"
      },
      "t_bool": {
        "encoding": "inplace",
        "label": "bool",
        "numberOfBytes": "1"
      },
      "t_bytes32": {
        "encoding": "inplace",
        "label": "bytes32",
        "numberOfBytes": "32"
      },
      "t_mapping(t_address,t_mapping(t_address,t_uint256))": {
        "encoding": "mapping",
        "key": "t_address",
        "label": "mapping(address => mapping(address => uint256))",
        "numberOfBytes": "32",
        "value": "t_mapping(t_address,t_uint256)"
      },
      "t_mapping(t_address,t_struct(Counter)1780_storage)": {
        "encoding": "mapping",
        "key": "t_address",
        "label": "mapping(address => struct CountersUpgradeable.Counter)",
        "numberOfBytes": "32",
        "value": "t_struct(Counter)1780_storage"
      },
      "t_mapping(t_address,t_uint256)": {
        "encoding": "mapping",
        "key": "t_address",
        "label": "mapping(address => uint256)",
        "numberOfBytes": "32",
        "value": "t_uint256"
      },
      "t_mapping(t_uint256,t_address)": {
        "encoding": "mapping",
        "key": "t_uint256",
        "label": "mapping(uint256 => address)",
        "numberOfBytes": "32",
        "value": "t_address"
      },
      "t_string_storage": {
        "encoding": "bytes",
        "label": "string",
        "numberOfBytes": "32"
      },
      "t_struct(Counter)1780_storage": {
        "encoding": "inplace",
        "label": "struct CountersUpgradeable.Counter",
        "members": [
          {
            "astId": 1779,
            "contract": "contracts/RootManger.sol:RootManger",
            "label": "_value",
            "offset": 0,
            "slot": "0",
            "type": "t_uint256"
          }
        ],
        "numberOfBytes": "32"
      },
      "t_uint256": {
        "encoding": "inplace",
        "label": "uint256",
        "numberOfBytes": "32"
      },
      "t_uint8": {
        "encoding": "inplace",
        "label": "uint8",
        "numberOfBytes": "1"
      }
    }
  }
}