{
  "address": "0x3274174d317E0C9d96CdeccE3Cb255Fe97707940",
  "abi": [
    {
      "inputs": [
        {
          "internalType": "address",
          "name": "_torn_contract",
          "type": "address"
        },
        {
          "internalType": "address",
          "name": "_torn_governance_staking",
          "type": "address"
        },
        {
          "internalType": "address",
          "name": "_torn_relayer_registry",
          "type": "address"
        },
        {
          "internalType": "address",
          "name": "_root_db",
          "type": "address"
        }
      ],
      "stateMutability": "nonpayable",
      "type": "constructor"
    },
    {
      "anonymous": false,
      "inputs": [
        {
          "indexed": false,
          "internalType": "uint8",
          "name": "version",
          "type": "uint8"
        }
      ],
      "name": "Initialized",
      "type": "event"
    },
    {
      "anonymous": false,
      "inputs": [
        {
          "indexed": false,
          "internalType": "uint256",
          "name": "_amount",
          "type": "uint256"
        }
      ],
      "name": "lock_to_gov",
      "type": "event"
    },
    {
      "anonymous": false,
      "inputs": [
        {
          "indexed": false,
          "internalType": "address",
          "name": "_account",
          "type": "address"
        },
        {
          "indexed": false,
          "internalType": "uint256",
          "name": "_token_qty",
          "type": "uint256"
        },
        {
          "indexed": false,
          "internalType": "uint256",
          "name": "_torn",
          "type": "uint256"
        },
        {
          "indexed": false,
          "internalType": "uint256",
          "name": "_profit",
          "type": "uint256"
        }
      ],
      "name": "with_draw",
      "type": "event"
    },
    {
      "inputs": [],
      "name": "IN_SUFFICIENT",
      "outputs": [
        {
          "internalType": "uint256",
          "name": "",
          "type": "uint256"
        }
      ],
      "stateMutability": "view",
      "type": "function"
    },
    {
      "inputs": [],
      "name": "ROOT_DB",
      "outputs": [
        {
          "internalType": "address",
          "name": "",
          "type": "address"
        }
      ],
      "stateMutability": "view",
      "type": "function"
    },
    {
      "inputs": [],
      "name": "SUFFICIENT",
      "outputs": [
        {
          "internalType": "uint256",
          "name": "",
          "type": "uint256"
        }
      ],
      "stateMutability": "view",
      "type": "function"
    },
    {
      "inputs": [],
      "name": "TORN_CONTRACT",
      "outputs": [
        {
          "internalType": "address",
          "name": "",
          "type": "address"
        }
      ],
      "stateMutability": "view",
      "type": "function"
    },
    {
      "inputs": [],
      "name": "TORN_GOVERNANCE_STAKING",
      "outputs": [
        {
          "internalType": "address",
          "name": "",
          "type": "address"
        }
      ],
      "stateMutability": "view",
      "type": "function"
    },
    {
      "inputs": [],
      "name": "TORN_RELAYER_REGISTRY",
      "outputs": [
        {
          "internalType": "address",
          "name": "",
          "type": "address"
        }
      ],
      "stateMutability": "view",
      "type": "function"
    },
    {
      "inputs": [],
      "name": "__Deposit_init",
      "outputs": [],
      "stateMutability": "nonpayable",
      "type": "function"
    },
    {
      "inputs": [],
      "name": "balanceOfStakingOnGov",
      "outputs": [
        {
          "internalType": "uint256",
          "name": "",
          "type": "uint256"
        }
      ],
      "stateMutability": "view",
      "type": "function"
    },
    {
      "inputs": [],
      "name": "checkRewardOnGov",
      "outputs": [
        {
          "internalType": "uint256",
          "name": "",
          "type": "uint256"
        }
      ],
      "stateMutability": "view",
      "type": "function"
    },
    {
      "inputs": [
        {
          "internalType": "uint256",
          "name": "_torn_qty",
          "type": "uint256"
        },
        {
          "internalType": "uint256",
          "name": "deadline",
          "type": "uint256"
        },
        {
          "internalType": "uint8",
          "name": "v",
          "type": "uint8"
        },
        {
          "internalType": "bytes32",
          "name": "r",
          "type": "bytes32"
        },
        {
          "internalType": "bytes32",
          "name": "s",
          "type": "bytes32"
        }
      ],
      "name": "deposit",
      "outputs": [],
      "stateMutability": "nonpayable",
      "type": "function"
    },
    {
      "inputs": [
        {
          "internalType": "uint256",
          "name": "_token_qty",
          "type": "uint256"
        }
      ],
      "name": "depositWithApproval",
      "outputs": [],
      "stateMutability": "nonpayable",
      "type": "function"
    },
    {
      "inputs": [
        {
          "internalType": "uint256",
          "name": "_token_qty",
          "type": "uint256"
        }
      ],
      "name": "getValueShouldUnlock",
      "outputs": [
        {
          "internalType": "uint256",
          "name": "shortage",
          "type": "uint256"
        },
        {
          "internalType": "uint256",
          "name": "torn",
          "type": "uint256"
        }
      ],
      "stateMutability": "view",
      "type": "function"
    },
    {
      "inputs": [],
      "name": "getValueShouldUnlockFromGov",
      "outputs": [
        {
          "internalType": "uint256",
          "name": "",
          "type": "uint256"
        }
      ],
      "stateMutability": "view",
      "type": "function"
    },
    {
      "inputs": [
        {
          "internalType": "uint256",
          "name": "_token_qty",
          "type": "uint256"
        }
      ],
      "name": "isBalanceEnough",
      "outputs": [
        {
          "internalType": "bool",
          "name": "",
          "type": "bool"
        }
      ],
      "stateMutability": "view",
      "type": "function"
    },
    {
      "inputs": [],
      "name": "isNeedClaimFromGov",
      "outputs": [
        {
          "internalType": "bool",
          "name": "",
          "type": "bool"
        }
      ],
      "stateMutability": "view",
      "type": "function"
    },
    {
      "inputs": [],
      "name": "isNeedTransfer2Queue",
      "outputs": [
        {
          "internalType": "bool",
          "name": "",
          "type": "bool"
        }
      ],
      "stateMutability": "view",
      "type": "function"
    },
    {
      "inputs": [],
      "name": "maxReserveTorn",
      "outputs": [
        {
          "internalType": "uint256",
          "name": "",
          "type": "uint256"
        }
      ],
      "stateMutability": "view",
      "type": "function"
    },
    {
      "inputs": [],
      "name": "maxRewardInGov",
      "outputs": [
        {
          "internalType": "uint256",
          "name": "",
          "type": "uint256"
        }
      ],
      "stateMutability": "view",
      "type": "function"
    },
    {
      "inputs": [],
      "name": "profitRatio",
      "outputs": [
        {
          "internalType": "uint256",
          "name": "",
          "type": "uint256"
        }
      ],
      "stateMutability": "view",
      "type": "function"
    },
    {
      "inputs": [],
      "name": "rewardAddress",
      "outputs": [
        {
          "internalType": "address",
          "name": "",
          "type": "address"
        }
      ],
      "stateMutability": "view",
      "type": "function"
    },
    {
      "inputs": [
        {
          "internalType": "uint256",
          "name": "_index",
          "type": "uint256"
        },
        {
          "internalType": "uint256",
          "name": "_value",
          "type": "uint256"
        }
      ],
      "name": "setPara",
      "outputs": [],
      "stateMutability": "nonpayable",
      "type": "function"
    },
    {
      "inputs": [
        {
          "internalType": "uint256",
          "name": "index",
          "type": "uint256"
        },
        {
          "internalType": "uint256",
          "name": "qty",
          "type": "uint256"
        }
      ],
      "name": "stake2Node",
      "outputs": [],
      "stateMutability": "nonpayable",
      "type": "function"
    },
    {
      "inputs": [],
      "name": "totalBalanceOfTorn",
      "outputs": [
        {
          "internalType": "uint256",
          "name": "ret",
          "type": "uint256"
        }
      ],
      "stateMutability": "view",
      "type": "function"
    },
    {
      "inputs": [
        {
          "internalType": "uint256",
          "name": "_token_qty",
          "type": "uint256"
        }
      ],
      "name": "withDraw",
      "outputs": [],
      "stateMutability": "nonpayable",
      "type": "function"
    },
    {
      "inputs": [
        {
          "internalType": "address",
          "name": "_addr",
          "type": "address"
        },
        {
          "internalType": "uint256",
          "name": "_token_qty",
          "type": "uint256"
        }
      ],
      "name": "withdraw_for_exit",
      "outputs": [
        {
          "internalType": "uint256",
          "name": "ret",
          "type": "uint256"
        }
      ],
      "stateMutability": "nonpayable",
      "type": "function"
    }
  ],
  "transactionHash": "0xb8333f99210fee145f49aab936296dcd71b2df1420bc7bf8e1b010a6188a883d",
  "args": [
    "0x77777FeDdddFfC19Ff86DB637967013e6C6A116C",
    "0x5efda50f22d34f262c29268506c5fa42cb56a1ce",
    "0x58E8dCC13BE9780fC42E8723D8EaD4CF46943dF2",
    "0x2fB6ac90378d4065a0D750cE42CDDD7E85835609"
  ],
  "numDeployments": 1,
  "solcInputHash": "e511d0ab7252ab8a3ebceaac89c8f752",
  "bytecode": "0x6101006040523480156200001257600080fd5b506040516200295438038062002954833981016040819052620000359162000075565b6001600160a01b0393841660805291831660a052821660c0521660e052620000d2565b80516001600160a01b03811681146200007057600080fd5b919050565b600080600080608085870312156200008c57600080fd5b620000978562000058565b9350620000a76020860162000058565b9250620000b76040860162000058565b9150620000c76060860162000058565b905092959194509250565b60805160a05160c05160e05161274c62000208600039600081816101920152818161041e015281816105a101528181610903015281816109b101528181610ab801528181610d0d01528181610e000152818161107101528181611172015281816115e0015281816119d10152611bcc01526000818161030b0152818161126201526112ad01526000818161033201528181610bf801528181610c81015281816114900152818161168e015281816117380152818161191001528181611b4c01528181611e0001528181611fae0152611fe9015260008181610209015281816107480152818161098801528181610ffb0152818161124101528181611340015281816113ec0152818161154e0152818161186201528181611c6601528181611ca601528181611ef80152611f8d015261274c6000f3fe608060405234801561001057600080fd5b50600436106101735760003560e01c80638cf57cb9116100de578063b90a63fa11610097578063e2e622cd11610071578063e2e622cd14610354578063f245e6a01461035c578063fc4c0aec14610365578063fff5ea941461036d57600080fd5b8063b90a63fa146102fe578063b91476f214610306578063c866880e1461032d57600080fd5b80638cf57cb9146102965780639615d2ba146102a9578063a0779c2f146102b2578063a9fda201146102c5578063adba6bb6146102cd578063b6f4e79a146102f557600080fd5b80633a542c28116101305780633a542c281461022b57806351e48baf1461023e578063546cee9414610254578063727784fe146102675780637e34dbe01461027a5780638576e0a61461028d57600080fd5b806314174f331461017857806314411a2a1461018d5780632224db44146101d157806322f97b5e146101e45780632f5dcf03146101fc57806331e8192114610204575b600080fd5b61018b610186366004612459565b610376565b005b6101b47f000000000000000000000000000000000000000000000000000000000000000081565b6040516001600160a01b0390911681526020015b60405180910390f35b61018b6101df366004612472565b61059f565b6101ec610717565b60405190151581526020016101c8565b61018b6107d1565b6101b47f000000000000000000000000000000000000000000000000000000000000000081565b61018b610239366004612459565b610847565b610246610c69565b6040519081526020016101c8565b6102466102623660046124a9565b610d09565b6101ec610275366004612459565b610f8d565b61018b6102883660046124d5565b610fbb565b61024660001981565b6033546101b4906001600160a01b031681565b61024660355481565b61018b6102c0366004612472565b61106f565b61024661130e565b6102e06102db366004612459565b61152a565b604080519283526020830191909152016101c8565b61024660011981565b6101ec611733565b6101b47f000000000000000000000000000000000000000000000000000000000000000081565b6101b47f000000000000000000000000000000000000000000000000000000000000000081565b61024661184a565b61024660365481565b61024661190c565b61024660345481565b600260015414156103ce5760405162461bcd60e51b815260206004820152601f60248201527f5265656e7472616e637947756172643a207265656e7472616e742063616c6c0060448201526064015b60405180910390fd5b60026001556103db6119cd565b1561041a5760405162461bcd60e51b815260206004820152600f60248201526e5175657565206e6f7420656d70747960881b60448201526064016103c5565b60007f00000000000000000000000000000000000000000000000000000000000000006001600160a01b031663d543ce0e6040518163ffffffff1660e01b815260040160206040518083038186803b15801561047557600080fd5b505afa158015610489573d6000803e3d6000fd5b505050506040513d601f19601f820116820180604052508101906104ad9190612524565b60405163191e2e8360e01b8152336004820152602481018490529091506000906001600160a01b0383169063191e2e8390604401602060405180830381600087803b1580156104fb57600080fd5b505af115801561050f573d6000803e3d6000fd5b505050506040513d601f19601f820116820180604052508101906105339190612541565b9050600061054084611a98565b905061054c8183611c38565b506040805133815260208101869052908101829052606081018390527f4f31e4b99390d24f1f90e67199124611e798b13d90d74422fb39bb3789c99f4c9060800160405180910390a15050600180555050565b7f00000000000000000000000000000000000000000000000000000000000000006001600160a01b031663570ca7356040518163ffffffff1660e01b815260040160206040518083038186803b1580156105f857600080fd5b505afa15801561060c573d6000803e3d6000fd5b505050506040513d601f19601f820116820180604052508101906106309190612524565b6001600160a01b0316336001600160a01b0316146106895760405162461bcd60e51b815260206004820152601660248201527521b0b63632b91034b9903737ba1037b832b930ba37b960511b60448201526064016103c5565b81600114156106985760355550565b81600214156106a75760365550565b81600314156106cf57603380546001600160a01b0319166001600160a01b0383161790555050565b81600414156106de5760345550565b60405162461bcd60e51b815260206004820152600e60248201526d092dcecc2d8d2c840bed2dcc8caf60931b60448201526064016103c5565b6000806107226119cd565b90508061073157600091505090565b6040516370a0823160e01b815230600482015281907f00000000000000000000000000000000000000000000000000000000000000006001600160a01b0316906370a082319060240160206040518083038186803b15801561079257600080fd5b505afa1580156107a6573d6000803e3d6000fd5b505050506040513d601f19601f820116820180604052508101906107ca9190612541565b1191505090565b60006107dd6001611cd2565b905080156107f5576000805461ff0019166101001790555b6107fd611d5a565b8015610844576000805461ff0019169055604051600181527f7f26b83ff96e1f2b6a682f133852f6798a09c465da95921460cefb3847402498906020015b60405180910390a15b50565b6002600154141561089a5760405162461bcd60e51b815260206004820152601f60248201527f5265656e7472616e637947756172643a207265656e7472616e742063616c6c0060448201526064016103c5565b600260015533816108da5760405162461bcd60e51b815260206004820152600a6024820152696572726f72207061726160b01b60448201526064016103c5565b604051632851206560e21b81526001600160a01b038281166004830152602482018490526000917f00000000000000000000000000000000000000000000000000000000000000009091169063a144819490604401602060405180830381600087803b15801561094957600080fd5b505af115801561095d573d6000803e3d6000fd5b505050506040513d601f19601f820116820180604052508101906109819190612541565b90506109af7f0000000000000000000000000000000000000000000000000000000000000000833086611d8b565b7f00000000000000000000000000000000000000000000000000000000000000006001600160a01b031663d543ce0e6040518163ffffffff1660e01b815260040160206040518083038186803b158015610a0857600080fd5b505afa158015610a1c573d6000803e3d6000fd5b505050506040513d601f19601f82011682018060405250810190610a409190612524565b604051630efe6a8b60e01b815233600482015260248101859052604481018390526001600160a01b039190911690630efe6a8b90606401600060405180830381600087803b158015610a9157600080fd5b505af1158015610aa5573d6000803e3d6000fd5b50505050610ab1610717565b15610b9e577f00000000000000000000000000000000000000000000000000000000000000006001600160a01b031663ea9b717e6040518163ffffffff1660e01b815260040160206040518083038186803b158015610b0f57600080fd5b505afa158015610b23573d6000803e3d6000fd5b505050506040513d601f19601f82011682018060405250810190610b479190612524565b6001600160a01b031663a4ec69386040518163ffffffff1660e01b8152600401600060405180830381600087803b158015610b8157600080fd5b505af1158015610b95573d6000803e3d6000fd5b50505050610c5f565b610ba6611733565b15610bb857610bb3611dfc565b610c5f565b6000610bc261130e565b905080610bd957610bd1611ee0565b505050610c62565b6000198114610c5d57604051636198e33960e01b8152600481018290527f00000000000000000000000000000000000000000000000000000000000000006001600160a01b031690636198e33990602401600060405180830381600087803b158015610c4457600080fd5b505af1158015610c58573d6000803e3d6000fd5b505050505b505b50505b5060018055565b604051639ae697bf60e01b81523060048201526000907f00000000000000000000000000000000000000000000000000000000000000006001600160a01b031690639ae697bf906024015b60206040518083038186803b158015610ccc57600080fd5b505afa158015610ce0573d6000803e3d6000fd5b505050506040513d601f19601f82011682018060405250810190610d049190612541565b905090565b60007f00000000000000000000000000000000000000000000000000000000000000006001600160a01b031663ea9b717e6040518163ffffffff1660e01b815260040160206040518083038186803b158015610d6457600080fd5b505afa158015610d78573d6000803e3d6000fd5b505050506040513d601f19601f82011682018060405250810190610d9c9190612524565b6001600160a01b0316336001600160a01b031614610dfc5760405162461bcd60e51b815260206004820152601760248201527f43616c6c6572206973206e6f742065786974517565756500000000000000000060448201526064016103c5565b60007f00000000000000000000000000000000000000000000000000000000000000006001600160a01b031663d543ce0e6040518163ffffffff1660e01b815260040160206040518083038186803b158015610e5757600080fd5b505afa158015610e6b573d6000803e3d6000fd5b505050506040513d601f19601f82011682018060405250810190610e8f9190612524565b60405163191e2e8360e01b81526001600160a01b0386811660048301526024820186905291925060009183169063191e2e8390604401602060405180830381600087803b158015610edf57600080fd5b505af1158015610ef3573d6000803e3d6000fd5b505050506040513d601f19601f82011682018060405250810190610f179190612541565b90506000610f2485611a98565b9050610f308183611c38565b604080516001600160a01b038916815260208101889052908101839052606081018490529094507f4f31e4b99390d24f1f90e67199124611e798b13d90d74422fb39bb3789c99f4c9060800160405180910390a150505092915050565b6000610f976119cd565b15610fa457506000919050565b6000610faf8361152a565b50600019119392505050565b60405163d505accf60e01b8152336004820152306024820152604481018690526064810185905260ff8416608482015260a4810183905260c481018290527f00000000000000000000000000000000000000000000000000000000000000006001600160a01b03169063d505accf9060e401600060405180830381600087803b15801561104757600080fd5b505af115801561105b573d6000803e3d6000fd5b5050505061106885610847565b5050505050565b7f00000000000000000000000000000000000000000000000000000000000000006001600160a01b031663570ca7356040518163ffffffff1660e01b815260040160206040518083038186803b1580156110c857600080fd5b505afa1580156110dc573d6000803e3d6000fd5b505050506040513d601f19601f820116820180604052508101906111009190612524565b6001600160a01b0316336001600160a01b0316146111595760405162461bcd60e51b815260206004820152601660248201527521b0b63632b91034b9903737ba1037b832b930ba37b960511b60448201526064016103c5565b604051631c1eeaf160e31b8152600481018390526000907f00000000000000000000000000000000000000000000000000000000000000006001600160a01b03169063e0f757889060240160206040518083038186803b1580156111bc57600080fd5b505afa1580156111d0573d6000803e3d6000fd5b505050506040513d601f19601f820116820180604052508101906111f49190612524565b90506001600160a01b03811661123c5760405162461bcd60e51b815260206004820152600d60248201526c092dcecc2d8d2c840d2dcc8caf609b1b60448201526064016103c5565b6112877f00000000000000000000000000000000000000000000000000000000000000007f00000000000000000000000000000000000000000000000000000000000000008461207e565b60405163d990231d60e01b81526001600160a01b038281166004830152602482018490527f0000000000000000000000000000000000000000000000000000000000000000169063d990231d90604401600060405180830381600087803b1580156112f157600080fd5b505af1158015611305573d6000803e3d6000fd5b50505050505050565b6000806113196119cd565b90508061132857600091505090565b6040516370a0823160e01b81523060048201526000907f00000000000000000000000000000000000000000000000000000000000000006001600160a01b0316906370a082319060240160206040518083038186803b15801561138a57600080fd5b505afa15801561139e573d6000803e3d6000fd5b505050506040513d601f19601f820116820180604052508101906113c29190612541565b90508082116113d45760009250505090565b6040516370a0823160e01b81523060048201526000907f00000000000000000000000000000000000000000000000000000000000000006001600160a01b0316906370a082319060240160206040518083038186803b15801561143657600080fd5b505afa15801561144a573d6000803e3d6000fd5b505050506040513d601f19601f8201168201806040525081019061146e9190612541565b6114789084612570565b604051639ae697bf60e01b81523060048201529091507f00000000000000000000000000000000000000000000000000000000000000006001600160a01b031690639ae697bf9060240160206040518083038186803b1580156114da57600080fd5b505afa1580156114ee573d6000803e3d6000fd5b505050506040513d601f19601f820116820180604052508101906115129190612541565b811161151f579392505050565b600019935050505090565b6040516370a0823160e01b8152306004820152600090819081906001600160a01b037f000000000000000000000000000000000000000000000000000000000000000016906370a082319060240160206040518083038186803b15801561159057600080fd5b505afa1580156115a4573d6000803e3d6000fd5b505050506040513d601f19601f820116820180604052508101906115c89190612541565b6040516272e6bd60e41b8152600481018690529091507f00000000000000000000000000000000000000000000000000000000000000006001600160a01b03169063072e6bd09060240160206040518083038186803b15801561162a57600080fd5b505afa15801561163e573d6000803e3d6000fd5b505050506040513d601f19601f820116820180604052508101906116629190612541565b915081811061167657600119925050915091565b604051639ae697bf60e01b81523060048201526000907f00000000000000000000000000000000000000000000000000000000000000006001600160a01b031690639ae697bf9060240160206040518083038186803b1580156116d857600080fd5b505afa1580156116ec573d6000803e3d6000fd5b505050506040513d601f19601f820116820180604052508101906117109190612541565b905061171c8284612570565b93508381101561172c5760001993505b5050915091565b6000807f00000000000000000000000000000000000000000000000000000000000000006001600160a01b031663f57df22e6040518163ffffffff1660e01b815260040160206040518083038186803b15801561178f57600080fd5b505afa1580156117a3573d6000803e3d6000fd5b505050506040513d601f19601f820116820180604052508101906117c79190612524565b6040516330f2439960e21b81523060048201526001600160a01b03919091169063c3c90e649060240160206040518083038186803b15801561180857600080fd5b505afa15801561181c573d6000803e3d6000fd5b505050506040513d601f19601f820116820180604052508101906118409190612541565b6036541092915050565b6040516370a0823160e01b81523060048201526000907f00000000000000000000000000000000000000000000000000000000000000006001600160a01b0316906370a082319060240160206040518083038186803b1580156118ac57600080fd5b505afa1580156118c0573d6000803e3d6000fd5b505050506040513d601f19601f820116820180604052508101906118e49190612541565b90506118ee610c69565b6118f89082612587565b905061190261190c565b610d049082612587565b60007f00000000000000000000000000000000000000000000000000000000000000006001600160a01b031663f57df22e6040518163ffffffff1660e01b815260040160206040518083038186803b15801561196757600080fd5b505afa15801561197b573d6000803e3d6000fd5b505050506040513d601f19601f8201168201806040525081019061199f9190612524565b6040516330f2439960e21b81523060048201526001600160a01b03919091169063c3c90e6490602401610cb4565b60007f00000000000000000000000000000000000000000000000000000000000000006001600160a01b031663ea9b717e6040518163ffffffff1660e01b815260040160206040518083038186803b158015611a2857600080fd5b505afa158015611a3c573d6000803e3d6000fd5b505050506040513d601f19601f82011682018060405250810190611a609190612524565b6001600160a01b031663ccfb99356040518163ffffffff1660e01b815260040160206040518083038186803b158015610ccc57600080fd5b6000808211611ad65760405162461bcd60e51b815260206004820152600a6024820152696572726f72207061726160b01b60448201526064016103c5565b600080611ae28461152a565b9092509050600019821415611b2d5760405162461bcd60e51b81526020600482015260116024820152701c1bdbdb08125b9cdd59999a58da595b9d607a1b60448201526064016103c5565b6001198214611bb157604051636198e33960e01b8152600481018390527f00000000000000000000000000000000000000000000000000000000000000006001600160a01b031690636198e33990602401600060405180830381600087803b158015611b9857600080fd5b505af1158015611bac573d6000803e3d6000fd5b505050505b604051629f15d760e81b8152336004820152602481018590527f00000000000000000000000000000000000000000000000000000000000000006001600160a01b031690639f15d70090604401600060405180830381600087803b158015611c1857600080fd5b505af1158015611c2c573d6000803e3d6000fd5b50929695505050505050565b60006103e860345483611c4b919061259f565b611c5591906125be565b91508115611c9557603354611c95907f0000000000000000000000000000000000000000000000000000000000000000906001600160a01b0316846121a7565b611c9f8284612570565b9050611ccc7f000000000000000000000000000000000000000000000000000000000000000033836121a7565b92915050565b60008054610100900460ff1615611d19578160ff166001148015611cf55750303b155b611d115760405162461bcd60e51b81526004016103c5906125e0565b506000919050565b60005460ff808416911610611d405760405162461bcd60e51b81526004016103c5906125e0565b506000805460ff191660ff92909216919091179055600190565b600054610100900460ff16611d815760405162461bcd60e51b81526004016103c59061262e565b611d896121d7565b565b6040516001600160a01b0380851660248301528316604482015260648101829052611df69085906323b872dd60e01b906084015b60408051601f198184030181529190526020810180516001600160e01b03166001600160e01b031990931692909217909152612204565b50505050565b60007f00000000000000000000000000000000000000000000000000000000000000006001600160a01b031663f57df22e6040518163ffffffff1660e01b815260040160206040518083038186803b158015611e5757600080fd5b505afa158015611e6b573d6000803e3d6000fd5b505050506040513d601f19601f82011682018060405250810190611e8f9190612524565b9050806001600160a01b0316633d18b9126040518163ffffffff1660e01b8152600401600060405180830381600087803b158015611ecc57600080fd5b505af1158015611068573d6000803e3d6000fd5b6040516370a0823160e01b81523060048201526000907f00000000000000000000000000000000000000000000000000000000000000006001600160a01b0316906370a082319060240160206040518083038186803b158015611f4257600080fd5b505afa158015611f56573d6000803e3d6000fd5b505050506040513d601f19601f82011682018060405250810190611f7a9190612541565b90508060355410611f885750565b611fd37f00000000000000000000000000000000000000000000000000000000000000007f00000000000000000000000000000000000000000000000000000000000000008361207e565b6040516316a884d960e31b8152600481018290527f00000000000000000000000000000000000000000000000000000000000000006001600160a01b03169063b54426c890602401600060405180830381600087803b15801561203557600080fd5b505af1158015612049573d6000803e3d6000fd5b505050507f0f871d9141eb7956fd3128d64eedb6a59621c2221b36a7950075e1780a4cc4318160405161083b91815260200190565b8015806121075750604051636eb1769f60e11b81523060048201526001600160a01b03838116602483015284169063dd62ed3e9060440160206040518083038186803b1580156120cd57600080fd5b505afa1580156120e1573d6000803e3d6000fd5b505050506040513d601f19601f820116820180604052508101906121059190612541565b155b6121725760405162461bcd60e51b815260206004820152603660248201527f5361666545524332303a20617070726f76652066726f6d206e6f6e2d7a65726f60448201527520746f206e6f6e2d7a65726f20616c6c6f77616e636560501b60648201526084016103c5565b6040516001600160a01b0383166024820152604481018290526121a290849063095ea7b360e01b90606401611dbf565b505050565b6040516001600160a01b0383166024820152604481018290526121a290849063a9059cbb60e01b90606401611dbf565b600054610100900460ff166121fe5760405162461bcd60e51b81526004016103c59061262e565b60018055565b6000612259826040518060400160405280602081526020017f5361666545524332303a206c6f772d6c6576656c2063616c6c206661696c6564815250856001600160a01b03166122d69092919063ffffffff16565b8051909150156121a257808060200190518101906122779190612679565b6121a25760405162461bcd60e51b815260206004820152602a60248201527f5361666545524332303a204552433230206f7065726174696f6e20646964206e6044820152691bdd081cdd58d8d9595960b21b60648201526084016103c5565b60606122e584846000856122ef565b90505b9392505050565b6060824710156123505760405162461bcd60e51b815260206004820152602660248201527f416464726573733a20696e73756666696369656e742062616c616e636520666f6044820152651c8818d85b1b60d21b60648201526084016103c5565b6001600160a01b0385163b6123a75760405162461bcd60e51b815260206004820152601d60248201527f416464726573733a2063616c6c20746f206e6f6e2d636f6e747261637400000060448201526064016103c5565b600080866001600160a01b031685876040516123c391906126c7565b60006040518083038185875af1925050503d8060008114612400576040519150601f19603f3d011682016040523d82523d6000602084013e612405565b606091505b5091509150612415828286612420565b979650505050505050565b6060831561242f5750816122e8565b82511561243f5782518084602001fd5b8160405162461bcd60e51b81526004016103c591906126e3565b60006020828403121561246b57600080fd5b5035919050565b6000806040838503121561248557600080fd5b50508035926020909101359150565b6001600160a01b038116811461084457600080fd5b600080604083850312156124bc57600080fd5b82356124c781612494565b946020939093013593505050565b600080600080600060a086880312156124ed57600080fd5b8535945060208601359350604086013560ff8116811461250c57600080fd5b94979396509394606081013594506080013592915050565b60006020828403121561253657600080fd5b81516122e881612494565b60006020828403121561255357600080fd5b5051919050565b634e487b7160e01b600052601160045260246000fd5b6000828210156125825761258261255a565b500390565b6000821982111561259a5761259a61255a565b500190565b60008160001904831182151516156125b9576125b961255a565b500290565b6000826125db57634e487b7160e01b600052601260045260246000fd5b500490565b6020808252602e908201527f496e697469616c697a61626c653a20636f6e747261637420697320616c72656160408201526d191e481a5b9a5d1a585b1a5e995960921b606082015260800190565b6020808252602b908201527f496e697469616c697a61626c653a20636f6e7472616374206973206e6f74206960408201526a6e697469616c697a696e6760a81b606082015260800190565b60006020828403121561268b57600080fd5b815180151581146122e857600080fd5b60005b838110156126b657818101518382015260200161269e565b83811115611df65750506000910152565b600082516126d981846020870161269b565b9190910192915050565b602081526000825180602084015261270281604085016020870161269b565b601f01601f1916919091016040019291505056fea2646970667358221220cb080ee8f08224628c2558f4a6fc839d2d6684b85b04c357e9e3342e5e1030a964736f6c63430008090033",
  "devdoc": {
    "events": {
      "lock_to_gov(uint256)": {
        "params": {
          "_amount": "The amount which staked to gov staking contract"
        }
      },
      "with_draw(address,uint256,uint256,uint256)": {
        "params": {
          "_account": "The: address of user",
          "_profit": ": the profi of torn in this withdarw",
          "_token_qty": ": voucher of the deposit",
          "_torn": ": the amount of torn in this withdarw"
        }
      }
    },
    "kind": "dev",
    "methods": {
      "deposit(uint256,uint256,uint8,bytes32,bytes32)": {
        "params": {
          "_torn_qty": ": the amount of torn want to stake",
          "deadline": ",v,r,s  permit param*"
        }
      },
      "depositWithApproval(uint256)": {
        "details": "1. mint the voucher of the deposit. 2. TransferFrom TORN to this contract 3. recorde the raw 'price' of the voucher for compute profit 4. check the auto work to do 1.  isNeedTransfer2Queue 2.  isNeedClaimFromGov 3.  checkLock2Gov 4. or unlock for the gov prepare to Transfer2Queue*",
        "params": {
          "_token_qty": ": the amount of torn want to stake"
        }
      },
      "getValueShouldUnlock(uint256)": {
        "params": {
          "_token_qty": ":  the amount of the voucher return (shortage ,torn) shortage:  the shortage of TRON ,if the user want to with draw the _token_qty voucher 1. if the balance of TORN in this contract is enough return SUFFICIENT 2. if the balance of TORN added the lock balance in gov are not enough return IN_SUFFICIENT 3. others is the amount which show unlock for the withdrawing torn    :  the amount of TORN if the user with draw the qty of  _token_qty*"
        }
      },
      "setPara(uint256,uint256)": {
        "params": {
          "_index": "index para index 1 maxReserveTorn; index 2 _maxRewardInGov; index 3 _rewardAddress index 4 profitRatio  x/1000",
          "_value": "*"
        }
      },
      "stake2Node(uint256,uint256)": {
        "params": {
          "index": ": the index of the relayer",
          "qty": ": the amount of TORN to be stake*"
        }
      },
      "withDraw(uint256)": {
        "details": "inorder to save gas we had modified erc20 token which no need to approve*",
        "params": {
          "_token_qty": ":  the amount of the voucher"
        }
      },
      "withdraw_for_exit(address,uint256)": {
        "details": "because of nonReentrant have to supply this function for exitQueue return  the user got TORN which subbed the dev profit*",
        "params": {
          "_addr": ":  the addr of user",
          "_token_qty": ":  the amount of the voucher"
        }
      }
    },
    "title": "Deposit contract",
    "version": 1
  },
  "userdoc": {
    "events": {
      "lock_to_gov(uint256)": {
        "notice": "An event emitted when lock torn to gov staking contract"
      },
      "with_draw(address,uint256,uint256,uint256)": {
        "notice": "An event emitted when user withdraw"
      }
    },
    "kind": "user",
    "methods": {
      "IN_SUFFICIENT()": {
        "notice": "this  is the max uint256 , this flag is used to indicate insufficient"
      },
      "ROOT_DB()": {
        "notice": "the address of  torn ROOT_DB contract"
      },
      "SUFFICIENT()": {
        "notice": "this  is the max uint256 , this flag is used to indicate sufficient"
      },
      "TORN_CONTRACT()": {
        "notice": "the address of  torn token contract"
      },
      "TORN_GOVERNANCE_STAKING()": {
        "notice": "the address of  torn gov staking contract"
      },
      "TORN_RELAYER_REGISTRY()": {
        "notice": "the address of  torn relayer registry contract"
      },
      "deposit(uint256,uint256,uint8,bytes32,bytes32)": {
        "notice": "deposit used to deposit TORN to relayers dao  with permit param"
      },
      "depositWithApproval(uint256)": {
        "notice": "deposit used to deposit TORN to relayers dao  with approval"
      },
      "getValueShouldUnlock(uint256)": {
        "notice": "getValueShouldUnlock used to get the amount of TORN and the shortage of TORN"
      },
      "getValueShouldUnlockFromGov()": {
        "notice": "getValueShouldUnlockFromGov used get the Value should unlock from gov staking contract return 1. if noneed to unlock return 0 2. if there is not enough torn to unlock for exit queue retrun  IN_SUFFICIENT 3. other values are the value should to unlock*"
      },
      "isBalanceEnough(uint256)": {
        "notice": "isBalanceEnough  return whether is Enough TORN for user to withdraw the _token_qty*"
      },
      "isNeedClaimFromGov()": {
        "notice": "isNeedClaimFromGov used to check if the gov staking contract reward return   the staking reward is over maxRewardInGov ?*"
      },
      "isNeedTransfer2Queue()": {
        "notice": "isNeedTransfer2Queue used to check if need to Transfer torn to exit queue return   true if the balance of torn is over the next value*"
      },
      "maxReserveTorn()": {
        "notice": "the max torn in the Deposit contact ,if over this amount it will been  staking to gov staking contract"
      },
      "maxRewardInGov()": {
        "notice": "the max reward torn in  gov staking contract  ,if over this amount it will been claimed"
      },
      "profitRatio()": {
        "notice": "the ratio of  dev's rewards which is x/1000"
      },
      "rewardAddress()": {
        "notice": "the address of  dev's rewards"
      },
      "setPara(uint256,uint256)": {
        "notice": "setPara used to set parameters called by Operator"
      },
      "stake2Node(uint256,uint256)": {
        "notice": "stake2Node used to stake TORN to relayers  when it is necessary call by Operator"
      },
      "totalBalanceOfTorn()": {
        "notice": "totalBalanceOfTorn return  the total Balance Of  TORN which controlled  buy this contract*"
      },
      "withDraw(uint256)": {
        "notice": "used to  withdraw"
      },
      "withdraw_for_exit(address,uint256)": {
        "notice": "used to  withdraw"
      }
    },
    "notice": "this is a Deposit contract",
    "version": 1
  },
  "storageLayout": {
    "storage": [
      {
        "astId": 130,
        "contract": "contracts/Deposit.sol:Deposit",
        "label": "_initialized",
        "offset": 0,
        "slot": "0",
        "type": "t_uint8"
      },
      {
        "astId": 133,
        "contract": "contracts/Deposit.sol:Deposit",
        "label": "_initializing",
        "offset": 1,
        "slot": "0",
        "type": "t_bool"
      },
      {
        "astId": 279,
        "contract": "contracts/Deposit.sol:Deposit",
        "label": "_status",
        "offset": 0,
        "slot": "1",
        "type": "t_uint256"
      },
      {
        "astId": 323,
        "contract": "contracts/Deposit.sol:Deposit",
        "label": "__gap",
        "offset": 0,
        "slot": "2",
        "type": "t_array(t_uint256)49_storage"
      },
      {
        "astId": 3682,
        "contract": "contracts/Deposit.sol:Deposit",
        "label": "rewardAddress",
        "offset": 0,
        "slot": "51",
        "type": "t_address"
      },
      {
        "astId": 3685,
        "contract": "contracts/Deposit.sol:Deposit",
        "label": "profitRatio",
        "offset": 0,
        "slot": "52",
        "type": "t_uint256"
      },
      {
        "astId": 3688,
        "contract": "contracts/Deposit.sol:Deposit",
        "label": "maxReserveTorn",
        "offset": 0,
        "slot": "53",
        "type": "t_uint256"
      },
      {
        "astId": 3691,
        "contract": "contracts/Deposit.sol:Deposit",
        "label": "maxRewardInGov",
        "offset": 0,
        "slot": "54",
        "type": "t_uint256"
      }
    ],
    "types": {
      "t_address": {
        "encoding": "inplace",
        "label": "address",
        "numberOfBytes": "20"
      },
      "t_array(t_uint256)49_storage": {
        "base": "t_uint256",
        "encoding": "inplace",
        "label": "uint256[49]",
        "numberOfBytes": "1568"
      },
      "t_bool": {
        "encoding": "inplace",
        "label": "bool",
        "numberOfBytes": "1"
      },
      "t_uint256": {
        "encoding": "inplace",
        "label": "uint256",
        "numberOfBytes": "32"
      },
      "t_uint8": {
        "encoding": "inplace",
        "label": "uint8",
        "numberOfBytes": "1"
      }
    }
  }
}