{
  "address": "0x252b0b182B2322058ddeFF02c0fdb076ea08Fa85",
  "abi": [
    {
      "inputs": [
        {
          "internalType": "address",
          "name": "tornContract",
          "type": "address"
        },
        {
          "internalType": "address",
          "name": "tornGovStaking",
          "type": "address"
        },
        {
          "internalType": "address",
          "name": "tornRelayerRegistry",
          "type": "address"
        },
        {
          "internalType": "address",
          "name": "rootDb",
          "type": "address"
        }
      ],
      "stateMutability": "nonpayable",
      "type": "constructor"
    },
    {
      "anonymous": false,
      "inputs": [
        {
          "indexed": true,
          "internalType": "address",
          "name": "account",
          "type": "address"
        },
        {
          "indexed": false,
          "internalType": "uint256",
          "name": "torn",
          "type": "uint256"
        }
      ],
      "name": "Deposit",
      "type": "event"
    },
    {
      "anonymous": false,
      "inputs": [
        {
          "indexed": false,
          "internalType": "uint8",
          "name": "version",
          "type": "uint8"
        }
      ],
      "name": "Initialized",
      "type": "event"
    },
    {
      "anonymous": false,
      "inputs": [
        {
          "indexed": false,
          "internalType": "uint256",
          "name": "amount",
          "type": "uint256"
        }
      ],
      "name": "LockToGov",
      "type": "event"
    },
    {
      "anonymous": false,
      "inputs": [
        {
          "indexed": false,
          "internalType": "uint256",
          "name": "amount",
          "type": "uint256"
        }
      ],
      "name": "UnLockGov",
      "type": "event"
    },
    {
      "anonymous": false,
      "inputs": [
        {
          "indexed": true,
          "internalType": "address",
          "name": "account",
          "type": "address"
        },
        {
          "indexed": false,
          "internalType": "uint256",
          "name": "tokenQty",
          "type": "uint256"
        },
        {
          "indexed": false,
          "internalType": "uint256",
          "name": "torn",
          "type": "uint256"
        },
        {
          "indexed": false,
          "internalType": "uint256",
          "name": "profit",
          "type": "uint256"
        }
      ],
      "name": "WithDraw",
      "type": "event"
    },
    {
      "inputs": [],
      "name": "IN_SUFFICIENT",
      "outputs": [
        {
          "internalType": "uint256",
          "name": "",
          "type": "uint256"
        }
      ],
      "stateMutability": "view",
      "type": "function"
    },
    {
      "inputs": [],
      "name": "ROOT_DB",
      "outputs": [
        {
          "internalType": "address",
          "name": "",
          "type": "address"
        }
      ],
      "stateMutability": "view",
      "type": "function"
    },
    {
      "inputs": [],
      "name": "SUFFICIENT",
      "outputs": [
        {
          "internalType": "uint256",
          "name": "",
          "type": "uint256"
        }
      ],
      "stateMutability": "view",
      "type": "function"
    },
    {
      "inputs": [],
      "name": "TORN_CONTRACT",
      "outputs": [
        {
          "internalType": "address",
          "name": "",
          "type": "address"
        }
      ],
      "stateMutability": "view",
      "type": "function"
    },
    {
      "inputs": [],
      "name": "TORN_GOVERNANCE_STAKING",
      "outputs": [
        {
          "internalType": "address",
          "name": "",
          "type": "address"
        }
      ],
      "stateMutability": "view",
      "type": "function"
    },
    {
      "inputs": [],
      "name": "TORN_RELAYER_REGISTRY",
      "outputs": [
        {
          "internalType": "address",
          "name": "",
          "type": "address"
        }
      ],
      "stateMutability": "view",
      "type": "function"
    },
    {
      "inputs": [],
      "name": "__Deposit_init",
      "outputs": [],
      "stateMutability": "nonpayable",
      "type": "function"
    },
    {
      "inputs": [],
      "name": "balanceOfStakingOnGov",
      "outputs": [
        {
          "internalType": "uint256",
          "name": "",
          "type": "uint256"
        }
      ],
      "stateMutability": "view",
      "type": "function"
    },
    {
      "inputs": [],
      "name": "checkRewardOnGov",
      "outputs": [
        {
          "internalType": "uint256",
          "name": "",
          "type": "uint256"
        }
      ],
      "stateMutability": "view",
      "type": "function"
    },
    {
      "inputs": [
        {
          "internalType": "uint256",
          "name": "tornQty",
          "type": "uint256"
        },
        {
          "internalType": "uint256",
          "name": "deadline",
          "type": "uint256"
        },
        {
          "internalType": "uint8",
          "name": "v",
          "type": "uint8"
        },
        {
          "internalType": "bytes32",
          "name": "r",
          "type": "bytes32"
        },
        {
          "internalType": "bytes32",
          "name": "s",
          "type": "bytes32"
        }
      ],
      "name": "deposit",
      "outputs": [],
      "stateMutability": "nonpayable",
      "type": "function"
    },
    {
      "inputs": [
        {
          "internalType": "uint256",
          "name": "tornQty",
          "type": "uint256"
        }
      ],
      "name": "depositWithApproval",
      "outputs": [],
      "stateMutability": "nonpayable",
      "type": "function"
    },
    {
      "inputs": [
        {
          "internalType": "uint256",
          "name": "tokenQty",
          "type": "uint256"
        }
      ],
      "name": "getValueShouldUnlock",
      "outputs": [
        {
          "internalType": "uint256",
          "name": "shortage",
          "type": "uint256"
        },
        {
          "internalType": "uint256",
          "name": "torn",
          "type": "uint256"
        }
      ],
      "stateMutability": "view",
      "type": "function"
    },
    {
      "inputs": [],
      "name": "getValueShouldUnlockFromGov",
      "outputs": [
        {
          "internalType": "uint256",
          "name": "",
          "type": "uint256"
        }
      ],
      "stateMutability": "view",
      "type": "function"
    },
    {
      "inputs": [
        {
          "internalType": "uint256",
          "name": "tokenQty",
          "type": "uint256"
        }
      ],
      "name": "isBalanceEnough",
      "outputs": [
        {
          "internalType": "bool",
          "name": "",
          "type": "bool"
        }
      ],
      "stateMutability": "view",
      "type": "function"
    },
    {
      "inputs": [],
      "name": "isNeedClaimFromGov",
      "outputs": [
        {
          "internalType": "bool",
          "name": "",
          "type": "bool"
        }
      ],
      "stateMutability": "view",
      "type": "function"
    },
    {
      "inputs": [],
      "name": "isNeedTransfer2Queue",
      "outputs": [
        {
          "internalType": "bool",
          "name": "",
          "type": "bool"
        }
      ],
      "stateMutability": "view",
      "type": "function"
    },
    {
      "inputs": [],
      "name": "maxReserveTorn",
      "outputs": [
        {
          "internalType": "uint256",
          "name": "",
          "type": "uint256"
        }
      ],
      "stateMutability": "view",
      "type": "function"
    },
    {
      "inputs": [],
      "name": "maxRewardInGov",
      "outputs": [
        {
          "internalType": "uint256",
          "name": "",
          "type": "uint256"
        }
      ],
      "stateMutability": "view",
      "type": "function"
    },
    {
      "inputs": [],
      "name": "profitRatio",
      "outputs": [
        {
          "internalType": "uint256",
          "name": "",
          "type": "uint256"
        }
      ],
      "stateMutability": "view",
      "type": "function"
    },
    {
      "inputs": [],
      "name": "rewardAddress",
      "outputs": [
        {
          "internalType": "address",
          "name": "",
          "type": "address"
        }
      ],
      "stateMutability": "view",
      "type": "function"
    },
    {
      "inputs": [
        {
          "internalType": "uint256",
          "name": "index",
          "type": "uint256"
        },
        {
          "internalType": "uint256",
          "name": "value",
          "type": "uint256"
        }
      ],
      "name": "setPara",
      "outputs": [],
      "stateMutability": "nonpayable",
      "type": "function"
    },
    {
      "inputs": [
        {
          "internalType": "uint256",
          "name": "profit",
          "type": "uint256"
        }
      ],
      "name": "setProfitRatio",
      "outputs": [],
      "stateMutability": "nonpayable",
      "type": "function"
    },
    {
      "inputs": [
        {
          "internalType": "uint256",
          "name": "index",
          "type": "uint256"
        },
        {
          "internalType": "uint256",
          "name": "tornQty",
          "type": "uint256"
        }
      ],
      "name": "stake2Node",
      "outputs": [],
      "stateMutability": "nonpayable",
      "type": "function"
    },
    {
      "inputs": [],
      "name": "totalBalanceOfTorn",
      "outputs": [
        {
          "internalType": "uint256",
          "name": "ret",
          "type": "uint256"
        }
      ],
      "stateMutability": "view",
      "type": "function"
    },
    {
      "inputs": [
        {
          "internalType": "uint256",
          "name": "tokenQty",
          "type": "uint256"
        }
      ],
      "name": "withDraw",
      "outputs": [],
      "stateMutability": "nonpayable",
      "type": "function"
    },
    {
      "inputs": [
        {
          "internalType": "address",
          "name": "addr",
          "type": "address"
        },
        {
          "internalType": "uint256",
          "name": "tokenQty",
          "type": "uint256"
        }
      ],
      "name": "withdraw_for_exit",
      "outputs": [
        {
          "internalType": "uint256",
          "name": "ret",
          "type": "uint256"
        }
      ],
      "stateMutability": "nonpayable",
      "type": "function"
    }
  ],
  "transactionHash": "0x732e8296ffcdd8e575cfb2ca3133a5b9b3c5b7aae50879e9e0743854a3c22ae7",
  "args": [
    "0x77777FeDdddFfC19Ff86DB637967013e6C6A116C",
    "0x5efda50f22d34f262c29268506c5fa42cb56a1ce",
    "0x58E8dCC13BE9780fC42E8723D8EaD4CF46943dF2",
    "0x2fB6ac90378d4065a0D750cE42CDDD7E85835609"
  ],
  "numDeployments": 1,
  "solcInputHash": "f0590167a7ba6549198152e14824c726",
  "bytecode": "0x6101006040523480156200001257600080fd5b5060405162002c1f38038062002c1f833981016040819052620000359162000075565b6001600160a01b0393841660805291831660a052821660c0521660e052620000d2565b80516001600160a01b03811681146200007057600080fd5b919050565b600080600080608085870312156200008c57600080fd5b620000978562000058565b9350620000a76020860162000058565b9250620000b76040860162000058565b9150620000c76060860162000058565b905092959194509250565b60805160a05160c05160e051612a026200021d600039600081816101ad0152818161044c015281816105ca015281816109b901528181610a6701528181610bb101528181610d9d01528181610f350152818161102801528181611294015281816113950152818161196c01528181611d5d0152611f58015260008181610339015281816115ed015261163801526000818161036001528181610cf101528181610ea9015281816115280152818161181c01528181611a1a01528181611ac401528181611c9c01528181611ed801528181612104015281816122b201526122ed0152600081816102240152818161076201528181610a3e0152818161121e01528181611477015281816115cc015281816116cc01528181611778015281816118da01528181611bee01528181611ff201528181612032015281816121fc01526122910152612a026000f3fe608060405234801561001057600080fd5b506004361061018e5760003560e01c80638cf57cb9116100de578063b90a63fa11610097578063e2e622cd11610071578063e2e622cd14610382578063f245e6a01461038a578063fc4c0aec14610393578063fff5ea941461039b57600080fd5b8063b90a63fa1461032c578063b91476f214610334578063c866880e1461035b57600080fd5b80638cf57cb9146102c45780639615d2ba146102d7578063a0779c2f146102e0578063a9fda201146102f3578063adba6bb6146102fb578063b6f4e79a1461032357600080fd5b80633a542c281161014b578063546cee9411610125578063546cee9414610282578063727784fe146102955780637e34dbe0146102a85780638576e0a6146102bb57600080fd5b80633a542c2814610246578063438b7b991461025957806351e48baf1461026c57600080fd5b806314174f331461019357806314411a2a146101a85780632224db44146101ec57806322f97b5e146101ff5780632f5dcf031461021757806331e819211461021f575b600080fd5b6101a66101a136600461275d565b6103a4565b005b6101cf7f000000000000000000000000000000000000000000000000000000000000000081565b6040516001600160a01b0390911681526020015b60405180910390f35b6101a66101fa366004612776565b6105c8565b610207610731565b60405190151581526020016101e3565b6101a66107eb565b6101cf7f000000000000000000000000000000000000000000000000000000000000000081565b6101a661025436600461275d565b6108fd565b6101a661026736600461275d565b610d9b565b610274610e91565b6040519081526020016101e3565b6102746102903660046127ad565b610f31565b6102076102a336600461275d565b6111b0565b6101a66102b63660046127d9565b6111de565b61027460001981565b6033546101cf906001600160a01b031681565b61027460355481565b6101a66102ee366004612776565b611292565b61027461169a565b61030e61030936600461275d565b6118b6565b604080519283526020830191909152016101e3565b61027460011981565b610207611abf565b6101cf7f000000000000000000000000000000000000000000000000000000000000000081565b6101cf7f000000000000000000000000000000000000000000000000000000000000000081565b610274611bd6565b61027460365481565b610274611c98565b61027460345481565b600260015414156103fc5760405162461bcd60e51b815260206004820152601f60248201527f5265656e7472616e637947756172643a207265656e7472616e742063616c6c0060448201526064015b60405180910390fd5b6002600155610409611d59565b156104485760405162461bcd60e51b815260206004820152600f60248201526e5175657565206e6f7420656d70747960881b60448201526064016103f3565b60007f00000000000000000000000000000000000000000000000000000000000000006001600160a01b031663d543ce0e6040518163ffffffff1660e01b815260040160206040518083038186803b1580156104a357600080fd5b505afa1580156104b7573d6000803e3d6000fd5b505050506040513d601f19601f820116820180604052508101906104db9190612828565b60405163191e2e8360e01b8152336004820152602481018490529091506000906001600160a01b0383169063191e2e8390604401602060405180830381600087803b15801561052957600080fd5b505af115801561053d573d6000803e3d6000fd5b505050506040513d601f19601f820116820180604052508101906105619190612845565b9050600061056e84611e24565b905061057a8183611fc4565b50604080518581526020810183905290810183905233907fbf79b1192913bd26b5198d852f8a38b4852fa1ac348957e63ffecd43ad427b589060600160405180910390a25050600180555050565b7f00000000000000000000000000000000000000000000000000000000000000006001600160a01b031663570ca7356040518163ffffffff1660e01b815260040160206040518083038186803b15801561062157600080fd5b505afa158015610635573d6000803e3d6000fd5b505050506040513d601f19601f820116820180604052508101906106599190612828565b6001600160a01b0316336001600160a01b0316146106b25760405162461bcd60e51b815260206004820152601660248201527521b0b63632b91034b9903737ba1037b832b930ba37b960511b60448201526064016103f3565b81600114156106c15760355550565b81600214156106d05760365550565b81600314156106f857603380546001600160a01b0319166001600160a01b0383161790555050565b60405162461bcd60e51b815260206004820152600e60248201526d092dcecc2d8d2c840bed2dcc8caf60931b60448201526064016103f3565b60008061073c611d59565b90508061074b57600091505090565b6040516370a0823160e01b815230600482015281907f00000000000000000000000000000000000000000000000000000000000000006001600160a01b0316906370a082319060240160206040518083038186803b1580156107ac57600080fd5b505afa1580156107c0573d6000803e3d6000fd5b505050506040513d601f19601f820116820180604052508101906107e49190612845565b1191505090565b600054610100900460ff161580801561080b5750600054600160ff909116105b806108255750303b158015610825575060005460ff166001145b6108885760405162461bcd60e51b815260206004820152602e60248201527f496e697469616c697a61626c653a20636f6e747261637420697320616c72656160448201526d191e481a5b9a5d1a585b1a5e995960921b60648201526084016103f3565b6000805460ff1916600117905580156108ab576000805461ff0019166101001790555b6108b361205e565b80156108fa576000805461ff0019169055604051600181527f7f26b83ff96e1f2b6a682f133852f6798a09c465da95921460cefb3847402498906020015b60405180910390a15b50565b600260015414156109505760405162461bcd60e51b815260206004820152601f60248201527f5265656e7472616e637947756172643a207265656e7472616e742063616c6c0060448201526064016103f3565b600260015533816109905760405162461bcd60e51b815260206004820152600a6024820152696572726f72207061726160b01b60448201526064016103f3565b604051632851206560e21b81526001600160a01b038281166004830152602482018490526000917f00000000000000000000000000000000000000000000000000000000000000009091169063a144819490604401602060405180830381600087803b1580156109ff57600080fd5b505af1158015610a13573d6000803e3d6000fd5b505050506040513d601f19601f82011682018060405250810190610a379190612845565b9050610a657f000000000000000000000000000000000000000000000000000000000000000083308661208f565b7f00000000000000000000000000000000000000000000000000000000000000006001600160a01b031663d543ce0e6040518163ffffffff1660e01b815260040160206040518083038186803b158015610abe57600080fd5b505afa158015610ad2573d6000803e3d6000fd5b505050506040513d601f19601f82011682018060405250810190610af69190612828565b604051630efe6a8b60e01b815233600482015260248101859052604481018390526001600160a01b039190911690630efe6a8b90606401600060405180830381600087803b158015610b4757600080fd5b505af1158015610b5b573d6000803e3d6000fd5b50505050816001600160a01b03167fe1fffcc4923d04b559f4d29a8bfc6cda04eb5b0d3c460751c2402c5c5cc9109c84604051610b9a91815260200190565b60405180910390a2610baa610731565b15610c97577f00000000000000000000000000000000000000000000000000000000000000006001600160a01b031663ea9b717e6040518163ffffffff1660e01b815260040160206040518083038186803b158015610c0857600080fd5b505afa158015610c1c573d6000803e3d6000fd5b505050506040513d601f19601f82011682018060405250810190610c409190612828565b6001600160a01b031663a4ec69386040518163ffffffff1660e01b8152600401600060405180830381600087803b158015610c7a57600080fd5b505af1158015610c8e573d6000803e3d6000fd5b50505050610d91565b610c9f611abf565b15610cb157610cac612100565b610d91565b6000610cbb61169a565b905080610cd257610cca6121e4565b505050610d94565b6000198114610d8f57604051636198e33960e01b8152600481018290527f00000000000000000000000000000000000000000000000000000000000000006001600160a01b031690636198e33990602401600060405180830381600087803b158015610d3d57600080fd5b505af1158015610d51573d6000803e3d6000fd5b505050507f937caad9b604434c5f732ab4b1996a4d11f6be2fb8c9c192195bff75c65334a381604051610d8691815260200190565b60405180910390a15b505b50505b5060018055565b7f00000000000000000000000000000000000000000000000000000000000000006001600160a01b03166389c8c5146040518163ffffffff1660e01b815260040160206040518083038186803b158015610df457600080fd5b505afa158015610e08573d6000803e3d6000fd5b505050506040513d601f19601f82011682018060405250810190610e2c9190612828565b6001600160a01b0316336001600160a01b031614610e8c5760405162461bcd60e51b815260206004820152601e60248201527f63616c6c6572206973206e6f7420546f726e61646f206d756c7469736967000060448201526064016103f3565b603455565b604051639ae697bf60e01b81523060048201526000907f00000000000000000000000000000000000000000000000000000000000000006001600160a01b031690639ae697bf906024015b60206040518083038186803b158015610ef457600080fd5b505afa158015610f08573d6000803e3d6000fd5b505050506040513d601f19601f82011682018060405250810190610f2c9190612845565b905090565b60007f00000000000000000000000000000000000000000000000000000000000000006001600160a01b031663ea9b717e6040518163ffffffff1660e01b815260040160206040518083038186803b158015610f8c57600080fd5b505afa158015610fa0573d6000803e3d6000fd5b505050506040513d601f19601f82011682018060405250810190610fc49190612828565b6001600160a01b0316336001600160a01b0316146110245760405162461bcd60e51b815260206004820152601760248201527f43616c6c6572206973206e6f742065786974517565756500000000000000000060448201526064016103f3565b60007f00000000000000000000000000000000000000000000000000000000000000006001600160a01b031663d543ce0e6040518163ffffffff1660e01b815260040160206040518083038186803b15801561107f57600080fd5b505afa158015611093573d6000803e3d6000fd5b505050506040513d601f19601f820116820180604052508101906110b79190612828565b60405163191e2e8360e01b81526001600160a01b0386811660048301526024820186905291925060009183169063191e2e8390604401602060405180830381600087803b15801561110757600080fd5b505af115801561111b573d6000803e3d6000fd5b505050506040513d601f19601f8201168201806040525081019061113f9190612845565b9050600061114c85611e24565b90506111588183611fc4565b60408051878152602081018490529081018490529094506001600160a01b038716907fbf79b1192913bd26b5198d852f8a38b4852fa1ac348957e63ffecd43ad427b589060600160405180910390a250505092915050565b60006111ba611d59565b156111c757506000919050565b60006111d2836118b6565b50600019119392505050565b60405163d505accf60e01b8152336004820152306024820152604481018690526064810185905260ff8416608482015260a4810183905260c481018290527f00000000000000000000000000000000000000000000000000000000000000006001600160a01b03169063d505accf9060e401600060405180830381600087803b15801561126a57600080fd5b505af115801561127e573d6000803e3d6000fd5b5050505061128b856108fd565b5050505050565b7f00000000000000000000000000000000000000000000000000000000000000006001600160a01b031663570ca7356040518163ffffffff1660e01b815260040160206040518083038186803b1580156112eb57600080fd5b505afa1580156112ff573d6000803e3d6000fd5b505050506040513d601f19601f820116820180604052508101906113239190612828565b6001600160a01b0316336001600160a01b03161461137c5760405162461bcd60e51b815260206004820152601660248201527521b0b63632b91034b9903737ba1037b832b930ba37b960511b60448201526064016103f3565b604051631c1eeaf160e31b8152600481018390526000907f00000000000000000000000000000000000000000000000000000000000000006001600160a01b03169063e0f757889060240160206040518083038186803b1580156113df57600080fd5b505afa1580156113f3573d6000803e3d6000fd5b505050506040513d601f19601f820116820180604052508101906114179190612828565b90506001600160a01b03811661145f5760405162461bcd60e51b815260206004820152600d60248201526c092dcecc2d8d2c840d2dcc8caf609b1b60448201526064016103f3565b6040516370a0823160e01b81523060048201526000907f00000000000000000000000000000000000000000000000000000000000000006001600160a01b0316906370a082319060240160206040518083038186803b1580156114c157600080fd5b505afa1580156114d5573d6000803e3d6000fd5b505050506040513d601f19601f820116820180604052508101906114f99190612845565b9050828110156115c757600061150f8285612874565b604051636198e33960e01b8152600481018290529091507f00000000000000000000000000000000000000000000000000000000000000006001600160a01b031690636198e33990602401600060405180830381600087803b15801561157457600080fd5b505af1158015611588573d6000803e3d6000fd5b505050507f937caad9b604434c5f732ab4b1996a4d11f6be2fb8c9c192195bff75c65334a3816040516115bd91815260200190565b60405180910390a1505b6116127f00000000000000000000000000000000000000000000000000000000000000007f000000000000000000000000000000000000000000000000000000000000000085612382565b60405163d990231d60e01b81526001600160a01b038381166004830152602482018590527f0000000000000000000000000000000000000000000000000000000000000000169063d990231d90604401600060405180830381600087803b15801561167c57600080fd5b505af1158015611690573d6000803e3d6000fd5b5050505050505050565b6000806116a5611d59565b9050806116b457600091505090565b6040516370a0823160e01b81523060048201526000907f00000000000000000000000000000000000000000000000000000000000000006001600160a01b0316906370a082319060240160206040518083038186803b15801561171657600080fd5b505afa15801561172a573d6000803e3d6000fd5b505050506040513d601f19601f8201168201806040525081019061174e9190612845565b90508082116117605760009250505090565b6040516370a0823160e01b81523060048201526000907f00000000000000000000000000000000000000000000000000000000000000006001600160a01b0316906370a082319060240160206040518083038186803b1580156117c257600080fd5b505afa1580156117d6573d6000803e3d6000fd5b505050506040513d601f19601f820116820180604052508101906117fa9190612845565b6118049084612874565b604051639ae697bf60e01b81523060048201529091507f00000000000000000000000000000000000000000000000000000000000000006001600160a01b031690639ae697bf9060240160206040518083038186803b15801561186657600080fd5b505afa15801561187a573d6000803e3d6000fd5b505050506040513d601f19601f8201168201806040525081019061189e9190612845565b81116118ab579392505050565b600019935050505090565b6040516370a0823160e01b8152306004820152600090819081906001600160a01b037f000000000000000000000000000000000000000000000000000000000000000016906370a082319060240160206040518083038186803b15801561191c57600080fd5b505afa158015611930573d6000803e3d6000fd5b505050506040513d601f19601f820116820180604052508101906119549190612845565b6040516272e6bd60e41b8152600481018690529091507f00000000000000000000000000000000000000000000000000000000000000006001600160a01b03169063072e6bd09060240160206040518083038186803b1580156119b657600080fd5b505afa1580156119ca573d6000803e3d6000fd5b505050506040513d601f19601f820116820180604052508101906119ee9190612845565b9150818110611a0257600119925050915091565b604051639ae697bf60e01b81523060048201526000907f00000000000000000000000000000000000000000000000000000000000000006001600160a01b031690639ae697bf9060240160206040518083038186803b158015611a6457600080fd5b505afa158015611a78573d6000803e3d6000fd5b505050506040513d601f19601f82011682018060405250810190611a9c9190612845565b9050611aa88284612874565b935083811015611ab85760001993505b5050915091565b6000807f00000000000000000000000000000000000000000000000000000000000000006001600160a01b031663f57df22e6040518163ffffffff1660e01b815260040160206040518083038186803b158015611b1b57600080fd5b505afa158015611b2f573d6000803e3d6000fd5b505050506040513d601f19601f82011682018060405250810190611b539190612828565b6040516330f2439960e21b81523060048201526001600160a01b03919091169063c3c90e649060240160206040518083038186803b158015611b9457600080fd5b505afa158015611ba8573d6000803e3d6000fd5b505050506040513d601f19601f82011682018060405250810190611bcc9190612845565b6036541092915050565b6040516370a0823160e01b81523060048201526000907f00000000000000000000000000000000000000000000000000000000000000006001600160a01b0316906370a082319060240160206040518083038186803b158015611c3857600080fd5b505afa158015611c4c573d6000803e3d6000fd5b505050506040513d601f19601f82011682018060405250810190611c709190612845565b9050611c7a610e91565b611c84908261288b565b9050611c8e611c98565b610f2c908261288b565b60007f00000000000000000000000000000000000000000000000000000000000000006001600160a01b031663f57df22e6040518163ffffffff1660e01b815260040160206040518083038186803b158015611cf357600080fd5b505afa158015611d07573d6000803e3d6000fd5b505050506040513d601f19601f82011682018060405250810190611d2b9190612828565b6040516330f2439960e21b81523060048201526001600160a01b03919091169063c3c90e6490602401610edc565b60007f00000000000000000000000000000000000000000000000000000000000000006001600160a01b031663ea9b717e6040518163ffffffff1660e01b815260040160206040518083038186803b158015611db457600080fd5b505afa158015611dc8573d6000803e3d6000fd5b505050506040513d601f19601f82011682018060405250810190611dec9190612828565b6001600160a01b031663ccfb99356040518163ffffffff1660e01b815260040160206040518083038186803b158015610ef457600080fd5b6000808211611e625760405162461bcd60e51b815260206004820152600a6024820152696572726f72207061726160b01b60448201526064016103f3565b600080611e6e846118b6565b9092509050600019821415611eb95760405162461bcd60e51b81526020600482015260116024820152701c1bdbdb08125b9cdd59999a58da595b9d607a1b60448201526064016103f3565b6001198214611f3d57604051636198e33960e01b8152600481018390527f00000000000000000000000000000000000000000000000000000000000000006001600160a01b031690636198e33990602401600060405180830381600087803b158015611f2457600080fd5b505af1158015611f38573d6000803e3d6000fd5b505050505b604051629f15d760e81b8152336004820152602481018590527f00000000000000000000000000000000000000000000000000000000000000006001600160a01b031690639f15d70090604401600060405180830381600087803b158015611fa457600080fd5b505af1158015611fb8573d6000803e3d6000fd5b50929695505050505050565b60006103e860345483611fd791906128a3565b611fe191906128c2565b9150811561202157603354612021907f0000000000000000000000000000000000000000000000000000000000000000906001600160a01b0316846124ab565b61202b8284612874565b90506120587f000000000000000000000000000000000000000000000000000000000000000033836124ab565b92915050565b600054610100900460ff166120855760405162461bcd60e51b81526004016103f3906128e4565b61208d6124db565b565b6040516001600160a01b03808516602483015283166044820152606481018290526120fa9085906323b872dd60e01b906084015b60408051601f198184030181529190526020810180516001600160e01b03166001600160e01b031990931692909217909152612508565b50505050565b60007f00000000000000000000000000000000000000000000000000000000000000006001600160a01b031663f57df22e6040518163ffffffff1660e01b815260040160206040518083038186803b15801561215b57600080fd5b505afa15801561216f573d6000803e3d6000fd5b505050506040513d601f19601f820116820180604052508101906121939190612828565b9050806001600160a01b0316633d18b9126040518163ffffffff1660e01b8152600401600060405180830381600087803b1580156121d057600080fd5b505af115801561128b573d6000803e3d6000fd5b6040516370a0823160e01b81523060048201526000907f00000000000000000000000000000000000000000000000000000000000000006001600160a01b0316906370a082319060240160206040518083038186803b15801561224657600080fd5b505afa15801561225a573d6000803e3d6000fd5b505050506040513d601f19601f8201168201806040525081019061227e9190612845565b9050806035541061228c5750565b6122d77f00000000000000000000000000000000000000000000000000000000000000007f000000000000000000000000000000000000000000000000000000000000000083612382565b6040516316a884d960e31b8152600481018290527f00000000000000000000000000000000000000000000000000000000000000006001600160a01b03169063b54426c890602401600060405180830381600087803b15801561233957600080fd5b505af115801561234d573d6000803e3d6000fd5b505050507ff4f89d0d5b4f6b996b694c2050fbbeda5cbf5749abe680d584ff9728195dd6e1816040516108f191815260200190565b80158061240b5750604051636eb1769f60e11b81523060048201526001600160a01b03838116602483015284169063dd62ed3e9060440160206040518083038186803b1580156123d157600080fd5b505afa1580156123e5573d6000803e3d6000fd5b505050506040513d601f19601f820116820180604052508101906124099190612845565b155b6124765760405162461bcd60e51b815260206004820152603660248201527f5361666545524332303a20617070726f76652066726f6d206e6f6e2d7a65726f60448201527520746f206e6f6e2d7a65726f20616c6c6f77616e636560501b60648201526084016103f3565b6040516001600160a01b0383166024820152604481018290526124a690849063095ea7b360e01b906064016120c3565b505050565b6040516001600160a01b0383166024820152604481018290526124a690849063a9059cbb60e01b906064016120c3565b600054610100900460ff166125025760405162461bcd60e51b81526004016103f3906128e4565b60018055565b600061255d826040518060400160405280602081526020017f5361666545524332303a206c6f772d6c6576656c2063616c6c206661696c6564815250856001600160a01b03166125da9092919063ffffffff16565b8051909150156124a6578080602001905181019061257b919061292f565b6124a65760405162461bcd60e51b815260206004820152602a60248201527f5361666545524332303a204552433230206f7065726174696f6e20646964206e6044820152691bdd081cdd58d8d9595960b21b60648201526084016103f3565b60606125e984846000856125f3565b90505b9392505050565b6060824710156126545760405162461bcd60e51b815260206004820152602660248201527f416464726573733a20696e73756666696369656e742062616c616e636520666f6044820152651c8818d85b1b60d21b60648201526084016103f3565b6001600160a01b0385163b6126ab5760405162461bcd60e51b815260206004820152601d60248201527f416464726573733a2063616c6c20746f206e6f6e2d636f6e747261637400000060448201526064016103f3565b600080866001600160a01b031685876040516126c7919061297d565b60006040518083038185875af1925050503d8060008114612704576040519150601f19603f3d011682016040523d82523d6000602084013e612709565b606091505b5091509150612719828286612724565b979650505050505050565b606083156127335750816125ec565b8251156127435782518084602001fd5b8160405162461bcd60e51b81526004016103f39190612999565b60006020828403121561276f57600080fd5b5035919050565b6000806040838503121561278957600080fd5b50508035926020909101359150565b6001600160a01b03811681146108fa57600080fd5b600080604083850312156127c057600080fd5b82356127cb81612798565b946020939093013593505050565b600080600080600060a086880312156127f157600080fd5b8535945060208601359350604086013560ff8116811461281057600080fd5b94979396509394606081013594506080013592915050565b60006020828403121561283a57600080fd5b81516125ec81612798565b60006020828403121561285757600080fd5b5051919050565b634e487b7160e01b600052601160045260246000fd5b6000828210156128865761288661285e565b500390565b6000821982111561289e5761289e61285e565b500190565b60008160001904831182151516156128bd576128bd61285e565b500290565b6000826128df57634e487b7160e01b600052601260045260246000fd5b500490565b6020808252602b908201527f496e697469616c697a61626c653a20636f6e7472616374206973206e6f74206960408201526a6e697469616c697a696e6760a81b606082015260800190565b60006020828403121561294157600080fd5b815180151581146125ec57600080fd5b60005b8381101561296c578181015183820152602001612954565b838111156120fa5750506000910152565b6000825161298f818460208701612951565b9190910192915050565b60208152600082518060208401526129b8816040850160208701612951565b601f01601f1916919091016040019291505056fea2646970667358221220af4ecd7c6c3702ff60e07694c60f1d399e43e1c3c39874f9027be9a6db25310264736f6c63430008090033",
  "devdoc": {
    "events": {
      "Deposit(address,uint256)": {
        "params": {
          "account": "The: address of user",
          "torn": ": TORN of the deposit"
        }
      },
      "LockToGov(uint256)": {
        "params": {
          "amount": "The amount which staked to gov staking contract"
        }
      },
      "UnLockGov(uint256)": {
        "params": {
          "amount": "The amount which staked to gov staking contract"
        }
      },
      "WithDraw(address,uint256,uint256,uint256)": {
        "params": {
          "account": "The: address of user",
          "profit": ": the profi of torn in this withdarw",
          "tokenQty": ": voucher of the deposit",
          "torn": ": the amount of torn in this withdarw"
        }
      }
    },
    "kind": "dev",
    "methods": {
      "deposit(uint256,uint256,uint8,bytes32,bytes32)": {
        "params": {
          "deadline": ",v,r,s  permit param*",
          "tornQty": ": the amount of torn want to stake"
        }
      },
      "depositWithApproval(uint256)": {
        "details": "1. mint the voucher of the deposit. 2. TransferFrom TORN to this contract 3. recorde the raw 'price' of the voucher for compute profit 4. check the auto work to do 1.  isNeedTransfer2Queue 2.  isNeedClaimFromGov 3.  checkLock2Gov 4. or unlock for the gov prepare to Transfer2Queue*",
        "params": {
          "tornQty": ": the amount of torn want to stake"
        }
      },
      "getValueShouldUnlock(uint256)": {
        "params": {
          "tokenQty": ":  the amount of the voucher return (shortage ,torn) shortage:  the shortage of TRON ,if the user want to with draw the _token_qty voucher 1. if the balance of TORN in this contract is enough return SUFFICIENT 2. if the balance of TORN added the lock balance in gov are not enough return IN_SUFFICIENT 3. others is the amount which show unlock for the withdrawing torn    :  the amount of TORN if the user with draw the qty of  _token_qty*"
        }
      },
      "setPara(uint256,uint256)": {
        "params": {
          "index": "index para index 1 maxReserveTorn; index 2 _maxRewardInGov; index 3 _rewardAddress index 4 profitRatio  x/1000",
          "value": "*"
        }
      },
      "stake2Node(uint256,uint256)": {
        "details": "if the contract balance is insufficient ,it will unlock torn form the gov",
        "params": {
          "index": ": the index of the relayer",
          "tornQty": ": the amount of TORN to be stake*"
        }
      },
      "withDraw(uint256)": {
        "details": "inorder to save gas we had modified erc20 token which no need to approve*",
        "params": {
          "tokenQty": ":  the amount of the voucher"
        }
      },
      "withdraw_for_exit(address,uint256)": {
        "details": "because of nonReentrant have to supply this function for exitQueue return  the user got TORN which subbed the dev profit*",
        "params": {
          "addr": ":  the addr of user",
          "tokenQty": ":  the amount of the voucher"
        }
      }
    },
    "title": "Deposit contract",
    "version": 1
  },
  "userdoc": {
    "events": {
      "Deposit(address,uint256)": {
        "notice": "An event emitted when user deposit"
      },
      "LockToGov(uint256)": {
        "notice": "An event emitted when lock torn to gov staking contract"
      },
      "UnLockGov(uint256)": {
        "notice": "An event emitted when unlock torn to gov staking contract"
      },
      "WithDraw(address,uint256,uint256,uint256)": {
        "notice": "An event emitted when user withdraw"
      }
    },
    "kind": "user",
    "methods": {
      "IN_SUFFICIENT()": {
        "notice": "this  is the max uint256 , this flag is used to indicate insufficient"
      },
      "ROOT_DB()": {
        "notice": "the address of  torn ROOT_DB contract"
      },
      "SUFFICIENT()": {
        "notice": "this  is the max uint256 , this flag is used to indicate sufficient"
      },
      "TORN_CONTRACT()": {
        "notice": "the address of  torn token contract"
      },
      "TORN_GOVERNANCE_STAKING()": {
        "notice": "the address of  torn gov staking contract"
      },
      "TORN_RELAYER_REGISTRY()": {
        "notice": "the address of  torn relayer registry contract"
      },
      "deposit(uint256,uint256,uint8,bytes32,bytes32)": {
        "notice": "deposit used to deposit TORN to relayers dao  with permit param"
      },
      "depositWithApproval(uint256)": {
        "notice": "deposit used to deposit TORN to relayers dao  with approval"
      },
      "getValueShouldUnlock(uint256)": {
        "notice": "getValueShouldUnlock used to get the amount of TORN and the shortage of TORN"
      },
      "getValueShouldUnlockFromGov()": {
        "notice": "getValueShouldUnlockFromGov used get the Value should unlock from gov staking contract return 1. if noneed to unlock return 0 2. if there is not enough torn to unlock for exit queue retrun  IN_SUFFICIENT 3. other values are the value should to unlock*"
      },
      "isBalanceEnough(uint256)": {
        "notice": "isBalanceEnough  return whether is Enough TORN for user to withdraw the tokenQty*"
      },
      "isNeedClaimFromGov()": {
        "notice": "isNeedClaimFromGov used to check if the gov staking contract reward return   the staking reward is over maxRewardInGov ?*"
      },
      "isNeedTransfer2Queue()": {
        "notice": "isNeedTransfer2Queue used to check if need to Transfer torn to exit queue return   true if the balance of torn is over the next value*"
      },
      "maxReserveTorn()": {
        "notice": "the max torn in the Deposit contact ,if over this amount it will been  staking to gov staking contract"
      },
      "maxRewardInGov()": {
        "notice": "the max reward torn in  gov staking contract  ,if over this amount it will been claimed"
      },
      "profitRatio()": {
        "notice": "the ratio of  dev's rewards which is x/1000"
      },
      "rewardAddress()": {
        "notice": "the address of  dev's rewards"
      },
      "setPara(uint256,uint256)": {
        "notice": "setPara used to set parameters called by Operator"
      },
      "stake2Node(uint256,uint256)": {
        "notice": "stake2Node used to stake TORN to relayers  when it is necessary call by Operator"
      },
      "totalBalanceOfTorn()": {
        "notice": "totalBalanceOfTorn return  the total Balance Of  TORN which controlled  buy this contract*"
      },
      "withDraw(uint256)": {
        "notice": "used to  withdraw"
      },
      "withdraw_for_exit(address,uint256)": {
        "notice": "used to  withdraw"
      }
    },
    "notice": "this is a Deposit contract",
    "version": 1
  },
  "storageLayout": {
    "storage": [
      {
        "astId": 138,
        "contract": "contracts/Deposit.sol:Deposit",
        "label": "_initialized",
        "offset": 0,
        "slot": "0",
        "type": "t_uint8"
      },
      {
        "astId": 141,
        "contract": "contracts/Deposit.sol:Deposit",
        "label": "_initializing",
        "offset": 1,
        "slot": "0",
        "type": "t_bool"
      },
      {
        "astId": 296,
        "contract": "contracts/Deposit.sol:Deposit",
        "label": "_status",
        "offset": 0,
        "slot": "1",
        "type": "t_uint256"
      },
      {
        "astId": 340,
        "contract": "contracts/Deposit.sol:Deposit",
        "label": "__gap",
        "offset": 0,
        "slot": "2",
        "type": "t_array(t_uint256)49_storage"
      },
      {
        "astId": 3779,
        "contract": "contracts/Deposit.sol:Deposit",
        "label": "rewardAddress",
        "offset": 0,
        "slot": "51",
        "type": "t_address"
      },
      {
        "astId": 3782,
        "contract": "contracts/Deposit.sol:Deposit",
        "label": "profitRatio",
        "offset": 0,
        "slot": "52",
        "type": "t_uint256"
      },
      {
        "astId": 3785,
        "contract": "contracts/Deposit.sol:Deposit",
        "label": "maxReserveTorn",
        "offset": 0,
        "slot": "53",
        "type": "t_uint256"
      },
      {
        "astId": 3788,
        "contract": "contracts/Deposit.sol:Deposit",
        "label": "maxRewardInGov",
        "offset": 0,
        "slot": "54",
        "type": "t_uint256"
      }
    ],
    "types": {
      "t_address": {
        "encoding": "inplace",
        "label": "address",
        "numberOfBytes": "20"
      },
      "t_array(t_uint256)49_storage": {
        "base": "t_uint256",
        "encoding": "inplace",
        "label": "uint256[49]",
        "numberOfBytes": "1568"
      },
      "t_bool": {
        "encoding": "inplace",
        "label": "bool",
        "numberOfBytes": "1"
      },
      "t_uint256": {
        "encoding": "inplace",
        "label": "uint256",
        "numberOfBytes": "32"
      },
      "t_uint8": {
        "encoding": "inplace",
        "label": "uint8",
        "numberOfBytes": "1"
      }
    }
  }
}