{
  "address": "0x9A94dB14D2d3d2E0770DdA65dcA5080Cd65F7457",
  "abi": [
    {
      "inputs": [
        {
          "internalType": "address",
          "name": "_tornContract",
          "type": "address"
        },
        {
          "internalType": "address",
          "name": "_tornGovernanceStaking",
          "type": "address"
        },
        {
          "internalType": "address",
          "name": "_tornRelayerRegistry",
          "type": "address"
        },
        {
          "internalType": "address",
          "name": "_root_manager",
          "type": "address"
        }
      ],
      "stateMutability": "nonpayable",
      "type": "constructor"
    },
    {
      "anonymous": false,
      "inputs": [
        {
          "indexed": false,
          "internalType": "uint8",
          "name": "version",
          "type": "uint8"
        }
      ],
      "name": "Initialized",
      "type": "event"
    },
    {
      "anonymous": false,
      "inputs": [
        {
          "indexed": false,
          "internalType": "uint256",
          "name": "_amount",
          "type": "uint256"
        }
      ],
      "name": "lock_to_gov",
      "type": "event"
    },
    {
      "anonymous": false,
      "inputs": [
        {
          "indexed": false,
          "internalType": "address",
          "name": "account",
          "type": "address"
        },
        {
          "indexed": false,
          "internalType": "uint256",
          "name": "_amount_token",
          "type": "uint256"
        },
        {
          "indexed": false,
          "internalType": "uint256",
          "name": "torn",
          "type": "uint256"
        },
        {
          "indexed": false,
          "internalType": "uint256",
          "name": "profi",
          "type": "uint256"
        }
      ],
      "name": "with_draw",
      "type": "event"
    },
    {
      "inputs": [],
      "name": "EXIT_QUEUE",
      "outputs": [
        {
          "internalType": "address",
          "name": "",
          "type": "address"
        }
      ],
      "stateMutability": "view",
      "type": "function"
    },
    {
      "inputs": [],
      "name": "IN_SUFFICIENT",
      "outputs": [
        {
          "internalType": "uint256",
          "name": "",
          "type": "uint256"
        }
      ],
      "stateMutability": "view",
      "type": "function"
    },
    {
      "inputs": [],
      "name": "ROOT_MANAGER",
      "outputs": [
        {
          "internalType": "address",
          "name": "",
          "type": "address"
        }
      ],
      "stateMutability": "view",
      "type": "function"
    },
    {
      "inputs": [],
      "name": "SUFFICIENT",
      "outputs": [
        {
          "internalType": "uint256",
          "name": "",
          "type": "uint256"
        }
      ],
      "stateMutability": "view",
      "type": "function"
    },
    {
      "inputs": [],
      "name": "TORN_CONTRACT",
      "outputs": [
        {
          "internalType": "address",
          "name": "",
          "type": "address"
        }
      ],
      "stateMutability": "view",
      "type": "function"
    },
    {
      "inputs": [],
      "name": "TORN_GOVERNANCE_STAKING",
      "outputs": [
        {
          "internalType": "address",
          "name": "",
          "type": "address"
        }
      ],
      "stateMutability": "view",
      "type": "function"
    },
    {
      "inputs": [],
      "name": "TORN_RELAYER_REGISTRY",
      "outputs": [
        {
          "internalType": "address",
          "name": "",
          "type": "address"
        }
      ],
      "stateMutability": "view",
      "type": "function"
    },
    {
      "inputs": [],
      "name": "__Deposit_init",
      "outputs": [],
      "stateMutability": "nonpayable",
      "type": "function"
    },
    {
      "inputs": [],
      "name": "balanceOfStakingOnGov",
      "outputs": [
        {
          "internalType": "uint256",
          "name": "t",
          "type": "uint256"
        }
      ],
      "stateMutability": "view",
      "type": "function"
    },
    {
      "inputs": [],
      "name": "checkRewardOnGov",
      "outputs": [
        {
          "internalType": "uint256",
          "name": "",
          "type": "uint256"
        }
      ],
      "stateMutability": "view",
      "type": "function"
    },
    {
      "inputs": [
        {
          "internalType": "uint256",
          "name": "_amount",
          "type": "uint256"
        },
        {
          "internalType": "uint256",
          "name": "deadline",
          "type": "uint256"
        },
        {
          "internalType": "uint8",
          "name": "v",
          "type": "uint8"
        },
        {
          "internalType": "bytes32",
          "name": "r",
          "type": "bytes32"
        },
        {
          "internalType": "bytes32",
          "name": "s",
          "type": "bytes32"
        }
      ],
      "name": "deposit",
      "outputs": [],
      "stateMutability": "nonpayable",
      "type": "function"
    },
    {
      "inputs": [
        {
          "internalType": "address",
          "name": "addr",
          "type": "address"
        }
      ],
      "name": "depositIni",
      "outputs": [],
      "stateMutability": "nonpayable",
      "type": "function"
    },
    {
      "inputs": [
        {
          "internalType": "uint256",
          "name": "_qty",
          "type": "uint256"
        }
      ],
      "name": "depositWithApproval",
      "outputs": [],
      "stateMutability": "nonpayable",
      "type": "function"
    },
    {
      "inputs": [
        {
          "internalType": "uint256",
          "name": "_amount_token",
          "type": "uint256"
        }
      ],
      "name": "getValueShouldUnlock",
      "outputs": [
        {
          "internalType": "uint256",
          "name": "shortage",
          "type": "uint256"
        },
        {
          "internalType": "uint256",
          "name": "torn",
          "type": "uint256"
        }
      ],
      "stateMutability": "view",
      "type": "function"
    },
    {
      "inputs": [],
      "name": "getValueShouldUnlockFromGov",
      "outputs": [
        {
          "internalType": "uint256",
          "name": "",
          "type": "uint256"
        }
      ],
      "stateMutability": "view",
      "type": "function"
    },
    {
      "inputs": [
        {
          "internalType": "uint256",
          "name": "_amount_token",
          "type": "uint256"
        }
      ],
      "name": "isBalanceEnough",
      "outputs": [
        {
          "internalType": "bool",
          "name": "",
          "type": "bool"
        }
      ],
      "stateMutability": "view",
      "type": "function"
    },
    {
      "inputs": [],
      "name": "isNeedClaimFromGov",
      "outputs": [
        {
          "internalType": "bool",
          "name": "",
          "type": "bool"
        }
      ],
      "stateMutability": "view",
      "type": "function"
    },
    {
      "inputs": [],
      "name": "isNeedTransfer2Queue",
      "outputs": [
        {
          "internalType": "bool",
          "name": "",
          "type": "bool"
        }
      ],
      "stateMutability": "view",
      "type": "function"
    },
    {
      "inputs": [],
      "name": "maxReserveTorn",
      "outputs": [
        {
          "internalType": "uint256",
          "name": "",
          "type": "uint256"
        }
      ],
      "stateMutability": "view",
      "type": "function"
    },
    {
      "inputs": [],
      "name": "maxRewardInGov",
      "outputs": [
        {
          "internalType": "uint256",
          "name": "",
          "type": "uint256"
        }
      ],
      "stateMutability": "view",
      "type": "function"
    },
    {
      "inputs": [],
      "name": "profitRatio",
      "outputs": [
        {
          "internalType": "uint256",
          "name": "",
          "type": "uint256"
        }
      ],
      "stateMutability": "view",
      "type": "function"
    },
    {
      "inputs": [],
      "name": "rewardAddress",
      "outputs": [
        {
          "internalType": "address",
          "name": "",
          "type": "address"
        }
      ],
      "stateMutability": "view",
      "type": "function"
    },
    {
      "inputs": [
        {
          "internalType": "uint256",
          "name": "index",
          "type": "uint256"
        },
        {
          "internalType": "uint256",
          "name": "value",
          "type": "uint256"
        }
      ],
      "name": "setPara",
      "outputs": [],
      "stateMutability": "nonpayable",
      "type": "function"
    },
    {
      "inputs": [
        {
          "internalType": "uint256",
          "name": "_index",
          "type": "uint256"
        },
        {
          "internalType": "uint256",
          "name": "_amount",
          "type": "uint256"
        }
      ],
      "name": "stake2Node",
      "outputs": [],
      "stateMutability": "nonpayable",
      "type": "function"
    },
    {
      "inputs": [],
      "name": "totalBalanceOfTorn",
      "outputs": [
        {
          "internalType": "uint256",
          "name": "_t",
          "type": "uint256"
        }
      ],
      "stateMutability": "view",
      "type": "function"
    },
    {
      "inputs": [
        {
          "internalType": "uint256",
          "name": "_amount_token",
          "type": "uint256"
        }
      ],
      "name": "withDraw",
      "outputs": [],
      "stateMutability": "nonpayable",
      "type": "function"
    },
    {
      "inputs": [
        {
          "internalType": "address",
          "name": "addr",
          "type": "address"
        },
        {
          "internalType": "uint256",
          "name": "_amount_token",
          "type": "uint256"
        }
      ],
      "name": "withdraw_for_exit",
      "outputs": [
        {
          "internalType": "uint256",
          "name": "",
          "type": "uint256"
        }
      ],
      "stateMutability": "nonpayable",
      "type": "function"
    }
  ],
  "transactionHash": "0x85f71dfdc0ffe081721120fb90242432163082c0a9cb7ad72ff65a57ccbda1ab",
  "args": [
    "0x77777FeDdddFfC19Ff86DB637967013e6C6A116C",
    "0x5efda50f22d34f262c29268506c5fa42cb56a1ce",
    "0x58E8dCC13BE9780fC42E8723D8EaD4CF46943dF2",
    "0x6201dBf488e977018F4A1BbD8Df57F5327991ECE"
  ],
  "numDeployments": 1,
  "solcInputHash": "8a0492c1571882e36046aa37bef8c8bf",
  "bytecode": "0x6101006040523480156200001257600080fd5b5060405162002d8b38038062002d8b833981016040819052620000359162000075565b6001600160a01b0393841660805291831660a052821660c0521660e052620000d2565b80516001600160a01b03811681146200007057600080fd5b919050565b600080600080608085870312156200008c57600080fd5b620000978562000058565b9350620000a76020860162000058565b9250620000b76040860162000058565b9150620000c76060860162000058565b905092959194509250565b60805160a05160c05160e051612b75620002166000396000818161028e015281816104ef0152818161067301528181610763015281816107e5015281816108ed01528181610bdd01528181610d9201528181610e400152818161112101528181611214015281816114a60152818161157e01528181611a730152611f950152600081816103540152818161167701526116c201526000818161037b0152818161100c015281816110950152818161192301528181611b2101528181611bcb01528181611da301528181611f14015281816121d50152818161238c01526123c701526000818161021301528181610b2601528181610e170152818161143001528181611655015281816117d30152818161187f015281816119e101528181611cf50152818161203701528181612079015281816122cd015261236a0152612b756000f3fe608060405234801561001057600080fd5b50600436106101a95760003560e01c80638cf57cb9116100f9578063b91476f211610097578063e2e622cd11610071578063e2e622cd146103b0578063f245e6a0146103b8578063fc4c0aec146103c1578063fff5ea94146103c957600080fd5b8063b91476f21461034f578063c866880e14610376578063d3e06b5e1461039d57600080fd5b8063a9fda201116100d3578063a9fda2011461030e578063adba6bb614610316578063b6f4e79a1461033e578063b90a63fa1461034757600080fd5b80638cf57cb9146102df5780639615d2ba146102f2578063a0779c2f146102fb57600080fd5b80633a542c28116101665780635f61e3ec116101405780635f61e3ec14610289578063727784fe146102b05780637e34dbe0146102c35780638576e0a6146102d657600080fd5b80633a542c281461024d57806351e48baf14610260578063546cee941461027657600080fd5b806314174f33146101ae5780631b6edf9e146101c35780632224db44146101d657806322f97b5e146101e95780632f5dcf031461020657806331e819211461020e575b600080fd5b6101c16101bc366004612835565b6103d2565b005b6101c16101d1366004612863565b610671565b6101c16101e4366004612880565b6108eb565b6101f1610a77565b60405190151581526020015b60405180910390f35b6101c1610baf565b6102357f000000000000000000000000000000000000000000000000000000000000000081565b6040516001600160a01b0390911681526020016101fd565b6101c161025b366004612835565b610cd6565b61026861107d565b6040519081526020016101fd565b6102686102843660046128a2565b61111d565b6102357f000000000000000000000000000000000000000000000000000000000000000081565b6101f16102be366004612835565b61134f565b6101c16102d13660046128ce565b6113f0565b61026860001981565b603454610235906001600160a01b031681565b61026860365481565b6101c1610309366004612880565b6114a4565b610268611723565b610329610324366004612835565b6119bd565b604080519283526020830191909152016101fd565b61026860011981565b6101f1611bc6565b6102357f000000000000000000000000000000000000000000000000000000000000000081565b6102357f000000000000000000000000000000000000000000000000000000000000000081565b603354610235906001600160a01b031681565b610268611cdd565b61026860375481565b610268611d9f565b61026860355481565b6002600154141561042a5760405162461bcd60e51b815260206004820152601f60248201527f5265656e7472616e637947756172643a207265656e7472616e742063616c6c0060448201526064015b60405180910390fd5b60026001556033546040805163ccfb993560e01b815290516001600160a01b039092169163ccfb993591600480820192602092909190829003018186803b15801561047457600080fd5b505afa158015610488573d6000803e3d6000fd5b505050506040513d601f19601f820116820180604052508101906104ac919061291d565b156104eb5760405162461bcd60e51b815260206004820152600f60248201526e5175657565206e6f7420656d70747960881b6044820152606401610421565b60007f00000000000000000000000000000000000000000000000000000000000000006001600160a01b0316632f684b766040518163ffffffff1660e01b815260040160206040518083038186803b15801561054657600080fd5b505afa15801561055a573d6000803e3d6000fd5b505050506040513d601f19601f8201168201806040525081019061057e9190612936565b60405163191e2e8360e01b8152336004820152602481018490529091506000906001600160a01b0383169063191e2e8390604401602060405180830381600087803b1580156105cc57600080fd5b505af11580156105e0573d6000803e3d6000fd5b505050506040513d601f19601f82011682018060405250810190610604919061291d565b9050600061061184611e60565b905061061e848284612001565b506040805133815260208101869052908101829052606081018390527f4f31e4b99390d24f1f90e67199124611e798b13d90d74422fb39bb3789c99f4c9060800160405180910390a15050600180555050565b7f00000000000000000000000000000000000000000000000000000000000000006001600160a01b031663570ca7356040518163ffffffff1660e01b815260040160206040518083038186803b1580156106ca57600080fd5b505afa1580156106de573d6000803e3d6000fd5b505050506040513d601f19601f820116820180604052508101906107029190612936565b6001600160a01b0316336001600160a01b0316146107325760405162461bcd60e51b815260040161042190612953565b604051630404bb3d60e01b81526001600160a01b038281166004830152681043561a882930000060248301526000917f000000000000000000000000000000000000000000000000000000000000000090911690630404bb3d90604401602060405180830381600087803b1580156107a957600080fd5b505af11580156107bd573d6000803e3d6000fd5b505050506040513d601f19601f820116820180604052508101906107e1919061291d565b90507f00000000000000000000000000000000000000000000000000000000000000006001600160a01b0316632f684b766040518163ffffffff1660e01b815260040160206040518083038186803b15801561083c57600080fd5b505afa158015610850573d6000803e3d6000fd5b505050506040513d601f19601f820116820180604052508101906108749190612936565b604051634575113760e01b81526001600160a01b038481166004830152681043561a88293000006024830152604482018490529190911690634575113790606401600060405180830381600087803b1580156108cf57600080fd5b505af11580156108e3573d6000803e3d6000fd5b505050505050565b7f00000000000000000000000000000000000000000000000000000000000000006001600160a01b031663570ca7356040518163ffffffff1660e01b815260040160206040518083038186803b15801561094457600080fd5b505afa158015610958573d6000803e3d6000fd5b505050506040513d601f19601f8201168201806040525081019061097c9190612936565b6001600160a01b0316336001600160a01b0316146109ac5760405162461bcd60e51b815260040161042190612953565b600081116109eb5760405162461bcd60e51b815260206004820152600c60248201526b496e76616c6964207061726160a01b6044820152606401610421565b81600114156109fa5760365550565b8160021415610a095760375550565b8160031415610a3157603480546001600160a01b0319166001600160a01b0383161790555050565b8160041415610a405760355550565b60405162461bcd60e51b815260206004820152600c60248201526b496e76616c6964207061726160a01b6044820152606401610421565b600080603360009054906101000a90046001600160a01b03166001600160a01b031663ccfb99356040518163ffffffff1660e01b815260040160206040518083038186803b158015610ac857600080fd5b505afa158015610adc573d6000803e3d6000fd5b505050506040513d601f19601f82011682018060405250810190610b00919061291d565b905080610b0f57600091505090565b6040516370a0823160e01b815230600482015281907f00000000000000000000000000000000000000000000000000000000000000006001600160a01b0316906370a082319060240160206040518083038186803b158015610b7057600080fd5b505afa158015610b84573d6000803e3d6000fd5b505050506040513d601f19601f82011682018060405250810190610ba8919061291d565b1191505090565b6000610bbb60016120a7565b90508015610bd3576000805461ff0019166101001790555b610bdb61212f565b7f00000000000000000000000000000000000000000000000000000000000000006001600160a01b031663ea9b717e6040518163ffffffff1660e01b815260040160206040518083038186803b158015610c3457600080fd5b505afa158015610c48573d6000803e3d6000fd5b505050506040513d601f19601f82011682018060405250810190610c6c9190612936565b603380546001600160a01b0319166001600160a01b03929092169190911790558015610cd3576000805461ff0019169055604051600181527f7f26b83ff96e1f2b6a682f133852f6798a09c465da95921460cefb3847402498906020015b60405180910390a15b50565b60026001541415610d295760405162461bcd60e51b815260206004820152601f60248201527f5265656e7472616e637947756172643a207265656e7472616e742063616c6c006044820152606401610421565b60026001553381610d695760405162461bcd60e51b815260206004820152600a6024820152696572726f72207061726160b01b6044820152606401610421565b604051630404bb3d60e01b81526001600160a01b038281166004830152602482018490526000917f000000000000000000000000000000000000000000000000000000000000000090911690630404bb3d90604401602060405180830381600087803b158015610dd857600080fd5b505af1158015610dec573d6000803e3d6000fd5b505050506040513d601f19601f82011682018060405250810190610e10919061291d565b9050610e3e7f0000000000000000000000000000000000000000000000000000000000000000833086612160565b7f00000000000000000000000000000000000000000000000000000000000000006001600160a01b0316632f684b766040518163ffffffff1660e01b815260040160206040518083038186803b158015610e9757600080fd5b505afa158015610eab573d6000803e3d6000fd5b505050506040513d601f19601f82011682018060405250810190610ecf9190612936565b604051634575113760e01b815233600482015260248101859052604481018390526001600160a01b039190911690634575113790606401600060405180830381600087803b158015610f2057600080fd5b505af1158015610f34573d6000803e3d6000fd5b50505050610f40610a77565b15610fb257603360009054906101000a90046001600160a01b03166001600160a01b031663a4ec69386040518163ffffffff1660e01b8152600401600060405180830381600087803b158015610f9557600080fd5b505af1158015610fa9573d6000803e3d6000fd5b50505050611073565b610fba611bc6565b15610fcc57610fc76121d1565b611073565b6000610fd6611723565b905080610fed57610fe56122b5565b505050611076565b600019811461107157604051636198e33960e01b8152600481018290527f00000000000000000000000000000000000000000000000000000000000000006001600160a01b031690636198e33990602401600060405180830381600087803b15801561105857600080fd5b505af115801561106c573d6000803e3d6000fd5b505050505b505b50505b5060018055565b604051639ae697bf60e01b81523060048201526000907f00000000000000000000000000000000000000000000000000000000000000006001600160a01b031690639ae697bf906024015b60206040518083038186803b1580156110e057600080fd5b505afa1580156110f4573d6000803e3d6000fd5b505050506040513d601f19601f82011682018060405250810190611118919061291d565b905090565b60007f00000000000000000000000000000000000000000000000000000000000000006001600160a01b031663ea9b717e6040518163ffffffff1660e01b815260040160206040518083038186803b15801561117857600080fd5b505afa15801561118c573d6000803e3d6000fd5b505050506040513d601f19601f820116820180604052508101906111b09190612936565b6001600160a01b0316336001600160a01b0316146112105760405162461bcd60e51b815260206004820152601760248201527f43616c6c6572206973206e6f74206578697451756575650000000000000000006044820152606401610421565b60007f00000000000000000000000000000000000000000000000000000000000000006001600160a01b0316632f684b766040518163ffffffff1660e01b815260040160206040518083038186803b15801561126b57600080fd5b505afa15801561127f573d6000803e3d6000fd5b505050506040513d601f19601f820116820180604052508101906112a39190612936565b60405163191e2e8360e01b81526001600160a01b0386811660048301526024820186905291925060009183169063191e2e8390604401602060405180830381600087803b1580156112f357600080fd5b505af1158015611307573d6000803e3d6000fd5b505050506040513d601f19601f8201168201806040525081019061132b919061291d565b9050600061133885611e60565b9050611345858284612001565b9695505050505050565b6033546040805163ccfb993560e01b815290516000926001600160a01b03169163ccfb9935916004808301926020929190829003018186803b15801561139457600080fd5b505afa1580156113a8573d6000803e3d6000fd5b505050506040513d601f19601f820116820180604052508101906113cc919061291d565b156113d957506000919050565b60006113e4836119bd565b50600019119392505050565b60405163d505accf60e01b8152336004820152306024820152604481018690526064810185905260ff8416608482015260a4810183905260c481018290527f00000000000000000000000000000000000000000000000000000000000000006001600160a01b03169063d505accf9060e401600060405180830381600087803b15801561147c57600080fd5b505af1158015611490573d6000803e3d6000fd5b5050505061149d85610cd6565b5050505050565b7f00000000000000000000000000000000000000000000000000000000000000006001600160a01b031663570ca7356040518163ffffffff1660e01b815260040160206040518083038186803b1580156114fd57600080fd5b505afa158015611511573d6000803e3d6000fd5b505050506040513d601f19601f820116820180604052508101906115359190612936565b6001600160a01b0316336001600160a01b0316146115655760405162461bcd60e51b815260040161042190612953565b6040516312db1acb60e21b8152600481018390526000907f00000000000000000000000000000000000000000000000000000000000000006001600160a01b031690634b6c6b2c9060240160206040518083038186803b1580156115c857600080fd5b505afa1580156115dc573d6000803e3d6000fd5b505050506040513d601f19601f820116820180604052508101906116009190612936565b90506001600160a01b0381166116485760405162461bcd60e51b815260206004820152600d60248201526c092dcecc2d8d2c840d2dcc8caf609b1b6044820152606401610421565b61169c6001600160a01b037f0000000000000000000000000000000000000000000000000000000000000000167f00000000000000000000000000000000000000000000000000000000000000008461245c565b60405163d990231d60e01b81526001600160a01b038281166004830152602482018490527f0000000000000000000000000000000000000000000000000000000000000000169063d990231d90604401600060405180830381600087803b15801561170657600080fd5b505af115801561171a573d6000803e3d6000fd5b50505050505050565b600080603360009054906101000a90046001600160a01b03166001600160a01b031663ccfb99356040518163ffffffff1660e01b815260040160206040518083038186803b15801561177457600080fd5b505afa158015611788573d6000803e3d6000fd5b505050506040513d601f19601f820116820180604052508101906117ac919061291d565b9050806117bb57600091505090565b6040516370a0823160e01b81523060048201526000907f00000000000000000000000000000000000000000000000000000000000000006001600160a01b0316906370a082319060240160206040518083038186803b15801561181d57600080fd5b505afa158015611831573d6000803e3d6000fd5b505050506040513d601f19601f82011682018060405250810190611855919061291d565b90508082116118675760009250505090565b6040516370a0823160e01b81523060048201526000907f00000000000000000000000000000000000000000000000000000000000000006001600160a01b0316906370a082319060240160206040518083038186803b1580156118c957600080fd5b505afa1580156118dd573d6000803e3d6000fd5b505050506040513d601f19601f82011682018060405250810190611901919061291d565b61190b9084612999565b604051639ae697bf60e01b81523060048201529091507f00000000000000000000000000000000000000000000000000000000000000006001600160a01b031690639ae697bf9060240160206040518083038186803b15801561196d57600080fd5b505afa158015611981573d6000803e3d6000fd5b505050506040513d601f19601f820116820180604052508101906119a5919061291d565b81116119b2579392505050565b600019935050505090565b6040516370a0823160e01b8152306004820152600090819081906001600160a01b037f000000000000000000000000000000000000000000000000000000000000000016906370a082319060240160206040518083038186803b158015611a2357600080fd5b505afa158015611a37573d6000803e3d6000fd5b505050506040513d601f19601f82011682018060405250810190611a5b919061291d565b6040516272e6bd60e41b8152600481018690529091507f00000000000000000000000000000000000000000000000000000000000000006001600160a01b03169063072e6bd09060240160206040518083038186803b158015611abd57600080fd5b505afa158015611ad1573d6000803e3d6000fd5b505050506040513d601f19601f82011682018060405250810190611af5919061291d565b9150818110611b0957600119925050915091565b604051639ae697bf60e01b81523060048201526000907f00000000000000000000000000000000000000000000000000000000000000006001600160a01b031690639ae697bf9060240160206040518083038186803b158015611b6b57600080fd5b505afa158015611b7f573d6000803e3d6000fd5b505050506040513d601f19601f82011682018060405250810190611ba3919061291d565b9050611baf8284612999565b935083811015611bbf5760001993505b5050915091565b6000807f00000000000000000000000000000000000000000000000000000000000000006001600160a01b031663f57df22e6040518163ffffffff1660e01b815260040160206040518083038186803b158015611c2257600080fd5b505afa158015611c36573d6000803e3d6000fd5b505050506040513d601f19601f82011682018060405250810190611c5a9190612936565b6040516330f2439960e21b81523060048201526001600160a01b03919091169063c3c90e649060240160206040518083038186803b158015611c9b57600080fd5b505afa158015611caf573d6000803e3d6000fd5b505050506040513d601f19601f82011682018060405250810190611cd3919061291d565b6037541092915050565b6040516370a0823160e01b81523060048201526000907f00000000000000000000000000000000000000000000000000000000000000006001600160a01b0316906370a082319060240160206040518083038186803b158015611d3f57600080fd5b505afa158015611d53573d6000803e3d6000fd5b505050506040513d601f19601f82011682018060405250810190611d77919061291d565b9050611d8161107d565b611d8b90826129b0565b9050611d95611d9f565b61111890826129b0565b60007f00000000000000000000000000000000000000000000000000000000000000006001600160a01b031663f57df22e6040518163ffffffff1660e01b815260040160206040518083038186803b158015611dfa57600080fd5b505afa158015611e0e573d6000803e3d6000fd5b505050506040513d601f19601f82011682018060405250810190611e329190612936565b6040516330f2439960e21b81523060048201526001600160a01b03919091169063c3c90e64906024016110c8565b6000808211611e9e5760405162461bcd60e51b815260206004820152600a6024820152696572726f72207061726160b01b6044820152606401610421565b600080611eaa846119bd565b9092509050600019821415611ef55760405162461bcd60e51b81526020600482015260116024820152701c1bdbdb08125b9cdd59999a58da595b9d607a1b6044820152606401610421565b6001198214611f7957604051636198e33960e01b8152600481018390527f00000000000000000000000000000000000000000000000000000000000000006001600160a01b031690636198e33990602401600060405180830381600087803b158015611f6057600080fd5b505af1158015611f74573d6000803e3d6000fd5b505050505b604051630282c62360e51b8152336004820152602481018590527f00000000000000000000000000000000000000000000000000000000000000006001600160a01b031690635058c46090604401600060405180830381600087803b158015611fe157600080fd5b505af1158015611ff5573d6000803e3d6000fd5b50929695505050505050565b60006103e86035548361201491906129c8565b61201e91906129e7565b9150811561206057603454612060906001600160a01b037f00000000000000000000000000000000000000000000000000000000000000008116911684612585565b61206a8284612999565b90506120a06001600160a01b037f0000000000000000000000000000000000000000000000000000000000000000163383612585565b9392505050565b60008054610100900460ff16156120ee578160ff1660011480156120ca5750303b155b6120e65760405162461bcd60e51b815260040161042190612a09565b506000919050565b60005460ff8084169116106121155760405162461bcd60e51b815260040161042190612a09565b506000805460ff191660ff92909216919091179055600190565b600054610100900460ff166121565760405162461bcd60e51b815260040161042190612a57565b61215e6125b5565b565b6040516001600160a01b03808516602483015283166044820152606481018290526121cb9085906323b872dd60e01b906084015b60408051601f198184030181529190526020810180516001600160e01b03166001600160e01b0319909316929092179091526125e2565b50505050565b60007f00000000000000000000000000000000000000000000000000000000000000006001600160a01b031663f57df22e6040518163ffffffff1660e01b815260040160206040518083038186803b15801561222c57600080fd5b505afa158015612240573d6000803e3d6000fd5b505050506040513d601f19601f820116820180604052508101906122649190612936565b9050806001600160a01b0316633d18b9126040518163ffffffff1660e01b8152600401600060405180830381600087803b1580156122a157600080fd5b505af115801561149d573d6000803e3d6000fd5b6040516370a0823160e01b81523060048201526000907f00000000000000000000000000000000000000000000000000000000000000006001600160a01b0316906370a082319060240160206040518083038186803b15801561231757600080fd5b505afa15801561232b573d6000803e3d6000fd5b505050506040513d601f19601f8201168201806040525081019061234f919061291d565b9050806036541061235d5750565b6123b16001600160a01b037f0000000000000000000000000000000000000000000000000000000000000000167f00000000000000000000000000000000000000000000000000000000000000008361245c565b6040516316a884d960e31b8152600481018290527f00000000000000000000000000000000000000000000000000000000000000006001600160a01b03169063b54426c890602401600060405180830381600087803b15801561241357600080fd5b505af1158015612427573d6000803e3d6000fd5b505050507f0f871d9141eb7956fd3128d64eedb6a59621c2221b36a7950075e1780a4cc43181604051610cca91815260200190565b8015806124e55750604051636eb1769f60e11b81523060048201526001600160a01b03838116602483015284169063dd62ed3e9060440160206040518083038186803b1580156124ab57600080fd5b505afa1580156124bf573d6000803e3d6000fd5b505050506040513d601f19601f820116820180604052508101906124e3919061291d565b155b6125505760405162461bcd60e51b815260206004820152603660248201527f5361666545524332303a20617070726f76652066726f6d206e6f6e2d7a65726f60448201527520746f206e6f6e2d7a65726f20616c6c6f77616e636560501b6064820152608401610421565b6040516001600160a01b03831660248201526044810182905261258090849063095ea7b360e01b90606401612194565b505050565b6040516001600160a01b03831660248201526044810182905261258090849063a9059cbb60e01b90606401612194565b600054610100900460ff166125dc5760405162461bcd60e51b815260040161042190612a57565b60018055565b6000612637826040518060400160405280602081526020017f5361666545524332303a206c6f772d6c6576656c2063616c6c206661696c6564815250856001600160a01b03166126b49092919063ffffffff16565b80519091501561258057808060200190518101906126559190612aa2565b6125805760405162461bcd60e51b815260206004820152602a60248201527f5361666545524332303a204552433230206f7065726174696f6e20646964206e6044820152691bdd081cdd58d8d9595960b21b6064820152608401610421565b60606126c384846000856126cb565b949350505050565b60608247101561272c5760405162461bcd60e51b815260206004820152602660248201527f416464726573733a20696e73756666696369656e742062616c616e636520666f6044820152651c8818d85b1b60d21b6064820152608401610421565b6001600160a01b0385163b6127835760405162461bcd60e51b815260206004820152601d60248201527f416464726573733a2063616c6c20746f206e6f6e2d636f6e74726163740000006044820152606401610421565b600080866001600160a01b0316858760405161279f9190612af0565b60006040518083038185875af1925050503d80600081146127dc576040519150601f19603f3d011682016040523d82523d6000602084013e6127e1565b606091505b50915091506127f18282866127fc565b979650505050505050565b6060831561280b5750816120a0565b82511561281b5782518084602001fd5b8160405162461bcd60e51b81526004016104219190612b0c565b60006020828403121561284757600080fd5b5035919050565b6001600160a01b0381168114610cd357600080fd5b60006020828403121561287557600080fd5b81356120a08161284e565b6000806040838503121561289357600080fd5b50508035926020909101359150565b600080604083850312156128b557600080fd5b82356128c08161284e565b946020939093013593505050565b600080600080600060a086880312156128e657600080fd5b8535945060208601359350604086013560ff8116811461290557600080fd5b94979396509394606081013594506080013592915050565b60006020828403121561292f57600080fd5b5051919050565b60006020828403121561294857600080fd5b81516120a08161284e565b60208082526016908201527521b0b63632b91034b9903737ba1037b832b930ba37b960511b604082015260600190565b634e487b7160e01b600052601160045260246000fd5b6000828210156129ab576129ab612983565b500390565b600082198211156129c3576129c3612983565b500190565b60008160001904831182151516156129e2576129e2612983565b500290565b600082612a0457634e487b7160e01b600052601260045260246000fd5b500490565b6020808252602e908201527f496e697469616c697a61626c653a20636f6e747261637420697320616c72656160408201526d191e481a5b9a5d1a585b1a5e995960921b606082015260800190565b6020808252602b908201527f496e697469616c697a61626c653a20636f6e7472616374206973206e6f74206960408201526a6e697469616c697a696e6760a81b606082015260800190565b600060208284031215612ab457600080fd5b815180151581146120a057600080fd5b60005b83811015612adf578181015183820152602001612ac7565b838111156121cb5750506000910152565b60008251612b02818460208701612ac4565b9190910192915050565b6020815260008251806020840152612b2b816040850160208701612ac4565b601f01601f1916919091016040019291505056fea2646970667358221220a3c6910955606667fc7618fe80cbe61b319f5c52b93a16f96c0b1dadf6b29a4c64736f6c63430008090033",
  "devdoc": {
    "kind": "dev",
    "methods": {},
    "version": 1
  },
  "userdoc": {
    "kind": "user",
    "methods": {
      "__Deposit_init()": {
        "notice": "---------- init ---------- *"
      },
      "constructor": {
        "notice": "---------- constructor ---------- *"
      },
      "totalBalanceOfTorn()": {
        "notice": "---------- public getting ---------- *"
      }
    },
    "version": 1
  },
  "storageLayout": {
    "storage": [
      {
        "astId": 130,
        "contract": "contracts/Deposit.sol:Deposit",
        "label": "_initialized",
        "offset": 0,
        "slot": "0",
        "type": "t_uint8"
      },
      {
        "astId": 133,
        "contract": "contracts/Deposit.sol:Deposit",
        "label": "_initializing",
        "offset": 1,
        "slot": "0",
        "type": "t_bool"
      },
      {
        "astId": 279,
        "contract": "contracts/Deposit.sol:Deposit",
        "label": "_status",
        "offset": 0,
        "slot": "1",
        "type": "t_uint256"
      },
      {
        "astId": 323,
        "contract": "contracts/Deposit.sol:Deposit",
        "label": "__gap",
        "offset": 0,
        "slot": "2",
        "type": "t_array(t_uint256)49_storage"
      },
      {
        "astId": 4709,
        "contract": "contracts/Deposit.sol:Deposit",
        "label": "EXIT_QUEUE",
        "offset": 0,
        "slot": "51",
        "type": "t_address"
      },
      {
        "astId": 4711,
        "contract": "contracts/Deposit.sol:Deposit",
        "label": "rewardAddress",
        "offset": 0,
        "slot": "52",
        "type": "t_address"
      },
      {
        "astId": 4713,
        "contract": "contracts/Deposit.sol:Deposit",
        "label": "profitRatio",
        "offset": 0,
        "slot": "53",
        "type": "t_uint256"
      },
      {
        "astId": 4715,
        "contract": "contracts/Deposit.sol:Deposit",
        "label": "maxReserveTorn",
        "offset": 0,
        "slot": "54",
        "type": "t_uint256"
      },
      {
        "astId": 4717,
        "contract": "contracts/Deposit.sol:Deposit",
        "label": "maxRewardInGov",
        "offset": 0,
        "slot": "55",
        "type": "t_uint256"
      }
    ],
    "types": {
      "t_address": {
        "encoding": "inplace",
        "label": "address",
        "numberOfBytes": "20"
      },
      "t_array(t_uint256)49_storage": {
        "base": "t_uint256",
        "encoding": "inplace",
        "label": "uint256[49]",
        "numberOfBytes": "1568"
      },
      "t_bool": {
        "encoding": "inplace",
        "label": "bool",
        "numberOfBytes": "1"
      },
      "t_uint256": {
        "encoding": "inplace",
        "label": "uint256",
        "numberOfBytes": "32"
      },
      "t_uint8": {
        "encoding": "inplace",
        "label": "uint8",
        "numberOfBytes": "1"
      }
    }
  }
}