{
  "address": "0xC7A29DC8b2A24F5Fe7008e8F5CD94c5f704c9725",
  "abi": [
    {
      "inputs": [
        {
          "internalType": "address",
          "name": "tornContract",
          "type": "address"
        },
        {
          "internalType": "address",
          "name": "rootDb",
          "type": "address"
        }
      ],
      "stateMutability": "nonpayable",
      "type": "constructor"
    },
    {
      "anonymous": false,
      "inputs": [
        {
          "indexed": false,
          "internalType": "address",
          "name": "account",
          "type": "address"
        },
        {
          "indexed": false,
          "internalType": "uint256",
          "name": "tokenQty",
          "type": "uint256"
        }
      ],
      "name": "AddQueue",
      "type": "event"
    },
    {
      "anonymous": false,
      "inputs": [
        {
          "indexed": false,
          "internalType": "address",
          "name": "account",
          "type": "address"
        },
        {
          "indexed": false,
          "internalType": "uint256",
          "name": "tokenQty",
          "type": "uint256"
        }
      ],
      "name": "CancelQueue",
      "type": "event"
    },
    {
      "anonymous": false,
      "inputs": [
        {
          "indexed": false,
          "internalType": "uint8",
          "name": "version",
          "type": "uint8"
        }
      ],
      "name": "Initialized",
      "type": "event"
    },
    {
      "inputs": [],
      "name": "INDEX_ERR",
      "outputs": [
        {
          "internalType": "uint256",
          "name": "",
          "type": "uint256"
        }
      ],
      "stateMutability": "view",
      "type": "function"
    },
    {
      "inputs": [],
      "name": "MAX_QUEUE_CANCEL",
      "outputs": [
        {
          "internalType": "uint256",
          "name": "",
          "type": "uint256"
        }
      ],
      "stateMutability": "view",
      "type": "function"
    },
    {
      "inputs": [],
      "name": "ROOT_DB",
      "outputs": [
        {
          "internalType": "address",
          "name": "",
          "type": "address"
        }
      ],
      "stateMutability": "view",
      "type": "function"
    },
    {
      "inputs": [],
      "name": "TORN_CONTRACT",
      "outputs": [
        {
          "internalType": "address",
          "name": "",
          "type": "address"
        }
      ],
      "stateMutability": "view",
      "type": "function"
    },
    {
      "inputs": [],
      "name": "UpdateSkipIndex",
      "outputs": [],
      "stateMutability": "nonpayable",
      "type": "function"
    },
    {
      "inputs": [],
      "name": "__ExitQueue_init",
      "outputs": [],
      "stateMutability": "nonpayable",
      "type": "function"
    },
    {
      "inputs": [
        {
          "internalType": "uint256",
          "name": "tokenQty",
          "type": "uint256"
        }
      ],
      "name": "addQueue",
      "outputs": [],
      "stateMutability": "nonpayable",
      "type": "function"
    },
    {
      "inputs": [
        {
          "internalType": "address",
          "name": "",
          "type": "address"
        }
      ],
      "name": "addr2index",
      "outputs": [
        {
          "internalType": "uint256",
          "name": "",
          "type": "uint256"
        }
      ],
      "stateMutability": "view",
      "type": "function"
    },
    {
      "inputs": [],
      "name": "cancelQueue",
      "outputs": [],
      "stateMutability": "nonpayable",
      "type": "function"
    },
    {
      "inputs": [],
      "name": "claim",
      "outputs": [],
      "stateMutability": "nonpayable",
      "type": "function"
    },
    {
      "inputs": [],
      "name": "executeQueue",
      "outputs": [],
      "stateMutability": "nonpayable",
      "type": "function"
    },
    {
      "inputs": [
        {
          "internalType": "address",
          "name": "_addr",
          "type": "address"
        }
      ],
      "name": "getQueueInfo",
      "outputs": [
        {
          "internalType": "uint256",
          "name": "v",
          "type": "uint256"
        },
        {
          "internalType": "bool",
          "name": "prepared",
          "type": "bool"
        }
      ],
      "stateMutability": "view",
      "type": "function"
    },
    {
      "inputs": [
        {
          "internalType": "uint256",
          "name": "",
          "type": "uint256"
        }
      ],
      "name": "index2value",
      "outputs": [
        {
          "internalType": "uint256",
          "name": "v",
          "type": "uint256"
        },
        {
          "internalType": "address",
          "name": "addr",
          "type": "address"
        }
      ],
      "stateMutability": "view",
      "type": "function"
    },
    {
      "inputs": [],
      "name": "maxIndex",
      "outputs": [
        {
          "internalType": "uint256",
          "name": "",
          "type": "uint256"
        }
      ],
      "stateMutability": "view",
      "type": "function"
    },
    {
      "inputs": [],
      "name": "nextSkipIndex",
      "outputs": [
        {
          "internalType": "uint256",
          "name": "",
          "type": "uint256"
        }
      ],
      "stateMutability": "view",
      "type": "function"
    },
    {
      "inputs": [],
      "name": "nextValue",
      "outputs": [
        {
          "internalType": "uint256",
          "name": "value",
          "type": "uint256"
        }
      ],
      "stateMutability": "view",
      "type": "function"
    },
    {
      "inputs": [],
      "name": "preparedIndex",
      "outputs": [
        {
          "internalType": "uint256",
          "name": "",
          "type": "uint256"
        }
      ],
      "stateMutability": "view",
      "type": "function"
    }
  ],
  "transactionHash": "0x4e24617fc6be6209b0a566f3817fddcf2b7ecd093de1de1c1105d87f07f01ef8",
  "args": [
    "0x77777FeDdddFfC19Ff86DB637967013e6C6A116C",
    "0x2fB6ac90378d4065a0D750cE42CDDD7E85835609"
  ],
  "numDeployments": 2,
  "solcInputHash": "9a2619527d4a97d3e6ae387d94760971",
  "bytecode": "0x60c06040526000603355600060345534801561001a57600080fd5b5060405161104e38038061104e8339810160408190526100399161006c565b6001600160a01b0391821660a0521660805261009f565b80516001600160a01b038116811461006757600080fd5b919050565b6000806040838503121561007f57600080fd5b61008883610050565b915061009660208401610050565b90509250929050565b60805160a051610f756100d960003960006101cd01526000818161016f0152818161040e015281816104a401526107600152610f756000f3fe608060405234801561001057600080fd5b506004361061010b5760003560e01c806366c5b2cb116100a2578063ccfb993511610071578063ccfb99351461024e578063cd0b038914610256578063db87a16b1461025e578063dbe293dd146102ab578063f204fdd0146102b357600080fd5b806366c5b2cb1461022c5780637600b232146102345780639b35742a1461023d578063a4ec69381461024657600080fd5b806331e81921116100de57806331e81921146101c85780634df9532e146101ef5780634e71d92d146102045780635e292a381461020c57600080fd5b806301f682021461011057806314411a2a1461016a5780632640cd38146101a95780632ca869bf146101bf575b600080fd5b61015061011e366004610d54565b6001600160a01b0316600090815260356020908152604080832054808452603690925290912054603354909291111590565b604080519283529015156020830152015b60405180910390f35b6101917f000000000000000000000000000000000000000000000000000000000000000081565b6040516001600160a01b039091168152602001610161565b6101b1606481565b604051908152602001610161565b6101b160345481565b6101917f000000000000000000000000000000000000000000000000000000000000000081565b6102026101fd366004610d71565b6102bb565b005b6102026102bb565b6101b161021a366004610d54565b60356020526000908152604090205481565b61020261031d565b6101b160335481565b6101b160001981565b610202610475565b6101b16106b9565b6102026107e9565b61028e61026c366004610d71565b603660205260009081526040902080546001909101546001600160a01b031682565b604080519283526001600160a01b03909116602083015201610161565b6101b1610887565b610202610909565b600260015414156102e75760405162461bcd60e51b81526004016102de90610d8a565b60405180910390fd5b600260015560405162461bcd60e51b81526020600482015260066024820152651c185d5cd95960d21b60448201526064016102de565b600260015414156103405760405162461bcd60e51b81526004016102de90610d8a565b600260015533600090815260356020908152604080832054808452603690925290912054806103995760405162461bcd60e51b8152602060048201526005602482015264656d70747960d81b60448201526064016102de565b60335482116103d55760405162461bcd60e51b81526020600482015260086024820152671c1c995c185c995960c21b60448201526064016102de565b3360008181526035602090815260408083208390558583526036909152812090815560010180546001600160a01b0319169055610434907f00000000000000000000000000000000000000000000000000000000000000009083610a57565b60408051338152602081018390527fe01216df888009151e605f117bf38fe454baf9d26dcea9510cc11a63b8651fe1910160405180910390a1505060018055565b600260015414156104985760405162461bcd60e51b81526004016102de90610d8a565b600260018190555060007f00000000000000000000000000000000000000000000000000000000000000006001600160a01b031663e94ad65b6040518163ffffffff1660e01b815260040160206040518083038186803b1580156104fb57600080fd5b505afa15801561050f573d6000803e3d6000fd5b505050506040513d601f19601f820116820180604052508101906105339190610def565b9050600060335460016105469190610dd7565b60345410156105845760405162461bcd60e51b815260206004820152600a6024820152696e6f2070656e64696e6760b01b60448201526064016102de565b600061058e610887565b90508060001914156105d35760405162461bcd60e51b815260206004820152600e60248201526d746f6f206d616e7920736b69707360901b60448201526064016102de565b80603360008282546105e59190610dd7565b90915550506033546000908152603660209081526040918290208251808401845281548082526001909201546001600160a01b03908116938201849052935163151b3ba560e21b8152600481019390935260248301919091529185169063546cee9490604401602060405180830381600087803b15801561066557600080fd5b505af1158015610679573d6000803e3d6000fd5b505050506040513d601f19601f8201168201806040525081019061069d9190610e0c565b6033546000908152603660205260409020555050600180555050565b6000806106c4610887565b9050806106d357600091505090565b8060001914156107165760405162461bcd60e51b815260206004820152600e60248201526d746f6f206d616e7920736b69707360901b60448201526064016102de565b6000603660008360335461072a9190610dd7565b815260208101919091526040016000205490508061074b5760009250505090565b6040516272e6bd60e41b8152600481018290527f00000000000000000000000000000000000000000000000000000000000000006001600160a01b03169063072e6bd09060240160206040518083038186803b1580156107aa57600080fd5b505afa1580156107be573d6000803e3d6000fd5b505050506040513d601f19601f820116820180604052508101906107e29190610e0c565b9250505090565b6002600154141561080c5760405162461bcd60e51b81526004016102de90610d8a565b6002600155600061081b610887565b905060001981146108625760405162461bcd60e51b81526020600482015260116024820152701cdada5c081a5cc81d1bdbc81cda1bdc9d607a1b60448201526064016102de565b600160646033546108739190610dd7565b61087d9190610e25565b6033555060018055565b6034546033546000919082808284116108a557600094505050505090565b5060015b60648110156108fd576108bc8184610dd7565b600081815260366020526040902054909250848314806108dc5750600081115b156108ea5750949350505050565b50806108f581610e3c565b9150506108a9565b60001994505050505090565b600054610100900460ff16158080156109295750600054600160ff909116105b806109435750303b158015610943575060005460ff166001145b6109a65760405162461bcd60e51b815260206004820152602e60248201527f496e697469616c697a61626c653a20636f6e747261637420697320616c72656160448201526d191e481a5b9a5d1a585b1a5e995960921b60648201526084016102de565b6000805460ff1916600117905580156109c9576000805461ff0019166101001790555b6109d1610a8c565b8015610a17576000805461ff0019169055604051600181527f7f26b83ff96e1f2b6a682f133852f6798a09c465da95921460cefb38474024989060200160405180910390a15b50565b60408051601f198184030181529190526020810180516001600160e01b03166001600160e01b031990931692909217909152610abd565b50505050565b6040516001600160a01b038316602482015260448101829052610a8790849063a9059cbb60e01b90606401610a1a565b505050565b600054610100900460ff16610ab35760405162461bcd60e51b81526004016102de90610e57565b610abb610b8f565b565b6000610b12826040518060400160405280602081526020017f5361666545524332303a206c6f772d6c6576656c2063616c6c206661696c6564815250856001600160a01b0316610bbc9092919063ffffffff16565b805190915015610a875780806020019051810190610b309190610ea2565b610a875760405162461bcd60e51b815260206004820152602a60248201527f5361666545524332303a204552433230206f7065726174696f6e20646964206e6044820152691bdd081cdd58d8d9595960b21b60648201526084016102de565b600054610100900460ff16610bb65760405162461bcd60e51b81526004016102de90610e57565b60018055565b6060610bcb8484600085610bd5565b90505b9392505050565b606082471015610c365760405162461bcd60e51b815260206004820152602660248201527f416464726573733a20696e73756666696369656e742062616c616e636520666f6044820152651c8818d85b1b60d21b60648201526084016102de565b6001600160a01b0385163b610c8d5760405162461bcd60e51b815260206004820152601d60248201527f416464726573733a2063616c6c20746f206e6f6e2d636f6e747261637400000060448201526064016102de565b600080866001600160a01b03168587604051610ca99190610ef0565b60006040518083038185875af1925050503d8060008114610ce6576040519150601f19603f3d011682016040523d82523d6000602084013e610ceb565b606091505b5091509150610cfb828286610d06565b979650505050505050565b60608315610d15575081610bce565b825115610d255782518084602001fd5b8160405162461bcd60e51b81526004016102de9190610f0c565b6001600160a01b0381168114610a1757600080fd5b600060208284031215610d6657600080fd5b8135610bce81610d3f565b600060208284031215610d8357600080fd5b5035919050565b6020808252601f908201527f5265656e7472616e637947756172643a207265656e7472616e742063616c6c00604082015260600190565b634e487b7160e01b600052601160045260246000fd5b60008219821115610dea57610dea610dc1565b500190565b600060208284031215610e0157600080fd5b8151610bce81610d3f565b600060208284031215610e1e57600080fd5b5051919050565b600082821015610e3757610e37610dc1565b500390565b6000600019821415610e5057610e50610dc1565b5060010190565b6020808252602b908201527f496e697469616c697a61626c653a20636f6e7472616374206973206e6f74206960408201526a6e697469616c697a696e6760a81b606082015260800190565b600060208284031215610eb457600080fd5b81518015158114610bce57600080fd5b60005b83811015610edf578181015183820152602001610ec7565b83811115610a515750506000910152565b60008251610f02818460208701610ec4565b9190910192915050565b6020815260008251806020840152610f2b816040850160208701610ec4565b601f01601f1916919091016040019291505056fea2646970667358221220bdcd7b0e87f604d5a7f9746022672ae770202f8f640c5790a5c14099ebc8a9d164736f6c63430008090033",
  "devdoc": {
    "events": {
      "AddQueue(address,uint256)": {
        "params": {
          "account": "The: address of user",
          "tokenQty": ": voucher of the deposit canceled"
        }
      },
      "CancelQueue(address,uint256)": {
        "params": {
          "account": "The: address of user",
          "tokenQty": ": voucher of the deposit canceled"
        }
      }
    },
    "kind": "dev",
    "methods": {
      "addQueue(uint256)": {
        "params": {
          "tokenQty": ": the amount of voucher*"
        }
      }
    },
    "stateVariables": {
      "maxIndex": {
        "details": "this variable will inc when user added a withdraw in the queue       the NO. will never decrease"
      }
    },
    "title": "ExitQueue for Relayers DAO",
    "version": 1
  },
  "userdoc": {
    "events": {
      "AddQueue(address,uint256)": {
        "notice": "An event emitted when user add queue"
      },
      "CancelQueue(address,uint256)": {
        "notice": "An event emitted when user cancel queue"
      }
    },
    "kind": "user",
    "methods": {
      "ROOT_DB()": {
        "notice": "the address of  torn ROOT_DB contract"
      },
      "TORN_CONTRACT()": {
        "notice": "the address of  torn token contract"
      },
      "addQueue(uint256)": {
        "notice": "addQueue"
      },
      "cancelQueue()": {
        "notice": "cancelQueue*"
      },
      "claim()": {
        "notice": "when the TORN is prepared call this function to claim*"
      },
      "executeQueue()": {
        "notice": "when there are enough TORN call this function the user waiting status would change to  prepared*"
      },
      "getQueueInfo(address)": {
        "notice": "get the queue infomation return v : the amount of voucher if  prepared == false  else the amount of TORN which can be claim prepared : prepared == true show that the TORN is prepared to claim*"
      },
      "maxIndex()": {
        "notice": "begin with 0*"
      },
      "nextSkipIndex()": {
        "notice": "because of cancel ,it will been some blank in the queue call this function to get the counter of  blank in the queue return 1. the number of blanks 2. INDEX_ERR  the he number of blanks is over MAX_QUEUE_CANCEL*"
      },
      "nextValue()": {
        "notice": "get the next user in queue waiting's TORN*"
      },
      "preparedIndex()": {
        "notice": "begin with 0"
      }
    },
    "notice": "this is a simple queue for user exit when  liquidity shortage is not enough. 1. inorder to save gas the code is not easy to understand ,it need same patience 2. if preparedIndex >= addr2index[user_address] , it indicate the TORN is prepared 3. in the waiting ,user can cancel his waiting 4. user at most  add one withdraw in the queue",
    "version": 1
  },
  "storageLayout": {
    "storage": [
      {
        "astId": 138,
        "contract": "contracts/ExitQueue.sol:ExitQueue",
        "label": "_initialized",
        "offset": 0,
        "slot": "0",
        "type": "t_uint8"
      },
      {
        "astId": 141,
        "contract": "contracts/ExitQueue.sol:ExitQueue",
        "label": "_initializing",
        "offset": 1,
        "slot": "0",
        "type": "t_bool"
      },
      {
        "astId": 296,
        "contract": "contracts/ExitQueue.sol:ExitQueue",
        "label": "_status",
        "offset": 0,
        "slot": "1",
        "type": "t_uint256"
      },
      {
        "astId": 340,
        "contract": "contracts/ExitQueue.sol:ExitQueue",
        "label": "__gap",
        "offset": 0,
        "slot": "2",
        "type": "t_array(t_uint256)49_storage"
      },
      {
        "astId": 4819,
        "contract": "contracts/ExitQueue.sol:ExitQueue",
        "label": "preparedIndex",
        "offset": 0,
        "slot": "51",
        "type": "t_uint256"
      },
      {
        "astId": 4823,
        "contract": "contracts/ExitQueue.sol:ExitQueue",
        "label": "maxIndex",
        "offset": 0,
        "slot": "52",
        "type": "t_uint256"
      },
      {
        "astId": 4827,
        "contract": "contracts/ExitQueue.sol:ExitQueue",
        "label": "addr2index",
        "offset": 0,
        "slot": "53",
        "type": "t_mapping(t_address,t_uint256)"
      },
      {
        "astId": 4832,
        "contract": "contracts/ExitQueue.sol:ExitQueue",
        "label": "index2value",
        "offset": 0,
        "slot": "54",
        "type": "t_mapping(t_uint256,t_struct(QUEUE_INFO)4809_storage)"
      }
    ],
    "types": {
      "t_address": {
        "encoding": "inplace",
        "label": "address",
        "numberOfBytes": "20"
      },
      "t_array(t_uint256)49_storage": {
        "base": "t_uint256",
        "encoding": "inplace",
        "label": "uint256[49]",
        "numberOfBytes": "1568"
      },
      "t_bool": {
        "encoding": "inplace",
        "label": "bool",
        "numberOfBytes": "1"
      },
      "t_mapping(t_address,t_uint256)": {
        "encoding": "mapping",
        "key": "t_address",
        "label": "mapping(address => uint256)",
        "numberOfBytes": "32",
        "value": "t_uint256"
      },
      "t_mapping(t_uint256,t_struct(QUEUE_INFO)4809_storage)": {
        "encoding": "mapping",
        "key": "t_uint256",
        "label": "mapping(uint256 => struct ExitQueue.QUEUE_INFO)",
        "numberOfBytes": "32",
        "value": "t_struct(QUEUE_INFO)4809_storage"
      },
      "t_struct(QUEUE_INFO)4809_storage": {
        "encoding": "inplace",
        "label": "struct ExitQueue.QUEUE_INFO",
        "members": [
          {
            "astId": 4806,
            "contract": "contracts/ExitQueue.sol:ExitQueue",
            "label": "v",
            "offset": 0,
            "slot": "0",
            "type": "t_uint256"
          },
          {
            "astId": 4808,
            "contract": "contracts/ExitQueue.sol:ExitQueue",
            "label": "addr",
            "offset": 0,
            "slot": "1",
            "type": "t_address"
          }
        ],
        "numberOfBytes": "64"
      },
      "t_uint256": {
        "encoding": "inplace",
        "label": "uint256",
        "numberOfBytes": "32"
      },
      "t_uint8": {
        "encoding": "inplace",
        "label": "uint8",
        "numberOfBytes": "1"
      }
    }
  }
}