{
  "address": "0x1967df2c44e3da69c5C86A5f11F8fBd2C8ab2e31",
  "abi": [
    {
      "inputs": [
        {
          "internalType": "address",
          "name": "_tornContract",
          "type": "address"
        },
        {
          "internalType": "address",
          "name": "_root_manager",
          "type": "address"
        }
      ],
      "stateMutability": "nonpayable",
      "type": "constructor"
    },
    {
      "anonymous": false,
      "inputs": [
        {
          "indexed": false,
          "internalType": "uint8",
          "name": "version",
          "type": "uint8"
        }
      ],
      "name": "Initialized",
      "type": "event"
    },
    {
      "anonymous": false,
      "inputs": [
        {
          "indexed": true,
          "internalType": "address",
          "name": "previousOwner",
          "type": "address"
        },
        {
          "indexed": true,
          "internalType": "address",
          "name": "newOwner",
          "type": "address"
        }
      ],
      "name": "OwnershipTransferred",
      "type": "event"
    },
    {
      "anonymous": false,
      "inputs": [
        {
          "indexed": false,
          "internalType": "uint256",
          "name": "_amount_token",
          "type": "uint256"
        }
      ],
      "name": "add_queue",
      "type": "event"
    },
    {
      "anonymous": false,
      "inputs": [
        {
          "indexed": false,
          "internalType": "address",
          "name": "account",
          "type": "address"
        },
        {
          "indexed": false,
          "internalType": "uint256",
          "name": "_amount_token",
          "type": "uint256"
        }
      ],
      "name": "cancel_queue",
      "type": "event"
    },
    {
      "inputs": [],
      "name": "INDEX_ERR",
      "outputs": [
        {
          "internalType": "uint256",
          "name": "",
          "type": "uint256"
        }
      ],
      "stateMutability": "view",
      "type": "function"
    },
    {
      "inputs": [],
      "name": "MAX_QUEUE_CANCEL",
      "outputs": [
        {
          "internalType": "uint256",
          "name": "",
          "type": "uint256"
        }
      ],
      "stateMutability": "view",
      "type": "function"
    },
    {
      "inputs": [],
      "name": "ROOT_MANAGER",
      "outputs": [
        {
          "internalType": "address",
          "name": "",
          "type": "address"
        }
      ],
      "stateMutability": "view",
      "type": "function"
    },
    {
      "inputs": [],
      "name": "TORN_CONTRACT",
      "outputs": [
        {
          "internalType": "address",
          "name": "",
          "type": "address"
        }
      ],
      "stateMutability": "view",
      "type": "function"
    },
    {
      "inputs": [],
      "name": "UpdateSkipIndex",
      "outputs": [],
      "stateMutability": "nonpayable",
      "type": "function"
    },
    {
      "inputs": [],
      "name": "__ExitQueue_init",
      "outputs": [],
      "stateMutability": "nonpayable",
      "type": "function"
    },
    {
      "inputs": [
        {
          "internalType": "uint256",
          "name": "_amount_token",
          "type": "uint256"
        }
      ],
      "name": "addQueue",
      "outputs": [],
      "stateMutability": "nonpayable",
      "type": "function"
    },
    {
      "inputs": [
        {
          "internalType": "address",
          "name": "",
          "type": "address"
        }
      ],
      "name": "addr2index",
      "outputs": [
        {
          "internalType": "uint256",
          "name": "",
          "type": "uint256"
        }
      ],
      "stateMutability": "view",
      "type": "function"
    },
    {
      "inputs": [
        {
          "internalType": "address",
          "name": "addr",
          "type": "address"
        }
      ],
      "name": "address2Value",
      "outputs": [
        {
          "internalType": "uint256",
          "name": "v",
          "type": "uint256"
        },
        {
          "internalType": "bool",
          "name": "prepared",
          "type": "bool"
        }
      ],
      "stateMutability": "view",
      "type": "function"
    },
    {
      "inputs": [],
      "name": "cancelQueue",
      "outputs": [],
      "stateMutability": "nonpayable",
      "type": "function"
    },
    {
      "inputs": [],
      "name": "executeQueue",
      "outputs": [],
      "stateMutability": "nonpayable",
      "type": "function"
    },
    {
      "inputs": [
        {
          "internalType": "uint256",
          "name": "",
          "type": "uint256"
        }
      ],
      "name": "index2value",
      "outputs": [
        {
          "internalType": "uint256",
          "name": "v",
          "type": "uint256"
        },
        {
          "internalType": "address",
          "name": "addr",
          "type": "address"
        }
      ],
      "stateMutability": "view",
      "type": "function"
    },
    {
      "inputs": [],
      "name": "maxIndex",
      "outputs": [
        {
          "internalType": "uint256",
          "name": "",
          "type": "uint256"
        }
      ],
      "stateMutability": "view",
      "type": "function"
    },
    {
      "inputs": [],
      "name": "nextSkipIndex",
      "outputs": [
        {
          "internalType": "uint256",
          "name": "",
          "type": "uint256"
        }
      ],
      "stateMutability": "view",
      "type": "function"
    },
    {
      "inputs": [],
      "name": "nextValue",
      "outputs": [
        {
          "internalType": "uint256",
          "name": "value",
          "type": "uint256"
        }
      ],
      "stateMutability": "view",
      "type": "function"
    },
    {
      "inputs": [],
      "name": "owner",
      "outputs": [
        {
          "internalType": "address",
          "name": "",
          "type": "address"
        }
      ],
      "stateMutability": "view",
      "type": "function"
    },
    {
      "inputs": [],
      "name": "preparedIndex",
      "outputs": [
        {
          "internalType": "uint256",
          "name": "",
          "type": "uint256"
        }
      ],
      "stateMutability": "view",
      "type": "function"
    },
    {
      "inputs": [],
      "name": "renounceOwnership",
      "outputs": [],
      "stateMutability": "nonpayable",
      "type": "function"
    },
    {
      "inputs": [
        {
          "internalType": "address",
          "name": "newOwner",
          "type": "address"
        }
      ],
      "name": "transferOwnership",
      "outputs": [],
      "stateMutability": "nonpayable",
      "type": "function"
    },
    {
      "inputs": [],
      "name": "withDraw",
      "outputs": [],
      "stateMutability": "nonpayable",
      "type": "function"
    }
  ],
  "transactionHash": "0x35dadb588c538afa21b4aa58614ea07af609ca51572a804f616878f9762974ec",
  "args": [
    "0x77777FeDdddFfC19Ff86DB637967013e6C6A116C",
    "0x6201dBf488e977018F4A1BbD8Df57F5327991ECE"
  ],
  "numDeployments": 1,
  "solcInputHash": "8a0492c1571882e36046aa37bef8c8bf",
  "bytecode": "0x60c06040526000609755600060985534801561001a57600080fd5b506040516114fd3803806114fd8339810160408190526100399161006c565b6001600160a01b0391821660a0521660805261009f565b80516001600160a01b038116811461006757600080fd5b919050565b6000806040838503121561007f57600080fd5b61008883610050565b915061009660208401610050565b90509250929050565b60805160a0516114166100e760003960008181610164015261041101526000818161022b01528181610587015281816106da015281816107e00152610a9d01526114166000f3fe608060405234801561001057600080fd5b506004361061012c5760003560e01c80637600b232116100ad578063cd0b038911610071578063cd0b038914610290578063db87a16b14610298578063dbe293dd146102e5578063f204fdd0146102ed578063f2fde38b146102f557600080fd5b80637600b2321461025d5780638da5cb5b146102665780639b35742a14610277578063a4ec693814610280578063ccfb99351461028857600080fd5b8063552699f1116100f4578063552699f1146101b15780635e292a38146102065780635f61e3ec1461022657806366c5b2cb1461024d578063715018a61461025557600080fd5b80630fdb1c10146101315780632640cd381461013b5780632ca869bf1461015657806331e819211461015f5780634df9532e1461019e575b600080fd5b610139610308565b005b610143606481565b6040519081526020015b60405180910390f35b61014360985481565b6101867f000000000000000000000000000000000000000000000000000000000000000081565b6040516001600160a01b03909116815260200161014d565b6101396101ac3660046111a9565b610441565b6101f16101bf3660046111d7565b6001600160a01b0316600090815260996020908152604080832054808452609a90925290912054609754909291111590565b6040805192835290151560208301520161014d565b6101436102143660046111d7565b60996020526000908152604090205481565b6101867f000000000000000000000000000000000000000000000000000000000000000081565b6101396105e9565b61013961074b565b61014360975481565b6033546001600160a01b0316610186565b61014360001981565b6101396107b1565b6101436109f6565b610139610b26565b6102c86102a63660046111a9565b609a60205260009081526040902080546001909101546001600160a01b031682565b604080519283526001600160a01b0390911660208301520161014d565b610143610bb8565b610139610c3a565b6101396103033660046111d7565b610caf565b600260655414156103345760405162461bcd60e51b815260040161032b906111f4565b60405180910390fd5b60026065553360009081526099602052604090205460975481111561038a5760405162461bcd60e51b815260206004820152600c60248201526b1b9bdd081c1c995c185c995960a21b604482015260640161032b565b6000818152609a6020526040902054806103d85760405162461bcd60e51b815260206004820152600f60248201526e68617665206e6f2070656e64696e6760881b604482015260640161032b565b336000818152609960209081526040808320839055858352609a909152812090815560010180546001600160a01b0319169055610438907f0000000000000000000000000000000000000000000000000000000000000000905b83610d77565b50506001606555565b600260655414156104645760405162461bcd60e51b815260040161032b906111f4565b600260658190555060016098600082825461047f9190611241565b9091555050806104be5760405162461bcd60e51b815260206004820152600a6024820152696572726f72207061726160b01b604482015260640161032b565b336000908152609960205260409020541580156104ea57506098546000908152609a6020526040902054155b6105255760405162461bcd60e51b815260206004820152600c60248201526b686176652070656e64696e6760a01b604482015260640161032b565b60985433600081815260996020908152604080832085905580518082018252868152808301858152958452609a909252909120905181559151600190920180546001600160a01b0319166001600160a01b03909316929092179091556105ae907f0000000000000000000000000000000000000000000000000000000000000000903084610ddf565b6040518181527f5aef67c95f47b293f4de8ebc8ab77e701094fc924fd5b56b5e3375c51e5c97379060200160405180910390a1506001606555565b6002606554141561060c5760405162461bcd60e51b815260040161032b906111f4565b600260655533600090815260996020908152604080832054808452609a90925290912054806106655760405162461bcd60e51b8152602060048201526005602482015264656d70747960d81b604482015260640161032b565b60975482116106a15760405162461bcd60e51b81526020600482015260086024820152671c1c995c185c995960c21b604482015260640161032b565b336000818152609960209081526040808320839055858352609a909152812090815560010180546001600160a01b03191690556106ff907f000000000000000000000000000000000000000000000000000000000000000090610432565b7f928514c1eab4e0264fc2a61e4dfac1747511111f0df535fee55cab3890ad6eb633604080516001600160a01b039092168252602082018490520160405180910390a150506001606555565b6033546001600160a01b031633146107a55760405162461bcd60e51b815260206004820181905260248201527f4f776e61626c653a2063616c6c6572206973206e6f7420746865206f776e6572604482015260640161032b565b6107af6000610e1d565b565b600260655414156107d45760405162461bcd60e51b815260040161032b906111f4565b600260658190555060007f00000000000000000000000000000000000000000000000000000000000000006001600160a01b031663e94ad65b6040518163ffffffff1660e01b815260040160206040518083038186803b15801561083757600080fd5b505afa15801561084b573d6000803e3d6000fd5b505050506040513d601f19601f8201168201806040525081019061086f9190611259565b9050600060975460016108829190611241565b60985410156108c05760405162461bcd60e51b815260206004820152600a6024820152696e6f2070656e64696e6760b01b604482015260640161032b565b60006108ca610bb8565b905080600019141561090f5760405162461bcd60e51b815260206004820152600e60248201526d746f6f206d616e7920736b69707360901b604482015260640161032b565b80609760008282546109219190611241565b90915550506097546000908152609a60209081526040918290208251808401845281548082526001909201546001600160a01b03908116938201849052935163151b3ba560e21b8152600481019390935260248301919091529185169063546cee9490604401602060405180830381600087803b1580156109a157600080fd5b505af11580156109b5573d6000803e3d6000fd5b505050506040513d601f19601f820116820180604052508101906109d99190611276565b6097546000908152609a6020526040902055505060016065555050565b600080610a01610bb8565b905080610a1057600091505090565b806000191415610a535760405162461bcd60e51b815260206004820152600e60248201526d746f6f206d616e7920736b69707360901b604482015260640161032b565b6000609a600083609754610a679190611241565b8152602081019190915260400160002054905080610a885760009250505090565b6040516272e6bd60e41b8152600481018290527f00000000000000000000000000000000000000000000000000000000000000006001600160a01b03169063072e6bd09060240160206040518083038186803b158015610ae757600080fd5b505afa158015610afb573d6000803e3d6000fd5b505050506040513d601f19601f82011682018060405250810190610b1f9190611276565b9250505090565b60026065541415610b495760405162461bcd60e51b815260040161032b906111f4565b60026065556000610b58610bb8565b90506000198114610b9f5760405162461bcd60e51b81526020600482015260116024820152701cdada5c081a5cc81d1bdbc81cda1bdc9d607a1b604482015260640161032b565b609754610bad906063611241565b609755506001606555565b609854609754600091908280828411610bd657600094505050505090565b5060015b6064811015610c2e57610bed8184611241565b6000818152609a602052604090205490925084831480610c0d5750600081115b15610c1b5750949350505050565b5080610c268161128f565b915050610bda565b60001994505050505090565b6000610c466001610e6f565b90508015610c5e576000805461ff0019166101001790555b610c66610ef7565b8015610cac576000805461ff0019169055604051600181527f7f26b83ff96e1f2b6a682f133852f6798a09c465da95921460cefb38474024989060200160405180910390a15b50565b6033546001600160a01b03163314610d095760405162461bcd60e51b815260206004820181905260248201527f4f776e61626c653a2063616c6c6572206973206e6f7420746865206f776e6572604482015260640161032b565b6001600160a01b038116610d6e5760405162461bcd60e51b815260206004820152602660248201527f4f776e61626c653a206e6577206f776e657220697320746865207a65726f206160448201526564647265737360d01b606482015260840161032b565b610cac81610e1d565b6040516001600160a01b038316602482015260448101829052610dda90849063a9059cbb60e01b906064015b60408051601f198184030181529190526020810180516001600160e01b03166001600160e01b031990931692909217909152610f26565b505050565b6040516001600160a01b0380851660248301528316604482015260648101829052610e179085906323b872dd60e01b90608401610da3565b50505050565b603380546001600160a01b038381166001600160a01b0319831681179093556040519116919082907f8be0079c531659141344cd1fd0a4f28419497f9722a3daafe3b4186f6b6457e090600090a35050565b60008054610100900460ff1615610eb6578160ff166001148015610e925750303b155b610eae5760405162461bcd60e51b815260040161032b906112aa565b506000919050565b60005460ff808416911610610edd5760405162461bcd60e51b815260040161032b906112aa565b506000805460ff191660ff92909216919091179055600190565b600054610100900460ff16610f1e5760405162461bcd60e51b815260040161032b906112f8565b6107af610ff8565b6000610f7b826040518060400160405280602081526020017f5361666545524332303a206c6f772d6c6576656c2063616c6c206661696c6564815250856001600160a01b03166110269092919063ffffffff16565b805190915015610dda5780806020019051810190610f999190611343565b610dda5760405162461bcd60e51b815260206004820152602a60248201527f5361666545524332303a204552433230206f7065726174696f6e20646964206e6044820152691bdd081cdd58d8d9595960b21b606482015260840161032b565b600054610100900460ff1661101f5760405162461bcd60e51b815260040161032b906112f8565b6001606555565b6060611035848460008561103f565b90505b9392505050565b6060824710156110a05760405162461bcd60e51b815260206004820152602660248201527f416464726573733a20696e73756666696369656e742062616c616e636520666f6044820152651c8818d85b1b60d21b606482015260840161032b565b6001600160a01b0385163b6110f75760405162461bcd60e51b815260206004820152601d60248201527f416464726573733a2063616c6c20746f206e6f6e2d636f6e7472616374000000604482015260640161032b565b600080866001600160a01b031685876040516111139190611391565b60006040518083038185875af1925050503d8060008114611150576040519150601f19603f3d011682016040523d82523d6000602084013e611155565b606091505b5091509150611165828286611170565b979650505050505050565b6060831561117f575081611038565b82511561118f5782518084602001fd5b8160405162461bcd60e51b815260040161032b91906113ad565b6000602082840312156111bb57600080fd5b5035919050565b6001600160a01b0381168114610cac57600080fd5b6000602082840312156111e957600080fd5b8135611038816111c2565b6020808252601f908201527f5265656e7472616e637947756172643a207265656e7472616e742063616c6c00604082015260600190565b634e487b7160e01b600052601160045260246000fd5b600082198211156112545761125461122b565b500190565b60006020828403121561126b57600080fd5b8151611038816111c2565b60006020828403121561128857600080fd5b5051919050565b60006000198214156112a3576112a361122b565b5060010190565b6020808252602e908201527f496e697469616c697a61626c653a20636f6e747261637420697320616c72656160408201526d191e481a5b9a5d1a585b1a5e995960921b606082015260800190565b6020808252602b908201527f496e697469616c697a61626c653a20636f6e7472616374206973206e6f74206960408201526a6e697469616c697a696e6760a81b606082015260800190565b60006020828403121561135557600080fd5b8151801515811461103857600080fd5b60005b83811015611380578181015183820152602001611368565b83811115610e175750506000910152565b600082516113a3818460208701611365565b9190910192915050565b60208152600082518060208401526113cc816040850160208701611365565b601f01601f1916919091016040019291505056fea2646970667358221220031243627b21d00acf346017e7ad4baba9e5bd6cb1b8ed19dadbbd85559befc764736f6c63430008090033",
  "devdoc": {
    "kind": "dev",
    "methods": {
      "owner()": {
        "details": "Returns the address of the current owner."
      },
      "renounceOwnership()": {
        "details": "Leaves the contract without owner. It will not be possible to call `onlyOwner` functions anymore. Can only be called by the current owner. NOTE: Renouncing ownership will leave the contract without an owner, thereby removing any functionality that is only available to the owner."
      },
      "transferOwnership(address)": {
        "details": "Transfers ownership of the contract to a new account (`newOwner`). Can only be called by the current owner."
      }
    },
    "version": 1
  },
  "userdoc": {
    "kind": "user",
    "methods": {
      "constructor": {
        "notice": "---------- constructor ---------- *"
      }
    },
    "version": 1
  },
  "storageLayout": {
    "storage": [
      {
        "astId": 130,
        "contract": "contracts/ExitQueue.sol:ExitQueue",
        "label": "_initialized",
        "offset": 0,
        "slot": "0",
        "type": "t_uint8"
      },
      {
        "astId": 133,
        "contract": "contracts/ExitQueue.sol:ExitQueue",
        "label": "_initializing",
        "offset": 1,
        "slot": "0",
        "type": "t_bool"
      },
      {
        "astId": 1773,
        "contract": "contracts/ExitQueue.sol:ExitQueue",
        "label": "__gap",
        "offset": 0,
        "slot": "1",
        "type": "t_array(t_uint256)50_storage"
      },
      {
        "astId": 10,
        "contract": "contracts/ExitQueue.sol:ExitQueue",
        "label": "_owner",
        "offset": 0,
        "slot": "51",
        "type": "t_address"
      },
      {
        "astId": 122,
        "contract": "contracts/ExitQueue.sol:ExitQueue",
        "label": "__gap",
        "offset": 0,
        "slot": "52",
        "type": "t_array(t_uint256)49_storage"
      },
      {
        "astId": 279,
        "contract": "contracts/ExitQueue.sol:ExitQueue",
        "label": "_status",
        "offset": 0,
        "slot": "101",
        "type": "t_uint256"
      },
      {
        "astId": 323,
        "contract": "contracts/ExitQueue.sol:ExitQueue",
        "label": "__gap",
        "offset": 0,
        "slot": "102",
        "type": "t_array(t_uint256)49_storage"
      },
      {
        "astId": 5715,
        "contract": "contracts/ExitQueue.sol:ExitQueue",
        "label": "preparedIndex",
        "offset": 0,
        "slot": "151",
        "type": "t_uint256"
      },
      {
        "astId": 5718,
        "contract": "contracts/ExitQueue.sol:ExitQueue",
        "label": "maxIndex",
        "offset": 0,
        "slot": "152",
        "type": "t_uint256"
      },
      {
        "astId": 5722,
        "contract": "contracts/ExitQueue.sol:ExitQueue",
        "label": "addr2index",
        "offset": 0,
        "slot": "153",
        "type": "t_mapping(t_address,t_uint256)"
      },
      {
        "astId": 5727,
        "contract": "contracts/ExitQueue.sol:ExitQueue",
        "label": "index2value",
        "offset": 0,
        "slot": "154",
        "type": "t_mapping(t_uint256,t_struct(QUEUE_INFO)5708_storage)"
      }
    ],
    "types": {
      "t_address": {
        "encoding": "inplace",
        "label": "address",
        "numberOfBytes": "20"
      },
      "t_array(t_uint256)49_storage": {
        "base": "t_uint256",
        "encoding": "inplace",
        "label": "uint256[49]",
        "numberOfBytes": "1568"
      },
      "t_array(t_uint256)50_storage": {
        "base": "t_uint256",
        "encoding": "inplace",
        "label": "uint256[50]",
        "numberOfBytes": "1600"
      },
      "t_bool": {
        "encoding": "inplace",
        "label": "bool",
        "numberOfBytes": "1"
      },
      "t_mapping(t_address,t_uint256)": {
        "encoding": "mapping",
        "key": "t_address",
        "label": "mapping(address => uint256)",
        "numberOfBytes": "32",
        "value": "t_uint256"
      },
      "t_mapping(t_uint256,t_struct(QUEUE_INFO)5708_storage)": {
        "encoding": "mapping",
        "key": "t_uint256",
        "label": "mapping(uint256 => struct ExitQueue.QUEUE_INFO)",
        "numberOfBytes": "32",
        "value": "t_struct(QUEUE_INFO)5708_storage"
      },
      "t_struct(QUEUE_INFO)5708_storage": {
        "encoding": "inplace",
        "label": "struct ExitQueue.QUEUE_INFO",
        "members": [
          {
            "astId": 5705,
            "contract": "contracts/ExitQueue.sol:ExitQueue",
            "label": "v",
            "offset": 0,
            "slot": "0",
            "type": "t_uint256"
          },
          {
            "astId": 5707,
            "contract": "contracts/ExitQueue.sol:ExitQueue",
            "label": "addr",
            "offset": 0,
            "slot": "1",
            "type": "t_address"
          }
        ],
        "numberOfBytes": "64"
      },
      "t_uint256": {
        "encoding": "inplace",
        "label": "uint256",
        "numberOfBytes": "32"
      },
      "t_uint8": {
        "encoding": "inplace",
        "label": "uint8",
        "numberOfBytes": "1"
      }
    }
  }
}