{
  "address": "0x3ad009BC689E1342Ab912cCB36A6035bF7b986Fe",
  "abi": [
    {
      "inputs": [
        {
          "internalType": "address",
          "name": "_torn_relayer_registry",
          "type": "address"
        },
        {
          "internalType": "address",
          "name": "_tornContract",
          "type": "address"
        }
      ],
      "stateMutability": "nonpayable",
      "type": "constructor"
    },
    {
      "anonymous": false,
      "inputs": [
        {
          "indexed": true,
          "internalType": "address",
          "name": "owner",
          "type": "address"
        },
        {
          "indexed": true,
          "internalType": "address",
          "name": "spender",
          "type": "address"
        },
        {
          "indexed": false,
          "internalType": "uint256",
          "name": "value",
          "type": "uint256"
        }
      ],
      "name": "Approval",
      "type": "event"
    },
    {
      "anonymous": false,
      "inputs": [
        {
          "indexed": false,
          "internalType": "address",
          "name": "from",
          "type": "address"
        },
        {
          "indexed": false,
          "internalType": "uint256",
          "name": "vaule",
          "type": "uint256"
        }
      ],
      "name": "Income",
      "type": "event"
    },
    {
      "anonymous": false,
      "inputs": [
        {
          "indexed": false,
          "internalType": "uint8",
          "name": "version",
          "type": "uint8"
        }
      ],
      "name": "Initialized",
      "type": "event"
    },
    {
      "anonymous": false,
      "inputs": [
        {
          "indexed": true,
          "internalType": "address",
          "name": "previousOwner",
          "type": "address"
        },
        {
          "indexed": true,
          "internalType": "address",
          "name": "newOwner",
          "type": "address"
        }
      ],
      "name": "OwnershipTransferred",
      "type": "event"
    },
    {
      "anonymous": false,
      "inputs": [
        {
          "indexed": true,
          "internalType": "address",
          "name": "from",
          "type": "address"
        },
        {
          "indexed": true,
          "internalType": "address",
          "name": "to",
          "type": "address"
        },
        {
          "indexed": false,
          "internalType": "uint256",
          "name": "value",
          "type": "uint256"
        }
      ],
      "name": "Transfer",
      "type": "event"
    },
    {
      "inputs": [],
      "name": "MAX_RELAYER_COUNTER",
      "outputs": [
        {
          "internalType": "uint256",
          "name": "",
          "type": "uint256"
        }
      ],
      "stateMutability": "view",
      "type": "function"
    },
    {
      "inputs": [],
      "name": "TORN_CONTRACT",
      "outputs": [
        {
          "internalType": "address",
          "name": "",
          "type": "address"
        }
      ],
      "stateMutability": "view",
      "type": "function"
    },
    {
      "inputs": [],
      "name": "TORN_RELAYER_REGISTRY",
      "outputs": [
        {
          "internalType": "address",
          "name": "",
          "type": "address"
        }
      ],
      "stateMutability": "view",
      "type": "function"
    },
    {
      "inputs": [
        {
          "internalType": "address",
          "name": "_inComeContract",
          "type": "address"
        },
        {
          "internalType": "address",
          "name": "_depositContract",
          "type": "address"
        },
        {
          "internalType": "address",
          "name": "_exitQueueContract",
          "type": "address"
        },
        {
          "internalType": "address",
          "name": "_profitRecord",
          "type": "address"
        }
      ],
      "name": "__RootManger_init",
      "outputs": [],
      "stateMutability": "nonpayable",
      "type": "function"
    },
    {
      "inputs": [
        {
          "internalType": "address",
          "name": "_inComeContract",
          "type": "address"
        },
        {
          "internalType": "address",
          "name": "_depositContract",
          "type": "address"
        },
        {
          "internalType": "address",
          "name": "_exitQueueContract",
          "type": "address"
        },
        {
          "internalType": "address",
          "name": "_profitRecord",
          "type": "address"
        }
      ],
      "name": "__RootManger_init_unchained",
      "outputs": [],
      "stateMutability": "nonpayable",
      "type": "function"
    },
    {
      "inputs": [
        {
          "internalType": "uint256",
          "name": "",
          "type": "uint256"
        }
      ],
      "name": "_relayers",
      "outputs": [
        {
          "internalType": "address",
          "name": "",
          "type": "address"
        }
      ],
      "stateMutability": "view",
      "type": "function"
    },
    {
      "inputs": [
        {
          "internalType": "uint256",
          "name": "amount",
          "type": "uint256"
        }
      ],
      "name": "addIncome",
      "outputs": [],
      "stateMutability": "nonpayable",
      "type": "function"
    },
    {
      "inputs": [
        {
          "internalType": "address",
          "name": "__relayer",
          "type": "address"
        },
        {
          "internalType": "uint256",
          "name": "index",
          "type": "uint256"
        }
      ],
      "name": "addRelayer",
      "outputs": [],
      "stateMutability": "nonpayable",
      "type": "function"
    },
    {
      "inputs": [
        {
          "internalType": "address",
          "name": "owner",
          "type": "address"
        },
        {
          "internalType": "address",
          "name": "spender",
          "type": "address"
        }
      ],
      "name": "allowance",
      "outputs": [
        {
          "internalType": "uint256",
          "name": "",
          "type": "uint256"
        }
      ],
      "stateMutability": "view",
      "type": "function"
    },
    {
      "inputs": [
        {
          "internalType": "address",
          "name": "spender",
          "type": "address"
        },
        {
          "internalType": "uint256",
          "name": "amount",
          "type": "uint256"
        }
      ],
      "name": "approve",
      "outputs": [
        {
          "internalType": "bool",
          "name": "ret",
          "type": "bool"
        }
      ],
      "stateMutability": "nonpayable",
      "type": "function"
    },
    {
      "inputs": [
        {
          "internalType": "address",
          "name": "account",
          "type": "address"
        }
      ],
      "name": "balanceOf",
      "outputs": [
        {
          "internalType": "uint256",
          "name": "",
          "type": "uint256"
        }
      ],
      "stateMutability": "view",
      "type": "function"
    },
    {
      "inputs": [
        {
          "internalType": "address",
          "name": "account",
          "type": "address"
        }
      ],
      "name": "balanceOfTorn",
      "outputs": [
        {
          "internalType": "uint256",
          "name": "",
          "type": "uint256"
        }
      ],
      "stateMutability": "view",
      "type": "function"
    },
    {
      "inputs": [],
      "name": "decimals",
      "outputs": [
        {
          "internalType": "uint8",
          "name": "",
          "type": "uint8"
        }
      ],
      "stateMutability": "view",
      "type": "function"
    },
    {
      "inputs": [
        {
          "internalType": "address",
          "name": "spender",
          "type": "address"
        },
        {
          "internalType": "uint256",
          "name": "subtractedValue",
          "type": "uint256"
        }
      ],
      "name": "decreaseAllowance",
      "outputs": [
        {
          "internalType": "bool",
          "name": "",
          "type": "bool"
        }
      ],
      "stateMutability": "nonpayable",
      "type": "function"
    },
    {
      "inputs": [],
      "name": "depositContract",
      "outputs": [
        {
          "internalType": "address",
          "name": "",
          "type": "address"
        }
      ],
      "stateMutability": "view",
      "type": "function"
    },
    {
      "inputs": [],
      "name": "exitQueueContract",
      "outputs": [
        {
          "internalType": "address",
          "name": "",
          "type": "address"
        }
      ],
      "stateMutability": "view",
      "type": "function"
    },
    {
      "inputs": [],
      "name": "inComeContract",
      "outputs": [
        {
          "internalType": "address",
          "name": "",
          "type": "address"
        }
      ],
      "stateMutability": "view",
      "type": "function"
    },
    {
      "inputs": [
        {
          "internalType": "address",
          "name": "spender",
          "type": "address"
        },
        {
          "internalType": "uint256",
          "name": "addedValue",
          "type": "uint256"
        }
      ],
      "name": "increaseAllowance",
      "outputs": [
        {
          "internalType": "bool",
          "name": "",
          "type": "bool"
        }
      ],
      "stateMutability": "nonpayable",
      "type": "function"
    },
    {
      "inputs": [],
      "name": "name",
      "outputs": [
        {
          "internalType": "string",
          "name": "",
          "type": "string"
        }
      ],
      "stateMutability": "view",
      "type": "function"
    },
    {
      "inputs": [],
      "name": "operator",
      "outputs": [
        {
          "internalType": "address",
          "name": "",
          "type": "address"
        }
      ],
      "stateMutability": "view",
      "type": "function"
    },
    {
      "inputs": [],
      "name": "owner",
      "outputs": [
        {
          "internalType": "address",
          "name": "",
          "type": "address"
        }
      ],
      "stateMutability": "view",
      "type": "function"
    },
    {
      "inputs": [],
      "name": "profitRecord",
      "outputs": [
        {
          "internalType": "address",
          "name": "",
          "type": "address"
        }
      ],
      "stateMutability": "view",
      "type": "function"
    },
    {
      "inputs": [
        {
          "internalType": "uint256",
          "name": "index",
          "type": "uint256"
        }
      ],
      "name": "removeRelayer",
      "outputs": [],
      "stateMutability": "nonpayable",
      "type": "function"
    },
    {
      "inputs": [],
      "name": "renounceOwnership",
      "outputs": [],
      "stateMutability": "nonpayable",
      "type": "function"
    },
    {
      "inputs": [
        {
          "internalType": "address",
          "name": "account",
          "type": "address"
        },
        {
          "internalType": "uint256",
          "name": "value",
          "type": "uint256"
        }
      ],
      "name": "safeDeposit",
      "outputs": [
        {
          "internalType": "uint256",
          "name": "",
          "type": "uint256"
        }
      ],
      "stateMutability": "nonpayable",
      "type": "function"
    },
    {
      "inputs": [
        {
          "internalType": "address",
          "name": "account",
          "type": "address"
        },
        {
          "internalType": "uint256",
          "name": "to_burn",
          "type": "uint256"
        }
      ],
      "name": "safeWithdraw",
      "outputs": [],
      "stateMutability": "nonpayable",
      "type": "function"
    },
    {
      "inputs": [
        {
          "internalType": "address",
          "name": "__operator",
          "type": "address"
        }
      ],
      "name": "setOperator",
      "outputs": [],
      "stateMutability": "nonpayable",
      "type": "function"
    },
    {
      "inputs": [],
      "name": "symbol",
      "outputs": [
        {
          "internalType": "string",
          "name": "",
          "type": "string"
        }
      ],
      "stateMutability": "view",
      "type": "function"
    },
    {
      "inputs": [],
      "name": "totalRelayerTorn",
      "outputs": [
        {
          "internalType": "uint256",
          "name": "ret",
          "type": "uint256"
        }
      ],
      "stateMutability": "view",
      "type": "function"
    },
    {
      "inputs": [],
      "name": "totalSupply",
      "outputs": [
        {
          "internalType": "uint256",
          "name": "",
          "type": "uint256"
        }
      ],
      "stateMutability": "view",
      "type": "function"
    },
    {
      "inputs": [],
      "name": "totalTorn",
      "outputs": [
        {
          "internalType": "uint256",
          "name": "ret",
          "type": "uint256"
        }
      ],
      "stateMutability": "view",
      "type": "function"
    },
    {
      "inputs": [
        {
          "internalType": "address",
          "name": "to",
          "type": "address"
        },
        {
          "internalType": "uint256",
          "name": "amount",
          "type": "uint256"
        }
      ],
      "name": "transfer",
      "outputs": [
        {
          "internalType": "bool",
          "name": "",
          "type": "bool"
        }
      ],
      "stateMutability": "nonpayable",
      "type": "function"
    },
    {
      "inputs": [
        {
          "internalType": "address",
          "name": "from",
          "type": "address"
        },
        {
          "internalType": "address",
          "name": "to",
          "type": "address"
        },
        {
          "internalType": "uint256",
          "name": "amount",
          "type": "uint256"
        }
      ],
      "name": "transferFrom",
      "outputs": [
        {
          "internalType": "bool",
          "name": "",
          "type": "bool"
        }
      ],
      "stateMutability": "nonpayable",
      "type": "function"
    },
    {
      "inputs": [
        {
          "internalType": "address",
          "name": "newOwner",
          "type": "address"
        }
      ],
      "name": "transferOwnership",
      "outputs": [],
      "stateMutability": "nonpayable",
      "type": "function"
    },
    {
      "inputs": [
        {
          "internalType": "uint256",
          "name": "value_token",
          "type": "uint256"
        }
      ],
      "name": "valueForTorn",
      "outputs": [
        {
          "internalType": "uint256",
          "name": "",
          "type": "uint256"
        }
      ],
      "stateMutability": "view",
      "type": "function"
    }
  ],
  "transactionHash": "0x543db9415a81a9c54f829ca3dc8aeaa60b2a4e6216d850828979778f74eabf2c",
  "args": [
    "0x58E8dCC13BE9780fC42E8723D8EaD4CF46943dF2",
    "0x77777FeDdddFfC19Ff86DB637967013e6C6A116C"
  ],
  "numDeployments": 1,
  "solcInputHash": "8a0492c1571882e36046aa37bef8c8bf",
  "bytecode": "0x60c06040523480156200001157600080fd5b5060405162001f2238038062001f22833981016040819052620000349162000069565b6001600160a01b039081166080521660a052620000a1565b80516001600160a01b03811681146200006457600080fd5b919050565b600080604083850312156200007d57600080fd5b62000088836200004c565b915062000098602084016200004c565b90509250929050565b60805160a051611e4d620000d560003960008181610484015261099e0152600081816103240152610ea50152611e4d6000f3fe608060405234801561001057600080fd5b50600436106102115760003560e01c80636b72a3d011610125578063a457c2d7116100ad578063c96f3dd31161007c578063c96f3dd3146104a6578063dd62ed3e146104af578063e94ad65b146104c2578063ea9b717e146104d5578063f2fde38b146104e857600080fd5b8063a457c2d714610446578063a9059cbb14610459578063b3ab15fb1461046c578063b91476f21461047f57600080fd5b80638da5cb5b116100f45780638da5cb5b146103ff578063923074ca146104105780639357c808146104235780639380f9731461042b57806395d89b411461043e57600080fd5b80636b72a3d0146103a857806370a08231146103bb578063715018a6146103e45780638be0099c146103ec57600080fd5b80632603c1be116101a857806331e819211161017757806331e819211461031f57806339509351146103465780634b6c6b2c146103595780635058c46014610382578063570ca7351461039557600080fd5b80632603c1be146102e057806329ab2c74146102f55780632f684b76146102fd578063313ce5671461031057600080fd5b806318160ddd116101e457806318160ddd1461028757806322a137e01461028f57806323897f4f146102a257806323b872dd146102cd57600080fd5b80630404bb3d1461021657806306fdde031461023c578063072e6bd014610251578063095ea7b314610264575b600080fd5b6102296102243660046119e4565b6104fb565b6040519081526020015b60405180910390f35b61024461062b565b6040516102339190611a0e565b61022961025f366004611a63565b6106bd565b6102776102723660046119e4565b61074d565b6040519015158152602001610233565b606754610229565b61022961029d366004611a7c565b610786565b6099546102b5906001600160a01b031681565b6040516001600160a01b039091168152602001610233565b6102776102db366004611a9e565b610804565b6102f36102ee366004611ada565b610872565b005b61022961094d565b609b546102b5906001600160a01b031681565b60405160128152602001610233565b6102b57f000000000000000000000000000000000000000000000000000000000000000081565b6102776103543660046119e4565b610a3d565b6102b5610367366004611a63565b609d602052600090815260409020546001600160a01b031681565b6102f36103903660046119e4565b610a5f565b609a546102b5906001600160a01b031681565b6102f36103b6366004611ada565b610ac7565b6102296103c9366004611a7c565b6001600160a01b031660009081526065602052604090205490565b6102f3610b3e565b6102f36103fa366004611a63565b610b74565b6033546001600160a01b03166102b5565b6102f361041e3660046119e4565b610c7c565b610229610e03565b6102f3610439366004611a63565b610fab565b610244611041565b6102776104543660046119e4565b611050565b6102776104673660046119e4565b6110d6565b6102f361047a366004611a7c565b611147565b6102b57f000000000000000000000000000000000000000000000000000000000000000081565b610229609c5481565b6102296104bd366004611b2e565b611193565b6098546102b5906001600160a01b031681565b6097546102b5906001600160a01b031681565b6102f36104f6366004611a7c565b6111be565b6098546000906001600160a01b0316331461055d5760405162461bcd60e51b815260206004820152601d60248201527f43616c6c6572206973206e6f74206465706f736974436f6e747261637400000060448201526064015b60405180910390fd5b600061056860675490565b905060008161058f5761057d6012600a611c5b565b61058890600a611c6a565b9050610617565b306001600160a01b0316639357c8086040518163ffffffff1660e01b815260040160206040518083038186803b1580156105c857600080fd5b505afa1580156105dc573d6000803e3d6000fd5b505050506040513d601f19601f820116820180604052508101906106009190611c89565b61060a8584611c6a565b6106149190611ca2565b90505b6106218582611259565b9150505b92915050565b60606068805461063a90611cc4565b80601f016020809104026020016040519081016040528092919081815260200182805461066690611cc4565b80156106b35780601f10610688576101008083540402835291602001916106b3565b820191906000526020600020905b81548152906001019060200180831161069657829003601f168201915b5050505050905090565b60006106c860675490565b306001600160a01b0316639357c8086040518163ffffffff1660e01b815260040160206040518083038186803b15801561070157600080fd5b505afa158015610715573d6000803e3d6000fd5b505050506040513d601f19601f820116820180604052508101906107399190611c89565b6107439084611c6a565b6106259190611ca2565b60405162461bcd60e51b815260206004820152600b60248201526a65727220617070726f766560a81b6044820152600090606401610554565b6040516370a0823160e01b81526001600160a01b03821660048201526000906106259030906370a082319060240160206040518083038186803b1580156107cc57600080fd5b505afa1580156107e0573d6000803e3d6000fd5b505050506040513d601f19601f8201168201806040525081019061025f9190611c89565b6097546000906001600160a01b0316336001600160a01b03161461085d5760405162461bcd60e51b815260206004820152601060248201526f657272207472616e7366657246726f6d60801b6044820152606401610554565b610868848484611338565b5060019392505050565b600061087e6001611507565b90508015610896576000805461ff0019166101001790555b6108a285858585610ac7565b6108f86040518060400160405280600b81526020016a72656c617965725f64616f60a81b815250604051806040016040528060118152602001703932b630bcb2b92fb230b7afba37b5b2b760791b815250611594565b6109006115c5565b8015610946576000805461ff0019169055604051600181527f7f26b83ff96e1f2b6a682f133852f6798a09c465da95921460cefb38474024989060200160405180910390a15b5050505050565b609c546000908190815b81811015610a37576000818152609d60205260409020546001600160a01b031692508215610a255760405163b971a6bf60e01b81526001600160a01b0384811660048301527f0000000000000000000000000000000000000000000000000000000000000000169063b971a6bf9060240160206040518083038186803b1580156109e057600080fd5b505afa1580156109f4573d6000803e3d6000fd5b505050506040513d601f19601f82011682018060405250810190610a189190611c89565b610a229085611cff565b93505b80610a2f81611d17565b915050610957565b50505090565b600033610868818585610a508383611193565b610a5a9190611cff565b6115f4565b6098546001600160a01b03163314610ab95760405162461bcd60e51b815260206004820152601d60248201527f43616c6c6572206973206e6f74206465706f736974436f6e74726163740000006044820152606401610554565b610ac38282611719565b5050565b600054610100900460ff16610aee5760405162461bcd60e51b815260040161055490611d32565b609980546001600160a01b039586166001600160a01b03199182161790915560988054948616948216949094179093556097805492851692841692909217909155609b8054919093169116179055565b6033546001600160a01b03163314610b685760405162461bcd60e51b815260040161055490611d7d565b610b726000611864565b565b6033546001600160a01b03163314610b9e5760405162461bcd60e51b815260040161055490611d7d565b609c548110610be15760405162461bcd60e51b815260206004820152600f60248201526e0e8dede40d8c2e4ceca40d2dcc8caf608b1b6044820152606401610554565b609c54610bef826001611cff565b1415610c0e576001609c6000828254610c089190611db2565b90915550505b6000818152609d60205260409020546001600160a01b0316610c5e5760405162461bcd60e51b815260206004820152600960248201526834b73232bc1032b93960b91b6044820152606401610554565b6000908152609d6020526040902080546001600160a01b0319169055565b6033546001600160a01b03163314610ca65760405162461bcd60e51b815260040161055490611d7d565b609c54811115610cea5760405162461bcd60e51b815260206004820152600f60248201526e0e8dede40d8c2e4ceca40d2dcc8caf608b1b6044820152606401610554565b609c5460005b81811015610d5f576000818152609d60205260409020546001600160a01b0385811691161415610d4d5760405162461bcd60e51b81526020600482015260086024820152671c995c19585d195960c21b6044820152606401610554565b80610d5781611d17565b915050610cf0565b50609c54821415610d83576001609c6000828254610d7d9190611cff565b90915550505b6000828152609d60205260409020546001600160a01b031615610dd45760405162461bcd60e51b815260206004820152600960248201526834b73232bc1032b93960b91b6044820152606401610554565b506000908152609d6020526040902080546001600160a01b0319166001600160a01b0392909216919091179055565b6098546040805163e2e622cd60e01b815290516000926001600160a01b03169163e2e622cd916004808301926020929190829003018186803b158015610e4857600080fd5b505afa158015610e5c573d6000803e3d6000fd5b505050506040513d601f19601f82011682018060405250810190610e809190611c89565b6099546040516370a0823160e01b81526001600160a01b0391821660048201529192507f000000000000000000000000000000000000000000000000000000000000000016906370a082319060240160206040518083038186803b158015610ee757600080fd5b505afa158015610efb573d6000803e3d6000fd5b505050506040513d601f19601f82011682018060405250810190610f1f9190611c89565b610f299082611cff565b9050306001600160a01b03166329ab2c746040518163ffffffff1660e01b815260040160206040518083038186803b158015610f6457600080fd5b505afa158015610f78573d6000803e3d6000fd5b505050506040513d601f19601f82011682018060405250810190610f9c9190611c89565b610fa69082611cff565b905090565b6099546001600160a01b031633146110055760405162461bcd60e51b815260206004820152601c60248201527f43616c6c6572206973206e6f7420696e436f6d65436f6e7472616374000000006044820152606401610554565b60408051338152602081018390527f0d2e009b696be50eaeafa43283c2e91362ec7d038b2af93783ec767d536ad278910160405180910390a150565b60606069805461063a90611cc4565b6000338161105e8286611193565b9050838110156110be5760405162461bcd60e51b815260206004820152602560248201527f45524332303a2064656372656173656420616c6c6f77616e63652062656c6f77604482015264207a65726f60d81b6064820152608401610554565b6110cb82868684036115f4565b506001949350505050565b60975460009033906001600160a01b031681148061110157506097546001600160a01b038581169116145b61113c5760405162461bcd60e51b815260206004820152600c60248201526b32b939103a3930b739b332b960a11b6044820152606401610554565b610868818585611338565b6033546001600160a01b031633146111715760405162461bcd60e51b815260040161055490611d7d565b609a80546001600160a01b0319166001600160a01b0392909216919091179055565b6001600160a01b03918216600090815260666020908152604080832093909416825291909152205490565b6033546001600160a01b031633146111e85760405162461bcd60e51b815260040161055490611d7d565b6001600160a01b03811661124d5760405162461bcd60e51b815260206004820152602660248201527f4f776e61626c653a206e6577206f776e657220697320746865207a65726f206160448201526564647265737360d01b6064820152608401610554565b61125681611864565b50565b6001600160a01b0382166112af5760405162461bcd60e51b815260206004820152601f60248201527f45524332303a206d696e7420746f20746865207a65726f2061646472657373006044820152606401610554565b80606760008282546112c19190611cff565b90915550506001600160a01b038216600090815260656020526040812080548392906112ee908490611cff565b90915550506040518181526001600160a01b038316906000907fddf252ad1be2c89b69c2b068fc378daa952ba7f163c4a11628f55a4df523b3ef9060200160405180910390a35050565b6001600160a01b03831661139c5760405162461bcd60e51b815260206004820152602560248201527f45524332303a207472616e736665722066726f6d20746865207a65726f206164604482015264647265737360d81b6064820152608401610554565b6001600160a01b0382166113fe5760405162461bcd60e51b815260206004820152602360248201527f45524332303a207472616e7366657220746f20746865207a65726f206164647260448201526265737360e81b6064820152608401610554565b6001600160a01b038316600090815260656020526040902054818110156114765760405162461bcd60e51b815260206004820152602660248201527f45524332303a207472616e7366657220616d6f756e7420657863656564732062604482015265616c616e636560d01b6064820152608401610554565b6001600160a01b038085166000908152606560205260408082208585039055918516815290812080548492906114ad908490611cff565b92505081905550826001600160a01b0316846001600160a01b03167fddf252ad1be2c89b69c2b068fc378daa952ba7f163c4a11628f55a4df523b3ef846040516114f991815260200190565b60405180910390a350505050565b60008054610100900460ff161561154e578160ff16600114801561152a5750303b155b6115465760405162461bcd60e51b815260040161055490611dc9565b506000919050565b60005460ff8084169116106115755760405162461bcd60e51b815260040161055490611dc9565b506000805460ff191660ff92909216919091179055600190565b919050565b600054610100900460ff166115bb5760405162461bcd60e51b815260040161055490611d32565b610ac382826118b6565b600054610100900460ff166115ec5760405162461bcd60e51b815260040161055490611d32565b610b72611904565b6001600160a01b0383166116565760405162461bcd60e51b8152602060048201526024808201527f45524332303a20617070726f76652066726f6d20746865207a65726f206164646044820152637265737360e01b6064820152608401610554565b6001600160a01b0382166116b75760405162461bcd60e51b815260206004820152602260248201527f45524332303a20617070726f766520746f20746865207a65726f206164647265604482015261737360f01b6064820152608401610554565b6001600160a01b0383811660008181526066602090815260408083209487168084529482529182902085905590518481527f8c5be1e5ebec7d5bd14f71427d1e84f3dd0314c0f7b2291e5b200ac8c7c3b92591015b60405180910390a3505050565b6001600160a01b0382166117795760405162461bcd60e51b815260206004820152602160248201527f45524332303a206275726e2066726f6d20746865207a65726f206164647265736044820152607360f81b6064820152608401610554565b6001600160a01b038216600090815260656020526040902054818110156117ed5760405162461bcd60e51b815260206004820152602260248201527f45524332303a206275726e20616d6f756e7420657863656564732062616c616e604482015261636560f01b6064820152608401610554565b6001600160a01b038316600090815260656020526040812083830390556067805484929061181c908490611db2565b90915550506040518281526000906001600160a01b038516907fddf252ad1be2c89b69c2b068fc378daa952ba7f163c4a11628f55a4df523b3ef9060200161170c565b505050565b603380546001600160a01b038381166001600160a01b0319831681179093556040519116919082907f8be0079c531659141344cd1fd0a4f28419497f9722a3daafe3b4186f6b6457e090600090a35050565b600054610100900460ff166118dd5760405162461bcd60e51b815260040161055490611d32565b81516118f0906068906020850190611934565b50805161185f906069906020840190611934565b600054610100900460ff1661192b5760405162461bcd60e51b815260040161055490611d32565b610b7233611864565b82805461194090611cc4565b90600052602060002090601f01602090048101928261196257600085556119a8565b82601f1061197b57805160ff19168380011785556119a8565b828001600101855582156119a8579182015b828111156119a857825182559160200191906001019061198d565b506119b49291506119b8565b5090565b5b808211156119b457600081556001016119b9565b80356001600160a01b038116811461158f57600080fd5b600080604083850312156119f757600080fd5b611a00836119cd565b946020939093013593505050565b600060208083528351808285015260005b81811015611a3b57858101830151858201604001528201611a1f565b81811115611a4d576000604083870101525b50601f01601f1916929092016040019392505050565b600060208284031215611a7557600080fd5b5035919050565b600060208284031215611a8e57600080fd5b611a97826119cd565b9392505050565b600080600060608486031215611ab357600080fd5b611abc846119cd565b9250611aca602085016119cd565b9150604084013590509250925092565b60008060008060808587031215611af057600080fd5b611af9856119cd565b9350611b07602086016119cd565b9250611b15604086016119cd565b9150611b23606086016119cd565b905092959194509250565b60008060408385031215611b4157600080fd5b611b4a836119cd565b9150611b58602084016119cd565b90509250929050565b634e487b7160e01b600052601160045260246000fd5b600181815b80851115611bb2578160001904821115611b9857611b98611b61565b80851615611ba557918102915b93841c9390800290611b7c565b509250929050565b600082611bc957506001610625565b81611bd657506000610625565b8160018114611bec5760028114611bf657611c12565b6001915050610625565b60ff841115611c0757611c07611b61565b50506001821b610625565b5060208310610133831016604e8410600b8410161715611c35575081810a610625565b611c3f8383611b77565b8060001904821115611c5357611c53611b61565b029392505050565b6000611a9760ff841683611bba565b6000816000190483118215151615611c8457611c84611b61565b500290565b600060208284031215611c9b57600080fd5b5051919050565b600082611cbf57634e487b7160e01b600052601260045260246000fd5b500490565b600181811c90821680611cd857607f821691505b60208210811415611cf957634e487b7160e01b600052602260045260246000fd5b50919050565b60008219821115611d1257611d12611b61565b500190565b6000600019821415611d2b57611d2b611b61565b5060010190565b6020808252602b908201527f496e697469616c697a61626c653a20636f6e7472616374206973206e6f74206960408201526a6e697469616c697a696e6760a81b606082015260800190565b6020808252818101527f4f776e61626c653a2063616c6c6572206973206e6f7420746865206f776e6572604082015260600190565b600082821015611dc457611dc4611b61565b500390565b6020808252602e908201527f496e697469616c697a61626c653a20636f6e747261637420697320616c72656160408201526d191e481a5b9a5d1a585b1a5e995960921b60608201526080019056fea26469706673582212206d4c1495c6db62e5b65982e29afede1af38167248bb176b0e5c49e259cc8507464736f6c63430008090033",
  "devdoc": {
    "kind": "dev",
    "methods": {
      "allowance(address,address)": {
        "details": "See {IERC20-allowance}."
      },
      "approve(address,uint256)": {
        "details": "See {IERC20-approve}. NOTE: If `amount` is the maximum `uint256`, the allowance is not updated on `transferFrom`. This is semantically equivalent to an infinite approval. Requirements: - `spender` cannot be the zero address."
      },
      "balanceOf(address)": {
        "details": "See {IERC20-balanceOf}."
      },
      "decimals()": {
        "details": "Returns the number of decimals used to get its user representation. For example, if `decimals` equals `2`, a balance of `505` tokens should be displayed to a user as `5.05` (`505 / 10 ** 2`). Tokens usually opt for a value of 18, imitating the relationship between Ether and Wei. This is the value {ERC20} uses, unless this function is overridden; NOTE: This information is only used for _display_ purposes: it in no way affects any of the arithmetic of the contract, including {IERC20-balanceOf} and {IERC20-transfer}."
      },
      "decreaseAllowance(address,uint256)": {
        "details": "Atomically decreases the allowance granted to `spender` by the caller. This is an alternative to {approve} that can be used as a mitigation for problems described in {IERC20-approve}. Emits an {Approval} event indicating the updated allowance. Requirements: - `spender` cannot be the zero address. - `spender` must have allowance for the caller of at least `subtractedValue`."
      },
      "increaseAllowance(address,uint256)": {
        "details": "Atomically increases the allowance granted to `spender` by the caller. This is an alternative to {approve} that can be used as a mitigation for problems described in {IERC20-approve}. Emits an {Approval} event indicating the updated allowance. Requirements: - `spender` cannot be the zero address."
      },
      "name()": {
        "details": "Returns the name of the token."
      },
      "owner()": {
        "details": "Returns the address of the current owner."
      },
      "renounceOwnership()": {
        "details": "Leaves the contract without owner. It will not be possible to call `onlyOwner` functions anymore. Can only be called by the current owner. NOTE: Renouncing ownership will leave the contract without an owner, thereby removing any functionality that is only available to the owner."
      },
      "symbol()": {
        "details": "Returns the symbol of the token, usually a shorter version of the name."
      },
      "totalSupply()": {
        "details": "See {IERC20-totalSupply}."
      },
      "transfer(address,uint256)": {
        "details": "See {IERC20-transfer}. Requirements: - `to` cannot be the zero address. - the caller must have a balance of at least `amount`."
      },
      "transferFrom(address,address,uint256)": {
        "details": "See {IERC20-transferFrom}. Emits an {Approval} event indicating the updated allowance. This is not required by the EIP. See the note at the beginning of {ERC20}. NOTE: Does not update the allowance if the current allowance is the maximum `uint256`. Requirements: - `from` and `to` cannot be the zero address. - `from` must have a balance of at least `amount`. - the caller must have allowance for ``from``'s tokens of at least `amount`."
      },
      "transferOwnership(address)": {
        "details": "Transfers ownership of the contract to a new account (`newOwner`). Can only be called by the current owner."
      }
    },
    "version": 1
  },
  "userdoc": {
    "kind": "user",
    "methods": {
      "__RootManger_init(address,address,address,address)": {
        "notice": "---------- init ---------- *"
      },
      "constructor": {
        "notice": "---------address immutable- constructor ---------- *"
      }
    },
    "version": 1
  },
  "storageLayout": {
    "storage": [
      {
        "astId": 130,
        "contract": "contracts/RootManger.sol:RootManger",
        "label": "_initialized",
        "offset": 0,
        "slot": "0",
        "type": "t_uint8"
      },
      {
        "astId": 133,
        "contract": "contracts/RootManger.sol:RootManger",
        "label": "_initializing",
        "offset": 1,
        "slot": "0",
        "type": "t_bool"
      },
      {
        "astId": 1773,
        "contract": "contracts/RootManger.sol:RootManger",
        "label": "__gap",
        "offset": 0,
        "slot": "1",
        "type": "t_array(t_uint256)50_storage"
      },
      {
        "astId": 10,
        "contract": "contracts/RootManger.sol:RootManger",
        "label": "_owner",
        "offset": 0,
        "slot": "51",
        "type": "t_address"
      },
      {
        "astId": 122,
        "contract": "contracts/RootManger.sol:RootManger",
        "label": "__gap",
        "offset": 0,
        "slot": "52",
        "type": "t_array(t_uint256)49_storage"
      },
      {
        "astId": 343,
        "contract": "contracts/RootManger.sol:RootManger",
        "label": "_balances",
        "offset": 0,
        "slot": "101",
        "type": "t_mapping(t_address,t_uint256)"
      },
      {
        "astId": 349,
        "contract": "contracts/RootManger.sol:RootManger",
        "label": "_allowances",
        "offset": 0,
        "slot": "102",
        "type": "t_mapping(t_address,t_mapping(t_address,t_uint256))"
      },
      {
        "astId": 351,
        "contract": "contracts/RootManger.sol:RootManger",
        "label": "_totalSupply",
        "offset": 0,
        "slot": "103",
        "type": "t_uint256"
      },
      {
        "astId": 353,
        "contract": "contracts/RootManger.sol:RootManger",
        "label": "_name",
        "offset": 0,
        "slot": "104",
        "type": "t_string_storage"
      },
      {
        "astId": 355,
        "contract": "contracts/RootManger.sol:RootManger",
        "label": "_symbol",
        "offset": 0,
        "slot": "105",
        "type": "t_string_storage"
      },
      {
        "astId": 934,
        "contract": "contracts/RootManger.sol:RootManger",
        "label": "__gap",
        "offset": 0,
        "slot": "106",
        "type": "t_array(t_uint256)45_storage"
      },
      {
        "astId": 6776,
        "contract": "contracts/RootManger.sol:RootManger",
        "label": "exitQueueContract",
        "offset": 0,
        "slot": "151",
        "type": "t_address"
      },
      {
        "astId": 6779,
        "contract": "contracts/RootManger.sol:RootManger",
        "label": "depositContract",
        "offset": 0,
        "slot": "152",
        "type": "t_address"
      },
      {
        "astId": 6782,
        "contract": "contracts/RootManger.sol:RootManger",
        "label": "inComeContract",
        "offset": 0,
        "slot": "153",
        "type": "t_address"
      },
      {
        "astId": 6785,
        "contract": "contracts/RootManger.sol:RootManger",
        "label": "operator",
        "offset": 0,
        "slot": "154",
        "type": "t_address"
      },
      {
        "astId": 6787,
        "contract": "contracts/RootManger.sol:RootManger",
        "label": "profitRecord",
        "offset": 0,
        "slot": "155",
        "type": "t_address"
      },
      {
        "astId": 6789,
        "contract": "contracts/RootManger.sol:RootManger",
        "label": "MAX_RELAYER_COUNTER",
        "offset": 0,
        "slot": "156",
        "type": "t_uint256"
      },
      {
        "astId": 6794,
        "contract": "contracts/RootManger.sol:RootManger",
        "label": "_relayers",
        "offset": 0,
        "slot": "157",
        "type": "t_mapping(t_uint256,t_address)"
      }
    ],
    "types": {
      "t_address": {
        "encoding": "inplace",
        "label": "address",
        "numberOfBytes": "20"
      },
      "t_array(t_uint256)45_storage": {
        "base": "t_uint256",
        "encoding": "inplace",
        "label": "uint256[45]",
        "numberOfBytes": "1440"
      },
      "t_array(t_uint256)49_storage": {
        "base": "t_uint256",
        "encoding": "inplace",
        "label": "uint256[49]",
        "numberOfBytes": "1568"
      },
      "t_array(t_uint256)50_storage": {
        "base": "t_uint256",
        "encoding": "inplace",
        "label": "uint256[50]",
        "numberOfBytes": "1600"
      },
      "t_bool": {
        "encoding": "inplace",
        "label": "bool",
        "numberOfBytes": "1"
      },
      "t_mapping(t_address,t_mapping(t_address,t_uint256))": {
        "encoding": "mapping",
        "key": "t_address",
        "label": "mapping(address => mapping(address => uint256))",
        "numberOfBytes": "32",
        "value": "t_mapping(t_address,t_uint256)"
      },
      "t_mapping(t_address,t_uint256)": {
        "encoding": "mapping",
        "key": "t_address",
        "label": "mapping(address => uint256)",
        "numberOfBytes": "32",
        "value": "t_uint256"
      },
      "t_mapping(t_uint256,t_address)": {
        "encoding": "mapping",
        "key": "t_uint256",
        "label": "mapping(uint256 => address)",
        "numberOfBytes": "32",
        "value": "t_address"
      },
      "t_string_storage": {
        "encoding": "bytes",
        "label": "string",
        "numberOfBytes": "32"
      },
      "t_uint256": {
        "encoding": "inplace",
        "label": "uint256",
        "numberOfBytes": "32"
      },
      "t_uint8": {
        "encoding": "inplace",
        "label": "uint8",
        "numberOfBytes": "1"
      }
    }
  }
}